{
	"payable_example.sol": {
		"PayableExample": {
			"abi": [
				{
					"inputs": [
						{
							"internalType": "address",
							"name": "_token",
							"type": "address"
						},
						{
							"internalType": "address payable",
							"name": "_wallet",
							"type": "address"
						}
					],
					"stateMutability": "nonpayable",
					"type": "constructor"
				},
				{
					"anonymous": false,
					"inputs": [
						{
							"indexed": false,
							"internalType": "address",
							"name": "_buyer",
							"type": "address"
						},
						{
							"indexed": false,
							"internalType": "uint256",
							"name": "_amount",
							"type": "uint256"
						}
					],
					"name": "Purchase",
					"type": "event"
				},
				{
					"inputs": [],
					"name": "buyToken",
					"outputs": [],
					"stateMutability": "payable",
					"type": "function"
				}
			],
			"devdoc": {
				"kind": "dev",
				"methods": {},
				"version": 1
			},
			"evm": {
				"assembly": "    /* \"payable_example.sol\":217:815  contract PayableExample {... */\n  mstore(0x40, 0x80)\n    /* \"payable_example.sol\":423:533  constructor(address _token, address payable _wallet) {... */\n  callvalue\n  dup1\n  iszero\n  tag_1\n  jumpi\n  0x00\n  dup1\n  revert\ntag_1:\n  pop\n  mload(0x40)\n  sub(codesize, bytecodeSize)\n  dup1\n  bytecodeSize\n  dup4\n  codecopy\n  dup2\n  dup2\n  add\n  0x40\n  mstore\n  dup2\n  add\n  swap1\n  tag_2\n  swap2\n  swap1\n  tag_3\n  jump\t// in\ntag_2:\n    /* \"payable_example.sol\":494:500  _token */\n  dup2\n    /* \"payable_example.sol\":486:491  token */\n  0x01\n  0x00\n    /* \"payable_example.sol\":486:500  token = _token */\n  0x0100\n  exp\n  dup2\n  sload\n  dup2\n  0xffffffffffffffffffffffffffffffffffffffff\n  mul\n  not\n  and\n  swap1\n  dup4\n  0xffffffffffffffffffffffffffffffffffffffff\n  and\n  mul\n  or\n  swap1\n  sstore\n  pop\n    /* \"payable_example.sol\":519:526  _wallet */\n  dup1\n    /* \"payable_example.sol\":510:516  wallet */\n  0x00\n  dup1\n    /* \"payable_example.sol\":510:526  wallet = _wallet */\n  0x0100\n  exp\n  dup2\n  sload\n  dup2\n  0xffffffffffffffffffffffffffffffffffffffff\n  mul\n  not\n  and\n  swap1\n  dup4\n  0xffffffffffffffffffffffffffffffffffffffff\n  and\n  mul\n  or\n  swap1\n  sstore\n  pop\n    /* \"payable_example.sol\":423:533  constructor(address _token, address payable _wallet) {... */\n  pop\n  pop\n    /* \"payable_example.sol\":217:815  contract PayableExample {... */\n  jump(tag_6)\n    /* \"#utility.yul\":88:205   */\ntag_8:\n    /* \"#utility.yul\":197:198   */\n  0x00\n    /* \"#utility.yul\":194:195   */\n  dup1\n    /* \"#utility.yul\":187:199   */\n  revert\n    /* \"#utility.yul\":334:460   */\ntag_10:\n    /* \"#utility.yul\":371:378   */\n  0x00\n    /* \"#utility.yul\":411:453   */\n  0xffffffffffffffffffffffffffffffffffffffff\n    /* \"#utility.yul\":404:409   */\n  dup3\n    /* \"#utility.yul\":400:454   */\n  and\n    /* \"#utility.yul\":389:454   */\n  swap1\n  pop\n    /* \"#utility.yul\":334:460   */\n  swap2\n  swap1\n  pop\n  jump\t// out\n    /* \"#utility.yul\":466:562   */\ntag_11:\n    /* \"#utility.yul\":503:510   */\n  0x00\n    /* \"#utility.yul\":532:556   */\n  tag_23\n    /* \"#utility.yul\":550:555   */\n  dup3\n    /* \"#utility.yul\":532:556   */\n  tag_10\n  jump\t// in\ntag_23:\n    /* \"#utility.yul\":521:556   */\n  swap1\n  pop\n    /* \"#utility.yul\":466:562   */\n  swap2\n  swap1\n  pop\n  jump\t// out\n    /* \"#utility.yul\":568:690   */\ntag_12:\n    /* \"#utility.yul\":641:665   */\n  tag_25\n    /* \"#utility.yul\":659:664   */\n  dup2\n    /* \"#utility.yul\":641:665   */\n  tag_11\n  jump\t// in\ntag_25:\n    /* \"#utility.yul\":634:639   */\n  dup2\n    /* \"#utility.yul\":631:666   */\n  eq\n    /* \"#utility.yul\":621:684   */\n  tag_26\n  jumpi\n    /* \"#utility.yul\":680:681   */\n  0x00\n    /* \"#utility.yul\":677:678   */\n  dup1\n    /* \"#utility.yul\":670:682   */\n  revert\n    /* \"#utility.yul\":621:684   */\ntag_26:\n    /* \"#utility.yul\":568:690   */\n  pop\n  jump\t// out\n    /* \"#utility.yul\":696:839   */\ntag_13:\n    /* \"#utility.yul\":753:758   */\n  0x00\n    /* \"#utility.yul\":784:790   */\n  dup2\n    /* \"#utility.yul\":778:791   */\n  mload\n    /* \"#utility.yul\":769:791   */\n  swap1\n  pop\n    /* \"#utility.yul\":800:833   */\n  tag_28\n    /* \"#utility.yul\":827:832   */\n  dup2\n    /* \"#utility.yul\":800:833   */\n  tag_12\n  jump\t// in\ntag_28:\n    /* \"#utility.yul\":696:839   */\n  swap3\n  swap2\n  pop\n  pop\n  jump\t// out\n    /* \"#utility.yul\":845:949   */\ntag_14:\n    /* \"#utility.yul\":890:897   */\n  0x00\n    /* \"#utility.yul\":919:943   */\n  tag_30\n    /* \"#utility.yul\":937:942   */\n  dup3\n    /* \"#utility.yul\":919:943   */\n  tag_10\n  jump\t// in\ntag_30:\n    /* \"#utility.yul\":908:943   */\n  swap1\n  pop\n    /* \"#utility.yul\":845:949   */\n  swap2\n  swap1\n  pop\n  jump\t// out\n    /* \"#utility.yul\":955:1093   */\ntag_15:\n    /* \"#utility.yul\":1036:1068   */\n  tag_32\n    /* \"#utility.yul\":1062:1067   */\n  dup2\n    /* \"#utility.yul\":1036:1068   */\n  tag_14\n  jump\t// in\ntag_32:\n    /* \"#utility.yul\":1029:1034   */\n  dup2\n    /* \"#utility.yul\":1026:1069   */\n  eq\n    /* \"#utility.yul\":1016:1087   */\n  tag_33\n  jumpi\n    /* \"#utility.yul\":1083:1084   */\n  0x00\n    /* \"#utility.yul\":1080:1081   */\n  dup1\n    /* \"#utility.yul\":1073:1085   */\n  revert\n    /* \"#utility.yul\":1016:1087   */\ntag_33:\n    /* \"#utility.yul\":955:1093   */\n  pop\n  jump\t// out\n    /* \"#utility.yul\":1099:1258   */\ntag_16:\n    /* \"#utility.yul\":1164:1169   */\n  0x00\n    /* \"#utility.yul\":1195:1201   */\n  dup2\n    /* \"#utility.yul\":1189:1202   */\n  mload\n    /* \"#utility.yul\":1180:1202   */\n  swap1\n  pop\n    /* \"#utility.yul\":1211:1252   */\n  tag_35\n    /* \"#utility.yul\":1246:1251   */\n  dup2\n    /* \"#utility.yul\":1211:1252   */\n  tag_15\n  jump\t// in\ntag_35:\n    /* \"#utility.yul\":1099:1258   */\n  swap3\n  swap2\n  pop\n  pop\n  jump\t// out\n    /* \"#utility.yul\":1264:1787   */\ntag_3:\n    /* \"#utility.yul\":1351:1357   */\n  0x00\n    /* \"#utility.yul\":1359:1365   */\n  dup1\n    /* \"#utility.yul\":1408:1410   */\n  0x40\n    /* \"#utility.yul\":1396:1405   */\n  dup4\n    /* \"#utility.yul\":1387:1394   */\n  dup6\n    /* \"#utility.yul\":1383:1406   */\n  sub\n    /* \"#utility.yul\":1379:1411   */\n  slt\n    /* \"#utility.yul\":1376:1495   */\n  iszero\n  tag_37\n  jumpi\n    /* \"#utility.yul\":1414:1493   */\n  tag_38\n  tag_8\n  jump\t// in\ntag_38:\n    /* \"#utility.yul\":1376:1495   */\ntag_37:\n    /* \"#utility.yul\":1534:1535   */\n  0x00\n    /* \"#utility.yul\":1559:1623   */\n  tag_39\n    /* \"#utility.yul\":1615:1622   */\n  dup6\n    /* \"#utility.yul\":1606:1612   */\n  dup3\n    /* \"#utility.yul\":1595:1604   */\n  dup7\n    /* \"#utility.yul\":1591:1613   */\n  add\n    /* \"#utility.yul\":1559:1623   */\n  tag_13\n  jump\t// in\ntag_39:\n    /* \"#utility.yul\":1549:1623   */\n  swap3\n  pop\n    /* \"#utility.yul\":1505:1633   */\n  pop\n    /* \"#utility.yul\":1672:1674   */\n  0x20\n    /* \"#utility.yul\":1698:1770   */\n  tag_40\n    /* \"#utility.yul\":1762:1769   */\n  dup6\n    /* \"#utility.yul\":1753:1759   */\n  dup3\n    /* \"#utility.yul\":1742:1751   */\n  dup7\n    /* \"#utility.yul\":1738:1760   */\n  add\n    /* \"#utility.yul\":1698:1770   */\n  tag_16\n  jump\t// in\ntag_40:\n    /* \"#utility.yul\":1688:1770   */\n  swap2\n  pop\n    /* \"#utility.yul\":1643:1780   */\n  pop\n    /* \"#utility.yul\":1264:1787   */\n  swap3\n  pop\n  swap3\n  swap1\n  pop\n  jump\t// out\n    /* \"payable_example.sol\":217:815  contract PayableExample {... */\ntag_6:\n  dataSize(sub_0)\n  dup1\n  dataOffset(sub_0)\n  0x00\n  codecopy\n  0x00\n  return\nstop\n\nsub_0: assembly {\n        /* \"payable_example.sol\":217:815  contract PayableExample {... */\n      mstore(0x40, 0x80)\n      jumpi(tag_1, lt(calldatasize, 0x04))\n      shr(0xe0, calldataload(0x00))\n      dup1\n      0xa4821719\n      eq\n      tag_2\n      jumpi\n    tag_1:\n      0x00\n      dup1\n      revert\n        /* \"payable_example.sol\":539:812  function buyToken() public payable {... */\n    tag_2:\n      tag_3\n      tag_4\n      jump\t// in\n    tag_3:\n      stop\n    tag_4:\n        /* \"payable_example.sol\":604:605  0 */\n      0x00\n        /* \"payable_example.sol\":592:601  msg.value */\n      callvalue\n        /* \"payable_example.sol\":592:605  msg.value > 0 */\n      gt\n        /* \"payable_example.sol\":584:606  require(msg.value > 0) */\n      tag_6\n      jumpi\n      0x00\n      dup1\n      revert\n    tag_6:\n        /* \"payable_example.sol\":653:674  ERC20Token erc20Token */\n      0x00\n        /* \"payable_example.sol\":696:701  token */\n      0x01\n      0x00\n      swap1\n      sload\n      swap1\n      0x0100\n      exp\n      swap1\n      div\n      0xffffffffffffffffffffffffffffffffffffffff\n      and\n        /* \"payable_example.sol\":653:703  ERC20Token erc20Token = ERC20Token(address(token)) */\n      swap1\n      pop\n        /* \"payable_example.sol\":713:723  erc20Token */\n      dup1\n        /* \"payable_example.sol\":713:728  erc20Token.mint */\n      0xffffffffffffffffffffffffffffffffffffffff\n      and\n      0x1249c58b\n        /* \"payable_example.sol\":713:730  erc20Token.mint() */\n      mload(0x40)\n      dup2\n      0xffffffff\n      and\n      0xe0\n      shl\n      dup2\n      mstore\n      0x04\n      add\n      0x00\n      mload(0x40)\n      dup1\n      dup4\n      sub\n      dup2\n      0x00\n      dup8\n      dup1\n      extcodesize\n      iszero\n      dup1\n      iszero\n      tag_7\n      jumpi\n      0x00\n      dup1\n      revert\n    tag_7:\n      pop\n      gas\n      call\n      iszero\n      dup1\n      iszero\n      tag_9\n      jumpi\n      returndatasize\n      0x00\n      dup1\n      returndatacopy\n      revert(0x00, returndatasize)\n    tag_9:\n      pop\n      pop\n      pop\n      pop\n        /* \"payable_example.sol\":740:746  wallet */\n      0x00\n      dup1\n      sload\n      swap1\n      0x0100\n      exp\n      swap1\n      div\n      0xffffffffffffffffffffffffffffffffffffffff\n      and\n        /* \"payable_example.sol\":740:755  wallet.transfer */\n      0xffffffffffffffffffffffffffffffffffffffff\n      and\n        /* \"payable_example.sol\":740:766  wallet.transfer(msg.value) */\n      0x08fc\n        /* \"payable_example.sol\":756:765  msg.value */\n      callvalue\n        /* \"payable_example.sol\":740:766  wallet.transfer(msg.value) */\n      swap1\n      dup2\n      iszero\n      mul\n      swap1\n      mload(0x40)\n      0x00\n      mload(0x40)\n      dup1\n      dup4\n      sub\n      dup2\n      dup6\n      dup9\n      dup9\n      call\n      swap4\n      pop\n      pop\n      pop\n      pop\n      iszero\n      dup1\n      iszero\n      tag_11\n      jumpi\n      returndatasize\n      0x00\n      dup1\n      returndatacopy\n      revert(0x00, returndatasize)\n    tag_11:\n      pop\n        /* \"payable_example.sol\":782:805  Purchase(msg.sender, 1) */\n      0x2499a5330ab0979cc612135e7883ebc3cd5c9f7a8508f042540c34723348f632\n        /* \"payable_example.sol\":791:801  msg.sender */\n      caller\n        /* \"payable_example.sol\":803:804  1 */\n      0x01\n        /* \"payable_example.sol\":782:805  Purchase(msg.sender, 1) */\n      mload(0x40)\n      tag_12\n      swap3\n      swap2\n      swap1\n      tag_13\n      jump\t// in\n    tag_12:\n      mload(0x40)\n      dup1\n      swap2\n      sub\n      swap1\n      log1\n        /* \"payable_example.sol\":574:812  {... */\n      pop\n        /* \"payable_example.sol\":539:812  function buyToken() public payable {... */\n      jump\t// out\n        /* \"#utility.yul\":7:133   */\n    tag_14:\n        /* \"#utility.yul\":44:51   */\n      0x00\n        /* \"#utility.yul\":84:126   */\n      0xffffffffffffffffffffffffffffffffffffffff\n        /* \"#utility.yul\":77:82   */\n      dup3\n        /* \"#utility.yul\":73:127   */\n      and\n        /* \"#utility.yul\":62:127   */\n      swap1\n      pop\n        /* \"#utility.yul\":7:133   */\n      swap2\n      swap1\n      pop\n      jump\t// out\n        /* \"#utility.yul\":139:235   */\n    tag_15:\n        /* \"#utility.yul\":176:183   */\n      0x00\n        /* \"#utility.yul\":205:229   */\n      tag_25\n        /* \"#utility.yul\":223:228   */\n      dup3\n        /* \"#utility.yul\":205:229   */\n      tag_14\n      jump\t// in\n    tag_25:\n        /* \"#utility.yul\":194:229   */\n      swap1\n      pop\n        /* \"#utility.yul\":139:235   */\n      swap2\n      swap1\n      pop\n      jump\t// out\n        /* \"#utility.yul\":241:359   */\n    tag_16:\n        /* \"#utility.yul\":328:352   */\n      tag_27\n        /* \"#utility.yul\":346:351   */\n      dup2\n        /* \"#utility.yul\":328:352   */\n      tag_15\n      jump\t// in\n    tag_27:\n        /* \"#utility.yul\":323:326   */\n      dup3\n        /* \"#utility.yul\":316:353   */\n      mstore\n        /* \"#utility.yul\":241:359   */\n      pop\n      pop\n      jump\t// out\n        /* \"#utility.yul\":365:450   */\n    tag_17:\n        /* \"#utility.yul\":410:417   */\n      0x00\n        /* \"#utility.yul\":439:444   */\n      dup2\n        /* \"#utility.yul\":428:444   */\n      swap1\n      pop\n        /* \"#utility.yul\":365:450   */\n      swap2\n      swap1\n      pop\n      jump\t// out\n        /* \"#utility.yul\":456:533   */\n    tag_18:\n        /* \"#utility.yul\":493:500   */\n      0x00\n        /* \"#utility.yul\":522:527   */\n      dup2\n        /* \"#utility.yul\":511:527   */\n      swap1\n      pop\n        /* \"#utility.yul\":456:533   */\n      swap2\n      swap1\n      pop\n      jump\t// out\n        /* \"#utility.yul\":539:599   */\n    tag_19:\n        /* \"#utility.yul\":567:570   */\n      0x00\n        /* \"#utility.yul\":588:593   */\n      dup2\n        /* \"#utility.yul\":581:593   */\n      swap1\n      pop\n        /* \"#utility.yul\":539:599   */\n      swap2\n      swap1\n      pop\n      jump\t// out\n        /* \"#utility.yul\":605:763   */\n    tag_20:\n        /* \"#utility.yul\":663:672   */\n      0x00\n        /* \"#utility.yul\":696:757   */\n      tag_32\n        /* \"#utility.yul\":714:756   */\n      tag_33\n        /* \"#utility.yul\":723:755   */\n      tag_34\n        /* \"#utility.yul\":749:754   */\n      dup5\n        /* \"#utility.yul\":723:755   */\n      tag_17\n      jump\t// in\n    tag_34:\n        /* \"#utility.yul\":714:756   */\n      tag_19\n      jump\t// in\n    tag_33:\n        /* \"#utility.yul\":696:757   */\n      tag_18\n      jump\t// in\n    tag_32:\n        /* \"#utility.yul\":683:757   */\n      swap1\n      pop\n        /* \"#utility.yul\":605:763   */\n      swap2\n      swap1\n      pop\n      jump\t// out\n        /* \"#utility.yul\":769:916   */\n    tag_21:\n        /* \"#utility.yul\":864:909   */\n      tag_36\n        /* \"#utility.yul\":903:908   */\n      dup2\n        /* \"#utility.yul\":864:909   */\n      tag_20\n      jump\t// in\n    tag_36:\n        /* \"#utility.yul\":859:862   */\n      dup3\n        /* \"#utility.yul\":852:910   */\n      mstore\n        /* \"#utility.yul\":769:916   */\n      pop\n      pop\n      jump\t// out\n        /* \"#utility.yul\":922:1270   */\n    tag_13:\n        /* \"#utility.yul\":1051:1055   */\n      0x00\n        /* \"#utility.yul\":1089:1091   */\n      0x40\n        /* \"#utility.yul\":1078:1087   */\n      dup3\n        /* \"#utility.yul\":1074:1092   */\n      add\n        /* \"#utility.yul\":1066:1092   */\n      swap1\n      pop\n        /* \"#utility.yul\":1102:1173   */\n      tag_38\n        /* \"#utility.yul\":1170:1171   */\n      0x00\n        /* \"#utility.yul\":1159:1168   */\n      dup4\n        /* \"#utility.yul\":1155:1172   */\n      add\n        /* \"#utility.yul\":1146:1152   */\n      dup6\n        /* \"#utility.yul\":1102:1173   */\n      tag_16\n      jump\t// in\n    tag_38:\n        /* \"#utility.yul\":1183:1263   */\n      tag_39\n        /* \"#utility.yul\":1259:1261   */\n      0x20\n        /* \"#utility.yul\":1248:1257   */\n      dup4\n        /* \"#utility.yul\":1244:1262   */\n      add\n        /* \"#utility.yul\":1235:1241   */\n      dup5\n        /* \"#utility.yul\":1183:1263   */\n      tag_21\n      jump\t// in\n    tag_39:\n        /* \"#utility.yul\":922:1270   */\n      swap4\n      swap3\n      pop\n      pop\n      pop\n      jump\t// out\n\n    auxdata: 0xa2646970667358221220dd7c0ea53adba42539455ee952cd08fc4ec648464c0581e506d8234ed6b77e1264736f6c63430008120033\n}\n",
				"bytecode": {
					"linkReferences": {},
					"object": "608060405234801561001057600080fd5b506040516103fe3803806103fe8339818101604052810190610032919061015b565b81600160006101000a81548173ffffffffffffffffffffffffffffffffffffffff021916908373ffffffffffffffffffffffffffffffffffffffff160217905550806000806101000a81548173ffffffffffffffffffffffffffffffffffffffff021916908373ffffffffffffffffffffffffffffffffffffffff160217905550505061019b565b600080fd5b600073ffffffffffffffffffffffffffffffffffffffff82169050919050565b60006100ea826100bf565b9050919050565b6100fa816100df565b811461010557600080fd5b50565b600081519050610117816100f1565b92915050565b6000610128826100bf565b9050919050565b6101388161011d565b811461014357600080fd5b50565b6000815190506101558161012f565b92915050565b60008060408385031215610172576101716100ba565b5b600061018085828601610108565b925050602061019185828601610146565b9150509250929050565b610254806101aa6000396000f3fe60806040526004361061001e5760003560e01c8063a482171914610023575b600080fd5b61002b61002d565b005b6000341161003a57600080fd5b6000600160009054906101000a900473ffffffffffffffffffffffffffffffffffffffff1690508073ffffffffffffffffffffffffffffffffffffffff16631249c58b6040518163ffffffff1660e01b8152600401600060405180830381600087803b1580156100a957600080fd5b505af11580156100bd573d6000803e3d6000fd5b5050505060008054906101000a900473ffffffffffffffffffffffffffffffffffffffff1673ffffffffffffffffffffffffffffffffffffffff166108fc349081150290604051600060405180830381858888f19350505050158015610127573d6000803e3d6000fd5b507f2499a5330ab0979cc612135e7883ebc3cd5c9f7a8508f042540c34723348f63233600160405161015a9291906101f5565b60405180910390a150565b600073ffffffffffffffffffffffffffffffffffffffff82169050919050565b600061019082610165565b9050919050565b6101a081610185565b82525050565b6000819050919050565b6000819050919050565b6000819050919050565b60006101df6101da6101d5846101a6565b6101ba565b6101b0565b9050919050565b6101ef816101c4565b82525050565b600060408201905061020a6000830185610197565b61021760208301846101e6565b939250505056fea2646970667358221220dd7c0ea53adba42539455ee952cd08fc4ec648464c0581e506d8234ed6b77e1264736f6c63430008120033",
					"opcodes": "PUSH1 0x80 PUSH1 0x40 MSTORE CALLVALUE DUP1 ISZERO PUSH2 0x10 JUMPI PUSH1 0x0 DUP1 REVERT JUMPDEST POP PUSH1 0x40 MLOAD PUSH2 0x3FE CODESIZE SUB DUP1 PUSH2 0x3FE DUP4 CODECOPY DUP2 DUP2 ADD PUSH1 0x40 MSTORE DUP2 ADD SWAP1 PUSH2 0x32 SWAP2 SWAP1 PUSH2 0x15B JUMP JUMPDEST DUP2 PUSH1 0x1 PUSH1 0x0 PUSH2 0x100 EXP DUP2 SLOAD DUP2 PUSH20 0xFFFFFFFFFFFFFFFFFFFFFFFFFFFFFFFFFFFFFFFF MUL NOT AND SWAP1 DUP4 PUSH20 0xFFFFFFFFFFFFFFFFFFFFFFFFFFFFFFFFFFFFFFFF AND MUL OR SWAP1 SSTORE POP DUP1 PUSH1 0x0 DUP1 PUSH2 0x100 EXP DUP2 SLOAD DUP2 PUSH20 0xFFFFFFFFFFFFFFFFFFFFFFFFFFFFFFFFFFFFFFFF MUL NOT AND SWAP1 DUP4 PUSH20 0xFFFFFFFFFFFFFFFFFFFFFFFFFFFFFFFFFFFFFFFF AND MUL OR SWAP1 SSTORE POP POP POP PUSH2 0x19B JUMP JUMPDEST PUSH1 0x0 DUP1 REVERT JUMPDEST PUSH1 0x0 PUSH20 0xFFFFFFFFFFFFFFFFFFFFFFFFFFFFFFFFFFFFFFFF DUP3 AND SWAP1 POP SWAP2 SWAP1 POP JUMP JUMPDEST PUSH1 0x0 PUSH2 0xEA DUP3 PUSH2 0xBF JUMP JUMPDEST SWAP1 POP SWAP2 SWAP1 POP JUMP JUMPDEST PUSH2 0xFA DUP2 PUSH2 0xDF JUMP JUMPDEST DUP2 EQ PUSH2 0x105 JUMPI PUSH1 0x0 DUP1 REVERT JUMPDEST POP JUMP JUMPDEST PUSH1 0x0 DUP2 MLOAD SWAP1 POP PUSH2 0x117 DUP2 PUSH2 0xF1 JUMP JUMPDEST SWAP3 SWAP2 POP POP JUMP JUMPDEST PUSH1 0x0 PUSH2 0x128 DUP3 PUSH2 0xBF JUMP JUMPDEST SWAP1 POP SWAP2 SWAP1 POP JUMP JUMPDEST PUSH2 0x138 DUP2 PUSH2 0x11D JUMP JUMPDEST DUP2 EQ PUSH2 0x143 JUMPI PUSH1 0x0 DUP1 REVERT JUMPDEST POP JUMP JUMPDEST PUSH1 0x0 DUP2 MLOAD SWAP1 POP PUSH2 0x155 DUP2 PUSH2 0x12F JUMP JUMPDEST SWAP3 SWAP2 POP POP JUMP JUMPDEST PUSH1 0x0 DUP1 PUSH1 0x40 DUP4 DUP6 SUB SLT ISZERO PUSH2 0x172 JUMPI PUSH2 0x171 PUSH2 0xBA JUMP JUMPDEST JUMPDEST PUSH1 0x0 PUSH2 0x180 DUP6 DUP3 DUP7 ADD PUSH2 0x108 JUMP JUMPDEST SWAP3 POP POP PUSH1 0x20 PUSH2 0x191 DUP6 DUP3 DUP7 ADD PUSH2 0x146 JUMP JUMPDEST SWAP2 POP POP SWAP3 POP SWAP3 SWAP1 POP JUMP JUMPDEST PUSH2 0x254 DUP1 PUSH2 0x1AA PUSH1 0x0 CODECOPY PUSH1 0x0 RETURN INVALID PUSH1 0x80 PUSH1 0x40 MSTORE PUSH1 0x4 CALLDATASIZE LT PUSH2 0x1E JUMPI PUSH1 0x0 CALLDATALOAD PUSH1 0xE0 SHR DUP1 PUSH4 0xA4821719 EQ PUSH2 0x23 JUMPI JUMPDEST PUSH1 0x0 DUP1 REVERT JUMPDEST PUSH2 0x2B PUSH2 0x2D JUMP JUMPDEST STOP JUMPDEST PUSH1 0x0 CALLVALUE GT PUSH2 0x3A JUMPI PUSH1 0x0 DUP1 REVERT JUMPDEST PUSH1 0x0 PUSH1 0x1 PUSH1 0x0 SWAP1 SLOAD SWAP1 PUSH2 0x100 EXP SWAP1 DIV PUSH20 0xFFFFFFFFFFFFFFFFFFFFFFFFFFFFFFFFFFFFFFFF AND SWAP1 POP DUP1 PUSH20 0xFFFFFFFFFFFFFFFFFFFFFFFFFFFFFFFFFFFFFFFF AND PUSH4 0x1249C58B PUSH1 0x40 MLOAD DUP2 PUSH4 0xFFFFFFFF AND PUSH1 0xE0 SHL DUP2 MSTORE PUSH1 0x4 ADD PUSH1 0x0 PUSH1 0x40 MLOAD DUP1 DUP4 SUB DUP2 PUSH1 0x0 DUP8 DUP1 EXTCODESIZE ISZERO DUP1 ISZERO PUSH2 0xA9 JUMPI PUSH1 0x0 DUP1 REVERT JUMPDEST POP GAS CALL ISZERO DUP1 ISZERO PUSH2 0xBD JUMPI RETURNDATASIZE PUSH1 0x0 DUP1 RETURNDATACOPY RETURNDATASIZE PUSH1 0x0 REVERT JUMPDEST POP POP POP POP PUSH1 0x0 DUP1 SLOAD SWAP1 PUSH2 0x100 EXP SWAP1 DIV PUSH20 0xFFFFFFFFFFFFFFFFFFFFFFFFFFFFFFFFFFFFFFFF AND PUSH20 0xFFFFFFFFFFFFFFFFFFFFFFFFFFFFFFFFFFFFFFFF AND PUSH2 0x8FC CALLVALUE SWAP1 DUP2 ISZERO MUL SWAP1 PUSH1 0x40 MLOAD PUSH1 0x0 PUSH1 0x40 MLOAD DUP1 DUP4 SUB DUP2 DUP6 DUP9 DUP9 CALL SWAP4 POP POP POP POP ISZERO DUP1 ISZERO PUSH2 0x127 JUMPI RETURNDATASIZE PUSH1 0x0 DUP1 RETURNDATACOPY RETURNDATASIZE PUSH1 0x0 REVERT JUMPDEST POP PUSH32 0x2499A5330AB0979CC612135E7883EBC3CD5C9F7A8508F042540C34723348F632 CALLER PUSH1 0x1 PUSH1 0x40 MLOAD PUSH2 0x15A SWAP3 SWAP2 SWAP1 PUSH2 0x1F5 JUMP JUMPDEST PUSH1 0x40 MLOAD DUP1 SWAP2 SUB SWAP1 LOG1 POP JUMP JUMPDEST PUSH1 0x0 PUSH20 0xFFFFFFFFFFFFFFFFFFFFFFFFFFFFFFFFFFFFFFFF DUP3 AND SWAP1 POP SWAP2 SWAP1 POP JUMP JUMPDEST PUSH1 0x0 PUSH2 0x190 DUP3 PUSH2 0x165 JUMP JUMPDEST SWAP1 POP SWAP2 SWAP1 POP JUMP JUMPDEST PUSH2 0x1A0 DUP2 PUSH2 0x185 JUMP JUMPDEST DUP3 MSTORE POP POP JUMP JUMPDEST PUSH1 0x0 DUP2 SWAP1 POP SWAP2 SWAP1 POP JUMP JUMPDEST PUSH1 0x0 DUP2 SWAP1 POP SWAP2 SWAP1 POP JUMP JUMPDEST PUSH1 0x0 DUP2 SWAP1 POP SWAP2 SWAP1 POP JUMP JUMPDEST PUSH1 0x0 PUSH2 0x1DF PUSH2 0x1DA PUSH2 0x1D5 DUP5 PUSH2 0x1A6 JUMP JUMPDEST PUSH2 0x1BA JUMP JUMPDEST PUSH2 0x1B0 JUMP JUMPDEST SWAP1 POP SWAP2 SWAP1 POP JUMP JUMPDEST PUSH2 0x1EF DUP2 PUSH2 0x1C4 JUMP JUMPDEST DUP3 MSTORE POP POP JUMP JUMPDEST PUSH1 0x0 PUSH1 0x40 DUP3 ADD SWAP1 POP PUSH2 0x20A PUSH1 0x0 DUP4 ADD DUP6 PUSH2 0x197 JUMP JUMPDEST PUSH2 0x217 PUSH1 0x20 DUP4 ADD DUP5 PUSH2 0x1E6 JUMP JUMPDEST SWAP4 SWAP3 POP POP POP JUMP INVALID LOG2 PUSH5 0x6970667358 0x22 SLT KECCAK256 0xDD PUSH29 0xEA53ADBA42539455EE952CD08FC4EC648464C0581E506D8234ED6B77E SLT PUSH5 0x736F6C6343 STOP ADDMOD SLT STOP CALLER "
				},
				"gasEstimates": {
					"creation": {
						"codeDepositCost": "119200",
						"executionCost": "infinite",
						"totalCost": "infinite"
					},
					"external": {
						"buyToken()": "infinite"
					}
				},
				"methodIdentifiers": {
					"buyToken()": "a4821719"
				}
			},
			"storageLayout": {
				"storage": [
					{
						"astId": 21,
						"contract": "payable_example.sol:PayableExample",
						"label": "wallet",
						"offset": 0,
						"slot": "0",
						"type": "t_address_payable"
					},
					{
						"astId": 23,
						"contract": "payable_example.sol:PayableExample",
						"label": "token",
						"offset": 0,
						"slot": "1",
						"type": "t_address"
					}
				],
				"types": {
					"t_address": {
						"encoding": "inplace",
						"label": "address",
						"numberOfBytes": "20"
					},
					"t_address_payable": {
						"encoding": "inplace",
						"label": "address payable",
						"numberOfBytes": "20"
					}
				}
			},
			"userdoc": {
				"kind": "user",
				"methods": {},
				"version": 1
			}
		}
	}
}