{
	"dutch_action_solution.sol": {
		"DutchAuctionSolution": {
			"abi": [
				{
					"anonymous": false,
					"inputs": [
						{
							"indexed": false,
							"internalType": "uint256",
							"name": "nftId",
							"type": "uint256"
						},
						{
							"indexed": false,
							"internalType": "string",
							"name": "msg",
							"type": "string"
						}
					],
					"name": "AuctionCompleted",
					"type": "event"
				},
				{
					"anonymous": false,
					"inputs": [
						{
							"indexed": false,
							"internalType": "uint256",
							"name": "nftId",
							"type": "uint256"
						}
					],
					"name": "SecretBidStarted",
					"type": "event"
				},
				{
					"anonymous": false,
					"inputs": [
						{
							"indexed": false,
							"internalType": "uint256",
							"name": "nftId",
							"type": "uint256"
						},
						{
							"indexed": false,
							"internalType": "uint256",
							"name": "startTime",
							"type": "uint256"
						},
						{
							"indexed": false,
							"internalType": "uint256",
							"name": "startAmount",
							"type": "uint256"
						}
					],
					"name": "StartOpenBid",
					"type": "event"
				},
				{
					"inputs": [
						{
							"internalType": "string",
							"name": "name",
							"type": "string"
						},
						{
							"internalType": "string",
							"name": "url",
							"type": "string"
						},
						{
							"internalType": "uint256",
							"name": "_reservePrice",
							"type": "uint256"
						},
						{
							"internalType": "uint8",
							"name": "maxMultiplier",
							"type": "uint8"
						}
					],
					"name": "addItem",
					"outputs": [
						{
							"components": [
								{
									"internalType": "string",
									"name": "name",
									"type": "string"
								},
								{
									"internalType": "string",
									"name": "imageUrl",
									"type": "string"
								},
								{
									"internalType": "uint256",
									"name": "id",
									"type": "uint256"
								},
								{
									"internalType": "address payable",
									"name": "owner",
									"type": "address"
								},
								{
									"internalType": "bool",
									"name": "isOwner",
									"type": "bool"
								},
								{
									"internalType": "string",
									"name": "bidState",
									"type": "string"
								}
							],
							"internalType": "struct DutchAuctionSolution.NFT",
							"name": "",
							"type": "tuple"
						}
					],
					"stateMutability": "nonpayable",
					"type": "function"
				},
				{
					"inputs": [
						{
							"internalType": "uint256",
							"name": "id",
							"type": "uint256"
						},
						{
							"internalType": "uint256",
							"name": "bidAmount",
							"type": "uint256"
						}
					],
					"name": "addSecretBid",
					"outputs": [
						{
							"internalType": "bool",
							"name": "",
							"type": "bool"
						}
					],
					"stateMutability": "nonpayable",
					"type": "function"
				},
				{
					"inputs": [
						{
							"internalType": "uint256",
							"name": "id",
							"type": "uint256"
						}
					],
					"name": "endOpenBid",
					"outputs": [
						{
							"internalType": "bool",
							"name": "",
							"type": "bool"
						}
					],
					"stateMutability": "nonpayable",
					"type": "function"
				},
				{
					"inputs": [
						{
							"internalType": "uint256",
							"name": "id",
							"type": "uint256"
						}
					],
					"name": "getBidState",
					"outputs": [
						{
							"internalType": "string",
							"name": "",
							"type": "string"
						}
					],
					"stateMutability": "view",
					"type": "function"
				},
				{
					"inputs": [
						{
							"internalType": "uint256",
							"name": "id",
							"type": "uint256"
						}
					],
					"name": "getItemCurrentPrice",
					"outputs": [
						{
							"internalType": "uint256",
							"name": "",
							"type": "uint256"
						}
					],
					"stateMutability": "view",
					"type": "function"
				},
				{
					"inputs": [],
					"name": "getNFTOwners",
					"outputs": [
						{
							"components": [
								{
									"internalType": "string",
									"name": "name",
									"type": "string"
								},
								{
									"internalType": "string",
									"name": "imageUrl",
									"type": "string"
								},
								{
									"internalType": "uint256",
									"name": "id",
									"type": "uint256"
								},
								{
									"internalType": "address payable",
									"name": "owner",
									"type": "address"
								},
								{
									"internalType": "bool",
									"name": "isOwner",
									"type": "bool"
								},
								{
									"internalType": "string",
									"name": "bidState",
									"type": "string"
								}
							],
							"internalType": "struct DutchAuctionSolution.NFT[]",
							"name": "",
							"type": "tuple[]"
						}
					],
					"stateMutability": "view",
					"type": "function"
				},
				{
					"inputs": [],
					"name": "nftItemCount",
					"outputs": [
						{
							"internalType": "uint256",
							"name": "",
							"type": "uint256"
						}
					],
					"stateMutability": "view",
					"type": "function"
				},
				{
					"inputs": [
						{
							"internalType": "uint256",
							"name": "id",
							"type": "uint256"
						},
						{
							"internalType": "uint256",
							"name": "amount",
							"type": "uint256"
						}
					],
					"name": "placeBid",
					"outputs": [],
					"stateMutability": "payable",
					"type": "function"
				},
				{
					"inputs": [
						{
							"internalType": "uint256",
							"name": "id",
							"type": "uint256"
						}
					],
					"name": "startOpenBid",
					"outputs": [
						{
							"internalType": "uint256",
							"name": "",
							"type": "uint256"
						}
					],
					"stateMutability": "nonpayable",
					"type": "function"
				},
				{
					"inputs": [
						{
							"internalType": "uint256",
							"name": "id",
							"type": "uint256"
						}
					],
					"name": "startSecretBid",
					"outputs": [
						{
							"internalType": "bool",
							"name": "",
							"type": "bool"
						}
					],
					"stateMutability": "nonpayable",
					"type": "function"
				}
			],
			"devdoc": {
				"kind": "dev",
				"methods": {},
				"version": 1
			},
			"evm": {
				"assembly": "    /* \"dutch_action_solution.sol\":58:6572  contract DutchAuctionSolution {... */\n  mstore(0x40, 0x80)\n    /* \"dutch_action_solution.sol\":670:671  0 */\n  0x00\n    /* \"dutch_action_solution.sol\":640:671  uint256 public nftItemCount = 0 */\n  0x03\n  sstore\n    /* \"dutch_action_solution.sol\":58:6572  contract DutchAuctionSolution {... */\n  callvalue\n  dup1\n  iszero\n  tag_1\n  jumpi\n  0x00\n  dup1\n  revert\ntag_1:\n  pop\n  dataSize(sub_0)\n  dup1\n  dataOffset(sub_0)\n  0x00\n  codecopy\n  0x00\n  return\nstop\n\nsub_0: assembly {\n        /* \"dutch_action_solution.sol\":58:6572  contract DutchAuctionSolution {... */\n      mstore(0x40, 0x80)\n      jumpi(tag_1, lt(calldatasize, 0x04))\n      shr(0xe0, calldataload(0x00))\n      dup1\n      0xafd3296a\n      gt\n      tag_12\n      jumpi\n      dup1\n      0xafd3296a\n      eq\n      tag_7\n      jumpi\n      dup1\n      0xba13634f\n      eq\n      tag_8\n      jumpi\n      dup1\n      0xbf77ffae\n      eq\n      tag_9\n      jumpi\n      dup1\n      0xcb08a60e\n      eq\n      tag_10\n      jumpi\n      dup1\n      0xed51dbec\n      eq\n      tag_11\n      jumpi\n      jump(tag_1)\n    tag_12:\n      dup1\n      0x57c90de5\n      eq\n      tag_2\n      jumpi\n      dup1\n      0x6b881449\n      eq\n      tag_3\n      jumpi\n      dup1\n      0x8e393d83\n      eq\n      tag_4\n      jumpi\n      dup1\n      0x9c1f6099\n      eq\n      tag_5\n      jumpi\n      dup1\n      0xa49dce67\n      eq\n      tag_6\n      jumpi\n    tag_1:\n      0x00\n      dup1\n      revert\n        /* \"dutch_action_solution.sol\":5198:6163  function placeBid(uint256 id, uint256 amount) public payable {... */\n    tag_2:\n      tag_13\n      0x04\n      dup1\n      calldatasize\n      sub\n      dup2\n      add\n      swap1\n      tag_14\n      swap2\n      swap1\n      tag_15\n      jump\t// in\n    tag_14:\n      tag_16\n      jump\t// in\n    tag_13:\n      stop\n        /* \"dutch_action_solution.sol\":2591:3296  function startOpenBid(uint256 id) public returns (uint256) {... */\n    tag_3:\n      callvalue\n      dup1\n      iszero\n      tag_17\n      jumpi\n      0x00\n      dup1\n      revert\n    tag_17:\n      pop\n      tag_18\n      0x04\n      dup1\n      calldatasize\n      sub\n      dup2\n      add\n      swap1\n      tag_19\n      swap2\n      swap1\n      tag_20\n      jump\t// in\n    tag_19:\n      tag_21\n      jump\t// in\n    tag_18:\n      mload(0x40)\n      tag_22\n      swap2\n      swap1\n      tag_23\n      jump\t// in\n    tag_22:\n      mload(0x40)\n      dup1\n      swap2\n      sub\n      swap1\n      return\n        /* \"dutch_action_solution.sol\":6169:6570  function getNFTOwners() public view returns (NFT[] memory) {... */\n    tag_4:\n      callvalue\n      dup1\n      iszero\n      tag_24\n      jumpi\n      0x00\n      dup1\n      revert\n    tag_24:\n      pop\n      tag_25\n      tag_26\n      jump\t// in\n    tag_25:\n      mload(0x40)\n      tag_27\n      swap2\n      swap1\n      tag_28\n      jump\t// in\n    tag_27:\n      mload(0x40)\n      dup1\n      swap2\n      sub\n      swap1\n      return\n        /* \"dutch_action_solution.sol\":640:671  uint256 public nftItemCount = 0 */\n    tag_5:\n      callvalue\n      dup1\n      iszero\n      tag_29\n      jumpi\n      0x00\n      dup1\n      revert\n    tag_29:\n      pop\n      tag_30\n      tag_31\n      jump\t// in\n    tag_30:\n      mload(0x40)\n      tag_32\n      swap2\n      swap1\n      tag_23\n      jump\t// in\n    tag_32:\n      mload(0x40)\n      dup1\n      swap2\n      sub\n      swap1\n      return\n        /* \"dutch_action_solution.sol\":1988:2585  function addSecretBid(uint256 id, uint256 bidAmount) public returns (bool) {... */\n    tag_6:\n      callvalue\n      dup1\n      iszero\n      tag_33\n      jumpi\n      0x00\n      dup1\n      revert\n    tag_33:\n      pop\n      tag_34\n      0x04\n      dup1\n      calldatasize\n      sub\n      dup2\n      add\n      swap1\n      tag_35\n      swap2\n      swap1\n      tag_15\n      jump\t// in\n    tag_35:\n      tag_36\n      jump\t// in\n    tag_34:\n      mload(0x40)\n      tag_37\n      swap2\n      swap1\n      tag_38\n      jump\t// in\n    tag_37:\n      mload(0x40)\n      dup1\n      swap2\n      sub\n      swap1\n      return\n        /* \"dutch_action_solution.sol\":1464:1982  function startSecretBid(uint256 id) public returns (bool) {... */\n    tag_7:\n      callvalue\n      dup1\n      iszero\n      tag_39\n      jumpi\n      0x00\n      dup1\n      revert\n    tag_39:\n      pop\n      tag_40\n      0x04\n      dup1\n      calldatasize\n      sub\n      dup2\n      add\n      swap1\n      tag_41\n      swap2\n      swap1\n      tag_20\n      jump\t// in\n    tag_41:\n      tag_42\n      jump\t// in\n    tag_40:\n      mload(0x40)\n      tag_43\n      swap2\n      swap1\n      tag_38\n      jump\t// in\n    tag_43:\n      mload(0x40)\n      dup1\n      swap2\n      sub\n      swap1\n      return\n        /* \"dutch_action_solution.sol\":937:1458  function addItem(string memory name, string memory url, uint256 _reservePrice, uint8 maxMultiplier) public returns (NFT memory) {... */\n    tag_8:\n      callvalue\n      dup1\n      iszero\n      tag_44\n      jumpi\n      0x00\n      dup1\n      revert\n    tag_44:\n      pop\n      tag_45\n      0x04\n      dup1\n      calldatasize\n      sub\n      dup2\n      add\n      swap1\n      tag_46\n      swap2\n      swap1\n      tag_47\n      jump\t// in\n    tag_46:\n      tag_48\n      jump\t// in\n    tag_45:\n      mload(0x40)\n      tag_49\n      swap2\n      swap1\n      tag_50\n      jump\t// in\n    tag_49:\n      mload(0x40)\n      dup1\n      swap2\n      sub\n      swap1\n      return\n        /* \"dutch_action_solution.sol\":3828:4075  function getBidState(uint256 id) public view returns (string memory) {... */\n    tag_9:\n      callvalue\n      dup1\n      iszero\n      tag_51\n      jumpi\n      0x00\n      dup1\n      revert\n    tag_51:\n      pop\n      tag_52\n      0x04\n      dup1\n      calldatasize\n      sub\n      dup2\n      add\n      swap1\n      tag_53\n      swap2\n      swap1\n      tag_20\n      jump\t// in\n    tag_53:\n      tag_54\n      jump\t// in\n    tag_52:\n      mload(0x40)\n      tag_55\n      swap2\n      swap1\n      tag_56\n      jump\t// in\n    tag_55:\n      mload(0x40)\n      dup1\n      swap2\n      sub\n      swap1\n      return\n        /* \"dutch_action_solution.sol\":4481:5192  function getItemCurrentPrice(uint256 id) public view returns (uint256) {... */\n    tag_10:\n      callvalue\n      dup1\n      iszero\n      tag_57\n      jumpi\n      0x00\n      dup1\n      revert\n    tag_57:\n      pop\n      tag_58\n      0x04\n      dup1\n      calldatasize\n      sub\n      dup2\n      add\n      swap1\n      tag_59\n      swap2\n      swap1\n      tag_20\n      jump\t// in\n    tag_59:\n      tag_60\n      jump\t// in\n    tag_58:\n      mload(0x40)\n      tag_61\n      swap2\n      swap1\n      tag_23\n      jump\t// in\n    tag_61:\n      mload(0x40)\n      dup1\n      swap2\n      sub\n      swap1\n      return\n        /* \"dutch_action_solution.sol\":3302:3818  function endOpenBid(uint256 id) public returns (bool) {... */\n    tag_11:\n      callvalue\n      dup1\n      iszero\n      tag_62\n      jumpi\n      0x00\n      dup1\n      revert\n    tag_62:\n      pop\n      tag_63\n      0x04\n      dup1\n      calldatasize\n      sub\n      dup2\n      add\n      swap1\n      tag_64\n      swap2\n      swap1\n      tag_20\n      jump\t// in\n    tag_64:\n      tag_65\n      jump\t// in\n    tag_63:\n      mload(0x40)\n      tag_66\n      swap2\n      swap1\n      tag_38\n      jump\t// in\n    tag_66:\n      mload(0x40)\n      dup1\n      swap2\n      sub\n      swap1\n      return\n        /* \"dutch_action_solution.sol\":5198:6163  function placeBid(uint256 id, uint256 amount) public payable {... */\n    tag_16:\n        /* \"dutch_action_solution.sol\":5282:5294  nftItemCount */\n      sload(0x03)\n        /* \"dutch_action_solution.sol\":5277:5279  id */\n      dup3\n        /* \"dutch_action_solution.sol\":5277:5294  id < nftItemCount */\n      lt\n        /* \"dutch_action_solution.sol\":5269:5318  require(id < nftItemCount, \"Item doesn't exists\") */\n      tag_68\n      jumpi\n      mload(0x40)\n      0x08c379a000000000000000000000000000000000000000000000000000000000\n      dup2\n      mstore\n      0x04\n      add\n      tag_69\n      swap1\n      tag_70\n      jump\t// in\n    tag_69:\n      mload(0x40)\n      dup1\n      swap2\n      sub\n      swap1\n      revert\n    tag_68:\n        /* \"dutch_action_solution.sol\":5328:5355  NFTBiding memory bidingData */\n      0x00\n        /* \"dutch_action_solution.sol\":5358:5371  nftBidingData */\n      dup1\n        /* \"dutch_action_solution.sol\":5358:5375  nftBidingData[id] */\n      0x00\n        /* \"dutch_action_solution.sol\":5372:5374  id */\n      dup5\n        /* \"dutch_action_solution.sol\":5358:5375  nftBidingData[id] */\n      dup2\n      mstore\n      0x20\n      add\n      swap1\n      dup2\n      mstore\n      0x20\n      add\n      0x00\n      keccak256\n        /* \"dutch_action_solution.sol\":5328:5375  NFTBiding memory bidingData = nftBidingData[id] */\n      mload(0x40)\n      dup1\n      0xa0\n      add\n      0x40\n      mstore\n      swap1\n      dup2\n      0x00\n      dup3\n      add\n      sload\n      dup2\n      mstore\n      0x20\n      add\n      0x01\n      dup3\n      add\n      0x00\n      swap1\n      sload\n      swap1\n      0x0100\n      exp\n      swap1\n      div\n      0xff\n      and\n      0xff\n      and\n      0xff\n      and\n      dup2\n      mstore\n      0x20\n      add\n      0x02\n      dup3\n      add\n      sload\n      dup2\n      mstore\n      0x20\n      add\n      0x03\n      dup3\n      add\n      sload\n      dup2\n      mstore\n      0x20\n      add\n      0x04\n      dup3\n      add\n      0x00\n      swap1\n      sload\n      swap1\n      0x0100\n      exp\n      swap1\n      div\n      0xff\n      and\n      0x03\n      dup2\n      gt\n      iszero\n      tag_71\n      jumpi\n      tag_72\n      tag_73\n      jump\t// in\n    tag_72:\n    tag_71:\n      0x03\n      dup2\n      gt\n      iszero\n      tag_74\n      jumpi\n      tag_75\n      tag_73\n      jump\t// in\n    tag_75:\n    tag_74:\n      dup2\n      mstore\n      pop\n      pop\n      swap1\n      pop\n        /* \"dutch_action_solution.sol\":5385:5403  NFT memory nftData */\n      0x00\n        /* \"dutch_action_solution.sol\":5406:5413  nftList */\n      0x02\n        /* \"dutch_action_solution.sol\":5406:5417  nftList[id] */\n      0x00\n        /* \"dutch_action_solution.sol\":5414:5416  id */\n      dup6\n        /* \"dutch_action_solution.sol\":5406:5417  nftList[id] */\n      dup2\n      mstore\n      0x20\n      add\n      swap1\n      dup2\n      mstore\n      0x20\n      add\n      0x00\n      keccak256\n        /* \"dutch_action_solution.sol\":5385:5417  NFT memory nftData = nftList[id] */\n      mload(0x40)\n      dup1\n      0xc0\n      add\n      0x40\n      mstore\n      swap1\n      dup2\n      0x00\n      dup3\n      add\n      dup1\n      sload\n      tag_76\n      swap1\n      tag_77\n      jump\t// in\n    tag_76:\n      dup1\n      0x1f\n      add\n      0x20\n      dup1\n      swap2\n      div\n      mul\n      0x20\n      add\n      mload(0x40)\n      swap1\n      dup2\n      add\n      0x40\n      mstore\n      dup1\n      swap3\n      swap2\n      swap1\n      dup2\n      dup2\n      mstore\n      0x20\n      add\n      dup3\n      dup1\n      sload\n      tag_78\n      swap1\n      tag_77\n      jump\t// in\n    tag_78:\n      dup1\n      iszero\n      tag_79\n      jumpi\n      dup1\n      0x1f\n      lt\n      tag_80\n      jumpi\n      0x0100\n      dup1\n      dup4\n      sload\n      div\n      mul\n      dup4\n      mstore\n      swap2\n      0x20\n      add\n      swap2\n      jump(tag_79)\n    tag_80:\n      dup3\n      add\n      swap2\n      swap1\n      0x00\n      mstore\n      keccak256(0x00, 0x20)\n      swap1\n    tag_81:\n      dup2\n      sload\n      dup2\n      mstore\n      swap1\n      0x01\n      add\n      swap1\n      0x20\n      add\n      dup1\n      dup4\n      gt\n      tag_81\n      jumpi\n      dup3\n      swap1\n      sub\n      0x1f\n      and\n      dup3\n      add\n      swap2\n    tag_79:\n      pop\n      pop\n      pop\n      pop\n      pop\n      dup2\n      mstore\n      0x20\n      add\n      0x01\n      dup3\n      add\n      dup1\n      sload\n      tag_82\n      swap1\n      tag_77\n      jump\t// in\n    tag_82:\n      dup1\n      0x1f\n      add\n      0x20\n      dup1\n      swap2\n      div\n      mul\n      0x20\n      add\n      mload(0x40)\n      swap1\n      dup2\n      add\n      0x40\n      mstore\n      dup1\n      swap3\n      swap2\n      swap1\n      dup2\n      dup2\n      mstore\n      0x20\n      add\n      dup3\n      dup1\n      sload\n      tag_83\n      swap1\n      tag_77\n      jump\t// in\n    tag_83:\n      dup1\n      iszero\n      tag_84\n      jumpi\n      dup1\n      0x1f\n      lt\n      tag_85\n      jumpi\n      0x0100\n      dup1\n      dup4\n      sload\n      div\n      mul\n      dup4\n      mstore\n      swap2\n      0x20\n      add\n      swap2\n      jump(tag_84)\n    tag_85:\n      dup3\n      add\n      swap2\n      swap1\n      0x00\n      mstore\n      keccak256(0x00, 0x20)\n      swap1\n    tag_86:\n      dup2\n      sload\n      dup2\n      mstore\n      swap1\n      0x01\n      add\n      swap1\n      0x20\n      add\n      dup1\n      dup4\n      gt\n      tag_86\n      jumpi\n      dup3\n      swap1\n      sub\n      0x1f\n      and\n      dup3\n      add\n      swap2\n    tag_84:\n      pop\n      pop\n      pop\n      pop\n      pop\n      dup2\n      mstore\n      0x20\n      add\n      0x02\n      dup3\n      add\n      sload\n      dup2\n      mstore\n      0x20\n      add\n      0x03\n      dup3\n      add\n      0x00\n      swap1\n      sload\n      swap1\n      0x0100\n      exp\n      swap1\n      div\n      0xffffffffffffffffffffffffffffffffffffffff\n      and\n      0xffffffffffffffffffffffffffffffffffffffff\n      and\n      0xffffffffffffffffffffffffffffffffffffffff\n      and\n      dup2\n      mstore\n      0x20\n      add\n      0x03\n      dup3\n      add\n      0x14\n      swap1\n      sload\n      swap1\n      0x0100\n      exp\n      swap1\n      div\n      0xff\n      and\n      iszero\n      iszero\n      iszero\n      iszero\n      dup2\n      mstore\n      0x20\n      add\n      0x04\n      dup3\n      add\n      dup1\n      sload\n      tag_87\n      swap1\n      tag_77\n      jump\t// in\n    tag_87:\n      dup1\n      0x1f\n      add\n      0x20\n      dup1\n      swap2\n      div\n      mul\n      0x20\n      add\n      mload(0x40)\n      swap1\n      dup2\n      add\n      0x40\n      mstore\n      dup1\n      swap3\n      swap2\n      swap1\n      dup2\n      dup2\n      mstore\n      0x20\n      add\n      dup3\n      dup1\n      sload\n      tag_88\n      swap1\n      tag_77\n      jump\t// in\n    tag_88:\n      dup1\n      iszero\n      tag_89\n      jumpi\n      dup1\n      0x1f\n      lt\n      tag_90\n      jumpi\n      0x0100\n      dup1\n      dup4\n      sload\n      div\n      mul\n      dup4\n      mstore\n      swap2\n      0x20\n      add\n      swap2\n      jump(tag_89)\n    tag_90:\n      dup3\n      add\n      swap2\n      swap1\n      0x00\n      mstore\n      keccak256(0x00, 0x20)\n      swap1\n    tag_91:\n      dup2\n      sload\n      dup2\n      mstore\n      swap1\n      0x01\n      add\n      swap1\n      0x20\n      add\n      dup1\n      dup4\n      gt\n      tag_91\n      jumpi\n      dup3\n      swap1\n      sub\n      0x1f\n      and\n      dup3\n      add\n      swap2\n    tag_89:\n      pop\n      pop\n      pop\n      pop\n      pop\n      dup2\n      mstore\n      pop\n      pop\n      swap1\n      pop\n        /* \"dutch_action_solution.sol\":5460:5470  msg.sender */\n      caller\n        /* \"dutch_action_solution.sol\":5435:5471  nftData.owner != payable(msg.sender) */\n      0xffffffffffffffffffffffffffffffffffffffff\n      and\n        /* \"dutch_action_solution.sol\":5435:5442  nftData */\n      dup2\n        /* \"dutch_action_solution.sol\":5435:5448  nftData.owner */\n      0x60\n      add\n      mload\n        /* \"dutch_action_solution.sol\":5435:5471  nftData.owner != payable(msg.sender) */\n      0xffffffffffffffffffffffffffffffffffffffff\n      and\n      sub\n        /* \"dutch_action_solution.sol\":5427:5501  require(nftData.owner != payable(msg.sender), \"Owner can't place the bid\") */\n      tag_92\n      jumpi\n      mload(0x40)\n      0x08c379a000000000000000000000000000000000000000000000000000000000\n      dup2\n      mstore\n      0x04\n      add\n      tag_93\n      swap1\n      tag_94\n      jump\t// in\n    tag_93:\n      mload(0x40)\n      dup1\n      swap2\n      sub\n      swap1\n      revert\n    tag_92:\n        /* \"dutch_action_solution.sol\":5542:5558  BidState.openBid */\n      0x02\n        /* \"dutch_action_solution.sol\":5519:5558  bidingData.bidState == BidState.openBid */\n      0x03\n      dup2\n      gt\n      iszero\n      tag_95\n      jumpi\n      tag_96\n      tag_73\n      jump\t// in\n    tag_96:\n    tag_95:\n        /* \"dutch_action_solution.sol\":5519:5529  bidingData */\n      dup3\n        /* \"dutch_action_solution.sol\":5519:5538  bidingData.bidState */\n      0x80\n      add\n      mload\n        /* \"dutch_action_solution.sol\":5519:5558  bidingData.bidState == BidState.openBid */\n      0x03\n      dup2\n      gt\n      iszero\n      tag_97\n      jumpi\n      tag_98\n      tag_73\n      jump\t// in\n    tag_98:\n    tag_97:\n      eq\n        /* \"dutch_action_solution.sol\":5511:5591  require(bidingData.bidState == BidState.openBid, \"Open bid has not started yet\") */\n      tag_99\n      jumpi\n      mload(0x40)\n      0x08c379a000000000000000000000000000000000000000000000000000000000\n      dup2\n      mstore\n      0x04\n      add\n      tag_100\n      swap1\n      tag_101\n      jump\t// in\n    tag_100:\n      mload(0x40)\n      dup1\n      swap2\n      sub\n      swap1\n      revert\n    tag_99:\n        /* \"dutch_action_solution.sol\":5618:5628  bidingData */\n      dup2\n        /* \"dutch_action_solution.sol\":5618:5641  bidingData.reservePrice */\n      0x40\n      add\n      mload\n        /* \"dutch_action_solution.sol\":5609:5615  amount */\n      dup4\n        /* \"dutch_action_solution.sol\":5609:5641  amount > bidingData.reservePrice */\n      gt\n        /* \"dutch_action_solution.sol\":5601:5693  require(amount > bidingData.reservePrice, \"Bid price should not be less than reserve price\") */\n      tag_102\n      jumpi\n      mload(0x40)\n      0x08c379a000000000000000000000000000000000000000000000000000000000\n      dup2\n      mstore\n      0x04\n      add\n      tag_103\n      swap1\n      tag_104\n      jump\t// in\n    tag_103:\n      mload(0x40)\n      dup1\n      swap2\n      sub\n      swap1\n      revert\n    tag_102:\n        /* \"dutch_action_solution.sol\":5743:5747  true */\n      0x01\n        /* \"dutch_action_solution.sol\":5711:5747  participants[id][msg.sender] == true */\n      iszero\n      iszero\n        /* \"dutch_action_solution.sol\":5711:5723  participants */\n      0x01\n        /* \"dutch_action_solution.sol\":5711:5727  participants[id] */\n      0x00\n        /* \"dutch_action_solution.sol\":5724:5726  id */\n      dup7\n        /* \"dutch_action_solution.sol\":5711:5727  participants[id] */\n      dup2\n      mstore\n      0x20\n      add\n      swap1\n      dup2\n      mstore\n      0x20\n      add\n      0x00\n      keccak256\n        /* \"dutch_action_solution.sol\":5711:5739  participants[id][msg.sender] */\n      0x00\n        /* \"dutch_action_solution.sol\":5728:5738  msg.sender */\n      caller\n        /* \"dutch_action_solution.sol\":5711:5739  participants[id][msg.sender] */\n      0xffffffffffffffffffffffffffffffffffffffff\n      and\n      0xffffffffffffffffffffffffffffffffffffffff\n      and\n      dup2\n      mstore\n      0x20\n      add\n      swap1\n      dup2\n      mstore\n      0x20\n      add\n      0x00\n      keccak256\n      0x00\n      swap1\n      sload\n      swap1\n      0x0100\n      exp\n      swap1\n      div\n      0xff\n      and\n        /* \"dutch_action_solution.sol\":5711:5747  participants[id][msg.sender] == true */\n      iszero\n      iszero\n      eq\n        /* \"dutch_action_solution.sol\":5703:5799  require(participants[id][msg.sender] == true, \"Only Secret bid participants can place open bid\") */\n      tag_105\n      jumpi\n      mload(0x40)\n      0x08c379a000000000000000000000000000000000000000000000000000000000\n      dup2\n      mstore\n      0x04\n      add\n      tag_106\n      swap1\n      tag_107\n      jump\t// in\n    tag_106:\n      mload(0x40)\n      dup1\n      swap2\n      sub\n      swap1\n      revert\n    tag_105:\n        /* \"dutch_action_solution.sol\":5922:5928  amount */\n      dup3\n        /* \"dutch_action_solution.sol\":5909:5918  msg.value */\n      callvalue\n        /* \"dutch_action_solution.sol\":5909:5928  msg.value >= amount */\n      lt\n      iszero\n        /* \"dutch_action_solution.sol\":5901:5952  require(msg.value >= amount, \"Insuficient balance\") */\n      tag_108\n      jumpi\n      mload(0x40)\n      0x08c379a000000000000000000000000000000000000000000000000000000000\n      dup2\n      mstore\n      0x04\n      add\n      tag_109\n      swap1\n      tag_110\n      jump\t// in\n    tag_109:\n      mload(0x40)\n      dup1\n      swap2\n      sub\n      swap1\n      revert\n    tag_108:\n        /* \"dutch_action_solution.sol\":5962:5969  nftList */\n      0x02\n        /* \"dutch_action_solution.sol\":5962:5973  nftList[id] */\n      0x00\n        /* \"dutch_action_solution.sol\":5970:5972  id */\n      dup6\n        /* \"dutch_action_solution.sol\":5962:5973  nftList[id] */\n      dup2\n      mstore\n      0x20\n      add\n      swap1\n      dup2\n      mstore\n      0x20\n      add\n      0x00\n      keccak256\n        /* \"dutch_action_solution.sol\":5962:5979  nftList[id].owner */\n      0x03\n      add\n      0x00\n      swap1\n      sload\n      swap1\n      0x0100\n      exp\n      swap1\n      div\n      0xffffffffffffffffffffffffffffffffffffffff\n      and\n        /* \"dutch_action_solution.sol\":5962:5988  nftList[id].owner.transfer */\n      0xffffffffffffffffffffffffffffffffffffffff\n      and\n        /* \"dutch_action_solution.sol\":5962:5999  nftList[id].owner.transfer(msg.value) */\n      0x08fc\n        /* \"dutch_action_solution.sol\":5989:5998  msg.value */\n      callvalue\n        /* \"dutch_action_solution.sol\":5962:5999  nftList[id].owner.transfer(msg.value) */\n      swap1\n      dup2\n      iszero\n      mul\n      swap1\n      mload(0x40)\n      0x00\n      mload(0x40)\n      dup1\n      dup4\n      sub\n      dup2\n      dup6\n      dup9\n      dup9\n      call\n      swap4\n      pop\n      pop\n      pop\n      pop\n      iszero\n      dup1\n      iszero\n      tag_112\n      jumpi\n      returndatasize\n      0x00\n      dup1\n      returndatacopy\n      revert(0x00, returndatasize)\n    tag_112:\n      pop\n        /* \"dutch_action_solution.sol\":6037:6047  msg.sender */\n      caller\n        /* \"dutch_action_solution.sol\":6009:6016  nftList */\n      0x02\n        /* \"dutch_action_solution.sol\":6009:6020  nftList[id] */\n      0x00\n        /* \"dutch_action_solution.sol\":6017:6019  id */\n      dup7\n        /* \"dutch_action_solution.sol\":6009:6020  nftList[id] */\n      dup2\n      mstore\n      0x20\n      add\n      swap1\n      dup2\n      mstore\n      0x20\n      add\n      0x00\n      keccak256\n        /* \"dutch_action_solution.sol\":6009:6026  nftList[id].owner */\n      0x03\n      add\n      0x00\n        /* \"dutch_action_solution.sol\":6009:6048  nftList[id].owner = payable(msg.sender) */\n      0x0100\n      exp\n      dup2\n      sload\n      dup2\n      0xffffffffffffffffffffffffffffffffffffffff\n      mul\n      not\n      and\n      swap1\n      dup4\n      0xffffffffffffffffffffffffffffffffffffffff\n      and\n      mul\n      or\n      swap1\n      sstore\n      pop\n        /* \"dutch_action_solution.sol\":6087:6104  BidState.endedBid */\n      0x03\n        /* \"dutch_action_solution.sol\":6058:6071  nftBidingData */\n      0x00\n        /* \"dutch_action_solution.sol\":6058:6075  nftBidingData[id] */\n      dup1\n        /* \"dutch_action_solution.sol\":6072:6074  id */\n      dup7\n        /* \"dutch_action_solution.sol\":6058:6075  nftBidingData[id] */\n      dup2\n      mstore\n      0x20\n      add\n      swap1\n      dup2\n      mstore\n      0x20\n      add\n      0x00\n      keccak256\n        /* \"dutch_action_solution.sol\":6058:6084  nftBidingData[id].bidState */\n      0x04\n      add\n      0x00\n        /* \"dutch_action_solution.sol\":6058:6104  nftBidingData[id].bidState = BidState.endedBid */\n      0x0100\n      exp\n      dup2\n      sload\n      dup2\n      0xff\n      mul\n      not\n      and\n      swap1\n      dup4\n      0x03\n      dup2\n      gt\n      iszero\n      tag_113\n      jumpi\n      tag_114\n      tag_73\n      jump\t// in\n    tag_114:\n    tag_113:\n      mul\n      or\n      swap1\n      sstore\n      pop\n        /* \"dutch_action_solution.sol\":6119:6156  AuctionCompleted(id, \"Owner changed\") */\n      0x3312df0b8b9eff523f5c5714c5ba9238bb061cc3e3b80fa1f2b2bcc83e91fe6e\n        /* \"dutch_action_solution.sol\":6136:6138  id */\n      dup5\n        /* \"dutch_action_solution.sol\":6119:6156  AuctionCompleted(id, \"Owner changed\") */\n      mload(0x40)\n      tag_115\n      swap2\n      swap1\n      tag_116\n      jump\t// in\n    tag_115:\n      mload(0x40)\n      dup1\n      swap2\n      sub\n      swap1\n      log1\n        /* \"dutch_action_solution.sol\":5259:6163  {... */\n      pop\n      pop\n        /* \"dutch_action_solution.sol\":5198:6163  function placeBid(uint256 id, uint256 amount) public payable {... */\n      pop\n      pop\n      jump\t// out\n        /* \"dutch_action_solution.sol\":2591:3296  function startOpenBid(uint256 id) public returns (uint256) {... */\n    tag_21:\n        /* \"dutch_action_solution.sol\":2641:2648  uint256 */\n      0x00\n        /* \"dutch_action_solution.sol\":2673:2685  nftItemCount */\n      sload(0x03)\n        /* \"dutch_action_solution.sol\":2668:2670  id */\n      dup3\n        /* \"dutch_action_solution.sol\":2668:2685  id < nftItemCount */\n      lt\n        /* \"dutch_action_solution.sol\":2660:2709  require(id < nftItemCount, \"Item doesn't exists\") */\n      tag_118\n      jumpi\n      mload(0x40)\n      0x08c379a000000000000000000000000000000000000000000000000000000000\n      dup2\n      mstore\n      0x04\n      add\n      tag_119\n      swap1\n      tag_70\n      jump\t// in\n    tag_119:\n      mload(0x40)\n      dup1\n      swap2\n      sub\n      swap1\n      revert\n    tag_118:\n        /* \"dutch_action_solution.sol\":2719:2746  NFTBiding memory bidingData */\n      0x00\n        /* \"dutch_action_solution.sol\":2749:2762  nftBidingData */\n      dup1\n        /* \"dutch_action_solution.sol\":2749:2766  nftBidingData[id] */\n      0x00\n        /* \"dutch_action_solution.sol\":2763:2765  id */\n      dup5\n        /* \"dutch_action_solution.sol\":2749:2766  nftBidingData[id] */\n      dup2\n      mstore\n      0x20\n      add\n      swap1\n      dup2\n      mstore\n      0x20\n      add\n      0x00\n      keccak256\n        /* \"dutch_action_solution.sol\":2719:2766  NFTBiding memory bidingData = nftBidingData[id] */\n      mload(0x40)\n      dup1\n      0xa0\n      add\n      0x40\n      mstore\n      swap1\n      dup2\n      0x00\n      dup3\n      add\n      sload\n      dup2\n      mstore\n      0x20\n      add\n      0x01\n      dup3\n      add\n      0x00\n      swap1\n      sload\n      swap1\n      0x0100\n      exp\n      swap1\n      div\n      0xff\n      and\n      0xff\n      and\n      0xff\n      and\n      dup2\n      mstore\n      0x20\n      add\n      0x02\n      dup3\n      add\n      sload\n      dup2\n      mstore\n      0x20\n      add\n      0x03\n      dup3\n      add\n      sload\n      dup2\n      mstore\n      0x20\n      add\n      0x04\n      dup3\n      add\n      0x00\n      swap1\n      sload\n      swap1\n      0x0100\n      exp\n      swap1\n      div\n      0xff\n      and\n      0x03\n      dup2\n      gt\n      iszero\n      tag_120\n      jumpi\n      tag_121\n      tag_73\n      jump\t// in\n    tag_121:\n    tag_120:\n      0x03\n      dup2\n      gt\n      iszero\n      tag_122\n      jumpi\n      tag_123\n      tag_73\n      jump\t// in\n    tag_123:\n    tag_122:\n      dup2\n      mstore\n      pop\n      pop\n      swap1\n      pop\n        /* \"dutch_action_solution.sol\":2776:2794  NFT memory nftData */\n      0x00\n        /* \"dutch_action_solution.sol\":2797:2804  nftList */\n      0x02\n        /* \"dutch_action_solution.sol\":2797:2808  nftList[id] */\n      0x00\n        /* \"dutch_action_solution.sol\":2805:2807  id */\n      dup6\n        /* \"dutch_action_solution.sol\":2797:2808  nftList[id] */\n      dup2\n      mstore\n      0x20\n      add\n      swap1\n      dup2\n      mstore\n      0x20\n      add\n      0x00\n      keccak256\n        /* \"dutch_action_solution.sol\":2776:2808  NFT memory nftData = nftList[id] */\n      mload(0x40)\n      dup1\n      0xc0\n      add\n      0x40\n      mstore\n      swap1\n      dup2\n      0x00\n      dup3\n      add\n      dup1\n      sload\n      tag_124\n      swap1\n      tag_77\n      jump\t// in\n    tag_124:\n      dup1\n      0x1f\n      add\n      0x20\n      dup1\n      swap2\n      div\n      mul\n      0x20\n      add\n      mload(0x40)\n      swap1\n      dup2\n      add\n      0x40\n      mstore\n      dup1\n      swap3\n      swap2\n      swap1\n      dup2\n      dup2\n      mstore\n      0x20\n      add\n      dup3\n      dup1\n      sload\n      tag_125\n      swap1\n      tag_77\n      jump\t// in\n    tag_125:\n      dup1\n      iszero\n      tag_126\n      jumpi\n      dup1\n      0x1f\n      lt\n      tag_127\n      jumpi\n      0x0100\n      dup1\n      dup4\n      sload\n      div\n      mul\n      dup4\n      mstore\n      swap2\n      0x20\n      add\n      swap2\n      jump(tag_126)\n    tag_127:\n      dup3\n      add\n      swap2\n      swap1\n      0x00\n      mstore\n      keccak256(0x00, 0x20)\n      swap1\n    tag_128:\n      dup2\n      sload\n      dup2\n      mstore\n      swap1\n      0x01\n      add\n      swap1\n      0x20\n      add\n      dup1\n      dup4\n      gt\n      tag_128\n      jumpi\n      dup3\n      swap1\n      sub\n      0x1f\n      and\n      dup3\n      add\n      swap2\n    tag_126:\n      pop\n      pop\n      pop\n      pop\n      pop\n      dup2\n      mstore\n      0x20\n      add\n      0x01\n      dup3\n      add\n      dup1\n      sload\n      tag_129\n      swap1\n      tag_77\n      jump\t// in\n    tag_129:\n      dup1\n      0x1f\n      add\n      0x20\n      dup1\n      swap2\n      div\n      mul\n      0x20\n      add\n      mload(0x40)\n      swap1\n      dup2\n      add\n      0x40\n      mstore\n      dup1\n      swap3\n      swap2\n      swap1\n      dup2\n      dup2\n      mstore\n      0x20\n      add\n      dup3\n      dup1\n      sload\n      tag_130\n      swap1\n      tag_77\n      jump\t// in\n    tag_130:\n      dup1\n      iszero\n      tag_131\n      jumpi\n      dup1\n      0x1f\n      lt\n      tag_132\n      jumpi\n      0x0100\n      dup1\n      dup4\n      sload\n      div\n      mul\n      dup4\n      mstore\n      swap2\n      0x20\n      add\n      swap2\n      jump(tag_131)\n    tag_132:\n      dup3\n      add\n      swap2\n      swap1\n      0x00\n      mstore\n      keccak256(0x00, 0x20)\n      swap1\n    tag_133:\n      dup2\n      sload\n      dup2\n      mstore\n      swap1\n      0x01\n      add\n      swap1\n      0x20\n      add\n      dup1\n      dup4\n      gt\n      tag_133\n      jumpi\n      dup3\n      swap1\n      sub\n      0x1f\n      and\n      dup3\n      add\n      swap2\n    tag_131:\n      pop\n      pop\n      pop\n      pop\n      pop\n      dup2\n      mstore\n      0x20\n      add\n      0x02\n      dup3\n      add\n      sload\n      dup2\n      mstore\n      0x20\n      add\n      0x03\n      dup3\n      add\n      0x00\n      swap1\n      sload\n      swap1\n      0x0100\n      exp\n      swap1\n      div\n      0xffffffffffffffffffffffffffffffffffffffff\n      and\n      0xffffffffffffffffffffffffffffffffffffffff\n      and\n      0xffffffffffffffffffffffffffffffffffffffff\n      and\n      dup2\n      mstore\n      0x20\n      add\n      0x03\n      dup3\n      add\n      0x14\n      swap1\n      sload\n      swap1\n      0x0100\n      exp\n      swap1\n      div\n      0xff\n      and\n      iszero\n      iszero\n      iszero\n      iszero\n      dup2\n      mstore\n      0x20\n      add\n      0x04\n      dup3\n      add\n      dup1\n      sload\n      tag_134\n      swap1\n      tag_77\n      jump\t// in\n    tag_134:\n      dup1\n      0x1f\n      add\n      0x20\n      dup1\n      swap2\n      div\n      mul\n      0x20\n      add\n      mload(0x40)\n      swap1\n      dup2\n      add\n      0x40\n      mstore\n      dup1\n      swap3\n      swap2\n      swap1\n      dup2\n      dup2\n      mstore\n      0x20\n      add\n      dup3\n      dup1\n      sload\n      tag_135\n      swap1\n      tag_77\n      jump\t// in\n    tag_135:\n      dup1\n      iszero\n      tag_136\n      jumpi\n      dup1\n      0x1f\n      lt\n      tag_137\n      jumpi\n      0x0100\n      dup1\n      dup4\n      sload\n      div\n      mul\n      dup4\n      mstore\n      swap2\n      0x20\n      add\n      swap2\n      jump(tag_136)\n    tag_137:\n      dup3\n      add\n      swap2\n      swap1\n      0x00\n      mstore\n      keccak256(0x00, 0x20)\n      swap1\n    tag_138:\n      dup2\n      sload\n      dup2\n      mstore\n      swap1\n      0x01\n      add\n      swap1\n      0x20\n      add\n      dup1\n      dup4\n      gt\n      tag_138\n      jumpi\n      dup3\n      swap1\n      sub\n      0x1f\n      and\n      dup3\n      add\n      swap2\n    tag_136:\n      pop\n      pop\n      pop\n      pop\n      pop\n      dup2\n      mstore\n      pop\n      pop\n      swap1\n      pop\n        /* \"dutch_action_solution.sol\":2849:2867  BidState.secretBid */\n      0x01\n        /* \"dutch_action_solution.sol\":2826:2867  bidingData.bidState == BidState.secretBid */\n      0x03\n      dup2\n      gt\n      iszero\n      tag_139\n      jumpi\n      tag_140\n      tag_73\n      jump\t// in\n    tag_140:\n    tag_139:\n        /* \"dutch_action_solution.sol\":2826:2836  bidingData */\n      dup3\n        /* \"dutch_action_solution.sol\":2826:2845  bidingData.bidState */\n      0x80\n      add\n      mload\n        /* \"dutch_action_solution.sol\":2826:2867  bidingData.bidState == BidState.secretBid */\n      0x03\n      dup2\n      gt\n      iszero\n      tag_141\n      jumpi\n      tag_142\n      tag_73\n      jump\t// in\n    tag_142:\n    tag_141:\n      eq\n        /* \"dutch_action_solution.sol\":2818:2902  require(bidingData.bidState == BidState.secretBid, \"Secret Bid has not started yet\") */\n      tag_143\n      jumpi\n      mload(0x40)\n      0x08c379a000000000000000000000000000000000000000000000000000000000\n      dup2\n      mstore\n      0x04\n      add\n      tag_144\n      swap1\n      tag_145\n      jump\t// in\n    tag_144:\n      mload(0x40)\n      dup1\n      swap2\n      sub\n      swap1\n      revert\n    tag_143:\n        /* \"dutch_action_solution.sol\":2945:2955  msg.sender */\n      caller\n        /* \"dutch_action_solution.sol\":2920:2956  nftData.owner == payable(msg.sender) */\n      0xffffffffffffffffffffffffffffffffffffffff\n      and\n        /* \"dutch_action_solution.sol\":2920:2927  nftData */\n      dup2\n        /* \"dutch_action_solution.sol\":2920:2933  nftData.owner */\n      0x60\n      add\n      mload\n        /* \"dutch_action_solution.sol\":2920:2956  nftData.owner == payable(msg.sender) */\n      0xffffffffffffffffffffffffffffffffffffffff\n      and\n      eq\n        /* \"dutch_action_solution.sol\":2912:2989  require(nftData.owner == payable(msg.sender), \"Only owner can start the bid\") */\n      tag_146\n      jumpi\n      mload(0x40)\n      0x08c379a000000000000000000000000000000000000000000000000000000000\n      dup2\n      mstore\n      0x04\n      add\n      tag_147\n      swap1\n      tag_148\n      jump\t// in\n    tag_147:\n      mload(0x40)\n      dup1\n      swap2\n      sub\n      swap1\n      revert\n    tag_146:\n        /* \"dutch_action_solution.sol\":3032:3047  block.timestamp */\n      timestamp\n        /* \"dutch_action_solution.sol\":2999:3012  nftBidingData */\n      0x00\n        /* \"dutch_action_solution.sol\":2999:3016  nftBidingData[id] */\n      dup1\n        /* \"dutch_action_solution.sol\":3013:3015  id */\n      dup7\n        /* \"dutch_action_solution.sol\":2999:3016  nftBidingData[id] */\n      dup2\n      mstore\n      0x20\n      add\n      swap1\n      dup2\n      mstore\n      0x20\n      add\n      0x00\n      keccak256\n        /* \"dutch_action_solution.sol\":2999:3029  nftBidingData[id].bidStartTime */\n      0x03\n      add\n        /* \"dutch_action_solution.sol\":2999:3047  nftBidingData[id].bidStartTime = block.timestamp */\n      dup2\n      swap1\n      sstore\n      pop\n        /* \"dutch_action_solution.sol\":3086:3102  BidState.openBid */\n      0x02\n        /* \"dutch_action_solution.sol\":3057:3070  nftBidingData */\n      0x00\n        /* \"dutch_action_solution.sol\":3057:3074  nftBidingData[id] */\n      dup1\n        /* \"dutch_action_solution.sol\":3071:3073  id */\n      dup7\n        /* \"dutch_action_solution.sol\":3057:3074  nftBidingData[id] */\n      dup2\n      mstore\n      0x20\n      add\n      swap1\n      dup2\n      mstore\n      0x20\n      add\n      0x00\n      keccak256\n        /* \"dutch_action_solution.sol\":3057:3083  nftBidingData[id].bidState */\n      0x04\n      add\n      0x00\n        /* \"dutch_action_solution.sol\":3057:3102  nftBidingData[id].bidState = BidState.openBid */\n      0x0100\n      exp\n      dup2\n      sload\n      dup2\n      0xff\n      mul\n      not\n      and\n      swap1\n      dup4\n      0x03\n      dup2\n      gt\n      iszero\n      tag_149\n      jumpi\n      tag_150\n      tag_73\n      jump\t// in\n    tag_150:\n    tag_149:\n      mul\n      or\n      swap1\n      sstore\n      pop\n        /* \"dutch_action_solution.sol\":3112:3131  uint256 startAmount */\n      0x00\n        /* \"dutch_action_solution.sol\":3158:3168  bidingData */\n      dup3\n        /* \"dutch_action_solution.sol\":3158:3185  bidingData.maxBidMultiplier */\n      0x20\n      add\n      mload\n        /* \"dutch_action_solution.sol\":3134:3185  bidingData.highestBid * bidingData.maxBidMultiplier */\n      0xff\n      and\n        /* \"dutch_action_solution.sol\":3134:3144  bidingData */\n      dup4\n        /* \"dutch_action_solution.sol\":3134:3155  bidingData.highestBid */\n      0x00\n      add\n      mload\n        /* \"dutch_action_solution.sol\":3134:3185  bidingData.highestBid * bidingData.maxBidMultiplier */\n      tag_151\n      swap2\n      swap1\n      tag_152\n      jump\t// in\n    tag_151:\n        /* \"dutch_action_solution.sol\":3112:3185  uint256 startAmount = bidingData.highestBid * bidingData.maxBidMultiplier */\n      swap1\n      pop\n        /* \"dutch_action_solution.sol\":3200:3261  StartOpenBid(id, nftBidingData[id].bidStartTime, startAmount) */\n      0x9474aeb24cb7b12803e8dab2d134207cab9f34aa7aea0a72472a3ab89a9d3853\n        /* \"dutch_action_solution.sol\":3213:3215  id */\n      dup6\n        /* \"dutch_action_solution.sol\":3217:3230  nftBidingData */\n      0x00\n        /* \"dutch_action_solution.sol\":3217:3234  nftBidingData[id] */\n      dup1\n        /* \"dutch_action_solution.sol\":3231:3233  id */\n      dup9\n        /* \"dutch_action_solution.sol\":3217:3234  nftBidingData[id] */\n      dup2\n      mstore\n      0x20\n      add\n      swap1\n      dup2\n      mstore\n      0x20\n      add\n      0x00\n      keccak256\n        /* \"dutch_action_solution.sol\":3217:3247  nftBidingData[id].bidStartTime */\n      0x03\n      add\n      sload\n        /* \"dutch_action_solution.sol\":3249:3260  startAmount */\n      dup4\n        /* \"dutch_action_solution.sol\":3200:3261  StartOpenBid(id, nftBidingData[id].bidStartTime, startAmount) */\n      mload(0x40)\n      tag_153\n      swap4\n      swap3\n      swap2\n      swap1\n      tag_154\n      jump\t// in\n    tag_153:\n      mload(0x40)\n      dup1\n      swap2\n      sub\n      swap1\n      log1\n        /* \"dutch_action_solution.sol\":3278:3289  startAmount */\n      dup1\n        /* \"dutch_action_solution.sol\":3271:3289  return startAmount */\n      swap4\n      pop\n      pop\n      pop\n      pop\n        /* \"dutch_action_solution.sol\":2591:3296  function startOpenBid(uint256 id) public returns (uint256) {... */\n      swap2\n      swap1\n      pop\n      jump\t// out\n        /* \"dutch_action_solution.sol\":6169:6570  function getNFTOwners() public view returns (NFT[] memory) {... */\n    tag_26:\n        /* \"dutch_action_solution.sol\":6214:6226  NFT[] memory */\n      0x60\n        /* \"dutch_action_solution.sol\":6238:6260  NFT[] memory ownerData */\n      0x00\n        /* \"dutch_action_solution.sol\":6273:6285  nftItemCount */\n      sload(0x03)\n        /* \"dutch_action_solution.sol\":6263:6286  new NFT[](nftItemCount) */\n      0xffffffffffffffff\n      dup2\n      gt\n      iszero\n      tag_156\n      jumpi\n      tag_157\n      tag_158\n      jump\t// in\n    tag_157:\n    tag_156:\n      mload(0x40)\n      swap1\n      dup1\n      dup3\n      mstore\n      dup1\n      0x20\n      mul\n      0x20\n      add\n      dup3\n      add\n      0x40\n      mstore\n      dup1\n      iszero\n      tag_159\n      jumpi\n      dup2\n      0x20\n      add\n    tag_160:\n      tag_161\n      tag_162\n      jump\t// in\n    tag_161:\n      dup2\n      mstore\n      0x20\n      add\n      swap1\n      0x01\n      swap1\n      sub\n      swap1\n      dup2\n      tag_160\n      jumpi\n      swap1\n      pop\n    tag_159:\n      pop\n        /* \"dutch_action_solution.sol\":6238:6286  NFT[] memory ownerData = new NFT[](nftItemCount) */\n      swap1\n      pop\n        /* \"dutch_action_solution.sol\":6301:6308  uint8 i */\n      0x00\n        /* \"dutch_action_solution.sol\":6296:6538  for (uint8 i = 0; i < nftItemCount; i++) {... */\n    tag_163:\n        /* \"dutch_action_solution.sol\":6318:6330  nftItemCount */\n      sload(0x03)\n        /* \"dutch_action_solution.sol\":6314:6315  i */\n      dup2\n        /* \"dutch_action_solution.sol\":6314:6330  i < nftItemCount */\n      0xff\n      and\n      lt\n        /* \"dutch_action_solution.sol\":6296:6538  for (uint8 i = 0; i < nftItemCount; i++) {... */\n      iszero\n      tag_164\n      jumpi\n        /* \"dutch_action_solution.sol\":6366:6373  nftList */\n      0x02\n        /* \"dutch_action_solution.sol\":6366:6376  nftList[i] */\n      0x00\n        /* \"dutch_action_solution.sol\":6374:6375  i */\n      dup3\n        /* \"dutch_action_solution.sol\":6366:6376  nftList[i] */\n      0xff\n      and\n      dup2\n      mstore\n      0x20\n      add\n      swap1\n      dup2\n      mstore\n      0x20\n      add\n      0x00\n      keccak256\n        /* \"dutch_action_solution.sol\":6351:6376  ownerData[i] = nftList[i] */\n      mload(0x40)\n      dup1\n      0xc0\n      add\n      0x40\n      mstore\n      swap1\n      dup2\n      0x00\n      dup3\n      add\n      dup1\n      sload\n      tag_166\n      swap1\n      tag_77\n      jump\t// in\n    tag_166:\n      dup1\n      0x1f\n      add\n      0x20\n      dup1\n      swap2\n      div\n      mul\n      0x20\n      add\n      mload(0x40)\n      swap1\n      dup2\n      add\n      0x40\n      mstore\n      dup1\n      swap3\n      swap2\n      swap1\n      dup2\n      dup2\n      mstore\n      0x20\n      add\n      dup3\n      dup1\n      sload\n      tag_167\n      swap1\n      tag_77\n      jump\t// in\n    tag_167:\n      dup1\n      iszero\n      tag_168\n      jumpi\n      dup1\n      0x1f\n      lt\n      tag_169\n      jumpi\n      0x0100\n      dup1\n      dup4\n      sload\n      div\n      mul\n      dup4\n      mstore\n      swap2\n      0x20\n      add\n      swap2\n      jump(tag_168)\n    tag_169:\n      dup3\n      add\n      swap2\n      swap1\n      0x00\n      mstore\n      keccak256(0x00, 0x20)\n      swap1\n    tag_170:\n      dup2\n      sload\n      dup2\n      mstore\n      swap1\n      0x01\n      add\n      swap1\n      0x20\n      add\n      dup1\n      dup4\n      gt\n      tag_170\n      jumpi\n      dup3\n      swap1\n      sub\n      0x1f\n      and\n      dup3\n      add\n      swap2\n    tag_168:\n      pop\n      pop\n      pop\n      pop\n      pop\n      dup2\n      mstore\n      0x20\n      add\n      0x01\n      dup3\n      add\n      dup1\n      sload\n      tag_171\n      swap1\n      tag_77\n      jump\t// in\n    tag_171:\n      dup1\n      0x1f\n      add\n      0x20\n      dup1\n      swap2\n      div\n      mul\n      0x20\n      add\n      mload(0x40)\n      swap1\n      dup2\n      add\n      0x40\n      mstore\n      dup1\n      swap3\n      swap2\n      swap1\n      dup2\n      dup2\n      mstore\n      0x20\n      add\n      dup3\n      dup1\n      sload\n      tag_172\n      swap1\n      tag_77\n      jump\t// in\n    tag_172:\n      dup1\n      iszero\n      tag_173\n      jumpi\n      dup1\n      0x1f\n      lt\n      tag_174\n      jumpi\n      0x0100\n      dup1\n      dup4\n      sload\n      div\n      mul\n      dup4\n      mstore\n      swap2\n      0x20\n      add\n      swap2\n      jump(tag_173)\n    tag_174:\n      dup3\n      add\n      swap2\n      swap1\n      0x00\n      mstore\n      keccak256(0x00, 0x20)\n      swap1\n    tag_175:\n      dup2\n      sload\n      dup2\n      mstore\n      swap1\n      0x01\n      add\n      swap1\n      0x20\n      add\n      dup1\n      dup4\n      gt\n      tag_175\n      jumpi\n      dup3\n      swap1\n      sub\n      0x1f\n      and\n      dup3\n      add\n      swap2\n    tag_173:\n      pop\n      pop\n      pop\n      pop\n      pop\n      dup2\n      mstore\n      0x20\n      add\n      0x02\n      dup3\n      add\n      sload\n      dup2\n      mstore\n      0x20\n      add\n      0x03\n      dup3\n      add\n      0x00\n      swap1\n      sload\n      swap1\n      0x0100\n      exp\n      swap1\n      div\n      0xffffffffffffffffffffffffffffffffffffffff\n      and\n      0xffffffffffffffffffffffffffffffffffffffff\n      and\n      0xffffffffffffffffffffffffffffffffffffffff\n      and\n      dup2\n      mstore\n      0x20\n      add\n      0x03\n      dup3\n      add\n      0x14\n      swap1\n      sload\n      swap1\n      0x0100\n      exp\n      swap1\n      div\n      0xff\n      and\n      iszero\n      iszero\n      iszero\n      iszero\n      dup2\n      mstore\n      0x20\n      add\n      0x04\n      dup3\n      add\n      dup1\n      sload\n      tag_176\n      swap1\n      tag_77\n      jump\t// in\n    tag_176:\n      dup1\n      0x1f\n      add\n      0x20\n      dup1\n      swap2\n      div\n      mul\n      0x20\n      add\n      mload(0x40)\n      swap1\n      dup2\n      add\n      0x40\n      mstore\n      dup1\n      swap3\n      swap2\n      swap1\n      dup2\n      dup2\n      mstore\n      0x20\n      add\n      dup3\n      dup1\n      sload\n      tag_177\n      swap1\n      tag_77\n      jump\t// in\n    tag_177:\n      dup1\n      iszero\n      tag_178\n      jumpi\n      dup1\n      0x1f\n      lt\n      tag_179\n      jumpi\n      0x0100\n      dup1\n      dup4\n      sload\n      div\n      mul\n      dup4\n      mstore\n      swap2\n      0x20\n      add\n      swap2\n      jump(tag_178)\n    tag_179:\n      dup3\n      add\n      swap2\n      swap1\n      0x00\n      mstore\n      keccak256(0x00, 0x20)\n      swap1\n    tag_180:\n      dup2\n      sload\n      dup2\n      mstore\n      swap1\n      0x01\n      add\n      swap1\n      0x20\n      add\n      dup1\n      dup4\n      gt\n      tag_180\n      jumpi\n      dup3\n      swap1\n      sub\n      0x1f\n      and\n      dup3\n      add\n      swap2\n    tag_178:\n      pop\n      pop\n      pop\n      pop\n      pop\n      dup2\n      mstore\n      pop\n      pop\n        /* \"dutch_action_solution.sol\":6351:6360  ownerData */\n      dup3\n        /* \"dutch_action_solution.sol\":6361:6362  i */\n      dup3\n        /* \"dutch_action_solution.sol\":6351:6363  ownerData[i] */\n      0xff\n      and\n      dup2\n      mload\n      dup2\n      lt\n      tag_181\n      jumpi\n      tag_182\n      tag_183\n      jump\t// in\n    tag_182:\n    tag_181:\n      0x20\n      mul\n      0x20\n      add\n      add\n        /* \"dutch_action_solution.sol\":6351:6376  ownerData[i] = nftList[i] */\n      dup2\n      swap1\n      mstore\n      pop\n        /* \"dutch_action_solution.sol\":6427:6436  ownerData */\n      dup2\n        /* \"dutch_action_solution.sol\":6437:6438  i */\n      dup2\n        /* \"dutch_action_solution.sol\":6427:6439  ownerData[i] */\n      0xff\n      and\n      dup2\n      mload\n      dup2\n      lt\n      tag_184\n      jumpi\n      tag_185\n      tag_183\n      jump\t// in\n    tag_185:\n    tag_184:\n      0x20\n      mul\n      0x20\n      add\n      add\n      mload\n        /* \"dutch_action_solution.sol\":6427:6445  ownerData[i].owner */\n      0x60\n      add\n      mload\n        /* \"dutch_action_solution.sol\":6413:6445  msg.sender == ownerData[i].owner */\n      0xffffffffffffffffffffffffffffffffffffffff\n      and\n        /* \"dutch_action_solution.sol\":6413:6423  msg.sender */\n      caller\n        /* \"dutch_action_solution.sol\":6413:6445  msg.sender == ownerData[i].owner */\n      0xffffffffffffffffffffffffffffffffffffffff\n      and\n      eq\n        /* \"dutch_action_solution.sol\":6390:6399  ownerData */\n      dup3\n        /* \"dutch_action_solution.sol\":6400:6401  i */\n      dup3\n        /* \"dutch_action_solution.sol\":6390:6402  ownerData[i] */\n      0xff\n      and\n      dup2\n      mload\n      dup2\n      lt\n      tag_186\n      jumpi\n      tag_187\n      tag_183\n      jump\t// in\n    tag_187:\n    tag_186:\n      0x20\n      mul\n      0x20\n      add\n      add\n      mload\n        /* \"dutch_action_solution.sol\":6390:6410  ownerData[i].isOwner */\n      0x80\n      add\n        /* \"dutch_action_solution.sol\":6390:6445  ownerData[i].isOwner = msg.sender == ownerData[i].owner */\n      swap1\n      iszero\n      iszero\n      swap1\n      dup2\n      iszero\n      iszero\n      dup2\n      mstore\n      pop\n      pop\n        /* \"dutch_action_solution.sol\":6483:6527  getBidStateString(nftBidingData[i].bidState) */\n      tag_188\n        /* \"dutch_action_solution.sol\":6501:6514  nftBidingData */\n      0x00\n        /* \"dutch_action_solution.sol\":6501:6517  nftBidingData[i] */\n      dup1\n        /* \"dutch_action_solution.sol\":6515:6516  i */\n      dup4\n        /* \"dutch_action_solution.sol\":6501:6517  nftBidingData[i] */\n      0xff\n      and\n      dup2\n      mstore\n      0x20\n      add\n      swap1\n      dup2\n      mstore\n      0x20\n      add\n      0x00\n      keccak256\n        /* \"dutch_action_solution.sol\":6501:6526  nftBidingData[i].bidState */\n      0x04\n      add\n      0x00\n      swap1\n      sload\n      swap1\n      0x0100\n      exp\n      swap1\n      div\n      0xff\n      and\n        /* \"dutch_action_solution.sol\":6483:6500  getBidStateString */\n      tag_189\n        /* \"dutch_action_solution.sol\":6483:6527  getBidStateString(nftBidingData[i].bidState) */\n      jump\t// in\n    tag_188:\n        /* \"dutch_action_solution.sol\":6459:6468  ownerData */\n      dup3\n        /* \"dutch_action_solution.sol\":6469:6470  i */\n      dup3\n        /* \"dutch_action_solution.sol\":6459:6471  ownerData[i] */\n      0xff\n      and\n      dup2\n      mload\n      dup2\n      lt\n      tag_190\n      jumpi\n      tag_191\n      tag_183\n      jump\t// in\n    tag_191:\n    tag_190:\n      0x20\n      mul\n      0x20\n      add\n      add\n      mload\n        /* \"dutch_action_solution.sol\":6459:6480  ownerData[i].bidState */\n      0xa0\n      add\n        /* \"dutch_action_solution.sol\":6459:6527  ownerData[i].bidState = getBidStateString(nftBidingData[i].bidState) */\n      dup2\n      swap1\n      mstore\n      pop\n        /* \"dutch_action_solution.sol\":6332:6335  i++ */\n      dup1\n      dup1\n      tag_192\n      swap1\n      tag_193\n      jump\t// in\n    tag_192:\n      swap2\n      pop\n      pop\n        /* \"dutch_action_solution.sol\":6296:6538  for (uint8 i = 0; i < nftItemCount; i++) {... */\n      jump(tag_163)\n    tag_164:\n      pop\n        /* \"dutch_action_solution.sol\":6554:6563  ownerData */\n      dup1\n        /* \"dutch_action_solution.sol\":6547:6563  return ownerData */\n      swap2\n      pop\n      pop\n        /* \"dutch_action_solution.sol\":6169:6570  function getNFTOwners() public view returns (NFT[] memory) {... */\n      swap1\n      jump\t// out\n        /* \"dutch_action_solution.sol\":640:671  uint256 public nftItemCount = 0 */\n    tag_31:\n      sload(0x03)\n      dup2\n      jump\t// out\n        /* \"dutch_action_solution.sol\":1988:2585  function addSecretBid(uint256 id, uint256 bidAmount) public returns (bool) {... */\n    tag_36:\n        /* \"dutch_action_solution.sol\":2057:2061  bool */\n      0x00\n        /* \"dutch_action_solution.sol\":2086:2098  nftItemCount */\n      sload(0x03)\n        /* \"dutch_action_solution.sol\":2081:2083  id */\n      dup4\n        /* \"dutch_action_solution.sol\":2081:2098  id < nftItemCount */\n      lt\n        /* \"dutch_action_solution.sol\":2073:2122  require(id < nftItemCount, \"Item doesn't exists\") */\n      tag_195\n      jumpi\n      mload(0x40)\n      0x08c379a000000000000000000000000000000000000000000000000000000000\n      dup2\n      mstore\n      0x04\n      add\n      tag_196\n      swap1\n      tag_70\n      jump\t// in\n    tag_196:\n      mload(0x40)\n      dup1\n      swap2\n      sub\n      swap1\n      revert\n    tag_195:\n        /* \"dutch_action_solution.sol\":2132:2159  NFTBiding memory bidingData */\n      0x00\n        /* \"dutch_action_solution.sol\":2162:2175  nftBidingData */\n      dup1\n        /* \"dutch_action_solution.sol\":2162:2179  nftBidingData[id] */\n      0x00\n        /* \"dutch_action_solution.sol\":2176:2178  id */\n      dup6\n        /* \"dutch_action_solution.sol\":2162:2179  nftBidingData[id] */\n      dup2\n      mstore\n      0x20\n      add\n      swap1\n      dup2\n      mstore\n      0x20\n      add\n      0x00\n      keccak256\n        /* \"dutch_action_solution.sol\":2132:2179  NFTBiding memory bidingData = nftBidingData[id] */\n      mload(0x40)\n      dup1\n      0xa0\n      add\n      0x40\n      mstore\n      swap1\n      dup2\n      0x00\n      dup3\n      add\n      sload\n      dup2\n      mstore\n      0x20\n      add\n      0x01\n      dup3\n      add\n      0x00\n      swap1\n      sload\n      swap1\n      0x0100\n      exp\n      swap1\n      div\n      0xff\n      and\n      0xff\n      and\n      0xff\n      and\n      dup2\n      mstore\n      0x20\n      add\n      0x02\n      dup3\n      add\n      sload\n      dup2\n      mstore\n      0x20\n      add\n      0x03\n      dup3\n      add\n      sload\n      dup2\n      mstore\n      0x20\n      add\n      0x04\n      dup3\n      add\n      0x00\n      swap1\n      sload\n      swap1\n      0x0100\n      exp\n      swap1\n      div\n      0xff\n      and\n      0x03\n      dup2\n      gt\n      iszero\n      tag_197\n      jumpi\n      tag_198\n      tag_73\n      jump\t// in\n    tag_198:\n    tag_197:\n      0x03\n      dup2\n      gt\n      iszero\n      tag_199\n      jumpi\n      tag_200\n      tag_73\n      jump\t// in\n    tag_200:\n    tag_199:\n      dup2\n      mstore\n      pop\n      pop\n      swap1\n      pop\n        /* \"dutch_action_solution.sol\":2189:2207  NFT memory nftData */\n      0x00\n        /* \"dutch_action_solution.sol\":2210:2217  nftList */\n      0x02\n        /* \"dutch_action_solution.sol\":2210:2221  nftList[id] */\n      0x00\n        /* \"dutch_action_solution.sol\":2218:2220  id */\n      dup7\n        /* \"dutch_action_solution.sol\":2210:2221  nftList[id] */\n      dup2\n      mstore\n      0x20\n      add\n      swap1\n      dup2\n      mstore\n      0x20\n      add\n      0x00\n      keccak256\n        /* \"dutch_action_solution.sol\":2189:2221  NFT memory nftData = nftList[id] */\n      mload(0x40)\n      dup1\n      0xc0\n      add\n      0x40\n      mstore\n      swap1\n      dup2\n      0x00\n      dup3\n      add\n      dup1\n      sload\n      tag_201\n      swap1\n      tag_77\n      jump\t// in\n    tag_201:\n      dup1\n      0x1f\n      add\n      0x20\n      dup1\n      swap2\n      div\n      mul\n      0x20\n      add\n      mload(0x40)\n      swap1\n      dup2\n      add\n      0x40\n      mstore\n      dup1\n      swap3\n      swap2\n      swap1\n      dup2\n      dup2\n      mstore\n      0x20\n      add\n      dup3\n      dup1\n      sload\n      tag_202\n      swap1\n      tag_77\n      jump\t// in\n    tag_202:\n      dup1\n      iszero\n      tag_203\n      jumpi\n      dup1\n      0x1f\n      lt\n      tag_204\n      jumpi\n      0x0100\n      dup1\n      dup4\n      sload\n      div\n      mul\n      dup4\n      mstore\n      swap2\n      0x20\n      add\n      swap2\n      jump(tag_203)\n    tag_204:\n      dup3\n      add\n      swap2\n      swap1\n      0x00\n      mstore\n      keccak256(0x00, 0x20)\n      swap1\n    tag_205:\n      dup2\n      sload\n      dup2\n      mstore\n      swap1\n      0x01\n      add\n      swap1\n      0x20\n      add\n      dup1\n      dup4\n      gt\n      tag_205\n      jumpi\n      dup3\n      swap1\n      sub\n      0x1f\n      and\n      dup3\n      add\n      swap2\n    tag_203:\n      pop\n      pop\n      pop\n      pop\n      pop\n      dup2\n      mstore\n      0x20\n      add\n      0x01\n      dup3\n      add\n      dup1\n      sload\n      tag_206\n      swap1\n      tag_77\n      jump\t// in\n    tag_206:\n      dup1\n      0x1f\n      add\n      0x20\n      dup1\n      swap2\n      div\n      mul\n      0x20\n      add\n      mload(0x40)\n      swap1\n      dup2\n      add\n      0x40\n      mstore\n      dup1\n      swap3\n      swap2\n      swap1\n      dup2\n      dup2\n      mstore\n      0x20\n      add\n      dup3\n      dup1\n      sload\n      tag_207\n      swap1\n      tag_77\n      jump\t// in\n    tag_207:\n      dup1\n      iszero\n      tag_208\n      jumpi\n      dup1\n      0x1f\n      lt\n      tag_209\n      jumpi\n      0x0100\n      dup1\n      dup4\n      sload\n      div\n      mul\n      dup4\n      mstore\n      swap2\n      0x20\n      add\n      swap2\n      jump(tag_208)\n    tag_209:\n      dup3\n      add\n      swap2\n      swap1\n      0x00\n      mstore\n      keccak256(0x00, 0x20)\n      swap1\n    tag_210:\n      dup2\n      sload\n      dup2\n      mstore\n      swap1\n      0x01\n      add\n      swap1\n      0x20\n      add\n      dup1\n      dup4\n      gt\n      tag_210\n      jumpi\n      dup3\n      swap1\n      sub\n      0x1f\n      and\n      dup3\n      add\n      swap2\n    tag_208:\n      pop\n      pop\n      pop\n      pop\n      pop\n      dup2\n      mstore\n      0x20\n      add\n      0x02\n      dup3\n      add\n      sload\n      dup2\n      mstore\n      0x20\n      add\n      0x03\n      dup3\n      add\n      0x00\n      swap1\n      sload\n      swap1\n      0x0100\n      exp\n      swap1\n      div\n      0xffffffffffffffffffffffffffffffffffffffff\n      and\n      0xffffffffffffffffffffffffffffffffffffffff\n      and\n      0xffffffffffffffffffffffffffffffffffffffff\n      and\n      dup2\n      mstore\n      0x20\n      add\n      0x03\n      dup3\n      add\n      0x14\n      swap1\n      sload\n      swap1\n      0x0100\n      exp\n      swap1\n      div\n      0xff\n      and\n      iszero\n      iszero\n      iszero\n      iszero\n      dup2\n      mstore\n      0x20\n      add\n      0x04\n      dup3\n      add\n      dup1\n      sload\n      tag_211\n      swap1\n      tag_77\n      jump\t// in\n    tag_211:\n      dup1\n      0x1f\n      add\n      0x20\n      dup1\n      swap2\n      div\n      mul\n      0x20\n      add\n      mload(0x40)\n      swap1\n      dup2\n      add\n      0x40\n      mstore\n      dup1\n      swap3\n      swap2\n      swap1\n      dup2\n      dup2\n      mstore\n      0x20\n      add\n      dup3\n      dup1\n      sload\n      tag_212\n      swap1\n      tag_77\n      jump\t// in\n    tag_212:\n      dup1\n      iszero\n      tag_213\n      jumpi\n      dup1\n      0x1f\n      lt\n      tag_214\n      jumpi\n      0x0100\n      dup1\n      dup4\n      sload\n      div\n      mul\n      dup4\n      mstore\n      swap2\n      0x20\n      add\n      swap2\n      jump(tag_213)\n    tag_214:\n      dup3\n      add\n      swap2\n      swap1\n      0x00\n      mstore\n      keccak256(0x00, 0x20)\n      swap1\n    tag_215:\n      dup2\n      sload\n      dup2\n      mstore\n      swap1\n      0x01\n      add\n      swap1\n      0x20\n      add\n      dup1\n      dup4\n      gt\n      tag_215\n      jumpi\n      dup3\n      swap1\n      sub\n      0x1f\n      and\n      dup3\n      add\n      swap2\n    tag_213:\n      pop\n      pop\n      pop\n      pop\n      pop\n      dup2\n      mstore\n      pop\n      pop\n      swap1\n      pop\n        /* \"dutch_action_solution.sol\":2262:2280  BidState.secretBid */\n      0x01\n        /* \"dutch_action_solution.sol\":2239:2280  bidingData.bidState == BidState.secretBid */\n      0x03\n      dup2\n      gt\n      iszero\n      tag_216\n      jumpi\n      tag_217\n      tag_73\n      jump\t// in\n    tag_217:\n    tag_216:\n        /* \"dutch_action_solution.sol\":2239:2249  bidingData */\n      dup3\n        /* \"dutch_action_solution.sol\":2239:2258  bidingData.bidState */\n      0x80\n      add\n      mload\n        /* \"dutch_action_solution.sol\":2239:2280  bidingData.bidState == BidState.secretBid */\n      0x03\n      dup2\n      gt\n      iszero\n      tag_218\n      jumpi\n      tag_219\n      tag_73\n      jump\t// in\n    tag_219:\n    tag_218:\n      eq\n        /* \"dutch_action_solution.sol\":2231:2315  require(bidingData.bidState == BidState.secretBid, \"Secret Bid has not started yet\") */\n      tag_220\n      jumpi\n      mload(0x40)\n      0x08c379a000000000000000000000000000000000000000000000000000000000\n      dup2\n      mstore\n      0x04\n      add\n      tag_221\n      swap1\n      tag_145\n      jump\t// in\n    tag_221:\n      mload(0x40)\n      dup1\n      swap2\n      sub\n      swap1\n      revert\n    tag_220:\n        /* \"dutch_action_solution.sol\":2358:2368  msg.sender */\n      caller\n        /* \"dutch_action_solution.sol\":2333:2369  nftData.owner != payable(msg.sender) */\n      0xffffffffffffffffffffffffffffffffffffffff\n      and\n        /* \"dutch_action_solution.sol\":2333:2340  nftData */\n      dup2\n        /* \"dutch_action_solution.sol\":2333:2346  nftData.owner */\n      0x60\n      add\n      mload\n        /* \"dutch_action_solution.sol\":2333:2369  nftData.owner != payable(msg.sender) */\n      0xffffffffffffffffffffffffffffffffffffffff\n      and\n      sub\n        /* \"dutch_action_solution.sol\":2325:2399  require(nftData.owner != payable(msg.sender), \"Owner can't place the bid\") */\n      tag_222\n      jumpi\n      mload(0x40)\n      0x08c379a000000000000000000000000000000000000000000000000000000000\n      dup2\n      mstore\n      0x04\n      add\n      tag_223\n      swap1\n      tag_94\n      jump\t// in\n    tag_223:\n      mload(0x40)\n      dup1\n      swap2\n      sub\n      swap1\n      revert\n    tag_222:\n        /* \"dutch_action_solution.sol\":2437:2446  bidAmount */\n      dup4\n        /* \"dutch_action_solution.sol\":2413:2423  bidingData */\n      dup3\n        /* \"dutch_action_solution.sol\":2413:2434  bidingData.highestBid */\n      0x00\n      add\n      mload\n        /* \"dutch_action_solution.sol\":2413:2446  bidingData.highestBid < bidAmount */\n      lt\n        /* \"dutch_action_solution.sol\":2409:2513  if (bidingData.highestBid < bidAmount) {... */\n      iszero\n      tag_224\n      jumpi\n        /* \"dutch_action_solution.sol\":2493:2502  bidAmount */\n      dup4\n        /* \"dutch_action_solution.sol\":2462:2475  nftBidingData */\n      0x00\n        /* \"dutch_action_solution.sol\":2462:2479  nftBidingData[id] */\n      dup1\n        /* \"dutch_action_solution.sol\":2476:2478  id */\n      dup8\n        /* \"dutch_action_solution.sol\":2462:2479  nftBidingData[id] */\n      dup2\n      mstore\n      0x20\n      add\n      swap1\n      dup2\n      mstore\n      0x20\n      add\n      0x00\n      keccak256\n        /* \"dutch_action_solution.sol\":2462:2490  nftBidingData[id].highestBid */\n      0x00\n      add\n        /* \"dutch_action_solution.sol\":2462:2502  nftBidingData[id].highestBid = bidAmount */\n      dup2\n      swap1\n      sstore\n      pop\n        /* \"dutch_action_solution.sol\":2409:2513  if (bidingData.highestBid < bidAmount) {... */\n    tag_224:\n        /* \"dutch_action_solution.sol\":2553:2557  true */\n      0x01\n        /* \"dutch_action_solution.sol\":2522:2534  participants */\n      dup1\n        /* \"dutch_action_solution.sol\":2522:2538  participants[id] */\n      0x00\n        /* \"dutch_action_solution.sol\":2535:2537  id */\n      dup8\n        /* \"dutch_action_solution.sol\":2522:2538  participants[id] */\n      dup2\n      mstore\n      0x20\n      add\n      swap1\n      dup2\n      mstore\n      0x20\n      add\n      0x00\n      keccak256\n        /* \"dutch_action_solution.sol\":2522:2550  participants[id][msg.sender] */\n      0x00\n        /* \"dutch_action_solution.sol\":2539:2549  msg.sender */\n      caller\n        /* \"dutch_action_solution.sol\":2522:2550  participants[id][msg.sender] */\n      0xffffffffffffffffffffffffffffffffffffffff\n      and\n      0xffffffffffffffffffffffffffffffffffffffff\n      and\n      dup2\n      mstore\n      0x20\n      add\n      swap1\n      dup2\n      mstore\n      0x20\n      add\n      0x00\n      keccak256\n      0x00\n        /* \"dutch_action_solution.sol\":2522:2557  participants[id][msg.sender] = true */\n      0x0100\n      exp\n      dup2\n      sload\n      dup2\n      0xff\n      mul\n      not\n      and\n      swap1\n      dup4\n      iszero\n      iszero\n      mul\n      or\n      swap1\n      sstore\n      pop\n        /* \"dutch_action_solution.sol\":2574:2578  true */\n      0x01\n        /* \"dutch_action_solution.sol\":2567:2578  return true */\n      swap3\n      pop\n      pop\n      pop\n        /* \"dutch_action_solution.sol\":1988:2585  function addSecretBid(uint256 id, uint256 bidAmount) public returns (bool) {... */\n      swap3\n      swap2\n      pop\n      pop\n      jump\t// out\n        /* \"dutch_action_solution.sol\":1464:1982  function startSecretBid(uint256 id) public returns (bool) {... */\n    tag_42:\n        /* \"dutch_action_solution.sol\":1516:1520  bool */\n      0x00\n        /* \"dutch_action_solution.sol\":1545:1557  nftItemCount */\n      sload(0x03)\n        /* \"dutch_action_solution.sol\":1540:1542  id */\n      dup3\n        /* \"dutch_action_solution.sol\":1540:1557  id < nftItemCount */\n      lt\n        /* \"dutch_action_solution.sol\":1532:1581  require(id < nftItemCount, \"Item doesn't exists\") */\n      tag_226\n      jumpi\n      mload(0x40)\n      0x08c379a000000000000000000000000000000000000000000000000000000000\n      dup2\n      mstore\n      0x04\n      add\n      tag_227\n      swap1\n      tag_70\n      jump\t// in\n    tag_227:\n      mload(0x40)\n      dup1\n      swap2\n      sub\n      swap1\n      revert\n    tag_226:\n        /* \"dutch_action_solution.sol\":1591:1618  NFTBiding memory bidingData */\n      0x00\n        /* \"dutch_action_solution.sol\":1621:1634  nftBidingData */\n      dup1\n        /* \"dutch_action_solution.sol\":1621:1638  nftBidingData[id] */\n      0x00\n        /* \"dutch_action_solution.sol\":1635:1637  id */\n      dup5\n        /* \"dutch_action_solution.sol\":1621:1638  nftBidingData[id] */\n      dup2\n      mstore\n      0x20\n      add\n      swap1\n      dup2\n      mstore\n      0x20\n      add\n      0x00\n      keccak256\n        /* \"dutch_action_solution.sol\":1591:1638  NFTBiding memory bidingData = nftBidingData[id] */\n      mload(0x40)\n      dup1\n      0xa0\n      add\n      0x40\n      mstore\n      swap1\n      dup2\n      0x00\n      dup3\n      add\n      sload\n      dup2\n      mstore\n      0x20\n      add\n      0x01\n      dup3\n      add\n      0x00\n      swap1\n      sload\n      swap1\n      0x0100\n      exp\n      swap1\n      div\n      0xff\n      and\n      0xff\n      and\n      0xff\n      and\n      dup2\n      mstore\n      0x20\n      add\n      0x02\n      dup3\n      add\n      sload\n      dup2\n      mstore\n      0x20\n      add\n      0x03\n      dup3\n      add\n      sload\n      dup2\n      mstore\n      0x20\n      add\n      0x04\n      dup3\n      add\n      0x00\n      swap1\n      sload\n      swap1\n      0x0100\n      exp\n      swap1\n      div\n      0xff\n      and\n      0x03\n      dup2\n      gt\n      iszero\n      tag_228\n      jumpi\n      tag_229\n      tag_73\n      jump\t// in\n    tag_229:\n    tag_228:\n      0x03\n      dup2\n      gt\n      iszero\n      tag_230\n      jumpi\n      tag_231\n      tag_73\n      jump\t// in\n    tag_231:\n    tag_230:\n      dup2\n      mstore\n      pop\n      pop\n      swap1\n      pop\n        /* \"dutch_action_solution.sol\":1648:1666  NFT memory nftData */\n      0x00\n        /* \"dutch_action_solution.sol\":1669:1676  nftList */\n      0x02\n        /* \"dutch_action_solution.sol\":1669:1680  nftList[id] */\n      0x00\n        /* \"dutch_action_solution.sol\":1677:1679  id */\n      dup6\n        /* \"dutch_action_solution.sol\":1669:1680  nftList[id] */\n      dup2\n      mstore\n      0x20\n      add\n      swap1\n      dup2\n      mstore\n      0x20\n      add\n      0x00\n      keccak256\n        /* \"dutch_action_solution.sol\":1648:1680  NFT memory nftData = nftList[id] */\n      mload(0x40)\n      dup1\n      0xc0\n      add\n      0x40\n      mstore\n      swap1\n      dup2\n      0x00\n      dup3\n      add\n      dup1\n      sload\n      tag_232\n      swap1\n      tag_77\n      jump\t// in\n    tag_232:\n      dup1\n      0x1f\n      add\n      0x20\n      dup1\n      swap2\n      div\n      mul\n      0x20\n      add\n      mload(0x40)\n      swap1\n      dup2\n      add\n      0x40\n      mstore\n      dup1\n      swap3\n      swap2\n      swap1\n      dup2\n      dup2\n      mstore\n      0x20\n      add\n      dup3\n      dup1\n      sload\n      tag_233\n      swap1\n      tag_77\n      jump\t// in\n    tag_233:\n      dup1\n      iszero\n      tag_234\n      jumpi\n      dup1\n      0x1f\n      lt\n      tag_235\n      jumpi\n      0x0100\n      dup1\n      dup4\n      sload\n      div\n      mul\n      dup4\n      mstore\n      swap2\n      0x20\n      add\n      swap2\n      jump(tag_234)\n    tag_235:\n      dup3\n      add\n      swap2\n      swap1\n      0x00\n      mstore\n      keccak256(0x00, 0x20)\n      swap1\n    tag_236:\n      dup2\n      sload\n      dup2\n      mstore\n      swap1\n      0x01\n      add\n      swap1\n      0x20\n      add\n      dup1\n      dup4\n      gt\n      tag_236\n      jumpi\n      dup3\n      swap1\n      sub\n      0x1f\n      and\n      dup3\n      add\n      swap2\n    tag_234:\n      pop\n      pop\n      pop\n      pop\n      pop\n      dup2\n      mstore\n      0x20\n      add\n      0x01\n      dup3\n      add\n      dup1\n      sload\n      tag_237\n      swap1\n      tag_77\n      jump\t// in\n    tag_237:\n      dup1\n      0x1f\n      add\n      0x20\n      dup1\n      swap2\n      div\n      mul\n      0x20\n      add\n      mload(0x40)\n      swap1\n      dup2\n      add\n      0x40\n      mstore\n      dup1\n      swap3\n      swap2\n      swap1\n      dup2\n      dup2\n      mstore\n      0x20\n      add\n      dup3\n      dup1\n      sload\n      tag_238\n      swap1\n      tag_77\n      jump\t// in\n    tag_238:\n      dup1\n      iszero\n      tag_239\n      jumpi\n      dup1\n      0x1f\n      lt\n      tag_240\n      jumpi\n      0x0100\n      dup1\n      dup4\n      sload\n      div\n      mul\n      dup4\n      mstore\n      swap2\n      0x20\n      add\n      swap2\n      jump(tag_239)\n    tag_240:\n      dup3\n      add\n      swap2\n      swap1\n      0x00\n      mstore\n      keccak256(0x00, 0x20)\n      swap1\n    tag_241:\n      dup2\n      sload\n      dup2\n      mstore\n      swap1\n      0x01\n      add\n      swap1\n      0x20\n      add\n      dup1\n      dup4\n      gt\n      tag_241\n      jumpi\n      dup3\n      swap1\n      sub\n      0x1f\n      and\n      dup3\n      add\n      swap2\n    tag_239:\n      pop\n      pop\n      pop\n      pop\n      pop\n      dup2\n      mstore\n      0x20\n      add\n      0x02\n      dup3\n      add\n      sload\n      dup2\n      mstore\n      0x20\n      add\n      0x03\n      dup3\n      add\n      0x00\n      swap1\n      sload\n      swap1\n      0x0100\n      exp\n      swap1\n      div\n      0xffffffffffffffffffffffffffffffffffffffff\n      and\n      0xffffffffffffffffffffffffffffffffffffffff\n      and\n      0xffffffffffffffffffffffffffffffffffffffff\n      and\n      dup2\n      mstore\n      0x20\n      add\n      0x03\n      dup3\n      add\n      0x14\n      swap1\n      sload\n      swap1\n      0x0100\n      exp\n      swap1\n      div\n      0xff\n      and\n      iszero\n      iszero\n      iszero\n      iszero\n      dup2\n      mstore\n      0x20\n      add\n      0x04\n      dup3\n      add\n      dup1\n      sload\n      tag_242\n      swap1\n      tag_77\n      jump\t// in\n    tag_242:\n      dup1\n      0x1f\n      add\n      0x20\n      dup1\n      swap2\n      div\n      mul\n      0x20\n      add\n      mload(0x40)\n      swap1\n      dup2\n      add\n      0x40\n      mstore\n      dup1\n      swap3\n      swap2\n      swap1\n      dup2\n      dup2\n      mstore\n      0x20\n      add\n      dup3\n      dup1\n      sload\n      tag_243\n      swap1\n      tag_77\n      jump\t// in\n    tag_243:\n      dup1\n      iszero\n      tag_244\n      jumpi\n      dup1\n      0x1f\n      lt\n      tag_245\n      jumpi\n      0x0100\n      dup1\n      dup4\n      sload\n      div\n      mul\n      dup4\n      mstore\n      swap2\n      0x20\n      add\n      swap2\n      jump(tag_244)\n    tag_245:\n      dup3\n      add\n      swap2\n      swap1\n      0x00\n      mstore\n      keccak256(0x00, 0x20)\n      swap1\n    tag_246:\n      dup2\n      sload\n      dup2\n      mstore\n      swap1\n      0x01\n      add\n      swap1\n      0x20\n      add\n      dup1\n      dup4\n      gt\n      tag_246\n      jumpi\n      dup3\n      swap1\n      sub\n      0x1f\n      and\n      dup3\n      add\n      swap2\n    tag_244:\n      pop\n      pop\n      pop\n      pop\n      pop\n      dup2\n      mstore\n      pop\n      pop\n      swap1\n      pop\n        /* \"dutch_action_solution.sol\":1721:1740  BidState.notStarted */\n      0x00\n        /* \"dutch_action_solution.sol\":1698:1740  bidingData.bidState == BidState.notStarted */\n      0x03\n      dup2\n      gt\n      iszero\n      tag_247\n      jumpi\n      tag_248\n      tag_73\n      jump\t// in\n    tag_248:\n    tag_247:\n        /* \"dutch_action_solution.sol\":1698:1708  bidingData */\n      dup3\n        /* \"dutch_action_solution.sol\":1698:1717  bidingData.bidState */\n      0x80\n      add\n      mload\n        /* \"dutch_action_solution.sol\":1698:1740  bidingData.bidState == BidState.notStarted */\n      0x03\n      dup2\n      gt\n      iszero\n      tag_249\n      jumpi\n      tag_250\n      tag_73\n      jump\t// in\n    tag_250:\n    tag_249:\n      eq\n        /* \"dutch_action_solution.sol\":1690:1775  require(bidingData.bidState == BidState.notStarted, \"Secret Bid has not started yet\") */\n      tag_251\n      jumpi\n      mload(0x40)\n      0x08c379a000000000000000000000000000000000000000000000000000000000\n      dup2\n      mstore\n      0x04\n      add\n      tag_252\n      swap1\n      tag_145\n      jump\t// in\n    tag_252:\n      mload(0x40)\n      dup1\n      swap2\n      sub\n      swap1\n      revert\n    tag_251:\n        /* \"dutch_action_solution.sol\":1818:1828  msg.sender */\n      caller\n        /* \"dutch_action_solution.sol\":1793:1829  nftData.owner == payable(msg.sender) */\n      0xffffffffffffffffffffffffffffffffffffffff\n      and\n        /* \"dutch_action_solution.sol\":1793:1800  nftData */\n      dup2\n        /* \"dutch_action_solution.sol\":1793:1806  nftData.owner */\n      0x60\n      add\n      mload\n        /* \"dutch_action_solution.sol\":1793:1829  nftData.owner == payable(msg.sender) */\n      0xffffffffffffffffffffffffffffffffffffffff\n      and\n      eq\n        /* \"dutch_action_solution.sol\":1785:1862  require(nftData.owner == payable(msg.sender), \"Only owner can start the bid\") */\n      tag_253\n      jumpi\n      mload(0x40)\n      0x08c379a000000000000000000000000000000000000000000000000000000000\n      dup2\n      mstore\n      0x04\n      add\n      tag_254\n      swap1\n      tag_148\n      jump\t// in\n    tag_254:\n      mload(0x40)\n      dup1\n      swap2\n      sub\n      swap1\n      revert\n    tag_253:\n        /* \"dutch_action_solution.sol\":1877:1897  SecretBidStarted(id) */\n      0x2b0331ecec1592d15ee8526f8fcdc81b7f33301cdfe0ff55aa1bf9a674b2f1d8\n        /* \"dutch_action_solution.sol\":1894:1896  id */\n      dup5\n        /* \"dutch_action_solution.sol\":1877:1897  SecretBidStarted(id) */\n      mload(0x40)\n      tag_255\n      swap2\n      swap1\n      tag_23\n      jump\t// in\n    tag_255:\n      mload(0x40)\n      dup1\n      swap2\n      sub\n      swap1\n      log1\n        /* \"dutch_action_solution.sol\":1936:1954  BidState.secretBid */\n      0x01\n        /* \"dutch_action_solution.sol\":1907:1920  nftBidingData */\n      0x00\n        /* \"dutch_action_solution.sol\":1907:1924  nftBidingData[id] */\n      dup1\n        /* \"dutch_action_solution.sol\":1921:1923  id */\n      dup7\n        /* \"dutch_action_solution.sol\":1907:1924  nftBidingData[id] */\n      dup2\n      mstore\n      0x20\n      add\n      swap1\n      dup2\n      mstore\n      0x20\n      add\n      0x00\n      keccak256\n        /* \"dutch_action_solution.sol\":1907:1933  nftBidingData[id].bidState */\n      0x04\n      add\n      0x00\n        /* \"dutch_action_solution.sol\":1907:1954  nftBidingData[id].bidState = BidState.secretBid */\n      0x0100\n      exp\n      dup2\n      sload\n      dup2\n      0xff\n      mul\n      not\n      and\n      swap1\n      dup4\n      0x03\n      dup2\n      gt\n      iszero\n      tag_256\n      jumpi\n      tag_257\n      tag_73\n      jump\t// in\n    tag_257:\n    tag_256:\n      mul\n      or\n      swap1\n      sstore\n      pop\n        /* \"dutch_action_solution.sol\":1971:1975  true */\n      0x01\n        /* \"dutch_action_solution.sol\":1964:1975  return true */\n      swap3\n      pop\n      pop\n      pop\n        /* \"dutch_action_solution.sol\":1464:1982  function startSecretBid(uint256 id) public returns (bool) {... */\n      swap2\n      swap1\n      pop\n      jump\t// out\n        /* \"dutch_action_solution.sol\":937:1458  function addItem(string memory name, string memory url, uint256 _reservePrice, uint8 maxMultiplier) public returns (NFT memory) {... */\n    tag_48:\n        /* \"dutch_action_solution.sol\":1053:1063  NFT memory */\n      tag_258\n      tag_162\n      jump\t// in\n    tag_258:\n        /* \"dutch_action_solution.sol\":1075:1092  NFT memory newNFT */\n      0x00\n        /* \"dutch_action_solution.sol\":1095:1164  NFT(name, url, nftItemCount, payable(msg.sender), true, \"notStarted\") */\n      mload(0x40)\n      dup1\n      0xc0\n      add\n      0x40\n      mstore\n      dup1\n        /* \"dutch_action_solution.sol\":1099:1103  name */\n      dup8\n        /* \"dutch_action_solution.sol\":1095:1164  NFT(name, url, nftItemCount, payable(msg.sender), true, \"notStarted\") */\n      dup2\n      mstore\n      0x20\n      add\n        /* \"dutch_action_solution.sol\":1105:1108  url */\n      dup7\n        /* \"dutch_action_solution.sol\":1095:1164  NFT(name, url, nftItemCount, payable(msg.sender), true, \"notStarted\") */\n      dup2\n      mstore\n      0x20\n      add\n        /* \"dutch_action_solution.sol\":1110:1122  nftItemCount */\n      sload(0x03)\n        /* \"dutch_action_solution.sol\":1095:1164  NFT(name, url, nftItemCount, payable(msg.sender), true, \"notStarted\") */\n      dup2\n      mstore\n      0x20\n      add\n        /* \"dutch_action_solution.sol\":1132:1142  msg.sender */\n      caller\n        /* \"dutch_action_solution.sol\":1095:1164  NFT(name, url, nftItemCount, payable(msg.sender), true, \"notStarted\") */\n      0xffffffffffffffffffffffffffffffffffffffff\n      and\n      dup2\n      mstore\n      0x20\n      add\n        /* \"dutch_action_solution.sol\":1145:1149  true */\n      0x01\n        /* \"dutch_action_solution.sol\":1095:1164  NFT(name, url, nftItemCount, payable(msg.sender), true, \"notStarted\") */\n      iszero\n      iszero\n      dup2\n      mstore\n      0x20\n      add\n      mload(0x40)\n      dup1\n      0x40\n      add\n      0x40\n      mstore\n      dup1\n      0x0a\n      dup2\n      mstore\n      0x20\n      add\n      0x6e6f745374617274656400000000000000000000000000000000000000000000\n      dup2\n      mstore\n      pop\n      dup2\n      mstore\n      pop\n        /* \"dutch_action_solution.sol\":1075:1164  NFT memory newNFT = NFT(name, url, nftItemCount, payable(msg.sender), true, \"notStarted\") */\n      swap1\n      pop\n        /* \"dutch_action_solution.sol\":1198:1204  newNFT */\n      dup1\n        /* \"dutch_action_solution.sol\":1174:1181  nftList */\n      0x02\n        /* \"dutch_action_solution.sol\":1174:1195  nftList[nftItemCount] */\n      0x00\n        /* \"dutch_action_solution.sol\":1182:1194  nftItemCount */\n      sload(0x03)\n        /* \"dutch_action_solution.sol\":1174:1195  nftList[nftItemCount] */\n      dup2\n      mstore\n      0x20\n      add\n      swap1\n      dup2\n      mstore\n      0x20\n      add\n      0x00\n      keccak256\n        /* \"dutch_action_solution.sol\":1174:1204  nftList[nftItemCount] = newNFT */\n      0x00\n      dup3\n      add\n      mload\n      dup2\n      0x00\n      add\n      swap1\n      dup2\n      tag_260\n      swap2\n      swap1\n      tag_261\n      jump\t// in\n    tag_260:\n      pop\n      0x20\n      dup3\n      add\n      mload\n      dup2\n      0x01\n      add\n      swap1\n      dup2\n      tag_262\n      swap2\n      swap1\n      tag_261\n      jump\t// in\n    tag_262:\n      pop\n      0x40\n      dup3\n      add\n      mload\n      dup2\n      0x02\n      add\n      sstore\n      0x60\n      dup3\n      add\n      mload\n      dup2\n      0x03\n      add\n      exp(0x0100, 0x00)\n      dup2\n      sload\n      dup2\n      0xffffffffffffffffffffffffffffffffffffffff\n      mul\n      not\n      and\n      swap1\n      dup4\n      0xffffffffffffffffffffffffffffffffffffffff\n      and\n      mul\n      or\n      swap1\n      sstore\n      pop\n      0x80\n      dup3\n      add\n      mload\n      dup2\n      0x03\n      add\n      exp(0x0100, 0x14)\n      dup2\n      sload\n      dup2\n      0xff\n      mul\n      not\n      and\n      swap1\n      dup4\n      iszero\n      iszero\n      mul\n      or\n      swap1\n      sstore\n      pop\n      0xa0\n      dup3\n      add\n      mload\n      dup2\n      0x04\n      add\n      swap1\n      dup2\n      tag_263\n      swap2\n      swap1\n      tag_261\n      jump\t// in\n    tag_263:\n      pop\n      swap1\n      pop\n      pop\n        /* \"dutch_action_solution.sol\":1255:1268  _reservePrice */\n      dup4\n        /* \"dutch_action_solution.sol\":1214:1227  nftBidingData */\n      0x00\n        /* \"dutch_action_solution.sol\":1214:1241  nftBidingData[nftItemCount] */\n      dup1\n        /* \"dutch_action_solution.sol\":1228:1240  nftItemCount */\n      sload(0x03)\n        /* \"dutch_action_solution.sol\":1214:1241  nftBidingData[nftItemCount] */\n      dup2\n      mstore\n      0x20\n      add\n      swap1\n      dup2\n      mstore\n      0x20\n      add\n      0x00\n      keccak256\n        /* \"dutch_action_solution.sol\":1214:1252  nftBidingData[nftItemCount].highestBid */\n      0x00\n      add\n        /* \"dutch_action_solution.sol\":1214:1268  nftBidingData[nftItemCount].highestBid = _reservePrice */\n      dup2\n      swap1\n      sstore\n      pop\n        /* \"dutch_action_solution.sol\":1325:1338  maxMultiplier */\n      dup3\n        /* \"dutch_action_solution.sol\":1278:1291  nftBidingData */\n      0x00\n        /* \"dutch_action_solution.sol\":1278:1305  nftBidingData[nftItemCount] */\n      dup1\n        /* \"dutch_action_solution.sol\":1292:1304  nftItemCount */\n      sload(0x03)\n        /* \"dutch_action_solution.sol\":1278:1305  nftBidingData[nftItemCount] */\n      dup2\n      mstore\n      0x20\n      add\n      swap1\n      dup2\n      mstore\n      0x20\n      add\n      0x00\n      keccak256\n        /* \"dutch_action_solution.sol\":1278:1322  nftBidingData[nftItemCount].maxBidMultiplier */\n      0x01\n      add\n      0x00\n        /* \"dutch_action_solution.sol\":1278:1338  nftBidingData[nftItemCount].maxBidMultiplier = maxMultiplier */\n      0x0100\n      exp\n      dup2\n      sload\n      dup2\n      0xff\n      mul\n      not\n      and\n      swap1\n      dup4\n      0xff\n      and\n      mul\n      or\n      swap1\n      sstore\n      pop\n        /* \"dutch_action_solution.sol\":1391:1404  _reservePrice */\n      dup4\n        /* \"dutch_action_solution.sol\":1348:1361  nftBidingData */\n      0x00\n        /* \"dutch_action_solution.sol\":1348:1375  nftBidingData[nftItemCount] */\n      dup1\n        /* \"dutch_action_solution.sol\":1362:1374  nftItemCount */\n      sload(0x03)\n        /* \"dutch_action_solution.sol\":1348:1375  nftBidingData[nftItemCount] */\n      dup2\n      mstore\n      0x20\n      add\n      swap1\n      dup2\n      mstore\n      0x20\n      add\n      0x00\n      keccak256\n        /* \"dutch_action_solution.sol\":1348:1388  nftBidingData[nftItemCount].reservePrice */\n      0x02\n      add\n        /* \"dutch_action_solution.sol\":1348:1404  nftBidingData[nftItemCount].reservePrice = _reservePrice */\n      dup2\n      swap1\n      sstore\n      pop\n        /* \"dutch_action_solution.sol\":1414:1426  nftItemCount */\n      0x03\n      0x00\n        /* \"dutch_action_solution.sol\":1414:1428  nftItemCount++ */\n      dup2\n      sload\n      dup1\n      swap3\n      swap2\n      swap1\n      tag_264\n      swap1\n      tag_265\n      jump\t// in\n    tag_264:\n      swap2\n      swap1\n      pop\n      sstore\n      pop\n        /* \"dutch_action_solution.sol\":1445:1451  newNFT */\n      dup1\n        /* \"dutch_action_solution.sol\":1438:1451  return newNFT */\n      swap2\n      pop\n      pop\n        /* \"dutch_action_solution.sol\":937:1458  function addItem(string memory name, string memory url, uint256 _reservePrice, uint8 maxMultiplier) public returns (NFT memory) {... */\n      swap5\n      swap4\n      pop\n      pop\n      pop\n      pop\n      jump\t// out\n        /* \"dutch_action_solution.sol\":3828:4075  function getBidState(uint256 id) public view returns (string memory) {... */\n    tag_54:\n        /* \"dutch_action_solution.sol\":3882:3895  string memory */\n      0x60\n        /* \"dutch_action_solution.sol\":3920:3932  nftItemCount */\n      sload(0x03)\n        /* \"dutch_action_solution.sol\":3915:3917  id */\n      dup3\n        /* \"dutch_action_solution.sol\":3915:3932  id < nftItemCount */\n      lt\n        /* \"dutch_action_solution.sol\":3907:3956  require(id < nftItemCount, \"Item doesn't exists\") */\n      tag_267\n      jumpi\n      mload(0x40)\n      0x08c379a000000000000000000000000000000000000000000000000000000000\n      dup2\n      mstore\n      0x04\n      add\n      tag_268\n      swap1\n      tag_70\n      jump\t// in\n    tag_268:\n      mload(0x40)\n      dup1\n      swap2\n      sub\n      swap1\n      revert\n    tag_267:\n        /* \"dutch_action_solution.sol\":3966:3993  NFTBiding memory bidingData */\n      0x00\n        /* \"dutch_action_solution.sol\":3996:4009  nftBidingData */\n      dup1\n        /* \"dutch_action_solution.sol\":3996:4013  nftBidingData[id] */\n      0x00\n        /* \"dutch_action_solution.sol\":4010:4012  id */\n      dup5\n        /* \"dutch_action_solution.sol\":3996:4013  nftBidingData[id] */\n      dup2\n      mstore\n      0x20\n      add\n      swap1\n      dup2\n      mstore\n      0x20\n      add\n      0x00\n      keccak256\n        /* \"dutch_action_solution.sol\":3966:4013  NFTBiding memory bidingData = nftBidingData[id] */\n      mload(0x40)\n      dup1\n      0xa0\n      add\n      0x40\n      mstore\n      swap1\n      dup2\n      0x00\n      dup3\n      add\n      sload\n      dup2\n      mstore\n      0x20\n      add\n      0x01\n      dup3\n      add\n      0x00\n      swap1\n      sload\n      swap1\n      0x0100\n      exp\n      swap1\n      div\n      0xff\n      and\n      0xff\n      and\n      0xff\n      and\n      dup2\n      mstore\n      0x20\n      add\n      0x02\n      dup3\n      add\n      sload\n      dup2\n      mstore\n      0x20\n      add\n      0x03\n      dup3\n      add\n      sload\n      dup2\n      mstore\n      0x20\n      add\n      0x04\n      dup3\n      add\n      0x00\n      swap1\n      sload\n      swap1\n      0x0100\n      exp\n      swap1\n      div\n      0xff\n      and\n      0x03\n      dup2\n      gt\n      iszero\n      tag_269\n      jumpi\n      tag_270\n      tag_73\n      jump\t// in\n    tag_270:\n    tag_269:\n      0x03\n      dup2\n      gt\n      iszero\n      tag_271\n      jumpi\n      tag_272\n      tag_73\n      jump\t// in\n    tag_272:\n    tag_271:\n      dup2\n      mstore\n      pop\n      pop\n      swap1\n      pop\n        /* \"dutch_action_solution.sol\":4030:4068  getBidStateString(bidingData.bidState) */\n      tag_273\n        /* \"dutch_action_solution.sol\":4048:4058  bidingData */\n      dup2\n        /* \"dutch_action_solution.sol\":4048:4067  bidingData.bidState */\n      0x80\n      add\n      mload\n        /* \"dutch_action_solution.sol\":4030:4047  getBidStateString */\n      tag_189\n        /* \"dutch_action_solution.sol\":4030:4068  getBidStateString(bidingData.bidState) */\n      jump\t// in\n    tag_273:\n        /* \"dutch_action_solution.sol\":4023:4068  return getBidStateString(bidingData.bidState) */\n      swap2\n      pop\n      pop\n        /* \"dutch_action_solution.sol\":3828:4075  function getBidState(uint256 id) public view returns (string memory) {... */\n      swap2\n      swap1\n      pop\n      jump\t// out\n        /* \"dutch_action_solution.sol\":4481:5192  function getItemCurrentPrice(uint256 id) public view returns (uint256) {... */\n    tag_60:\n        /* \"dutch_action_solution.sol\":4543:4550  uint256 */\n      0x00\n        /* \"dutch_action_solution.sol\":4575:4587  nftItemCount */\n      sload(0x03)\n        /* \"dutch_action_solution.sol\":4570:4572  id */\n      dup3\n        /* \"dutch_action_solution.sol\":4570:4587  id < nftItemCount */\n      lt\n        /* \"dutch_action_solution.sol\":4562:4611  require(id < nftItemCount, \"Item doesn't exists\") */\n      tag_275\n      jumpi\n      mload(0x40)\n      0x08c379a000000000000000000000000000000000000000000000000000000000\n      dup2\n      mstore\n      0x04\n      add\n      tag_276\n      swap1\n      tag_70\n      jump\t// in\n    tag_276:\n      mload(0x40)\n      dup1\n      swap2\n      sub\n      swap1\n      revert\n    tag_275:\n        /* \"dutch_action_solution.sol\":4621:4648  NFTBiding memory bidingData */\n      0x00\n        /* \"dutch_action_solution.sol\":4651:4664  nftBidingData */\n      dup1\n        /* \"dutch_action_solution.sol\":4651:4668  nftBidingData[id] */\n      0x00\n        /* \"dutch_action_solution.sol\":4665:4667  id */\n      dup5\n        /* \"dutch_action_solution.sol\":4651:4668  nftBidingData[id] */\n      dup2\n      mstore\n      0x20\n      add\n      swap1\n      dup2\n      mstore\n      0x20\n      add\n      0x00\n      keccak256\n        /* \"dutch_action_solution.sol\":4621:4668  NFTBiding memory bidingData = nftBidingData[id] */\n      mload(0x40)\n      dup1\n      0xa0\n      add\n      0x40\n      mstore\n      swap1\n      dup2\n      0x00\n      dup3\n      add\n      sload\n      dup2\n      mstore\n      0x20\n      add\n      0x01\n      dup3\n      add\n      0x00\n      swap1\n      sload\n      swap1\n      0x0100\n      exp\n      swap1\n      div\n      0xff\n      and\n      0xff\n      and\n      0xff\n      and\n      dup2\n      mstore\n      0x20\n      add\n      0x02\n      dup3\n      add\n      sload\n      dup2\n      mstore\n      0x20\n      add\n      0x03\n      dup3\n      add\n      sload\n      dup2\n      mstore\n      0x20\n      add\n      0x04\n      dup3\n      add\n      0x00\n      swap1\n      sload\n      swap1\n      0x0100\n      exp\n      swap1\n      div\n      0xff\n      and\n      0x03\n      dup2\n      gt\n      iszero\n      tag_277\n      jumpi\n      tag_278\n      tag_73\n      jump\t// in\n    tag_278:\n    tag_277:\n      0x03\n      dup2\n      gt\n      iszero\n      tag_279\n      jumpi\n      tag_280\n      tag_73\n      jump\t// in\n    tag_280:\n    tag_279:\n      dup2\n      mstore\n      pop\n      pop\n      swap1\n      pop\n        /* \"dutch_action_solution.sol\":4709:4725  BidState.openBid */\n      0x02\n        /* \"dutch_action_solution.sol\":4686:4725  bidingData.bidState == BidState.openBid */\n      0x03\n      dup2\n      gt\n      iszero\n      tag_281\n      jumpi\n      tag_282\n      tag_73\n      jump\t// in\n    tag_282:\n    tag_281:\n        /* \"dutch_action_solution.sol\":4686:4696  bidingData */\n      dup2\n        /* \"dutch_action_solution.sol\":4686:4705  bidingData.bidState */\n      0x80\n      add\n      mload\n        /* \"dutch_action_solution.sol\":4686:4725  bidingData.bidState == BidState.openBid */\n      0x03\n      dup2\n      gt\n      iszero\n      tag_283\n      jumpi\n      tag_284\n      tag_73\n      jump\t// in\n    tag_284:\n    tag_283:\n      eq\n        /* \"dutch_action_solution.sol\":4678:4758  require(bidingData.bidState == BidState.openBid, \"Open Bid has not started yet\") */\n      tag_285\n      jumpi\n      mload(0x40)\n      0x08c379a000000000000000000000000000000000000000000000000000000000\n      dup2\n      mstore\n      0x04\n      add\n      tag_286\n      swap1\n      tag_287\n      jump\t// in\n    tag_286:\n      mload(0x40)\n      dup1\n      swap2\n      sub\n      swap1\n      revert\n    tag_285:\n        /* \"dutch_action_solution.sol\":4768:4787  uint256 elapsedTime */\n      0x00\n        /* \"dutch_action_solution.sol\":4808:4818  bidingData */\n      dup2\n        /* \"dutch_action_solution.sol\":4808:4831  bidingData.bidStartTime */\n      0x60\n      add\n      mload\n        /* \"dutch_action_solution.sol\":4790:4805  block.timestamp */\n      timestamp\n        /* \"dutch_action_solution.sol\":4790:4831  block.timestamp - bidingData.bidStartTime */\n      tag_288\n      swap2\n      swap1\n      tag_289\n      jump\t// in\n    tag_288:\n        /* \"dutch_action_solution.sol\":4768:4831  uint256 elapsedTime = block.timestamp - bidingData.bidStartTime */\n      swap1\n      pop\n        /* \"dutch_action_solution.sol\":4841:4867  uint256 discountPercentage */\n      0x00\n        /* \"dutch_action_solution.sol\":4902:4905  100 */\n      0x64\n        /* \"dutch_action_solution.sol\":709:712  100 */\n      dup1\n        /* \"dutch_action_solution.sol\":4885:4905  discountPerSec / 100 */\n      tag_290\n      swap2\n      swap1\n      tag_291\n      jump\t// in\n    tag_290:\n        /* \"dutch_action_solution.sol\":4870:4906  elapsedTime * (discountPerSec / 100) */\n      0xff\n      and\n        /* \"dutch_action_solution.sol\":4870:4881  elapsedTime */\n      dup3\n        /* \"dutch_action_solution.sol\":4870:4906  elapsedTime * (discountPerSec / 100) */\n      tag_292\n      swap2\n      swap1\n      tag_152\n      jump\t// in\n    tag_292:\n        /* \"dutch_action_solution.sol\":4841:4906  uint256 discountPercentage = elapsedTime * (discountPerSec / 100) */\n      swap1\n      pop\n        /* \"dutch_action_solution.sol\":4916:4935  uint256 startAmount */\n      0x00\n        /* \"dutch_action_solution.sol\":4963:4973  bidingData */\n      dup4\n        /* \"dutch_action_solution.sol\":4963:4990  bidingData.maxBidMultiplier */\n      0x20\n      add\n      mload\n        /* \"dutch_action_solution.sol\":4939:4990  bidingData.highestBid * bidingData.maxBidMultiplier */\n      0xff\n      and\n        /* \"dutch_action_solution.sol\":4939:4949  bidingData */\n      dup5\n        /* \"dutch_action_solution.sol\":4939:4960  bidingData.highestBid */\n      0x00\n      add\n      mload\n        /* \"dutch_action_solution.sol\":4939:4990  bidingData.highestBid * bidingData.maxBidMultiplier */\n      tag_293\n      swap2\n      swap1\n      tag_152\n      jump\t// in\n    tag_293:\n        /* \"dutch_action_solution.sol\":4916:4991  uint256 startAmount = (bidingData.highestBid * bidingData.maxBidMultiplier) */\n      swap1\n      pop\n        /* \"dutch_action_solution.sol\":5001:5022  uint256 discountAmout */\n      0x00\n        /* \"dutch_action_solution.sol\":5063:5066  100 */\n      0x64\n        /* \"dutch_action_solution.sol\":5041:5059  discountPercentage */\n      dup4\n        /* \"dutch_action_solution.sol\":5027:5038  startAmount */\n      dup4\n        /* \"dutch_action_solution.sol\":5027:5059  startAmount * discountPercentage */\n      tag_294\n      swap2\n      swap1\n      tag_152\n      jump\t// in\n    tag_294:\n        /* \"dutch_action_solution.sol\":5026:5066  (startAmount * discountPercentage) / 100 */\n      tag_295\n      swap2\n      swap1\n      tag_296\n      jump\t// in\n    tag_295:\n        /* \"dutch_action_solution.sol\":5001:5066  uint256 discountAmout =  (startAmount * discountPercentage) / 100 */\n      swap1\n      pop\n        /* \"dutch_action_solution.sol\":5096:5107  startAmount */\n      dup2\n        /* \"dutch_action_solution.sol\":5080:5093  discountAmout */\n      dup2\n        /* \"dutch_action_solution.sol\":5080:5107  discountAmout > startAmount */\n      gt\n        /* \"dutch_action_solution.sol\":5076:5142  if (discountAmout > startAmount) {... */\n      iszero\n      tag_297\n      jumpi\n        /* \"dutch_action_solution.sol\":5130:5131  0 */\n      0x00\n        /* \"dutch_action_solution.sol\":5123:5131  return 0 */\n      swap6\n      pop\n      pop\n      pop\n      pop\n      pop\n      pop\n      jump(tag_274)\n        /* \"dutch_action_solution.sol\":5076:5142  if (discountAmout > startAmount) {... */\n    tag_297:\n        /* \"dutch_action_solution.sol\":5172:5185  discountAmout */\n      dup1\n        /* \"dutch_action_solution.sol\":5158:5169  startAmount */\n      dup3\n        /* \"dutch_action_solution.sol\":5158:5185  startAmount - discountAmout */\n      tag_298\n      swap2\n      swap1\n      tag_289\n      jump\t// in\n    tag_298:\n        /* \"dutch_action_solution.sol\":5151:5185  return startAmount - discountAmout */\n      swap6\n      pop\n      pop\n      pop\n      pop\n      pop\n      pop\n        /* \"dutch_action_solution.sol\":4481:5192  function getItemCurrentPrice(uint256 id) public view returns (uint256) {... */\n    tag_274:\n      swap2\n      swap1\n      pop\n      jump\t// out\n        /* \"dutch_action_solution.sol\":3302:3818  function endOpenBid(uint256 id) public returns (bool) {... */\n    tag_65:\n        /* \"dutch_action_solution.sol\":3350:3354  bool */\n      0x00\n        /* \"dutch_action_solution.sol\":3379:3391  nftItemCount */\n      sload(0x03)\n        /* \"dutch_action_solution.sol\":3374:3376  id */\n      dup3\n        /* \"dutch_action_solution.sol\":3374:3391  id < nftItemCount */\n      lt\n        /* \"dutch_action_solution.sol\":3366:3415  require(id < nftItemCount, \"Item doesn't exists\") */\n      tag_300\n      jumpi\n      mload(0x40)\n      0x08c379a000000000000000000000000000000000000000000000000000000000\n      dup2\n      mstore\n      0x04\n      add\n      tag_301\n      swap1\n      tag_70\n      jump\t// in\n    tag_301:\n      mload(0x40)\n      dup1\n      swap2\n      sub\n      swap1\n      revert\n    tag_300:\n        /* \"dutch_action_solution.sol\":3425:3443  NFT memory nftData */\n      0x00\n        /* \"dutch_action_solution.sol\":3446:3453  nftList */\n      0x02\n        /* \"dutch_action_solution.sol\":3446:3457  nftList[id] */\n      0x00\n        /* \"dutch_action_solution.sol\":3454:3456  id */\n      dup5\n        /* \"dutch_action_solution.sol\":3446:3457  nftList[id] */\n      dup2\n      mstore\n      0x20\n      add\n      swap1\n      dup2\n      mstore\n      0x20\n      add\n      0x00\n      keccak256\n        /* \"dutch_action_solution.sol\":3425:3457  NFT memory nftData = nftList[id] */\n      mload(0x40)\n      dup1\n      0xc0\n      add\n      0x40\n      mstore\n      swap1\n      dup2\n      0x00\n      dup3\n      add\n      dup1\n      sload\n      tag_302\n      swap1\n      tag_77\n      jump\t// in\n    tag_302:\n      dup1\n      0x1f\n      add\n      0x20\n      dup1\n      swap2\n      div\n      mul\n      0x20\n      add\n      mload(0x40)\n      swap1\n      dup2\n      add\n      0x40\n      mstore\n      dup1\n      swap3\n      swap2\n      swap1\n      dup2\n      dup2\n      mstore\n      0x20\n      add\n      dup3\n      dup1\n      sload\n      tag_303\n      swap1\n      tag_77\n      jump\t// in\n    tag_303:\n      dup1\n      iszero\n      tag_304\n      jumpi\n      dup1\n      0x1f\n      lt\n      tag_305\n      jumpi\n      0x0100\n      dup1\n      dup4\n      sload\n      div\n      mul\n      dup4\n      mstore\n      swap2\n      0x20\n      add\n      swap2\n      jump(tag_304)\n    tag_305:\n      dup3\n      add\n      swap2\n      swap1\n      0x00\n      mstore\n      keccak256(0x00, 0x20)\n      swap1\n    tag_306:\n      dup2\n      sload\n      dup2\n      mstore\n      swap1\n      0x01\n      add\n      swap1\n      0x20\n      add\n      dup1\n      dup4\n      gt\n      tag_306\n      jumpi\n      dup3\n      swap1\n      sub\n      0x1f\n      and\n      dup3\n      add\n      swap2\n    tag_304:\n      pop\n      pop\n      pop\n      pop\n      pop\n      dup2\n      mstore\n      0x20\n      add\n      0x01\n      dup3\n      add\n      dup1\n      sload\n      tag_307\n      swap1\n      tag_77\n      jump\t// in\n    tag_307:\n      dup1\n      0x1f\n      add\n      0x20\n      dup1\n      swap2\n      div\n      mul\n      0x20\n      add\n      mload(0x40)\n      swap1\n      dup2\n      add\n      0x40\n      mstore\n      dup1\n      swap3\n      swap2\n      swap1\n      dup2\n      dup2\n      mstore\n      0x20\n      add\n      dup3\n      dup1\n      sload\n      tag_308\n      swap1\n      tag_77\n      jump\t// in\n    tag_308:\n      dup1\n      iszero\n      tag_309\n      jumpi\n      dup1\n      0x1f\n      lt\n      tag_310\n      jumpi\n      0x0100\n      dup1\n      dup4\n      sload\n      div\n      mul\n      dup4\n      mstore\n      swap2\n      0x20\n      add\n      swap2\n      jump(tag_309)\n    tag_310:\n      dup3\n      add\n      swap2\n      swap1\n      0x00\n      mstore\n      keccak256(0x00, 0x20)\n      swap1\n    tag_311:\n      dup2\n      sload\n      dup2\n      mstore\n      swap1\n      0x01\n      add\n      swap1\n      0x20\n      add\n      dup1\n      dup4\n      gt\n      tag_311\n      jumpi\n      dup3\n      swap1\n      sub\n      0x1f\n      and\n      dup3\n      add\n      swap2\n    tag_309:\n      pop\n      pop\n      pop\n      pop\n      pop\n      dup2\n      mstore\n      0x20\n      add\n      0x02\n      dup3\n      add\n      sload\n      dup2\n      mstore\n      0x20\n      add\n      0x03\n      dup3\n      add\n      0x00\n      swap1\n      sload\n      swap1\n      0x0100\n      exp\n      swap1\n      div\n      0xffffffffffffffffffffffffffffffffffffffff\n      and\n      0xffffffffffffffffffffffffffffffffffffffff\n      and\n      0xffffffffffffffffffffffffffffffffffffffff\n      and\n      dup2\n      mstore\n      0x20\n      add\n      0x03\n      dup3\n      add\n      0x14\n      swap1\n      sload\n      swap1\n      0x0100\n      exp\n      swap1\n      div\n      0xff\n      and\n      iszero\n      iszero\n      iszero\n      iszero\n      dup2\n      mstore\n      0x20\n      add\n      0x04\n      dup3\n      add\n      dup1\n      sload\n      tag_312\n      swap1\n      tag_77\n      jump\t// in\n    tag_312:\n      dup1\n      0x1f\n      add\n      0x20\n      dup1\n      swap2\n      div\n      mul\n      0x20\n      add\n      mload(0x40)\n      swap1\n      dup2\n      add\n      0x40\n      mstore\n      dup1\n      swap3\n      swap2\n      swap1\n      dup2\n      dup2\n      mstore\n      0x20\n      add\n      dup3\n      dup1\n      sload\n      tag_313\n      swap1\n      tag_77\n      jump\t// in\n    tag_313:\n      dup1\n      iszero\n      tag_314\n      jumpi\n      dup1\n      0x1f\n      lt\n      tag_315\n      jumpi\n      0x0100\n      dup1\n      dup4\n      sload\n      div\n      mul\n      dup4\n      mstore\n      swap2\n      0x20\n      add\n      swap2\n      jump(tag_314)\n    tag_315:\n      dup3\n      add\n      swap2\n      swap1\n      0x00\n      mstore\n      keccak256(0x00, 0x20)\n      swap1\n    tag_316:\n      dup2\n      sload\n      dup2\n      mstore\n      swap1\n      0x01\n      add\n      swap1\n      0x20\n      add\n      dup1\n      dup4\n      gt\n      tag_316\n      jumpi\n      dup3\n      swap1\n      sub\n      0x1f\n      and\n      dup3\n      add\n      swap2\n    tag_314:\n      pop\n      pop\n      pop\n      pop\n      pop\n      dup2\n      mstore\n      pop\n      pop\n      swap1\n      pop\n        /* \"dutch_action_solution.sol\":3467:3494  NFTBiding memory bidingData */\n      0x00\n        /* \"dutch_action_solution.sol\":3497:3510  nftBidingData */\n      dup1\n        /* \"dutch_action_solution.sol\":3497:3514  nftBidingData[id] */\n      0x00\n        /* \"dutch_action_solution.sol\":3511:3513  id */\n      dup6\n        /* \"dutch_action_solution.sol\":3497:3514  nftBidingData[id] */\n      dup2\n      mstore\n      0x20\n      add\n      swap1\n      dup2\n      mstore\n      0x20\n      add\n      0x00\n      keccak256\n        /* \"dutch_action_solution.sol\":3467:3514  NFTBiding memory bidingData = nftBidingData[id] */\n      mload(0x40)\n      dup1\n      0xa0\n      add\n      0x40\n      mstore\n      swap1\n      dup2\n      0x00\n      dup3\n      add\n      sload\n      dup2\n      mstore\n      0x20\n      add\n      0x01\n      dup3\n      add\n      0x00\n      swap1\n      sload\n      swap1\n      0x0100\n      exp\n      swap1\n      div\n      0xff\n      and\n      0xff\n      and\n      0xff\n      and\n      dup2\n      mstore\n      0x20\n      add\n      0x02\n      dup3\n      add\n      sload\n      dup2\n      mstore\n      0x20\n      add\n      0x03\n      dup3\n      add\n      sload\n      dup2\n      mstore\n      0x20\n      add\n      0x04\n      dup3\n      add\n      0x00\n      swap1\n      sload\n      swap1\n      0x0100\n      exp\n      swap1\n      div\n      0xff\n      and\n      0x03\n      dup2\n      gt\n      iszero\n      tag_317\n      jumpi\n      tag_318\n      tag_73\n      jump\t// in\n    tag_318:\n    tag_317:\n      0x03\n      dup2\n      gt\n      iszero\n      tag_319\n      jumpi\n      tag_320\n      tag_73\n      jump\t// in\n    tag_320:\n    tag_319:\n      dup2\n      mstore\n      pop\n      pop\n      swap1\n      pop\n        /* \"dutch_action_solution.sol\":3555:3571  BidState.openBid */\n      0x02\n        /* \"dutch_action_solution.sol\":3532:3571  bidingData.bidState == BidState.openBid */\n      0x03\n      dup2\n      gt\n      iszero\n      tag_321\n      jumpi\n      tag_322\n      tag_73\n      jump\t// in\n    tag_322:\n    tag_321:\n        /* \"dutch_action_solution.sol\":3532:3542  bidingData */\n      dup2\n        /* \"dutch_action_solution.sol\":3532:3551  bidingData.bidState */\n      0x80\n      add\n      mload\n        /* \"dutch_action_solution.sol\":3532:3571  bidingData.bidState == BidState.openBid */\n      0x03\n      dup2\n      gt\n      iszero\n      tag_323\n      jumpi\n      tag_324\n      tag_73\n      jump\t// in\n    tag_324:\n    tag_323:\n      eq\n        /* \"dutch_action_solution.sol\":3524:3599  require(bidingData.bidState == BidState.openBid, \"Bid has not started yet\") */\n      tag_325\n      jumpi\n      mload(0x40)\n      0x08c379a000000000000000000000000000000000000000000000000000000000\n      dup2\n      mstore\n      0x04\n      add\n      tag_326\n      swap1\n      tag_327\n      jump\t// in\n    tag_326:\n      mload(0x40)\n      dup1\n      swap2\n      sub\n      swap1\n      revert\n    tag_325:\n        /* \"dutch_action_solution.sol\":3642:3652  msg.sender */\n      caller\n        /* \"dutch_action_solution.sol\":3617:3653  nftData.owner == payable(msg.sender) */\n      0xffffffffffffffffffffffffffffffffffffffff\n      and\n        /* \"dutch_action_solution.sol\":3617:3624  nftData */\n      dup3\n        /* \"dutch_action_solution.sol\":3617:3630  nftData.owner */\n      0x60\n      add\n      mload\n        /* \"dutch_action_solution.sol\":3617:3653  nftData.owner == payable(msg.sender) */\n      0xffffffffffffffffffffffffffffffffffffffff\n      and\n      eq\n        /* \"dutch_action_solution.sol\":3609:3686  require(nftData.owner == payable(msg.sender), \"Only owner can start the bid\") */\n      tag_328\n      jumpi\n      mload(0x40)\n      0x08c379a000000000000000000000000000000000000000000000000000000000\n      dup2\n      mstore\n      0x04\n      add\n      tag_329\n      swap1\n      tag_148\n      jump\t// in\n    tag_329:\n      mload(0x40)\n      dup1\n      swap2\n      sub\n      swap1\n      revert\n    tag_328:\n        /* \"dutch_action_solution.sol\":3725:3742  BidState.endedBid */\n      0x03\n        /* \"dutch_action_solution.sol\":3696:3709  nftBidingData */\n      0x00\n        /* \"dutch_action_solution.sol\":3696:3713  nftBidingData[id] */\n      dup1\n        /* \"dutch_action_solution.sol\":3710:3712  id */\n      dup7\n        /* \"dutch_action_solution.sol\":3696:3713  nftBidingData[id] */\n      dup2\n      mstore\n      0x20\n      add\n      swap1\n      dup2\n      mstore\n      0x20\n      add\n      0x00\n      keccak256\n        /* \"dutch_action_solution.sol\":3696:3722  nftBidingData[id].bidState */\n      0x04\n      add\n      0x00\n        /* \"dutch_action_solution.sol\":3696:3742  nftBidingData[id].bidState = BidState.endedBid */\n      0x0100\n      exp\n      dup2\n      sload\n      dup2\n      0xff\n      mul\n      not\n      and\n      swap1\n      dup4\n      0x03\n      dup2\n      gt\n      iszero\n      tag_330\n      jumpi\n      tag_331\n      tag_73\n      jump\t// in\n    tag_331:\n    tag_330:\n      mul\n      or\n      swap1\n      sstore\n      pop\n        /* \"dutch_action_solution.sol\":3757:3790  AuctionCompleted(id, \"Bid Ended\") */\n      0x3312df0b8b9eff523f5c5714c5ba9238bb061cc3e3b80fa1f2b2bcc83e91fe6e\n        /* \"dutch_action_solution.sol\":3774:3776  id */\n      dup5\n        /* \"dutch_action_solution.sol\":3757:3790  AuctionCompleted(id, \"Bid Ended\") */\n      mload(0x40)\n      tag_332\n      swap2\n      swap1\n      tag_333\n      jump\t// in\n    tag_332:\n      mload(0x40)\n      dup1\n      swap2\n      sub\n      swap1\n      log1\n        /* \"dutch_action_solution.sol\":3807:3811  true */\n      0x01\n        /* \"dutch_action_solution.sol\":3800:3811  return true */\n      swap3\n      pop\n      pop\n      pop\n        /* \"dutch_action_solution.sol\":3302:3818  function endOpenBid(uint256 id) public returns (bool) {... */\n      swap2\n      swap1\n      pop\n      jump\t// out\n        /* \"dutch_action_solution.sol\":4081:4475  function getBidStateString(BidState bidState) private pure returns (string memory) {... */\n    tag_189:\n        /* \"dutch_action_solution.sol\":4149:4162  string memory */\n      0x60\n        /* \"dutch_action_solution.sol\":4190:4209  BidState.notStarted */\n      0x00\n        /* \"dutch_action_solution.sol\":4178:4209  bidState == BidState.notStarted */\n      0x03\n      dup2\n      gt\n      iszero\n      tag_335\n      jumpi\n      tag_336\n      tag_73\n      jump\t// in\n    tag_336:\n    tag_335:\n        /* \"dutch_action_solution.sol\":4178:4186  bidState */\n      dup3\n        /* \"dutch_action_solution.sol\":4178:4209  bidState == BidState.notStarted */\n      0x03\n      dup2\n      gt\n      iszero\n      tag_337\n      jumpi\n      tag_338\n      tag_73\n      jump\t// in\n    tag_338:\n    tag_337:\n      sub\n        /* \"dutch_action_solution.sol\":4174:4469  if (bidState == BidState.notStarted) {... */\n      tag_339\n      jumpi\n        /* \"dutch_action_solution.sol\":4225:4244  return \"notStarted\" */\n      mload(0x40)\n      dup1\n      0x40\n      add\n      0x40\n      mstore\n      dup1\n      0x0a\n      dup2\n      mstore\n      0x20\n      add\n      0x6e6f745374617274656400000000000000000000000000000000000000000000\n      dup2\n      mstore\n      pop\n      swap1\n      pop\n      jump(tag_334)\n        /* \"dutch_action_solution.sol\":4174:4469  if (bidState == BidState.notStarted) {... */\n    tag_339:\n        /* \"dutch_action_solution.sol\":4277:4295  BidState.secretBid */\n      0x01\n        /* \"dutch_action_solution.sol\":4265:4295  bidState == BidState.secretBid */\n      0x03\n      dup2\n      gt\n      iszero\n      tag_341\n      jumpi\n      tag_342\n      tag_73\n      jump\t// in\n    tag_342:\n    tag_341:\n        /* \"dutch_action_solution.sol\":4265:4273  bidState */\n      dup3\n        /* \"dutch_action_solution.sol\":4265:4295  bidState == BidState.secretBid */\n      0x03\n      dup2\n      gt\n      iszero\n      tag_343\n      jumpi\n      tag_344\n      tag_73\n      jump\t// in\n    tag_344:\n    tag_343:\n      sub\n        /* \"dutch_action_solution.sol\":4261:4469  if (bidState == BidState.secretBid) {... */\n      tag_345\n      jumpi\n        /* \"dutch_action_solution.sol\":4311:4329  return \"secretBid\" */\n      mload(0x40)\n      dup1\n      0x40\n      add\n      0x40\n      mstore\n      dup1\n      0x09\n      dup2\n      mstore\n      0x20\n      add\n      0x7365637265744269640000000000000000000000000000000000000000000000\n      dup2\n      mstore\n      pop\n      swap1\n      pop\n      jump(tag_334)\n        /* \"dutch_action_solution.sol\":4261:4469  if (bidState == BidState.secretBid) {... */\n    tag_345:\n        /* \"dutch_action_solution.sol\":4362:4378  BidState.openBid */\n      0x02\n        /* \"dutch_action_solution.sol\":4350:4378  bidState == BidState.openBid */\n      0x03\n      dup2\n      gt\n      iszero\n      tag_347\n      jumpi\n      tag_348\n      tag_73\n      jump\t// in\n    tag_348:\n    tag_347:\n        /* \"dutch_action_solution.sol\":4350:4358  bidState */\n      dup3\n        /* \"dutch_action_solution.sol\":4350:4378  bidState == BidState.openBid */\n      0x03\n      dup2\n      gt\n      iszero\n      tag_349\n      jumpi\n      tag_350\n      tag_73\n      jump\t// in\n    tag_350:\n    tag_349:\n      sub\n        /* \"dutch_action_solution.sol\":4346:4469  if (bidState == BidState.openBid) {... */\n      tag_351\n      jumpi\n        /* \"dutch_action_solution.sol\":4394:4410  return \"openBid\" */\n      mload(0x40)\n      dup1\n      0x40\n      add\n      0x40\n      mstore\n      dup1\n      0x07\n      dup2\n      mstore\n      0x20\n      add\n      0x6f70656e42696400000000000000000000000000000000000000000000000000\n      dup2\n      mstore\n      pop\n      swap1\n      pop\n      jump(tag_334)\n        /* \"dutch_action_solution.sol\":4346:4469  if (bidState == BidState.openBid) {... */\n    tag_351:\n        /* \"dutch_action_solution.sol\":4441:4458  return \"endedBid\" */\n      mload(0x40)\n      dup1\n      0x40\n      add\n      0x40\n      mstore\n      dup1\n      0x08\n      dup2\n      mstore\n      0x20\n      add\n      0x656e646564426964000000000000000000000000000000000000000000000000\n      dup2\n      mstore\n      pop\n      swap1\n      pop\n        /* \"dutch_action_solution.sol\":4081:4475  function getBidStateString(BidState bidState) private pure returns (string memory) {... */\n    tag_334:\n      swap2\n      swap1\n      pop\n      jump\t// out\n    tag_162:\n      mload(0x40)\n      dup1\n      0xc0\n      add\n      0x40\n      mstore\n      dup1\n      0x60\n      dup2\n      mstore\n      0x20\n      add\n      0x60\n      dup2\n      mstore\n      0x20\n      add\n      0x00\n      dup2\n      mstore\n      0x20\n      add\n      and(0xffffffffffffffffffffffffffffffffffffffff, 0x00)\n      dup2\n      mstore\n      0x20\n      add\n      iszero(iszero(0x00))\n      dup2\n      mstore\n      0x20\n      add\n      0x60\n      dup2\n      mstore\n      pop\n      swap1\n      jump\t// out\n        /* \"#utility.yul\":7:82   */\n    tag_353:\n        /* \"#utility.yul\":40:46   */\n      0x00\n        /* \"#utility.yul\":73:75   */\n      0x40\n        /* \"#utility.yul\":67:76   */\n      mload\n        /* \"#utility.yul\":57:76   */\n      swap1\n      pop\n        /* \"#utility.yul\":7:82   */\n      swap1\n      jump\t// out\n        /* \"#utility.yul\":88:205   */\n    tag_354:\n        /* \"#utility.yul\":197:198   */\n      0x00\n        /* \"#utility.yul\":194:195   */\n      dup1\n        /* \"#utility.yul\":187:199   */\n      revert\n        /* \"#utility.yul\":211:328   */\n    tag_355:\n        /* \"#utility.yul\":320:321   */\n      0x00\n        /* \"#utility.yul\":317:318   */\n      dup1\n        /* \"#utility.yul\":310:322   */\n      revert\n        /* \"#utility.yul\":334:411   */\n    tag_356:\n        /* \"#utility.yul\":371:378   */\n      0x00\n        /* \"#utility.yul\":400:405   */\n      dup2\n        /* \"#utility.yul\":389:405   */\n      swap1\n      pop\n        /* \"#utility.yul\":334:411   */\n      swap2\n      swap1\n      pop\n      jump\t// out\n        /* \"#utility.yul\":417:539   */\n    tag_357:\n        /* \"#utility.yul\":490:514   */\n      tag_441\n        /* \"#utility.yul\":508:513   */\n      dup2\n        /* \"#utility.yul\":490:514   */\n      tag_356\n      jump\t// in\n    tag_441:\n        /* \"#utility.yul\":483:488   */\n      dup2\n        /* \"#utility.yul\":480:515   */\n      eq\n        /* \"#utility.yul\":470:533   */\n      tag_442\n      jumpi\n        /* \"#utility.yul\":529:530   */\n      0x00\n        /* \"#utility.yul\":526:527   */\n      dup1\n        /* \"#utility.yul\":519:531   */\n      revert\n        /* \"#utility.yul\":470:533   */\n    tag_442:\n        /* \"#utility.yul\":417:539   */\n      pop\n      jump\t// out\n        /* \"#utility.yul\":545:684   */\n    tag_358:\n        /* \"#utility.yul\":591:596   */\n      0x00\n        /* \"#utility.yul\":629:635   */\n      dup2\n        /* \"#utility.yul\":616:636   */\n      calldataload\n        /* \"#utility.yul\":607:636   */\n      swap1\n      pop\n        /* \"#utility.yul\":645:678   */\n      tag_444\n        /* \"#utility.yul\":672:677   */\n      dup2\n        /* \"#utility.yul\":645:678   */\n      tag_357\n      jump\t// in\n    tag_444:\n        /* \"#utility.yul\":545:684   */\n      swap3\n      swap2\n      pop\n      pop\n      jump\t// out\n        /* \"#utility.yul\":690:1164   */\n    tag_15:\n        /* \"#utility.yul\":758:764   */\n      0x00\n        /* \"#utility.yul\":766:772   */\n      dup1\n        /* \"#utility.yul\":815:817   */\n      0x40\n        /* \"#utility.yul\":803:812   */\n      dup4\n        /* \"#utility.yul\":794:801   */\n      dup6\n        /* \"#utility.yul\":790:813   */\n      sub\n        /* \"#utility.yul\":786:818   */\n      slt\n        /* \"#utility.yul\":783:902   */\n      iszero\n      tag_446\n      jumpi\n        /* \"#utility.yul\":821:900   */\n      tag_447\n      tag_354\n      jump\t// in\n    tag_447:\n        /* \"#utility.yul\":783:902   */\n    tag_446:\n        /* \"#utility.yul\":941:942   */\n      0x00\n        /* \"#utility.yul\":966:1019   */\n      tag_448\n        /* \"#utility.yul\":1011:1018   */\n      dup6\n        /* \"#utility.yul\":1002:1008   */\n      dup3\n        /* \"#utility.yul\":991:1000   */\n      dup7\n        /* \"#utility.yul\":987:1009   */\n      add\n        /* \"#utility.yul\":966:1019   */\n      tag_358\n      jump\t// in\n    tag_448:\n        /* \"#utility.yul\":956:1019   */\n      swap3\n      pop\n        /* \"#utility.yul\":912:1029   */\n      pop\n        /* \"#utility.yul\":1068:1070   */\n      0x20\n        /* \"#utility.yul\":1094:1147   */\n      tag_449\n        /* \"#utility.yul\":1139:1146   */\n      dup6\n        /* \"#utility.yul\":1130:1136   */\n      dup3\n        /* \"#utility.yul\":1119:1128   */\n      dup7\n        /* \"#utility.yul\":1115:1137   */\n      add\n        /* \"#utility.yul\":1094:1147   */\n      tag_358\n      jump\t// in\n    tag_449:\n        /* \"#utility.yul\":1084:1147   */\n      swap2\n      pop\n        /* \"#utility.yul\":1039:1157   */\n      pop\n        /* \"#utility.yul\":690:1164   */\n      swap3\n      pop\n      swap3\n      swap1\n      pop\n      jump\t// out\n        /* \"#utility.yul\":1170:1499   */\n    tag_20:\n        /* \"#utility.yul\":1229:1235   */\n      0x00\n        /* \"#utility.yul\":1278:1280   */\n      0x20\n        /* \"#utility.yul\":1266:1275   */\n      dup3\n        /* \"#utility.yul\":1257:1264   */\n      dup5\n        /* \"#utility.yul\":1253:1276   */\n      sub\n        /* \"#utility.yul\":1249:1281   */\n      slt\n        /* \"#utility.yul\":1246:1365   */\n      iszero\n      tag_451\n      jumpi\n        /* \"#utility.yul\":1284:1363   */\n      tag_452\n      tag_354\n      jump\t// in\n    tag_452:\n        /* \"#utility.yul\":1246:1365   */\n    tag_451:\n        /* \"#utility.yul\":1404:1405   */\n      0x00\n        /* \"#utility.yul\":1429:1482   */\n      tag_453\n        /* \"#utility.yul\":1474:1481   */\n      dup5\n        /* \"#utility.yul\":1465:1471   */\n      dup3\n        /* \"#utility.yul\":1454:1463   */\n      dup6\n        /* \"#utility.yul\":1450:1472   */\n      add\n        /* \"#utility.yul\":1429:1482   */\n      tag_358\n      jump\t// in\n    tag_453:\n        /* \"#utility.yul\":1419:1482   */\n      swap2\n      pop\n        /* \"#utility.yul\":1375:1492   */\n      pop\n        /* \"#utility.yul\":1170:1499   */\n      swap3\n      swap2\n      pop\n      pop\n      jump\t// out\n        /* \"#utility.yul\":1505:1623   */\n    tag_359:\n        /* \"#utility.yul\":1592:1616   */\n      tag_455\n        /* \"#utility.yul\":1610:1615   */\n      dup2\n        /* \"#utility.yul\":1592:1616   */\n      tag_356\n      jump\t// in\n    tag_455:\n        /* \"#utility.yul\":1587:1590   */\n      dup3\n        /* \"#utility.yul\":1580:1617   */\n      mstore\n        /* \"#utility.yul\":1505:1623   */\n      pop\n      pop\n      jump\t// out\n        /* \"#utility.yul\":1629:1851   */\n    tag_23:\n        /* \"#utility.yul\":1722:1726   */\n      0x00\n        /* \"#utility.yul\":1760:1762   */\n      0x20\n        /* \"#utility.yul\":1749:1758   */\n      dup3\n        /* \"#utility.yul\":1745:1763   */\n      add\n        /* \"#utility.yul\":1737:1763   */\n      swap1\n      pop\n        /* \"#utility.yul\":1773:1844   */\n      tag_457\n        /* \"#utility.yul\":1841:1842   */\n      0x00\n        /* \"#utility.yul\":1830:1839   */\n      dup4\n        /* \"#utility.yul\":1826:1843   */\n      add\n        /* \"#utility.yul\":1817:1823   */\n      dup5\n        /* \"#utility.yul\":1773:1844   */\n      tag_359\n      jump\t// in\n    tag_457:\n        /* \"#utility.yul\":1629:1851   */\n      swap3\n      swap2\n      pop\n      pop\n      jump\t// out\n        /* \"#utility.yul\":1857:1990   */\n    tag_360:\n        /* \"#utility.yul\":1943:1949   */\n      0x00\n        /* \"#utility.yul\":1977:1982   */\n      dup2\n        /* \"#utility.yul\":1971:1983   */\n      mload\n        /* \"#utility.yul\":1961:1983   */\n      swap1\n      pop\n        /* \"#utility.yul\":1857:1990   */\n      swap2\n      swap1\n      pop\n      jump\t// out\n        /* \"#utility.yul\":1996:2199   */\n    tag_361:\n        /* \"#utility.yul\":2114:2125   */\n      0x00\n        /* \"#utility.yul\":2148:2154   */\n      dup3\n        /* \"#utility.yul\":2143:2146   */\n      dup3\n        /* \"#utility.yul\":2136:2155   */\n      mstore\n        /* \"#utility.yul\":2188:2192   */\n      0x20\n        /* \"#utility.yul\":2183:2186   */\n      dup3\n        /* \"#utility.yul\":2179:2193   */\n      add\n        /* \"#utility.yul\":2164:2193   */\n      swap1\n      pop\n        /* \"#utility.yul\":1996:2199   */\n      swap3\n      swap2\n      pop\n      pop\n      jump\t// out\n        /* \"#utility.yul\":2205:2356   */\n    tag_362:\n        /* \"#utility.yul\":2291:2295   */\n      0x00\n        /* \"#utility.yul\":2314:2317   */\n      dup2\n        /* \"#utility.yul\":2306:2317   */\n      swap1\n      pop\n        /* \"#utility.yul\":2344:2348   */\n      0x20\n        /* \"#utility.yul\":2339:2342   */\n      dup3\n        /* \"#utility.yul\":2335:2349   */\n      add\n        /* \"#utility.yul\":2327:2349   */\n      swap1\n      pop\n        /* \"#utility.yul\":2205:2356   */\n      swap2\n      swap1\n      pop\n      jump\t// out\n        /* \"#utility.yul\":2362:2461   */\n    tag_363:\n        /* \"#utility.yul\":2414:2420   */\n      0x00\n        /* \"#utility.yul\":2448:2453   */\n      dup2\n        /* \"#utility.yul\":2442:2454   */\n      mload\n        /* \"#utility.yul\":2432:2454   */\n      swap1\n      pop\n        /* \"#utility.yul\":2362:2461   */\n      swap2\n      swap1\n      pop\n      jump\t// out\n        /* \"#utility.yul\":2467:2626   */\n    tag_364:\n        /* \"#utility.yul\":2541:2552   */\n      0x00\n        /* \"#utility.yul\":2575:2581   */\n      dup3\n        /* \"#utility.yul\":2570:2573   */\n      dup3\n        /* \"#utility.yul\":2563:2582   */\n      mstore\n        /* \"#utility.yul\":2615:2619   */\n      0x20\n        /* \"#utility.yul\":2610:2613   */\n      dup3\n        /* \"#utility.yul\":2606:2620   */\n      add\n        /* \"#utility.yul\":2591:2620   */\n      swap1\n      pop\n        /* \"#utility.yul\":2467:2626   */\n      swap3\n      swap2\n      pop\n      pop\n      jump\t// out\n        /* \"#utility.yul\":2632:2878   */\n    tag_365:\n        /* \"#utility.yul\":2713:2714   */\n      0x00\n        /* \"#utility.yul\":2723:2836   */\n    tag_464:\n        /* \"#utility.yul\":2737:2743   */\n      dup4\n        /* \"#utility.yul\":2734:2735   */\n      dup2\n        /* \"#utility.yul\":2731:2744   */\n      lt\n        /* \"#utility.yul\":2723:2836   */\n      iszero\n      tag_466\n      jumpi\n        /* \"#utility.yul\":2822:2823   */\n      dup1\n        /* \"#utility.yul\":2817:2820   */\n      dup3\n        /* \"#utility.yul\":2813:2824   */\n      add\n        /* \"#utility.yul\":2807:2825   */\n      mload\n        /* \"#utility.yul\":2803:2804   */\n      dup2\n        /* \"#utility.yul\":2798:2801   */\n      dup5\n        /* \"#utility.yul\":2794:2805   */\n      add\n        /* \"#utility.yul\":2787:2826   */\n      mstore\n        /* \"#utility.yul\":2759:2761   */\n      0x20\n        /* \"#utility.yul\":2756:2757   */\n      dup2\n        /* \"#utility.yul\":2752:2762   */\n      add\n        /* \"#utility.yul\":2747:2762   */\n      swap1\n      pop\n        /* \"#utility.yul\":2723:2836   */\n      jump(tag_464)\n    tag_466:\n        /* \"#utility.yul\":2870:2871   */\n      0x00\n        /* \"#utility.yul\":2861:2867   */\n      dup5\n        /* \"#utility.yul\":2856:2859   */\n      dup5\n        /* \"#utility.yul\":2852:2868   */\n      add\n        /* \"#utility.yul\":2845:2872   */\n      mstore\n        /* \"#utility.yul\":2694:2878   */\n      pop\n        /* \"#utility.yul\":2632:2878   */\n      pop\n      pop\n      pop\n      jump\t// out\n        /* \"#utility.yul\":2884:2986   */\n    tag_366:\n        /* \"#utility.yul\":2925:2931   */\n      0x00\n        /* \"#utility.yul\":2976:2978   */\n      0x1f\n        /* \"#utility.yul\":2972:2979   */\n      not\n        /* \"#utility.yul\":2967:2969   */\n      0x1f\n        /* \"#utility.yul\":2960:2965   */\n      dup4\n        /* \"#utility.yul\":2956:2970   */\n      add\n        /* \"#utility.yul\":2952:2980   */\n      and\n        /* \"#utility.yul\":2942:2980   */\n      swap1\n      pop\n        /* \"#utility.yul\":2884:2986   */\n      swap2\n      swap1\n      pop\n      jump\t// out\n        /* \"#utility.yul\":2992:3349   */\n    tag_367:\n        /* \"#utility.yul\":3070:3073   */\n      0x00\n        /* \"#utility.yul\":3098:3137   */\n      tag_469\n        /* \"#utility.yul\":3131:3136   */\n      dup3\n        /* \"#utility.yul\":3098:3137   */\n      tag_363\n      jump\t// in\n    tag_469:\n        /* \"#utility.yul\":3153:3214   */\n      tag_470\n        /* \"#utility.yul\":3207:3213   */\n      dup2\n        /* \"#utility.yul\":3202:3205   */\n      dup6\n        /* \"#utility.yul\":3153:3214   */\n      tag_364\n      jump\t// in\n    tag_470:\n        /* \"#utility.yul\":3146:3214   */\n      swap4\n      pop\n        /* \"#utility.yul\":3223:3288   */\n      tag_471\n        /* \"#utility.yul\":3281:3287   */\n      dup2\n        /* \"#utility.yul\":3276:3279   */\n      dup6\n        /* \"#utility.yul\":3269:3273   */\n      0x20\n        /* \"#utility.yul\":3262:3267   */\n      dup7\n        /* \"#utility.yul\":3258:3274   */\n      add\n        /* \"#utility.yul\":3223:3288   */\n      tag_365\n      jump\t// in\n    tag_471:\n        /* \"#utility.yul\":3313:3342   */\n      tag_472\n        /* \"#utility.yul\":3335:3341   */\n      dup2\n        /* \"#utility.yul\":3313:3342   */\n      tag_366\n      jump\t// in\n    tag_472:\n        /* \"#utility.yul\":3308:3311   */\n      dup5\n        /* \"#utility.yul\":3304:3343   */\n      add\n        /* \"#utility.yul\":3297:3343   */\n      swap2\n      pop\n        /* \"#utility.yul\":3074:3349   */\n      pop\n        /* \"#utility.yul\":2992:3349   */\n      swap3\n      swap2\n      pop\n      pop\n      jump\t// out\n        /* \"#utility.yul\":3355:3463   */\n    tag_368:\n        /* \"#utility.yul\":3432:3456   */\n      tag_474\n        /* \"#utility.yul\":3450:3455   */\n      dup2\n        /* \"#utility.yul\":3432:3456   */\n      tag_356\n      jump\t// in\n    tag_474:\n        /* \"#utility.yul\":3427:3430   */\n      dup3\n        /* \"#utility.yul\":3420:3457   */\n      mstore\n        /* \"#utility.yul\":3355:3463   */\n      pop\n      pop\n      jump\t// out\n        /* \"#utility.yul\":3469:3595   */\n    tag_369:\n        /* \"#utility.yul\":3506:3513   */\n      0x00\n        /* \"#utility.yul\":3546:3588   */\n      0xffffffffffffffffffffffffffffffffffffffff\n        /* \"#utility.yul\":3539:3544   */\n      dup3\n        /* \"#utility.yul\":3535:3589   */\n      and\n        /* \"#utility.yul\":3524:3589   */\n      swap1\n      pop\n        /* \"#utility.yul\":3469:3595   */\n      swap2\n      swap1\n      pop\n      jump\t// out\n        /* \"#utility.yul\":3601:3705   */\n    tag_370:\n        /* \"#utility.yul\":3646:3653   */\n      0x00\n        /* \"#utility.yul\":3675:3699   */\n      tag_477\n        /* \"#utility.yul\":3693:3698   */\n      dup3\n        /* \"#utility.yul\":3675:3699   */\n      tag_369\n      jump\t// in\n    tag_477:\n        /* \"#utility.yul\":3664:3699   */\n      swap1\n      pop\n        /* \"#utility.yul\":3601:3705   */\n      swap2\n      swap1\n      pop\n      jump\t// out\n        /* \"#utility.yul\":3711:3843   */\n    tag_371:\n        /* \"#utility.yul\":3804:3836   */\n      tag_479\n        /* \"#utility.yul\":3830:3835   */\n      dup2\n        /* \"#utility.yul\":3804:3836   */\n      tag_370\n      jump\t// in\n    tag_479:\n        /* \"#utility.yul\":3799:3802   */\n      dup3\n        /* \"#utility.yul\":3792:3837   */\n      mstore\n        /* \"#utility.yul\":3711:3843   */\n      pop\n      pop\n      jump\t// out\n        /* \"#utility.yul\":3849:3939   */\n    tag_372:\n        /* \"#utility.yul\":3883:3890   */\n      0x00\n        /* \"#utility.yul\":3926:3931   */\n      dup2\n        /* \"#utility.yul\":3919:3932   */\n      iszero\n        /* \"#utility.yul\":3912:3933   */\n      iszero\n        /* \"#utility.yul\":3901:3933   */\n      swap1\n      pop\n        /* \"#utility.yul\":3849:3939   */\n      swap2\n      swap1\n      pop\n      jump\t// out\n        /* \"#utility.yul\":3945:4044   */\n    tag_373:\n        /* \"#utility.yul\":4016:4037   */\n      tag_482\n        /* \"#utility.yul\":4031:4036   */\n      dup2\n        /* \"#utility.yul\":4016:4037   */\n      tag_372\n      jump\t// in\n    tag_482:\n        /* \"#utility.yul\":4011:4014   */\n      dup3\n        /* \"#utility.yul\":4004:4038   */\n      mstore\n        /* \"#utility.yul\":3945:4044   */\n      pop\n      pop\n      jump\t// out\n        /* \"#utility.yul\":4124:5566   */\n    tag_374:\n        /* \"#utility.yul\":4221:4224   */\n      0x00\n        /* \"#utility.yul\":4257:4261   */\n      0xc0\n        /* \"#utility.yul\":4252:4255   */\n      dup4\n        /* \"#utility.yul\":4248:4262   */\n      add\n        /* \"#utility.yul\":4344:4348   */\n      0x00\n        /* \"#utility.yul\":4337:4342   */\n      dup4\n        /* \"#utility.yul\":4333:4349   */\n      add\n        /* \"#utility.yul\":4327:4350   */\n      mload\n        /* \"#utility.yul\":4397:4400   */\n      dup5\n        /* \"#utility.yul\":4391:4395   */\n      dup3\n        /* \"#utility.yul\":4387:4401   */\n      sub\n        /* \"#utility.yul\":4380:4384   */\n      0x00\n        /* \"#utility.yul\":4375:4378   */\n      dup7\n        /* \"#utility.yul\":4371:4385   */\n      add\n        /* \"#utility.yul\":4364:4402   */\n      mstore\n        /* \"#utility.yul\":4423:4496   */\n      tag_484\n        /* \"#utility.yul\":4491:4495   */\n      dup3\n        /* \"#utility.yul\":4477:4489   */\n      dup3\n        /* \"#utility.yul\":4423:4496   */\n      tag_367\n      jump\t// in\n    tag_484:\n        /* \"#utility.yul\":4415:4496   */\n      swap2\n      pop\n        /* \"#utility.yul\":4272:4507   */\n      pop\n        /* \"#utility.yul\":4593:4597   */\n      0x20\n        /* \"#utility.yul\":4586:4591   */\n      dup4\n        /* \"#utility.yul\":4582:4598   */\n      add\n        /* \"#utility.yul\":4576:4599   */\n      mload\n        /* \"#utility.yul\":4646:4649   */\n      dup5\n        /* \"#utility.yul\":4640:4644   */\n      dup3\n        /* \"#utility.yul\":4636:4650   */\n      sub\n        /* \"#utility.yul\":4629:4633   */\n      0x20\n        /* \"#utility.yul\":4624:4627   */\n      dup7\n        /* \"#utility.yul\":4620:4634   */\n      add\n        /* \"#utility.yul\":4613:4651   */\n      mstore\n        /* \"#utility.yul\":4672:4745   */\n      tag_485\n        /* \"#utility.yul\":4740:4744   */\n      dup3\n        /* \"#utility.yul\":4726:4738   */\n      dup3\n        /* \"#utility.yul\":4672:4745   */\n      tag_367\n      jump\t// in\n    tag_485:\n        /* \"#utility.yul\":4664:4745   */\n      swap2\n      pop\n        /* \"#utility.yul\":4517:4756   */\n      pop\n        /* \"#utility.yul\":4836:4840   */\n      0x40\n        /* \"#utility.yul\":4829:4834   */\n      dup4\n        /* \"#utility.yul\":4825:4841   */\n      add\n        /* \"#utility.yul\":4819:4842   */\n      mload\n        /* \"#utility.yul\":4855:4918   */\n      tag_486\n        /* \"#utility.yul\":4912:4916   */\n      0x40\n        /* \"#utility.yul\":4907:4910   */\n      dup7\n        /* \"#utility.yul\":4903:4917   */\n      add\n        /* \"#utility.yul\":4889:4901   */\n      dup3\n        /* \"#utility.yul\":4855:4918   */\n      tag_368\n      jump\t// in\n    tag_486:\n        /* \"#utility.yul\":4766:4928   */\n      pop\n        /* \"#utility.yul\":5011:5015   */\n      0x60\n        /* \"#utility.yul\":5004:5009   */\n      dup4\n        /* \"#utility.yul\":5000:5016   */\n      add\n        /* \"#utility.yul\":4994:5017   */\n      mload\n        /* \"#utility.yul\":5030:5109   */\n      tag_487\n        /* \"#utility.yul\":5103:5107   */\n      0x60\n        /* \"#utility.yul\":5098:5101   */\n      dup7\n        /* \"#utility.yul\":5094:5108   */\n      add\n        /* \"#utility.yul\":5080:5092   */\n      dup3\n        /* \"#utility.yul\":5030:5109   */\n      tag_371\n      jump\t// in\n    tag_487:\n        /* \"#utility.yul\":4938:5119   */\n      pop\n        /* \"#utility.yul\":5204:5208   */\n      0x80\n        /* \"#utility.yul\":5197:5202   */\n      dup4\n        /* \"#utility.yul\":5193:5209   */\n      add\n        /* \"#utility.yul\":5187:5210   */\n      mload\n        /* \"#utility.yul\":5223:5280   */\n      tag_488\n        /* \"#utility.yul\":5274:5278   */\n      0x80\n        /* \"#utility.yul\":5269:5272   */\n      dup7\n        /* \"#utility.yul\":5265:5279   */\n      add\n        /* \"#utility.yul\":5251:5263   */\n      dup3\n        /* \"#utility.yul\":5223:5280   */\n      tag_373\n      jump\t// in\n    tag_488:\n        /* \"#utility.yul\":5129:5290   */\n      pop\n        /* \"#utility.yul\":5376:5380   */\n      0xa0\n        /* \"#utility.yul\":5369:5374   */\n      dup4\n        /* \"#utility.yul\":5365:5381   */\n      add\n        /* \"#utility.yul\":5359:5382   */\n      mload\n        /* \"#utility.yul\":5429:5432   */\n      dup5\n        /* \"#utility.yul\":5423:5427   */\n      dup3\n        /* \"#utility.yul\":5419:5433   */\n      sub\n        /* \"#utility.yul\":5412:5416   */\n      0xa0\n        /* \"#utility.yul\":5407:5410   */\n      dup7\n        /* \"#utility.yul\":5403:5417   */\n      add\n        /* \"#utility.yul\":5396:5434   */\n      mstore\n        /* \"#utility.yul\":5455:5528   */\n      tag_489\n        /* \"#utility.yul\":5523:5527   */\n      dup3\n        /* \"#utility.yul\":5509:5521   */\n      dup3\n        /* \"#utility.yul\":5455:5528   */\n      tag_367\n      jump\t// in\n    tag_489:\n        /* \"#utility.yul\":5447:5528   */\n      swap2\n      pop\n        /* \"#utility.yul\":5300:5539   */\n      pop\n        /* \"#utility.yul\":5556:5560   */\n      dup1\n        /* \"#utility.yul\":5549:5560   */\n      swap2\n      pop\n        /* \"#utility.yul\":4226:5566   */\n      pop\n        /* \"#utility.yul\":4124:5566   */\n      swap3\n      swap2\n      pop\n      pop\n      jump\t// out\n        /* \"#utility.yul\":5572:5804   */\n    tag_375:\n        /* \"#utility.yul\":5679:5689   */\n      0x00\n        /* \"#utility.yul\":5714:5798   */\n      tag_491\n        /* \"#utility.yul\":5794:5797   */\n      dup4\n        /* \"#utility.yul\":5786:5792   */\n      dup4\n        /* \"#utility.yul\":5714:5798   */\n      tag_374\n      jump\t// in\n    tag_491:\n        /* \"#utility.yul\":5700:5798   */\n      swap1\n      pop\n        /* \"#utility.yul\":5572:5804   */\n      swap3\n      swap2\n      pop\n      pop\n      jump\t// out\n        /* \"#utility.yul\":5810:5942   */\n    tag_376:\n        /* \"#utility.yul\":5899:5903   */\n      0x00\n        /* \"#utility.yul\":5931:5935   */\n      0x20\n        /* \"#utility.yul\":5926:5929   */\n      dup3\n        /* \"#utility.yul\":5922:5936   */\n      add\n        /* \"#utility.yul\":5914:5936   */\n      swap1\n      pop\n        /* \"#utility.yul\":5810:5942   */\n      swap2\n      swap1\n      pop\n      jump\t// out\n        /* \"#utility.yul\":6026:7089   */\n    tag_377:\n        /* \"#utility.yul\":6183:6186   */\n      0x00\n        /* \"#utility.yul\":6212:6285   */\n      tag_494\n        /* \"#utility.yul\":6279:6284   */\n      dup3\n        /* \"#utility.yul\":6212:6285   */\n      tag_360\n      jump\t// in\n    tag_494:\n        /* \"#utility.yul\":6301:6406   */\n      tag_495\n        /* \"#utility.yul\":6399:6405   */\n      dup2\n        /* \"#utility.yul\":6394:6397   */\n      dup6\n        /* \"#utility.yul\":6301:6406   */\n      tag_361\n      jump\t// in\n    tag_495:\n        /* \"#utility.yul\":6294:6406   */\n      swap4\n      pop\n        /* \"#utility.yul\":6432:6435   */\n      dup4\n        /* \"#utility.yul\":6477:6481   */\n      0x20\n        /* \"#utility.yul\":6469:6475   */\n      dup3\n        /* \"#utility.yul\":6465:6482   */\n      mul\n        /* \"#utility.yul\":6460:6463   */\n      dup6\n        /* \"#utility.yul\":6456:6483   */\n      add\n        /* \"#utility.yul\":6507:6582   */\n      tag_496\n        /* \"#utility.yul\":6576:6581   */\n      dup6\n        /* \"#utility.yul\":6507:6582   */\n      tag_362\n      jump\t// in\n    tag_496:\n        /* \"#utility.yul\":6605:6612   */\n      dup1\n        /* \"#utility.yul\":6636:6637   */\n      0x00\n        /* \"#utility.yul\":6621:7044   */\n    tag_497:\n        /* \"#utility.yul\":6646:6652   */\n      dup6\n        /* \"#utility.yul\":6643:6644   */\n      dup2\n        /* \"#utility.yul\":6640:6653   */\n      lt\n        /* \"#utility.yul\":6621:7044   */\n      iszero\n      tag_499\n      jumpi\n        /* \"#utility.yul\":6717:6726   */\n      dup5\n        /* \"#utility.yul\":6711:6715   */\n      dup5\n        /* \"#utility.yul\":6707:6727   */\n      sub\n        /* \"#utility.yul\":6702:6705   */\n      dup10\n        /* \"#utility.yul\":6695:6728   */\n      mstore\n        /* \"#utility.yul\":6768:6774   */\n      dup2\n        /* \"#utility.yul\":6762:6775   */\n      mload\n        /* \"#utility.yul\":6796:6898   */\n      tag_500\n        /* \"#utility.yul\":6893:6897   */\n      dup6\n        /* \"#utility.yul\":6878:6891   */\n      dup3\n        /* \"#utility.yul\":6796:6898   */\n      tag_375\n      jump\t// in\n    tag_500:\n        /* \"#utility.yul\":6788:6898   */\n      swap5\n      pop\n        /* \"#utility.yul\":6921:7000   */\n      tag_501\n        /* \"#utility.yul\":6993:6999   */\n      dup4\n        /* \"#utility.yul\":6921:7000   */\n      tag_376\n      jump\t// in\n    tag_501:\n        /* \"#utility.yul\":6911:7000   */\n      swap3\n      pop\n        /* \"#utility.yul\":7029:7033   */\n      0x20\n        /* \"#utility.yul\":7024:7027   */\n      dup11\n        /* \"#utility.yul\":7020:7034   */\n      add\n        /* \"#utility.yul\":7013:7034   */\n      swap10\n      pop\n        /* \"#utility.yul\":6681:7044   */\n      pop\n        /* \"#utility.yul\":6668:6669   */\n      0x01\n        /* \"#utility.yul\":6665:6666   */\n      dup2\n        /* \"#utility.yul\":6661:6670   */\n      add\n        /* \"#utility.yul\":6656:6670   */\n      swap1\n      pop\n        /* \"#utility.yul\":6621:7044   */\n      jump(tag_497)\n    tag_499:\n        /* \"#utility.yul\":6625:6639   */\n      pop\n        /* \"#utility.yul\":7060:7064   */\n      dup3\n        /* \"#utility.yul\":7053:7064   */\n      swap8\n      pop\n        /* \"#utility.yul\":7080:7083   */\n      dup8\n        /* \"#utility.yul\":7073:7083   */\n      swap6\n      pop\n        /* \"#utility.yul\":6188:7089   */\n      pop\n      pop\n      pop\n      pop\n      pop\n        /* \"#utility.yul\":6026:7089   */\n      swap3\n      swap2\n      pop\n      pop\n      jump\t// out\n        /* \"#utility.yul\":7095:7544   */\n    tag_28:\n        /* \"#utility.yul\":7276:7280   */\n      0x00\n        /* \"#utility.yul\":7314:7316   */\n      0x20\n        /* \"#utility.yul\":7303:7312   */\n      dup3\n        /* \"#utility.yul\":7299:7317   */\n      add\n        /* \"#utility.yul\":7291:7317   */\n      swap1\n      pop\n        /* \"#utility.yul\":7363:7372   */\n      dup2\n        /* \"#utility.yul\":7357:7361   */\n      dup2\n        /* \"#utility.yul\":7353:7373   */\n      sub\n        /* \"#utility.yul\":7349:7350   */\n      0x00\n        /* \"#utility.yul\":7338:7347   */\n      dup4\n        /* \"#utility.yul\":7334:7351   */\n      add\n        /* \"#utility.yul\":7327:7374   */\n      mstore\n        /* \"#utility.yul\":7391:7537   */\n      tag_503\n        /* \"#utility.yul\":7532:7536   */\n      dup2\n        /* \"#utility.yul\":7523:7529   */\n      dup5\n        /* \"#utility.yul\":7391:7537   */\n      tag_377\n      jump\t// in\n    tag_503:\n        /* \"#utility.yul\":7383:7537   */\n      swap1\n      pop\n        /* \"#utility.yul\":7095:7544   */\n      swap3\n      swap2\n      pop\n      pop\n      jump\t// out\n        /* \"#utility.yul\":7550:7659   */\n    tag_378:\n        /* \"#utility.yul\":7631:7652   */\n      tag_505\n        /* \"#utility.yul\":7646:7651   */\n      dup2\n        /* \"#utility.yul\":7631:7652   */\n      tag_372\n      jump\t// in\n    tag_505:\n        /* \"#utility.yul\":7626:7629   */\n      dup3\n        /* \"#utility.yul\":7619:7653   */\n      mstore\n        /* \"#utility.yul\":7550:7659   */\n      pop\n      pop\n      jump\t// out\n        /* \"#utility.yul\":7665:7875   */\n    tag_38:\n        /* \"#utility.yul\":7752:7756   */\n      0x00\n        /* \"#utility.yul\":7790:7792   */\n      0x20\n        /* \"#utility.yul\":7779:7788   */\n      dup3\n        /* \"#utility.yul\":7775:7793   */\n      add\n        /* \"#utility.yul\":7767:7793   */\n      swap1\n      pop\n        /* \"#utility.yul\":7803:7868   */\n      tag_507\n        /* \"#utility.yul\":7865:7866   */\n      0x00\n        /* \"#utility.yul\":7854:7863   */\n      dup4\n        /* \"#utility.yul\":7850:7867   */\n      add\n        /* \"#utility.yul\":7841:7847   */\n      dup5\n        /* \"#utility.yul\":7803:7868   */\n      tag_378\n      jump\t// in\n    tag_507:\n        /* \"#utility.yul\":7665:7875   */\n      swap3\n      swap2\n      pop\n      pop\n      jump\t// out\n        /* \"#utility.yul\":7881:7998   */\n    tag_379:\n        /* \"#utility.yul\":7990:7991   */\n      0x00\n        /* \"#utility.yul\":7987:7988   */\n      dup1\n        /* \"#utility.yul\":7980:7992   */\n      revert\n        /* \"#utility.yul\":8004:8121   */\n    tag_380:\n        /* \"#utility.yul\":8113:8114   */\n      0x00\n        /* \"#utility.yul\":8110:8111   */\n      dup1\n        /* \"#utility.yul\":8103:8115   */\n      revert\n        /* \"#utility.yul\":8127:8307   */\n    tag_158:\n        /* \"#utility.yul\":8175:8252   */\n      0x4e487b7100000000000000000000000000000000000000000000000000000000\n        /* \"#utility.yul\":8172:8173   */\n      0x00\n        /* \"#utility.yul\":8165:8253   */\n      mstore\n        /* \"#utility.yul\":8272:8276   */\n      0x41\n        /* \"#utility.yul\":8269:8270   */\n      0x04\n        /* \"#utility.yul\":8262:8277   */\n      mstore\n        /* \"#utility.yul\":8296:8300   */\n      0x24\n        /* \"#utility.yul\":8293:8294   */\n      0x00\n        /* \"#utility.yul\":8286:8301   */\n      revert\n        /* \"#utility.yul\":8313:8594   */\n    tag_381:\n        /* \"#utility.yul\":8396:8423   */\n      tag_512\n        /* \"#utility.yul\":8418:8422   */\n      dup3\n        /* \"#utility.yul\":8396:8423   */\n      tag_366\n      jump\t// in\n    tag_512:\n        /* \"#utility.yul\":8388:8394   */\n      dup2\n        /* \"#utility.yul\":8384:8424   */\n      add\n        /* \"#utility.yul\":8526:8532   */\n      dup2\n        /* \"#utility.yul\":8514:8524   */\n      dup2\n        /* \"#utility.yul\":8511:8533   */\n      lt\n        /* \"#utility.yul\":8490:8508   */\n      0xffffffffffffffff\n        /* \"#utility.yul\":8478:8488   */\n      dup3\n        /* \"#utility.yul\":8475:8509   */\n      gt\n        /* \"#utility.yul\":8472:8534   */\n      or\n        /* \"#utility.yul\":8469:8557   */\n      iszero\n      tag_513\n      jumpi\n        /* \"#utility.yul\":8537:8555   */\n      tag_514\n      tag_158\n      jump\t// in\n    tag_514:\n        /* \"#utility.yul\":8469:8557   */\n    tag_513:\n        /* \"#utility.yul\":8577:8587   */\n      dup1\n        /* \"#utility.yul\":8573:8575   */\n      0x40\n        /* \"#utility.yul\":8566:8588   */\n      mstore\n        /* \"#utility.yul\":8356:8594   */\n      pop\n        /* \"#utility.yul\":8313:8594   */\n      pop\n      pop\n      jump\t// out\n        /* \"#utility.yul\":8600:8729   */\n    tag_382:\n        /* \"#utility.yul\":8634:8640   */\n      0x00\n        /* \"#utility.yul\":8661:8681   */\n      tag_516\n      tag_353\n      jump\t// in\n    tag_516:\n        /* \"#utility.yul\":8651:8681   */\n      swap1\n      pop\n        /* \"#utility.yul\":8690:8723   */\n      tag_517\n        /* \"#utility.yul\":8718:8722   */\n      dup3\n        /* \"#utility.yul\":8710:8716   */\n      dup3\n        /* \"#utility.yul\":8690:8723   */\n      tag_381\n      jump\t// in\n    tag_517:\n        /* \"#utility.yul\":8600:8729   */\n      swap2\n      swap1\n      pop\n      jump\t// out\n        /* \"#utility.yul\":8735:9043   */\n    tag_383:\n        /* \"#utility.yul\":8797:8801   */\n      0x00\n        /* \"#utility.yul\":8887:8905   */\n      0xffffffffffffffff\n        /* \"#utility.yul\":8879:8885   */\n      dup3\n        /* \"#utility.yul\":8876:8906   */\n      gt\n        /* \"#utility.yul\":8873:8929   */\n      iszero\n      tag_519\n      jumpi\n        /* \"#utility.yul\":8909:8927   */\n      tag_520\n      tag_158\n      jump\t// in\n    tag_520:\n        /* \"#utility.yul\":8873:8929   */\n    tag_519:\n        /* \"#utility.yul\":8947:8976   */\n      tag_521\n        /* \"#utility.yul\":8969:8975   */\n      dup3\n        /* \"#utility.yul\":8947:8976   */\n      tag_366\n      jump\t// in\n    tag_521:\n        /* \"#utility.yul\":8939:8976   */\n      swap1\n      pop\n        /* \"#utility.yul\":9031:9035   */\n      0x20\n        /* \"#utility.yul\":9025:9029   */\n      dup2\n        /* \"#utility.yul\":9021:9036   */\n      add\n        /* \"#utility.yul\":9013:9036   */\n      swap1\n      pop\n        /* \"#utility.yul\":8735:9043   */\n      swap2\n      swap1\n      pop\n      jump\t// out\n        /* \"#utility.yul\":9049:9195   */\n    tag_384:\n        /* \"#utility.yul\":9146:9152   */\n      dup3\n        /* \"#utility.yul\":9141:9144   */\n      dup2\n        /* \"#utility.yul\":9136:9139   */\n      dup4\n        /* \"#utility.yul\":9123:9153   */\n      calldatacopy\n        /* \"#utility.yul\":9187:9188   */\n      0x00\n        /* \"#utility.yul\":9178:9184   */\n      dup4\n        /* \"#utility.yul\":9173:9176   */\n      dup4\n        /* \"#utility.yul\":9169:9185   */\n      add\n        /* \"#utility.yul\":9162:9189   */\n      mstore\n        /* \"#utility.yul\":9049:9195   */\n      pop\n      pop\n      pop\n      jump\t// out\n        /* \"#utility.yul\":9201:9626   */\n    tag_385:\n        /* \"#utility.yul\":9279:9284   */\n      0x00\n        /* \"#utility.yul\":9304:9370   */\n      tag_524\n        /* \"#utility.yul\":9320:9369   */\n      tag_525\n        /* \"#utility.yul\":9362:9368   */\n      dup5\n        /* \"#utility.yul\":9320:9369   */\n      tag_383\n      jump\t// in\n    tag_525:\n        /* \"#utility.yul\":9304:9370   */\n      tag_382\n      jump\t// in\n    tag_524:\n        /* \"#utility.yul\":9295:9370   */\n      swap1\n      pop\n        /* \"#utility.yul\":9393:9399   */\n      dup3\n        /* \"#utility.yul\":9386:9391   */\n      dup2\n        /* \"#utility.yul\":9379:9400   */\n      mstore\n        /* \"#utility.yul\":9431:9435   */\n      0x20\n        /* \"#utility.yul\":9424:9429   */\n      dup2\n        /* \"#utility.yul\":9420:9436   */\n      add\n        /* \"#utility.yul\":9469:9472   */\n      dup5\n        /* \"#utility.yul\":9460:9466   */\n      dup5\n        /* \"#utility.yul\":9455:9458   */\n      dup5\n        /* \"#utility.yul\":9451:9467   */\n      add\n        /* \"#utility.yul\":9448:9473   */\n      gt\n        /* \"#utility.yul\":9445:9557   */\n      iszero\n      tag_526\n      jumpi\n        /* \"#utility.yul\":9476:9555   */\n      tag_527\n      tag_380\n      jump\t// in\n    tag_527:\n        /* \"#utility.yul\":9445:9557   */\n    tag_526:\n        /* \"#utility.yul\":9566:9620   */\n      tag_528\n        /* \"#utility.yul\":9613:9619   */\n      dup5\n        /* \"#utility.yul\":9608:9611   */\n      dup3\n        /* \"#utility.yul\":9603:9606   */\n      dup6\n        /* \"#utility.yul\":9566:9620   */\n      tag_384\n      jump\t// in\n    tag_528:\n        /* \"#utility.yul\":9285:9626   */\n      pop\n        /* \"#utility.yul\":9201:9626   */\n      swap4\n      swap3\n      pop\n      pop\n      pop\n      jump\t// out\n        /* \"#utility.yul\":9646:9986   */\n    tag_386:\n        /* \"#utility.yul\":9702:9707   */\n      0x00\n        /* \"#utility.yul\":9751:9754   */\n      dup3\n        /* \"#utility.yul\":9744:9748   */\n      0x1f\n        /* \"#utility.yul\":9736:9742   */\n      dup4\n        /* \"#utility.yul\":9732:9749   */\n      add\n        /* \"#utility.yul\":9728:9755   */\n      slt\n        /* \"#utility.yul\":9718:9840   */\n      tag_530\n      jumpi\n        /* \"#utility.yul\":9759:9838   */\n      tag_531\n      tag_379\n      jump\t// in\n    tag_531:\n        /* \"#utility.yul\":9718:9840   */\n    tag_530:\n        /* \"#utility.yul\":9876:9882   */\n      dup2\n        /* \"#utility.yul\":9863:9883   */\n      calldataload\n        /* \"#utility.yul\":9901:9980   */\n      tag_532\n        /* \"#utility.yul\":9976:9979   */\n      dup5\n        /* \"#utility.yul\":9968:9974   */\n      dup3\n        /* \"#utility.yul\":9961:9965   */\n      0x20\n        /* \"#utility.yul\":9953:9959   */\n      dup7\n        /* \"#utility.yul\":9949:9966   */\n      add\n        /* \"#utility.yul\":9901:9980   */\n      tag_385\n      jump\t// in\n    tag_532:\n        /* \"#utility.yul\":9892:9980   */\n      swap2\n      pop\n        /* \"#utility.yul\":9708:9986   */\n      pop\n        /* \"#utility.yul\":9646:9986   */\n      swap3\n      swap2\n      pop\n      pop\n      jump\t// out\n        /* \"#utility.yul\":9992:10078   */\n    tag_387:\n        /* \"#utility.yul\":10027:10034   */\n      0x00\n        /* \"#utility.yul\":10067:10071   */\n      0xff\n        /* \"#utility.yul\":10060:10065   */\n      dup3\n        /* \"#utility.yul\":10056:10072   */\n      and\n        /* \"#utility.yul\":10045:10072   */\n      swap1\n      pop\n        /* \"#utility.yul\":9992:10078   */\n      swap2\n      swap1\n      pop\n      jump\t// out\n        /* \"#utility.yul\":10084:10202   */\n    tag_388:\n        /* \"#utility.yul\":10155:10177   */\n      tag_535\n        /* \"#utility.yul\":10171:10176   */\n      dup2\n        /* \"#utility.yul\":10155:10177   */\n      tag_387\n      jump\t// in\n    tag_535:\n        /* \"#utility.yul\":10148:10153   */\n      dup2\n        /* \"#utility.yul\":10145:10178   */\n      eq\n        /* \"#utility.yul\":10135:10196   */\n      tag_536\n      jumpi\n        /* \"#utility.yul\":10192:10193   */\n      0x00\n        /* \"#utility.yul\":10189:10190   */\n      dup1\n        /* \"#utility.yul\":10182:10194   */\n      revert\n        /* \"#utility.yul\":10135:10196   */\n    tag_536:\n        /* \"#utility.yul\":10084:10202   */\n      pop\n      jump\t// out\n        /* \"#utility.yul\":10208:10343   */\n    tag_389:\n        /* \"#utility.yul\":10252:10257   */\n      0x00\n        /* \"#utility.yul\":10290:10296   */\n      dup2\n        /* \"#utility.yul\":10277:10297   */\n      calldataload\n        /* \"#utility.yul\":10268:10297   */\n      swap1\n      pop\n        /* \"#utility.yul\":10306:10337   */\n      tag_538\n        /* \"#utility.yul\":10331:10336   */\n      dup2\n        /* \"#utility.yul\":10306:10337   */\n      tag_388\n      jump\t// in\n    tag_538:\n        /* \"#utility.yul\":10208:10343   */\n      swap3\n      swap2\n      pop\n      pop\n      jump\t// out\n        /* \"#utility.yul\":10349:11470   */\n    tag_47:\n        /* \"#utility.yul\":10453:10459   */\n      0x00\n        /* \"#utility.yul\":10461:10467   */\n      dup1\n        /* \"#utility.yul\":10469:10475   */\n      0x00\n        /* \"#utility.yul\":10477:10483   */\n      dup1\n        /* \"#utility.yul\":10526:10529   */\n      0x80\n        /* \"#utility.yul\":10514:10523   */\n      dup6\n        /* \"#utility.yul\":10505:10512   */\n      dup8\n        /* \"#utility.yul\":10501:10524   */\n      sub\n        /* \"#utility.yul\":10497:10530   */\n      slt\n        /* \"#utility.yul\":10494:10614   */\n      iszero\n      tag_540\n      jumpi\n        /* \"#utility.yul\":10533:10612   */\n      tag_541\n      tag_354\n      jump\t// in\n    tag_541:\n        /* \"#utility.yul\":10494:10614   */\n    tag_540:\n        /* \"#utility.yul\":10681:10682   */\n      0x00\n        /* \"#utility.yul\":10670:10679   */\n      dup6\n        /* \"#utility.yul\":10666:10683   */\n      add\n        /* \"#utility.yul\":10653:10684   */\n      calldataload\n        /* \"#utility.yul\":10711:10729   */\n      0xffffffffffffffff\n        /* \"#utility.yul\":10703:10709   */\n      dup2\n        /* \"#utility.yul\":10700:10730   */\n      gt\n        /* \"#utility.yul\":10697:10814   */\n      iszero\n      tag_542\n      jumpi\n        /* \"#utility.yul\":10733:10812   */\n      tag_543\n      tag_355\n      jump\t// in\n    tag_543:\n        /* \"#utility.yul\":10697:10814   */\n    tag_542:\n        /* \"#utility.yul\":10838:10901   */\n      tag_544\n        /* \"#utility.yul\":10893:10900   */\n      dup8\n        /* \"#utility.yul\":10884:10890   */\n      dup3\n        /* \"#utility.yul\":10873:10882   */\n      dup9\n        /* \"#utility.yul\":10869:10891   */\n      add\n        /* \"#utility.yul\":10838:10901   */\n      tag_386\n      jump\t// in\n    tag_544:\n        /* \"#utility.yul\":10828:10901   */\n      swap5\n      pop\n        /* \"#utility.yul\":10624:10911   */\n      pop\n        /* \"#utility.yul\":10978:10980   */\n      0x20\n        /* \"#utility.yul\":10967:10976   */\n      dup6\n        /* \"#utility.yul\":10963:10981   */\n      add\n        /* \"#utility.yul\":10950:10982   */\n      calldataload\n        /* \"#utility.yul\":11009:11027   */\n      0xffffffffffffffff\n        /* \"#utility.yul\":11001:11007   */\n      dup2\n        /* \"#utility.yul\":10998:11028   */\n      gt\n        /* \"#utility.yul\":10995:11112   */\n      iszero\n      tag_545\n      jumpi\n        /* \"#utility.yul\":11031:11110   */\n      tag_546\n      tag_355\n      jump\t// in\n    tag_546:\n        /* \"#utility.yul\":10995:11112   */\n    tag_545:\n        /* \"#utility.yul\":11136:11199   */\n      tag_547\n        /* \"#utility.yul\":11191:11198   */\n      dup8\n        /* \"#utility.yul\":11182:11188   */\n      dup3\n        /* \"#utility.yul\":11171:11180   */\n      dup9\n        /* \"#utility.yul\":11167:11189   */\n      add\n        /* \"#utility.yul\":11136:11199   */\n      tag_386\n      jump\t// in\n    tag_547:\n        /* \"#utility.yul\":11126:11199   */\n      swap4\n      pop\n        /* \"#utility.yul\":10921:11209   */\n      pop\n        /* \"#utility.yul\":11248:11250   */\n      0x40\n        /* \"#utility.yul\":11274:11327   */\n      tag_548\n        /* \"#utility.yul\":11319:11326   */\n      dup8\n        /* \"#utility.yul\":11310:11316   */\n      dup3\n        /* \"#utility.yul\":11299:11308   */\n      dup9\n        /* \"#utility.yul\":11295:11317   */\n      add\n        /* \"#utility.yul\":11274:11327   */\n      tag_358\n      jump\t// in\n    tag_548:\n        /* \"#utility.yul\":11264:11327   */\n      swap3\n      pop\n        /* \"#utility.yul\":11219:11337   */\n      pop\n        /* \"#utility.yul\":11376:11378   */\n      0x60\n        /* \"#utility.yul\":11402:11453   */\n      tag_549\n        /* \"#utility.yul\":11445:11452   */\n      dup8\n        /* \"#utility.yul\":11436:11442   */\n      dup3\n        /* \"#utility.yul\":11425:11434   */\n      dup9\n        /* \"#utility.yul\":11421:11443   */\n      add\n        /* \"#utility.yul\":11402:11453   */\n      tag_389\n      jump\t// in\n    tag_549:\n        /* \"#utility.yul\":11392:11453   */\n      swap2\n      pop\n        /* \"#utility.yul\":11347:11463   */\n      pop\n        /* \"#utility.yul\":10349:11470   */\n      swap3\n      swap6\n      swap2\n      swap5\n      pop\n      swap3\n      pop\n      jump\t// out\n        /* \"#utility.yul\":11550:13002   */\n    tag_390:\n        /* \"#utility.yul\":11657:11660   */\n      0x00\n        /* \"#utility.yul\":11693:11697   */\n      0xc0\n        /* \"#utility.yul\":11688:11691   */\n      dup4\n        /* \"#utility.yul\":11684:11698   */\n      add\n        /* \"#utility.yul\":11780:11784   */\n      0x00\n        /* \"#utility.yul\":11773:11778   */\n      dup4\n        /* \"#utility.yul\":11769:11785   */\n      add\n        /* \"#utility.yul\":11763:11786   */\n      mload\n        /* \"#utility.yul\":11833:11836   */\n      dup5\n        /* \"#utility.yul\":11827:11831   */\n      dup3\n        /* \"#utility.yul\":11823:11837   */\n      sub\n        /* \"#utility.yul\":11816:11820   */\n      0x00\n        /* \"#utility.yul\":11811:11814   */\n      dup7\n        /* \"#utility.yul\":11807:11821   */\n      add\n        /* \"#utility.yul\":11800:11838   */\n      mstore\n        /* \"#utility.yul\":11859:11932   */\n      tag_551\n        /* \"#utility.yul\":11927:11931   */\n      dup3\n        /* \"#utility.yul\":11913:11925   */\n      dup3\n        /* \"#utility.yul\":11859:11932   */\n      tag_367\n      jump\t// in\n    tag_551:\n        /* \"#utility.yul\":11851:11932   */\n      swap2\n      pop\n        /* \"#utility.yul\":11708:11943   */\n      pop\n        /* \"#utility.yul\":12029:12033   */\n      0x20\n        /* \"#utility.yul\":12022:12027   */\n      dup4\n        /* \"#utility.yul\":12018:12034   */\n      add\n        /* \"#utility.yul\":12012:12035   */\n      mload\n        /* \"#utility.yul\":12082:12085   */\n      dup5\n        /* \"#utility.yul\":12076:12080   */\n      dup3\n        /* \"#utility.yul\":12072:12086   */\n      sub\n        /* \"#utility.yul\":12065:12069   */\n      0x20\n        /* \"#utility.yul\":12060:12063   */\n      dup7\n        /* \"#utility.yul\":12056:12070   */\n      add\n        /* \"#utility.yul\":12049:12087   */\n      mstore\n        /* \"#utility.yul\":12108:12181   */\n      tag_552\n        /* \"#utility.yul\":12176:12180   */\n      dup3\n        /* \"#utility.yul\":12162:12174   */\n      dup3\n        /* \"#utility.yul\":12108:12181   */\n      tag_367\n      jump\t// in\n    tag_552:\n        /* \"#utility.yul\":12100:12181   */\n      swap2\n      pop\n        /* \"#utility.yul\":11953:12192   */\n      pop\n        /* \"#utility.yul\":12272:12276   */\n      0x40\n        /* \"#utility.yul\":12265:12270   */\n      dup4\n        /* \"#utility.yul\":12261:12277   */\n      add\n        /* \"#utility.yul\":12255:12278   */\n      mload\n        /* \"#utility.yul\":12291:12354   */\n      tag_553\n        /* \"#utility.yul\":12348:12352   */\n      0x40\n        /* \"#utility.yul\":12343:12346   */\n      dup7\n        /* \"#utility.yul\":12339:12353   */\n      add\n        /* \"#utility.yul\":12325:12337   */\n      dup3\n        /* \"#utility.yul\":12291:12354   */\n      tag_368\n      jump\t// in\n    tag_553:\n        /* \"#utility.yul\":12202:12364   */\n      pop\n        /* \"#utility.yul\":12447:12451   */\n      0x60\n        /* \"#utility.yul\":12440:12445   */\n      dup4\n        /* \"#utility.yul\":12436:12452   */\n      add\n        /* \"#utility.yul\":12430:12453   */\n      mload\n        /* \"#utility.yul\":12466:12545   */\n      tag_554\n        /* \"#utility.yul\":12539:12543   */\n      0x60\n        /* \"#utility.yul\":12534:12537   */\n      dup7\n        /* \"#utility.yul\":12530:12544   */\n      add\n        /* \"#utility.yul\":12516:12528   */\n      dup3\n        /* \"#utility.yul\":12466:12545   */\n      tag_371\n      jump\t// in\n    tag_554:\n        /* \"#utility.yul\":12374:12555   */\n      pop\n        /* \"#utility.yul\":12640:12644   */\n      0x80\n        /* \"#utility.yul\":12633:12638   */\n      dup4\n        /* \"#utility.yul\":12629:12645   */\n      add\n        /* \"#utility.yul\":12623:12646   */\n      mload\n        /* \"#utility.yul\":12659:12716   */\n      tag_555\n        /* \"#utility.yul\":12710:12714   */\n      0x80\n        /* \"#utility.yul\":12705:12708   */\n      dup7\n        /* \"#utility.yul\":12701:12715   */\n      add\n        /* \"#utility.yul\":12687:12699   */\n      dup3\n        /* \"#utility.yul\":12659:12716   */\n      tag_373\n      jump\t// in\n    tag_555:\n        /* \"#utility.yul\":12565:12726   */\n      pop\n        /* \"#utility.yul\":12812:12816   */\n      0xa0\n        /* \"#utility.yul\":12805:12810   */\n      dup4\n        /* \"#utility.yul\":12801:12817   */\n      add\n        /* \"#utility.yul\":12795:12818   */\n      mload\n        /* \"#utility.yul\":12865:12868   */\n      dup5\n        /* \"#utility.yul\":12859:12863   */\n      dup3\n        /* \"#utility.yul\":12855:12869   */\n      sub\n        /* \"#utility.yul\":12848:12852   */\n      0xa0\n        /* \"#utility.yul\":12843:12846   */\n      dup7\n        /* \"#utility.yul\":12839:12853   */\n      add\n        /* \"#utility.yul\":12832:12870   */\n      mstore\n        /* \"#utility.yul\":12891:12964   */\n      tag_556\n        /* \"#utility.yul\":12959:12963   */\n      dup3\n        /* \"#utility.yul\":12945:12957   */\n      dup3\n        /* \"#utility.yul\":12891:12964   */\n      tag_367\n      jump\t// in\n    tag_556:\n        /* \"#utility.yul\":12883:12964   */\n      swap2\n      pop\n        /* \"#utility.yul\":12736:12975   */\n      pop\n        /* \"#utility.yul\":12992:12996   */\n      dup1\n        /* \"#utility.yul\":12985:12996   */\n      swap2\n      pop\n        /* \"#utility.yul\":11662:13002   */\n      pop\n        /* \"#utility.yul\":11550:13002   */\n      swap3\n      swap2\n      pop\n      pop\n      jump\t// out\n        /* \"#utility.yul\":13008:13357   */\n    tag_50:\n        /* \"#utility.yul\":13139:13143   */\n      0x00\n        /* \"#utility.yul\":13177:13179   */\n      0x20\n        /* \"#utility.yul\":13166:13175   */\n      dup3\n        /* \"#utility.yul\":13162:13180   */\n      add\n        /* \"#utility.yul\":13154:13180   */\n      swap1\n      pop\n        /* \"#utility.yul\":13226:13235   */\n      dup2\n        /* \"#utility.yul\":13220:13224   */\n      dup2\n        /* \"#utility.yul\":13216:13236   */\n      sub\n        /* \"#utility.yul\":13212:13213   */\n      0x00\n        /* \"#utility.yul\":13201:13210   */\n      dup4\n        /* \"#utility.yul\":13197:13214   */\n      add\n        /* \"#utility.yul\":13190:13237   */\n      mstore\n        /* \"#utility.yul\":13254:13350   */\n      tag_558\n        /* \"#utility.yul\":13345:13349   */\n      dup2\n        /* \"#utility.yul\":13336:13342   */\n      dup5\n        /* \"#utility.yul\":13254:13350   */\n      tag_390\n      jump\t// in\n    tag_558:\n        /* \"#utility.yul\":13246:13350   */\n      swap1\n      pop\n        /* \"#utility.yul\":13008:13357   */\n      swap3\n      swap2\n      pop\n      pop\n      jump\t// out\n        /* \"#utility.yul\":13363:13532   */\n    tag_391:\n        /* \"#utility.yul\":13447:13458   */\n      0x00\n        /* \"#utility.yul\":13481:13487   */\n      dup3\n        /* \"#utility.yul\":13476:13479   */\n      dup3\n        /* \"#utility.yul\":13469:13488   */\n      mstore\n        /* \"#utility.yul\":13521:13525   */\n      0x20\n        /* \"#utility.yul\":13516:13519   */\n      dup3\n        /* \"#utility.yul\":13512:13526   */\n      add\n        /* \"#utility.yul\":13497:13526   */\n      swap1\n      pop\n        /* \"#utility.yul\":13363:13532   */\n      swap3\n      swap2\n      pop\n      pop\n      jump\t// out\n        /* \"#utility.yul\":13538:13915   */\n    tag_392:\n        /* \"#utility.yul\":13626:13629   */\n      0x00\n        /* \"#utility.yul\":13654:13693   */\n      tag_561\n        /* \"#utility.yul\":13687:13692   */\n      dup3\n        /* \"#utility.yul\":13654:13693   */\n      tag_363\n      jump\t// in\n    tag_561:\n        /* \"#utility.yul\":13709:13780   */\n      tag_562\n        /* \"#utility.yul\":13773:13779   */\n      dup2\n        /* \"#utility.yul\":13768:13771   */\n      dup6\n        /* \"#utility.yul\":13709:13780   */\n      tag_391\n      jump\t// in\n    tag_562:\n        /* \"#utility.yul\":13702:13780   */\n      swap4\n      pop\n        /* \"#utility.yul\":13789:13854   */\n      tag_563\n        /* \"#utility.yul\":13847:13853   */\n      dup2\n        /* \"#utility.yul\":13842:13845   */\n      dup6\n        /* \"#utility.yul\":13835:13839   */\n      0x20\n        /* \"#utility.yul\":13828:13833   */\n      dup7\n        /* \"#utility.yul\":13824:13840   */\n      add\n        /* \"#utility.yul\":13789:13854   */\n      tag_365\n      jump\t// in\n    tag_563:\n        /* \"#utility.yul\":13879:13908   */\n      tag_564\n        /* \"#utility.yul\":13901:13907   */\n      dup2\n        /* \"#utility.yul\":13879:13908   */\n      tag_366\n      jump\t// in\n    tag_564:\n        /* \"#utility.yul\":13874:13877   */\n      dup5\n        /* \"#utility.yul\":13870:13909   */\n      add\n        /* \"#utility.yul\":13863:13909   */\n      swap2\n      pop\n        /* \"#utility.yul\":13630:13915   */\n      pop\n        /* \"#utility.yul\":13538:13915   */\n      swap3\n      swap2\n      pop\n      pop\n      jump\t// out\n        /* \"#utility.yul\":13921:14234   */\n    tag_56:\n        /* \"#utility.yul\":14034:14038   */\n      0x00\n        /* \"#utility.yul\":14072:14074   */\n      0x20\n        /* \"#utility.yul\":14061:14070   */\n      dup3\n        /* \"#utility.yul\":14057:14075   */\n      add\n        /* \"#utility.yul\":14049:14075   */\n      swap1\n      pop\n        /* \"#utility.yul\":14121:14130   */\n      dup2\n        /* \"#utility.yul\":14115:14119   */\n      dup2\n        /* \"#utility.yul\":14111:14131   */\n      sub\n        /* \"#utility.yul\":14107:14108   */\n      0x00\n        /* \"#utility.yul\":14096:14105   */\n      dup4\n        /* \"#utility.yul\":14092:14109   */\n      add\n        /* \"#utility.yul\":14085:14132   */\n      mstore\n        /* \"#utility.yul\":14149:14227   */\n      tag_566\n        /* \"#utility.yul\":14222:14226   */\n      dup2\n        /* \"#utility.yul\":14213:14219   */\n      dup5\n        /* \"#utility.yul\":14149:14227   */\n      tag_392\n      jump\t// in\n    tag_566:\n        /* \"#utility.yul\":14141:14227   */\n      swap1\n      pop\n        /* \"#utility.yul\":13921:14234   */\n      swap3\n      swap2\n      pop\n      pop\n      jump\t// out\n        /* \"#utility.yul\":14240:14409   */\n    tag_393:\n        /* \"#utility.yul\":14380:14401   */\n      0x4974656d20646f65736e27742065786973747300000000000000000000000000\n        /* \"#utility.yul\":14376:14377   */\n      0x00\n        /* \"#utility.yul\":14368:14374   */\n      dup3\n        /* \"#utility.yul\":14364:14378   */\n      add\n        /* \"#utility.yul\":14357:14402   */\n      mstore\n        /* \"#utility.yul\":14240:14409   */\n      pop\n      jump\t// out\n        /* \"#utility.yul\":14415:14781   */\n    tag_394:\n        /* \"#utility.yul\":14557:14560   */\n      0x00\n        /* \"#utility.yul\":14578:14645   */\n      tag_569\n        /* \"#utility.yul\":14642:14644   */\n      0x13\n        /* \"#utility.yul\":14637:14640   */\n      dup4\n        /* \"#utility.yul\":14578:14645   */\n      tag_391\n      jump\t// in\n    tag_569:\n        /* \"#utility.yul\":14571:14645   */\n      swap2\n      pop\n        /* \"#utility.yul\":14654:14747   */\n      tag_570\n        /* \"#utility.yul\":14743:14746   */\n      dup3\n        /* \"#utility.yul\":14654:14747   */\n      tag_393\n      jump\t// in\n    tag_570:\n        /* \"#utility.yul\":14772:14774   */\n      0x20\n        /* \"#utility.yul\":14767:14770   */\n      dup3\n        /* \"#utility.yul\":14763:14775   */\n      add\n        /* \"#utility.yul\":14756:14775   */\n      swap1\n      pop\n        /* \"#utility.yul\":14415:14781   */\n      swap2\n      swap1\n      pop\n      jump\t// out\n        /* \"#utility.yul\":14787:15206   */\n    tag_70:\n        /* \"#utility.yul\":14953:14957   */\n      0x00\n        /* \"#utility.yul\":14991:14993   */\n      0x20\n        /* \"#utility.yul\":14980:14989   */\n      dup3\n        /* \"#utility.yul\":14976:14994   */\n      add\n        /* \"#utility.yul\":14968:14994   */\n      swap1\n      pop\n        /* \"#utility.yul\":15040:15049   */\n      dup2\n        /* \"#utility.yul\":15034:15038   */\n      dup2\n        /* \"#utility.yul\":15030:15050   */\n      sub\n        /* \"#utility.yul\":15026:15027   */\n      0x00\n        /* \"#utility.yul\":15015:15024   */\n      dup4\n        /* \"#utility.yul\":15011:15028   */\n      add\n        /* \"#utility.yul\":15004:15051   */\n      mstore\n        /* \"#utility.yul\":15068:15199   */\n      tag_572\n        /* \"#utility.yul\":15194:15198   */\n      dup2\n        /* \"#utility.yul\":15068:15199   */\n      tag_394\n      jump\t// in\n    tag_572:\n        /* \"#utility.yul\":15060:15199   */\n      swap1\n      pop\n        /* \"#utility.yul\":14787:15206   */\n      swap2\n      swap1\n      pop\n      jump\t// out\n        /* \"#utility.yul\":15212:15392   */\n    tag_73:\n        /* \"#utility.yul\":15260:15337   */\n      0x4e487b7100000000000000000000000000000000000000000000000000000000\n        /* \"#utility.yul\":15257:15258   */\n      0x00\n        /* \"#utility.yul\":15250:15338   */\n      mstore\n        /* \"#utility.yul\":15357:15361   */\n      0x21\n        /* \"#utility.yul\":15354:15355   */\n      0x04\n        /* \"#utility.yul\":15347:15362   */\n      mstore\n        /* \"#utility.yul\":15381:15385   */\n      0x24\n        /* \"#utility.yul\":15378:15379   */\n      0x00\n        /* \"#utility.yul\":15371:15386   */\n      revert\n        /* \"#utility.yul\":15398:15578   */\n    tag_395:\n        /* \"#utility.yul\":15446:15523   */\n      0x4e487b7100000000000000000000000000000000000000000000000000000000\n        /* \"#utility.yul\":15443:15444   */\n      0x00\n        /* \"#utility.yul\":15436:15524   */\n      mstore\n        /* \"#utility.yul\":15543:15547   */\n      0x22\n        /* \"#utility.yul\":15540:15541   */\n      0x04\n        /* \"#utility.yul\":15533:15548   */\n      mstore\n        /* \"#utility.yul\":15567:15571   */\n      0x24\n        /* \"#utility.yul\":15564:15565   */\n      0x00\n        /* \"#utility.yul\":15557:15572   */\n      revert\n        /* \"#utility.yul\":15584:15904   */\n    tag_77:\n        /* \"#utility.yul\":15628:15634   */\n      0x00\n        /* \"#utility.yul\":15665:15666   */\n      0x02\n        /* \"#utility.yul\":15659:15663   */\n      dup3\n        /* \"#utility.yul\":15655:15667   */\n      div\n        /* \"#utility.yul\":15645:15667   */\n      swap1\n      pop\n        /* \"#utility.yul\":15712:15713   */\n      0x01\n        /* \"#utility.yul\":15706:15710   */\n      dup3\n        /* \"#utility.yul\":15702:15714   */\n      and\n        /* \"#utility.yul\":15733:15751   */\n      dup1\n        /* \"#utility.yul\":15723:15804   */\n      tag_576\n      jumpi\n        /* \"#utility.yul\":15789:15793   */\n      0x7f\n        /* \"#utility.yul\":15781:15787   */\n      dup3\n        /* \"#utility.yul\":15777:15794   */\n      and\n        /* \"#utility.yul\":15767:15794   */\n      swap2\n      pop\n        /* \"#utility.yul\":15723:15804   */\n    tag_576:\n        /* \"#utility.yul\":15851:15853   */\n      0x20\n        /* \"#utility.yul\":15843:15849   */\n      dup3\n        /* \"#utility.yul\":15840:15854   */\n      lt\n        /* \"#utility.yul\":15820:15838   */\n      dup2\n        /* \"#utility.yul\":15817:15855   */\n      sub\n        /* \"#utility.yul\":15814:15898   */\n      tag_577\n      jumpi\n        /* \"#utility.yul\":15870:15888   */\n      tag_578\n      tag_395\n      jump\t// in\n    tag_578:\n        /* \"#utility.yul\":15814:15898   */\n    tag_577:\n        /* \"#utility.yul\":15635:15904   */\n      pop\n        /* \"#utility.yul\":15584:15904   */\n      swap2\n      swap1\n      pop\n      jump\t// out\n        /* \"#utility.yul\":15910:16085   */\n    tag_396:\n        /* \"#utility.yul\":16050:16077   */\n      0x4f776e65722063616e277420706c616365207468652062696400000000000000\n        /* \"#utility.yul\":16046:16047   */\n      0x00\n        /* \"#utility.yul\":16038:16044   */\n      dup3\n        /* \"#utility.yul\":16034:16048   */\n      add\n        /* \"#utility.yul\":16027:16078   */\n      mstore\n        /* \"#utility.yul\":15910:16085   */\n      pop\n      jump\t// out\n        /* \"#utility.yul\":16091:16457   */\n    tag_397:\n        /* \"#utility.yul\":16233:16236   */\n      0x00\n        /* \"#utility.yul\":16254:16321   */\n      tag_581\n        /* \"#utility.yul\":16318:16320   */\n      0x19\n        /* \"#utility.yul\":16313:16316   */\n      dup4\n        /* \"#utility.yul\":16254:16321   */\n      tag_391\n      jump\t// in\n    tag_581:\n        /* \"#utility.yul\":16247:16321   */\n      swap2\n      pop\n        /* \"#utility.yul\":16330:16423   */\n      tag_582\n        /* \"#utility.yul\":16419:16422   */\n      dup3\n        /* \"#utility.yul\":16330:16423   */\n      tag_396\n      jump\t// in\n    tag_582:\n        /* \"#utility.yul\":16448:16450   */\n      0x20\n        /* \"#utility.yul\":16443:16446   */\n      dup3\n        /* \"#utility.yul\":16439:16451   */\n      add\n        /* \"#utility.yul\":16432:16451   */\n      swap1\n      pop\n        /* \"#utility.yul\":16091:16457   */\n      swap2\n      swap1\n      pop\n      jump\t// out\n        /* \"#utility.yul\":16463:16882   */\n    tag_94:\n        /* \"#utility.yul\":16629:16633   */\n      0x00\n        /* \"#utility.yul\":16667:16669   */\n      0x20\n        /* \"#utility.yul\":16656:16665   */\n      dup3\n        /* \"#utility.yul\":16652:16670   */\n      add\n        /* \"#utility.yul\":16644:16670   */\n      swap1\n      pop\n        /* \"#utility.yul\":16716:16725   */\n      dup2\n        /* \"#utility.yul\":16710:16714   */\n      dup2\n        /* \"#utility.yul\":16706:16726   */\n      sub\n        /* \"#utility.yul\":16702:16703   */\n      0x00\n        /* \"#utility.yul\":16691:16700   */\n      dup4\n        /* \"#utility.yul\":16687:16704   */\n      add\n        /* \"#utility.yul\":16680:16727   */\n      mstore\n        /* \"#utility.yul\":16744:16875   */\n      tag_584\n        /* \"#utility.yul\":16870:16874   */\n      dup2\n        /* \"#utility.yul\":16744:16875   */\n      tag_397\n      jump\t// in\n    tag_584:\n        /* \"#utility.yul\":16736:16875   */\n      swap1\n      pop\n        /* \"#utility.yul\":16463:16882   */\n      swap2\n      swap1\n      pop\n      jump\t// out\n        /* \"#utility.yul\":16888:17066   */\n    tag_398:\n        /* \"#utility.yul\":17028:17058   */\n      0x4f70656e2062696420686173206e6f7420737461727465642079657400000000\n        /* \"#utility.yul\":17024:17025   */\n      0x00\n        /* \"#utility.yul\":17016:17022   */\n      dup3\n        /* \"#utility.yul\":17012:17026   */\n      add\n        /* \"#utility.yul\":17005:17059   */\n      mstore\n        /* \"#utility.yul\":16888:17066   */\n      pop\n      jump\t// out\n        /* \"#utility.yul\":17072:17438   */\n    tag_399:\n        /* \"#utility.yul\":17214:17217   */\n      0x00\n        /* \"#utility.yul\":17235:17302   */\n      tag_587\n        /* \"#utility.yul\":17299:17301   */\n      0x1c\n        /* \"#utility.yul\":17294:17297   */\n      dup4\n        /* \"#utility.yul\":17235:17302   */\n      tag_391\n      jump\t// in\n    tag_587:\n        /* \"#utility.yul\":17228:17302   */\n      swap2\n      pop\n        /* \"#utility.yul\":17311:17404   */\n      tag_588\n        /* \"#utility.yul\":17400:17403   */\n      dup3\n        /* \"#utility.yul\":17311:17404   */\n      tag_398\n      jump\t// in\n    tag_588:\n        /* \"#utility.yul\":17429:17431   */\n      0x20\n        /* \"#utility.yul\":17424:17427   */\n      dup3\n        /* \"#utility.yul\":17420:17432   */\n      add\n        /* \"#utility.yul\":17413:17432   */\n      swap1\n      pop\n        /* \"#utility.yul\":17072:17438   */\n      swap2\n      swap1\n      pop\n      jump\t// out\n        /* \"#utility.yul\":17444:17863   */\n    tag_101:\n        /* \"#utility.yul\":17610:17614   */\n      0x00\n        /* \"#utility.yul\":17648:17650   */\n      0x20\n        /* \"#utility.yul\":17637:17646   */\n      dup3\n        /* \"#utility.yul\":17633:17651   */\n      add\n        /* \"#utility.yul\":17625:17651   */\n      swap1\n      pop\n        /* \"#utility.yul\":17697:17706   */\n      dup2\n        /* \"#utility.yul\":17691:17695   */\n      dup2\n        /* \"#utility.yul\":17687:17707   */\n      sub\n        /* \"#utility.yul\":17683:17684   */\n      0x00\n        /* \"#utility.yul\":17672:17681   */\n      dup4\n        /* \"#utility.yul\":17668:17685   */\n      add\n        /* \"#utility.yul\":17661:17708   */\n      mstore\n        /* \"#utility.yul\":17725:17856   */\n      tag_590\n        /* \"#utility.yul\":17851:17855   */\n      dup2\n        /* \"#utility.yul\":17725:17856   */\n      tag_399\n      jump\t// in\n    tag_590:\n        /* \"#utility.yul\":17717:17856   */\n      swap1\n      pop\n        /* \"#utility.yul\":17444:17863   */\n      swap2\n      swap1\n      pop\n      jump\t// out\n        /* \"#utility.yul\":17869:18103   */\n    tag_400:\n        /* \"#utility.yul\":18009:18043   */\n      0x4269642070726963652073686f756c64206e6f74206265206c65737320746861\n        /* \"#utility.yul\":18005:18006   */\n      0x00\n        /* \"#utility.yul\":17997:18003   */\n      dup3\n        /* \"#utility.yul\":17993:18007   */\n      add\n        /* \"#utility.yul\":17986:18044   */\n      mstore\n        /* \"#utility.yul\":18078:18095   */\n      0x6e20726573657276652070726963650000000000000000000000000000000000\n        /* \"#utility.yul\":18073:18075   */\n      0x20\n        /* \"#utility.yul\":18065:18071   */\n      dup3\n        /* \"#utility.yul\":18061:18076   */\n      add\n        /* \"#utility.yul\":18054:18096   */\n      mstore\n        /* \"#utility.yul\":17869:18103   */\n      pop\n      jump\t// out\n        /* \"#utility.yul\":18109:18475   */\n    tag_401:\n        /* \"#utility.yul\":18251:18254   */\n      0x00\n        /* \"#utility.yul\":18272:18339   */\n      tag_593\n        /* \"#utility.yul\":18336:18338   */\n      0x2f\n        /* \"#utility.yul\":18331:18334   */\n      dup4\n        /* \"#utility.yul\":18272:18339   */\n      tag_391\n      jump\t// in\n    tag_593:\n        /* \"#utility.yul\":18265:18339   */\n      swap2\n      pop\n        /* \"#utility.yul\":18348:18441   */\n      tag_594\n        /* \"#utility.yul\":18437:18440   */\n      dup3\n        /* \"#utility.yul\":18348:18441   */\n      tag_400\n      jump\t// in\n    tag_594:\n        /* \"#utility.yul\":18466:18468   */\n      0x40\n        /* \"#utility.yul\":18461:18464   */\n      dup3\n        /* \"#utility.yul\":18457:18469   */\n      add\n        /* \"#utility.yul\":18450:18469   */\n      swap1\n      pop\n        /* \"#utility.yul\":18109:18475   */\n      swap2\n      swap1\n      pop\n      jump\t// out\n        /* \"#utility.yul\":18481:18900   */\n    tag_104:\n        /* \"#utility.yul\":18647:18651   */\n      0x00\n        /* \"#utility.yul\":18685:18687   */\n      0x20\n        /* \"#utility.yul\":18674:18683   */\n      dup3\n        /* \"#utility.yul\":18670:18688   */\n      add\n        /* \"#utility.yul\":18662:18688   */\n      swap1\n      pop\n        /* \"#utility.yul\":18734:18743   */\n      dup2\n        /* \"#utility.yul\":18728:18732   */\n      dup2\n        /* \"#utility.yul\":18724:18744   */\n      sub\n        /* \"#utility.yul\":18720:18721   */\n      0x00\n        /* \"#utility.yul\":18709:18718   */\n      dup4\n        /* \"#utility.yul\":18705:18722   */\n      add\n        /* \"#utility.yul\":18698:18745   */\n      mstore\n        /* \"#utility.yul\":18762:18893   */\n      tag_596\n        /* \"#utility.yul\":18888:18892   */\n      dup2\n        /* \"#utility.yul\":18762:18893   */\n      tag_401\n      jump\t// in\n    tag_596:\n        /* \"#utility.yul\":18754:18893   */\n      swap1\n      pop\n        /* \"#utility.yul\":18481:18900   */\n      swap2\n      swap1\n      pop\n      jump\t// out\n        /* \"#utility.yul\":18906:19140   */\n    tag_402:\n        /* \"#utility.yul\":19046:19080   */\n      0x4f6e6c792053656372657420626964207061727469636970616e74732063616e\n        /* \"#utility.yul\":19042:19043   */\n      0x00\n        /* \"#utility.yul\":19034:19040   */\n      dup3\n        /* \"#utility.yul\":19030:19044   */\n      add\n        /* \"#utility.yul\":19023:19081   */\n      mstore\n        /* \"#utility.yul\":19115:19132   */\n      0x20706c616365206f70656e206269640000000000000000000000000000000000\n        /* \"#utility.yul\":19110:19112   */\n      0x20\n        /* \"#utility.yul\":19102:19108   */\n      dup3\n        /* \"#utility.yul\":19098:19113   */\n      add\n        /* \"#utility.yul\":19091:19133   */\n      mstore\n        /* \"#utility.yul\":18906:19140   */\n      pop\n      jump\t// out\n        /* \"#utility.yul\":19146:19512   */\n    tag_403:\n        /* \"#utility.yul\":19288:19291   */\n      0x00\n        /* \"#utility.yul\":19309:19376   */\n      tag_599\n        /* \"#utility.yul\":19373:19375   */\n      0x2f\n        /* \"#utility.yul\":19368:19371   */\n      dup4\n        /* \"#utility.yul\":19309:19376   */\n      tag_391\n      jump\t// in\n    tag_599:\n        /* \"#utility.yul\":19302:19376   */\n      swap2\n      pop\n        /* \"#utility.yul\":19385:19478   */\n      tag_600\n        /* \"#utility.yul\":19474:19477   */\n      dup3\n        /* \"#utility.yul\":19385:19478   */\n      tag_402\n      jump\t// in\n    tag_600:\n        /* \"#utility.yul\":19503:19505   */\n      0x40\n        /* \"#utility.yul\":19498:19501   */\n      dup3\n        /* \"#utility.yul\":19494:19506   */\n      add\n        /* \"#utility.yul\":19487:19506   */\n      swap1\n      pop\n        /* \"#utility.yul\":19146:19512   */\n      swap2\n      swap1\n      pop\n      jump\t// out\n        /* \"#utility.yul\":19518:19937   */\n    tag_107:\n        /* \"#utility.yul\":19684:19688   */\n      0x00\n        /* \"#utility.yul\":19722:19724   */\n      0x20\n        /* \"#utility.yul\":19711:19720   */\n      dup3\n        /* \"#utility.yul\":19707:19725   */\n      add\n        /* \"#utility.yul\":19699:19725   */\n      swap1\n      pop\n        /* \"#utility.yul\":19771:19780   */\n      dup2\n        /* \"#utility.yul\":19765:19769   */\n      dup2\n        /* \"#utility.yul\":19761:19781   */\n      sub\n        /* \"#utility.yul\":19757:19758   */\n      0x00\n        /* \"#utility.yul\":19746:19755   */\n      dup4\n        /* \"#utility.yul\":19742:19759   */\n      add\n        /* \"#utility.yul\":19735:19782   */\n      mstore\n        /* \"#utility.yul\":19799:19930   */\n      tag_602\n        /* \"#utility.yul\":19925:19929   */\n      dup2\n        /* \"#utility.yul\":19799:19930   */\n      tag_403\n      jump\t// in\n    tag_602:\n        /* \"#utility.yul\":19791:19930   */\n      swap1\n      pop\n        /* \"#utility.yul\":19518:19937   */\n      swap2\n      swap1\n      pop\n      jump\t// out\n        /* \"#utility.yul\":19943:20112   */\n    tag_404:\n        /* \"#utility.yul\":20083:20104   */\n      0x496e737566696369656e742062616c616e636500000000000000000000000000\n        /* \"#utility.yul\":20079:20080   */\n      0x00\n        /* \"#utility.yul\":20071:20077   */\n      dup3\n        /* \"#utility.yul\":20067:20081   */\n      add\n        /* \"#utility.yul\":20060:20105   */\n      mstore\n        /* \"#utility.yul\":19943:20112   */\n      pop\n      jump\t// out\n        /* \"#utility.yul\":20118:20484   */\n    tag_405:\n        /* \"#utility.yul\":20260:20263   */\n      0x00\n        /* \"#utility.yul\":20281:20348   */\n      tag_605\n        /* \"#utility.yul\":20345:20347   */\n      0x13\n        /* \"#utility.yul\":20340:20343   */\n      dup4\n        /* \"#utility.yul\":20281:20348   */\n      tag_391\n      jump\t// in\n    tag_605:\n        /* \"#utility.yul\":20274:20348   */\n      swap2\n      pop\n        /* \"#utility.yul\":20357:20450   */\n      tag_606\n        /* \"#utility.yul\":20446:20449   */\n      dup3\n        /* \"#utility.yul\":20357:20450   */\n      tag_404\n      jump\t// in\n    tag_606:\n        /* \"#utility.yul\":20475:20477   */\n      0x20\n        /* \"#utility.yul\":20470:20473   */\n      dup3\n        /* \"#utility.yul\":20466:20478   */\n      add\n        /* \"#utility.yul\":20459:20478   */\n      swap1\n      pop\n        /* \"#utility.yul\":20118:20484   */\n      swap2\n      swap1\n      pop\n      jump\t// out\n        /* \"#utility.yul\":20490:20909   */\n    tag_110:\n        /* \"#utility.yul\":20656:20660   */\n      0x00\n        /* \"#utility.yul\":20694:20696   */\n      0x20\n        /* \"#utility.yul\":20683:20692   */\n      dup3\n        /* \"#utility.yul\":20679:20697   */\n      add\n        /* \"#utility.yul\":20671:20697   */\n      swap1\n      pop\n        /* \"#utility.yul\":20743:20752   */\n      dup2\n        /* \"#utility.yul\":20737:20741   */\n      dup2\n        /* \"#utility.yul\":20733:20753   */\n      sub\n        /* \"#utility.yul\":20729:20730   */\n      0x00\n        /* \"#utility.yul\":20718:20727   */\n      dup4\n        /* \"#utility.yul\":20714:20731   */\n      add\n        /* \"#utility.yul\":20707:20754   */\n      mstore\n        /* \"#utility.yul\":20771:20902   */\n      tag_608\n        /* \"#utility.yul\":20897:20901   */\n      dup2\n        /* \"#utility.yul\":20771:20902   */\n      tag_405\n      jump\t// in\n    tag_608:\n        /* \"#utility.yul\":20763:20902   */\n      swap1\n      pop\n        /* \"#utility.yul\":20490:20909   */\n      swap2\n      swap1\n      pop\n      jump\t// out\n        /* \"#utility.yul\":20915:21078   */\n    tag_406:\n        /* \"#utility.yul\":21055:21070   */\n      0x4f776e6572206368616e67656400000000000000000000000000000000000000\n        /* \"#utility.yul\":21051:21052   */\n      0x00\n        /* \"#utility.yul\":21043:21049   */\n      dup3\n        /* \"#utility.yul\":21039:21053   */\n      add\n        /* \"#utility.yul\":21032:21071   */\n      mstore\n        /* \"#utility.yul\":20915:21078   */\n      pop\n      jump\t// out\n        /* \"#utility.yul\":21084:21450   */\n    tag_407:\n        /* \"#utility.yul\":21226:21229   */\n      0x00\n        /* \"#utility.yul\":21247:21314   */\n      tag_611\n        /* \"#utility.yul\":21311:21313   */\n      0x0d\n        /* \"#utility.yul\":21306:21309   */\n      dup4\n        /* \"#utility.yul\":21247:21314   */\n      tag_391\n      jump\t// in\n    tag_611:\n        /* \"#utility.yul\":21240:21314   */\n      swap2\n      pop\n        /* \"#utility.yul\":21323:21416   */\n      tag_612\n        /* \"#utility.yul\":21412:21415   */\n      dup3\n        /* \"#utility.yul\":21323:21416   */\n      tag_406\n      jump\t// in\n    tag_612:\n        /* \"#utility.yul\":21441:21443   */\n      0x20\n        /* \"#utility.yul\":21436:21439   */\n      dup3\n        /* \"#utility.yul\":21432:21444   */\n      add\n        /* \"#utility.yul\":21425:21444   */\n      swap1\n      pop\n        /* \"#utility.yul\":21084:21450   */\n      swap2\n      swap1\n      pop\n      jump\t// out\n        /* \"#utility.yul\":21456:21985   */\n    tag_116:\n        /* \"#utility.yul\":21650:21654   */\n      0x00\n        /* \"#utility.yul\":21688:21690   */\n      0x40\n        /* \"#utility.yul\":21677:21686   */\n      dup3\n        /* \"#utility.yul\":21673:21691   */\n      add\n        /* \"#utility.yul\":21665:21691   */\n      swap1\n      pop\n        /* \"#utility.yul\":21701:21772   */\n      tag_614\n        /* \"#utility.yul\":21769:21770   */\n      0x00\n        /* \"#utility.yul\":21758:21767   */\n      dup4\n        /* \"#utility.yul\":21754:21771   */\n      add\n        /* \"#utility.yul\":21745:21751   */\n      dup5\n        /* \"#utility.yul\":21701:21772   */\n      tag_359\n      jump\t// in\n    tag_614:\n        /* \"#utility.yul\":21819:21828   */\n      dup2\n        /* \"#utility.yul\":21813:21817   */\n      dup2\n        /* \"#utility.yul\":21809:21829   */\n      sub\n        /* \"#utility.yul\":21804:21806   */\n      0x20\n        /* \"#utility.yul\":21793:21802   */\n      dup4\n        /* \"#utility.yul\":21789:21807   */\n      add\n        /* \"#utility.yul\":21782:21830   */\n      mstore\n        /* \"#utility.yul\":21847:21978   */\n      tag_615\n        /* \"#utility.yul\":21973:21977   */\n      dup2\n        /* \"#utility.yul\":21847:21978   */\n      tag_407\n      jump\t// in\n    tag_615:\n        /* \"#utility.yul\":21839:21978   */\n      swap1\n      pop\n        /* \"#utility.yul\":21456:21985   */\n      swap3\n      swap2\n      pop\n      pop\n      jump\t// out\n        /* \"#utility.yul\":21991:22171   */\n    tag_408:\n        /* \"#utility.yul\":22131:22163   */\n      0x5365637265742042696420686173206e6f742073746172746564207965740000\n        /* \"#utility.yul\":22127:22128   */\n      0x00\n        /* \"#utility.yul\":22119:22125   */\n      dup3\n        /* \"#utility.yul\":22115:22129   */\n      add\n        /* \"#utility.yul\":22108:22164   */\n      mstore\n        /* \"#utility.yul\":21991:22171   */\n      pop\n      jump\t// out\n        /* \"#utility.yul\":22177:22543   */\n    tag_409:\n        /* \"#utility.yul\":22319:22322   */\n      0x00\n        /* \"#utility.yul\":22340:22407   */\n      tag_618\n        /* \"#utility.yul\":22404:22406   */\n      0x1e\n        /* \"#utility.yul\":22399:22402   */\n      dup4\n        /* \"#utility.yul\":22340:22407   */\n      tag_391\n      jump\t// in\n    tag_618:\n        /* \"#utility.yul\":22333:22407   */\n      swap2\n      pop\n        /* \"#utility.yul\":22416:22509   */\n      tag_619\n        /* \"#utility.yul\":22505:22508   */\n      dup3\n        /* \"#utility.yul\":22416:22509   */\n      tag_408\n      jump\t// in\n    tag_619:\n        /* \"#utility.yul\":22534:22536   */\n      0x20\n        /* \"#utility.yul\":22529:22532   */\n      dup3\n        /* \"#utility.yul\":22525:22537   */\n      add\n        /* \"#utility.yul\":22518:22537   */\n      swap1\n      pop\n        /* \"#utility.yul\":22177:22543   */\n      swap2\n      swap1\n      pop\n      jump\t// out\n        /* \"#utility.yul\":22549:22968   */\n    tag_145:\n        /* \"#utility.yul\":22715:22719   */\n      0x00\n        /* \"#utility.yul\":22753:22755   */\n      0x20\n        /* \"#utility.yul\":22742:22751   */\n      dup3\n        /* \"#utility.yul\":22738:22756   */\n      add\n        /* \"#utility.yul\":22730:22756   */\n      swap1\n      pop\n        /* \"#utility.yul\":22802:22811   */\n      dup2\n        /* \"#utility.yul\":22796:22800   */\n      dup2\n        /* \"#utility.yul\":22792:22812   */\n      sub\n        /* \"#utility.yul\":22788:22789   */\n      0x00\n        /* \"#utility.yul\":22777:22786   */\n      dup4\n        /* \"#utility.yul\":22773:22790   */\n      add\n        /* \"#utility.yul\":22766:22813   */\n      mstore\n        /* \"#utility.yul\":22830:22961   */\n      tag_621\n        /* \"#utility.yul\":22956:22960   */\n      dup2\n        /* \"#utility.yul\":22830:22961   */\n      tag_409\n      jump\t// in\n    tag_621:\n        /* \"#utility.yul\":22822:22961   */\n      swap1\n      pop\n        /* \"#utility.yul\":22549:22968   */\n      swap2\n      swap1\n      pop\n      jump\t// out\n        /* \"#utility.yul\":22974:23152   */\n    tag_410:\n        /* \"#utility.yul\":23114:23144   */\n      0x4f6e6c79206f776e65722063616e207374617274207468652062696400000000\n        /* \"#utility.yul\":23110:23111   */\n      0x00\n        /* \"#utility.yul\":23102:23108   */\n      dup3\n        /* \"#utility.yul\":23098:23112   */\n      add\n        /* \"#utility.yul\":23091:23145   */\n      mstore\n        /* \"#utility.yul\":22974:23152   */\n      pop\n      jump\t// out\n        /* \"#utility.yul\":23158:23524   */\n    tag_411:\n        /* \"#utility.yul\":23300:23303   */\n      0x00\n        /* \"#utility.yul\":23321:23388   */\n      tag_624\n        /* \"#utility.yul\":23385:23387   */\n      0x1c\n        /* \"#utility.yul\":23380:23383   */\n      dup4\n        /* \"#utility.yul\":23321:23388   */\n      tag_391\n      jump\t// in\n    tag_624:\n        /* \"#utility.yul\":23314:23388   */\n      swap2\n      pop\n        /* \"#utility.yul\":23397:23490   */\n      tag_625\n        /* \"#utility.yul\":23486:23489   */\n      dup3\n        /* \"#utility.yul\":23397:23490   */\n      tag_410\n      jump\t// in\n    tag_625:\n        /* \"#utility.yul\":23515:23517   */\n      0x20\n        /* \"#utility.yul\":23510:23513   */\n      dup3\n        /* \"#utility.yul\":23506:23518   */\n      add\n        /* \"#utility.yul\":23499:23518   */\n      swap1\n      pop\n        /* \"#utility.yul\":23158:23524   */\n      swap2\n      swap1\n      pop\n      jump\t// out\n        /* \"#utility.yul\":23530:23949   */\n    tag_148:\n        /* \"#utility.yul\":23696:23700   */\n      0x00\n        /* \"#utility.yul\":23734:23736   */\n      0x20\n        /* \"#utility.yul\":23723:23732   */\n      dup3\n        /* \"#utility.yul\":23719:23737   */\n      add\n        /* \"#utility.yul\":23711:23737   */\n      swap1\n      pop\n        /* \"#utility.yul\":23783:23792   */\n      dup2\n        /* \"#utility.yul\":23777:23781   */\n      dup2\n        /* \"#utility.yul\":23773:23793   */\n      sub\n        /* \"#utility.yul\":23769:23770   */\n      0x00\n        /* \"#utility.yul\":23758:23767   */\n      dup4\n        /* \"#utility.yul\":23754:23771   */\n      add\n        /* \"#utility.yul\":23747:23794   */\n      mstore\n        /* \"#utility.yul\":23811:23942   */\n      tag_627\n        /* \"#utility.yul\":23937:23941   */\n      dup2\n        /* \"#utility.yul\":23811:23942   */\n      tag_411\n      jump\t// in\n    tag_627:\n        /* \"#utility.yul\":23803:23942   */\n      swap1\n      pop\n        /* \"#utility.yul\":23530:23949   */\n      swap2\n      swap1\n      pop\n      jump\t// out\n        /* \"#utility.yul\":23955:24135   */\n    tag_412:\n        /* \"#utility.yul\":24003:24080   */\n      0x4e487b7100000000000000000000000000000000000000000000000000000000\n        /* \"#utility.yul\":24000:24001   */\n      0x00\n        /* \"#utility.yul\":23993:24081   */\n      mstore\n        /* \"#utility.yul\":24100:24104   */\n      0x11\n        /* \"#utility.yul\":24097:24098   */\n      0x04\n        /* \"#utility.yul\":24090:24105   */\n      mstore\n        /* \"#utility.yul\":24124:24128   */\n      0x24\n        /* \"#utility.yul\":24121:24122   */\n      0x00\n        /* \"#utility.yul\":24114:24129   */\n      revert\n        /* \"#utility.yul\":24141:24551   */\n    tag_152:\n        /* \"#utility.yul\":24181:24188   */\n      0x00\n        /* \"#utility.yul\":24204:24224   */\n      tag_630\n        /* \"#utility.yul\":24222:24223   */\n      dup3\n        /* \"#utility.yul\":24204:24224   */\n      tag_356\n      jump\t// in\n    tag_630:\n        /* \"#utility.yul\":24199:24224   */\n      swap2\n      pop\n        /* \"#utility.yul\":24238:24258   */\n      tag_631\n        /* \"#utility.yul\":24256:24257   */\n      dup4\n        /* \"#utility.yul\":24238:24258   */\n      tag_356\n      jump\t// in\n    tag_631:\n        /* \"#utility.yul\":24233:24258   */\n      swap3\n      pop\n        /* \"#utility.yul\":24293:24294   */\n      dup3\n        /* \"#utility.yul\":24290:24291   */\n      dup3\n        /* \"#utility.yul\":24286:24295   */\n      mul\n        /* \"#utility.yul\":24315:24345   */\n      tag_632\n        /* \"#utility.yul\":24333:24344   */\n      dup2\n        /* \"#utility.yul\":24315:24345   */\n      tag_356\n      jump\t// in\n    tag_632:\n        /* \"#utility.yul\":24304:24345   */\n      swap2\n      pop\n        /* \"#utility.yul\":24494:24495   */\n      dup3\n        /* \"#utility.yul\":24485:24492   */\n      dup3\n        /* \"#utility.yul\":24481:24496   */\n      div\n        /* \"#utility.yul\":24478:24479   */\n      dup5\n        /* \"#utility.yul\":24475:24497   */\n      eq\n        /* \"#utility.yul\":24455:24456   */\n      dup4\n        /* \"#utility.yul\":24448:24457   */\n      iszero\n        /* \"#utility.yul\":24428:24511   */\n      or\n        /* \"#utility.yul\":24405:24544   */\n      tag_633\n      jumpi\n        /* \"#utility.yul\":24524:24542   */\n      tag_634\n      tag_412\n      jump\t// in\n    tag_634:\n        /* \"#utility.yul\":24405:24544   */\n    tag_633:\n        /* \"#utility.yul\":24189:24551   */\n      pop\n        /* \"#utility.yul\":24141:24551   */\n      swap3\n      swap2\n      pop\n      pop\n      jump\t// out\n        /* \"#utility.yul\":24557:24999   */\n    tag_154:\n        /* \"#utility.yul\":24706:24710   */\n      0x00\n        /* \"#utility.yul\":24744:24746   */\n      0x60\n        /* \"#utility.yul\":24733:24742   */\n      dup3\n        /* \"#utility.yul\":24729:24747   */\n      add\n        /* \"#utility.yul\":24721:24747   */\n      swap1\n      pop\n        /* \"#utility.yul\":24757:24828   */\n      tag_636\n        /* \"#utility.yul\":24825:24826   */\n      0x00\n        /* \"#utility.yul\":24814:24823   */\n      dup4\n        /* \"#utility.yul\":24810:24827   */\n      add\n        /* \"#utility.yul\":24801:24807   */\n      dup7\n        /* \"#utility.yul\":24757:24828   */\n      tag_359\n      jump\t// in\n    tag_636:\n        /* \"#utility.yul\":24838:24910   */\n      tag_637\n        /* \"#utility.yul\":24906:24908   */\n      0x20\n        /* \"#utility.yul\":24895:24904   */\n      dup4\n        /* \"#utility.yul\":24891:24909   */\n      add\n        /* \"#utility.yul\":24882:24888   */\n      dup6\n        /* \"#utility.yul\":24838:24910   */\n      tag_359\n      jump\t// in\n    tag_637:\n        /* \"#utility.yul\":24920:24992   */\n      tag_638\n        /* \"#utility.yul\":24988:24990   */\n      0x40\n        /* \"#utility.yul\":24977:24986   */\n      dup4\n        /* \"#utility.yul\":24973:24991   */\n      add\n        /* \"#utility.yul\":24964:24970   */\n      dup5\n        /* \"#utility.yul\":24920:24992   */\n      tag_359\n      jump\t// in\n    tag_638:\n        /* \"#utility.yul\":24557:24999   */\n      swap5\n      swap4\n      pop\n      pop\n      pop\n      pop\n      jump\t// out\n        /* \"#utility.yul\":25005:25185   */\n    tag_183:\n        /* \"#utility.yul\":25053:25130   */\n      0x4e487b7100000000000000000000000000000000000000000000000000000000\n        /* \"#utility.yul\":25050:25051   */\n      0x00\n        /* \"#utility.yul\":25043:25131   */\n      mstore\n        /* \"#utility.yul\":25150:25154   */\n      0x32\n        /* \"#utility.yul\":25147:25148   */\n      0x04\n        /* \"#utility.yul\":25140:25155   */\n      mstore\n        /* \"#utility.yul\":25174:25178   */\n      0x24\n        /* \"#utility.yul\":25171:25172   */\n      0x00\n        /* \"#utility.yul\":25164:25179   */\n      revert\n        /* \"#utility.yul\":25191:25358   */\n    tag_193:\n        /* \"#utility.yul\":25228:25231   */\n      0x00\n        /* \"#utility.yul\":25251:25273   */\n      tag_641\n        /* \"#utility.yul\":25267:25272   */\n      dup3\n        /* \"#utility.yul\":25251:25273   */\n      tag_387\n      jump\t// in\n    tag_641:\n        /* \"#utility.yul\":25242:25273   */\n      swap2\n      pop\n        /* \"#utility.yul\":25295:25299   */\n      0xff\n        /* \"#utility.yul\":25288:25293   */\n      dup3\n        /* \"#utility.yul\":25285:25300   */\n      sub\n        /* \"#utility.yul\":25282:25323   */\n      tag_642\n      jumpi\n        /* \"#utility.yul\":25303:25321   */\n      tag_643\n      tag_412\n      jump\t// in\n    tag_643:\n        /* \"#utility.yul\":25282:25323   */\n    tag_642:\n        /* \"#utility.yul\":25350:25351   */\n      0x01\n        /* \"#utility.yul\":25343:25348   */\n      dup3\n        /* \"#utility.yul\":25339:25352   */\n      add\n        /* \"#utility.yul\":25332:25352   */\n      swap1\n      pop\n        /* \"#utility.yul\":25191:25358   */\n      swap2\n      swap1\n      pop\n      jump\t// out\n        /* \"#utility.yul\":25364:25505   */\n    tag_413:\n        /* \"#utility.yul\":25413:25417   */\n      0x00\n        /* \"#utility.yul\":25436:25439   */\n      dup2\n        /* \"#utility.yul\":25428:25439   */\n      swap1\n      pop\n        /* \"#utility.yul\":25459:25462   */\n      dup2\n        /* \"#utility.yul\":25456:25457   */\n      0x00\n        /* \"#utility.yul\":25449:25463   */\n      mstore\n        /* \"#utility.yul\":25493:25497   */\n      0x20\n        /* \"#utility.yul\":25490:25491   */\n      0x00\n        /* \"#utility.yul\":25480:25498   */\n      keccak256\n        /* \"#utility.yul\":25472:25498   */\n      swap1\n      pop\n        /* \"#utility.yul\":25364:25505   */\n      swap2\n      swap1\n      pop\n      jump\t// out\n        /* \"#utility.yul\":25511:25604   */\n    tag_414:\n        /* \"#utility.yul\":25548:25554   */\n      0x00\n        /* \"#utility.yul\":25595:25597   */\n      0x20\n        /* \"#utility.yul\":25590:25592   */\n      0x1f\n        /* \"#utility.yul\":25583:25588   */\n      dup4\n        /* \"#utility.yul\":25579:25593   */\n      add\n        /* \"#utility.yul\":25575:25598   */\n      div\n        /* \"#utility.yul\":25565:25598   */\n      swap1\n      pop\n        /* \"#utility.yul\":25511:25604   */\n      swap2\n      swap1\n      pop\n      jump\t// out\n        /* \"#utility.yul\":25610:25717   */\n    tag_415:\n        /* \"#utility.yul\":25654:25662   */\n      0x00\n        /* \"#utility.yul\":25704:25709   */\n      dup3\n        /* \"#utility.yul\":25698:25702   */\n      dup3\n        /* \"#utility.yul\":25694:25710   */\n      shl\n        /* \"#utility.yul\":25673:25710   */\n      swap1\n      pop\n        /* \"#utility.yul\":25610:25717   */\n      swap3\n      swap2\n      pop\n      pop\n      jump\t// out\n        /* \"#utility.yul\":25723:26116   */\n    tag_416:\n        /* \"#utility.yul\":25792:25798   */\n      0x00\n        /* \"#utility.yul\":25842:25843   */\n      0x08\n        /* \"#utility.yul\":25830:25840   */\n      dup4\n        /* \"#utility.yul\":25826:25844   */\n      mul\n        /* \"#utility.yul\":25865:25962   */\n      tag_648\n        /* \"#utility.yul\":25895:25961   */\n      0xffffffffffffffffffffffffffffffffffffffffffffffffffffffffffffffff\n        /* \"#utility.yul\":25884:25893   */\n      dup3\n        /* \"#utility.yul\":25865:25962   */\n      tag_415\n      jump\t// in\n    tag_648:\n        /* \"#utility.yul\":25983:26022   */\n      tag_649\n        /* \"#utility.yul\":26013:26021   */\n      dup7\n        /* \"#utility.yul\":26002:26011   */\n      dup4\n        /* \"#utility.yul\":25983:26022   */\n      tag_415\n      jump\t// in\n    tag_649:\n        /* \"#utility.yul\":25971:26022   */\n      swap6\n      pop\n        /* \"#utility.yul\":26055:26059   */\n      dup1\n        /* \"#utility.yul\":26051:26060   */\n      not\n        /* \"#utility.yul\":26044:26049   */\n      dup5\n        /* \"#utility.yul\":26040:26061   */\n      and\n        /* \"#utility.yul\":26031:26061   */\n      swap4\n      pop\n        /* \"#utility.yul\":26104:26108   */\n      dup1\n        /* \"#utility.yul\":26094:26102   */\n      dup7\n        /* \"#utility.yul\":26090:26109   */\n      and\n        /* \"#utility.yul\":26083:26088   */\n      dup5\n        /* \"#utility.yul\":26080:26110   */\n      or\n        /* \"#utility.yul\":26070:26110   */\n      swap3\n      pop\n        /* \"#utility.yul\":25799:26116   */\n      pop\n      pop\n        /* \"#utility.yul\":25723:26116   */\n      swap4\n      swap3\n      pop\n      pop\n      pop\n      jump\t// out\n        /* \"#utility.yul\":26122:26182   */\n    tag_417:\n        /* \"#utility.yul\":26150:26153   */\n      0x00\n        /* \"#utility.yul\":26171:26176   */\n      dup2\n        /* \"#utility.yul\":26164:26176   */\n      swap1\n      pop\n        /* \"#utility.yul\":26122:26182   */\n      swap2\n      swap1\n      pop\n      jump\t// out\n        /* \"#utility.yul\":26188:26330   */\n    tag_418:\n        /* \"#utility.yul\":26238:26247   */\n      0x00\n        /* \"#utility.yul\":26271:26324   */\n      tag_652\n        /* \"#utility.yul\":26289:26323   */\n      tag_653\n        /* \"#utility.yul\":26298:26322   */\n      tag_654\n        /* \"#utility.yul\":26316:26321   */\n      dup5\n        /* \"#utility.yul\":26298:26322   */\n      tag_356\n      jump\t// in\n    tag_654:\n        /* \"#utility.yul\":26289:26323   */\n      tag_417\n      jump\t// in\n    tag_653:\n        /* \"#utility.yul\":26271:26324   */\n      tag_356\n      jump\t// in\n    tag_652:\n        /* \"#utility.yul\":26258:26324   */\n      swap1\n      pop\n        /* \"#utility.yul\":26188:26330   */\n      swap2\n      swap1\n      pop\n      jump\t// out\n        /* \"#utility.yul\":26336:26411   */\n    tag_419:\n        /* \"#utility.yul\":26379:26382   */\n      0x00\n        /* \"#utility.yul\":26400:26405   */\n      dup2\n        /* \"#utility.yul\":26393:26405   */\n      swap1\n      pop\n        /* \"#utility.yul\":26336:26411   */\n      swap2\n      swap1\n      pop\n      jump\t// out\n        /* \"#utility.yul\":26417:26686   */\n    tag_420:\n        /* \"#utility.yul\":26527:26566   */\n      tag_657\n        /* \"#utility.yul\":26558:26565   */\n      dup4\n        /* \"#utility.yul\":26527:26566   */\n      tag_418\n      jump\t// in\n    tag_657:\n        /* \"#utility.yul\":26588:26679   */\n      tag_658\n        /* \"#utility.yul\":26637:26678   */\n      tag_659\n        /* \"#utility.yul\":26661:26677   */\n      dup3\n        /* \"#utility.yul\":26637:26678   */\n      tag_419\n      jump\t// in\n    tag_659:\n        /* \"#utility.yul\":26629:26635   */\n      dup5\n        /* \"#utility.yul\":26622:26626   */\n      dup5\n        /* \"#utility.yul\":26616:26627   */\n      sload\n        /* \"#utility.yul\":26588:26679   */\n      tag_416\n      jump\t// in\n    tag_658:\n        /* \"#utility.yul\":26582:26586   */\n      dup3\n        /* \"#utility.yul\":26575:26680   */\n      sstore\n        /* \"#utility.yul\":26493:26686   */\n      pop\n        /* \"#utility.yul\":26417:26686   */\n      pop\n      pop\n      pop\n      jump\t// out\n        /* \"#utility.yul\":26692:26765   */\n    tag_421:\n        /* \"#utility.yul\":26737:26740   */\n      0x00\n        /* \"#utility.yul\":26692:26765   */\n      swap1\n      jump\t// out\n        /* \"#utility.yul\":26771:26960   */\n    tag_422:\n        /* \"#utility.yul\":26848:26880   */\n      tag_662\n      tag_421\n      jump\t// in\n    tag_662:\n        /* \"#utility.yul\":26889:26954   */\n      tag_663\n        /* \"#utility.yul\":26947:26953   */\n      dup2\n        /* \"#utility.yul\":26939:26945   */\n      dup5\n        /* \"#utility.yul\":26933:26937   */\n      dup5\n        /* \"#utility.yul\":26889:26954   */\n      tag_420\n      jump\t// in\n    tag_663:\n        /* \"#utility.yul\":26824:26960   */\n      pop\n        /* \"#utility.yul\":26771:26960   */\n      pop\n      pop\n      jump\t// out\n        /* \"#utility.yul\":26966:27152   */\n    tag_423:\n        /* \"#utility.yul\":27026:27146   */\n    tag_665:\n        /* \"#utility.yul\":27043:27046   */\n      dup2\n        /* \"#utility.yul\":27036:27041   */\n      dup2\n        /* \"#utility.yul\":27033:27047   */\n      lt\n        /* \"#utility.yul\":27026:27146   */\n      iszero\n      tag_667\n      jumpi\n        /* \"#utility.yul\":27097:27136   */\n      tag_668\n        /* \"#utility.yul\":27134:27135   */\n      0x00\n        /* \"#utility.yul\":27127:27132   */\n      dup3\n        /* \"#utility.yul\":27097:27136   */\n      tag_422\n      jump\t// in\n    tag_668:\n        /* \"#utility.yul\":27070:27071   */\n      0x01\n        /* \"#utility.yul\":27063:27068   */\n      dup2\n        /* \"#utility.yul\":27059:27072   */\n      add\n        /* \"#utility.yul\":27050:27072   */\n      swap1\n      pop\n        /* \"#utility.yul\":27026:27146   */\n      jump(tag_665)\n    tag_667:\n        /* \"#utility.yul\":26966:27152   */\n      pop\n      pop\n      jump\t// out\n        /* \"#utility.yul\":27158:27701   */\n    tag_424:\n        /* \"#utility.yul\":27259:27261   */\n      0x1f\n        /* \"#utility.yul\":27254:27257   */\n      dup3\n        /* \"#utility.yul\":27251:27262   */\n      gt\n        /* \"#utility.yul\":27248:27694   */\n      iszero\n      tag_670\n      jumpi\n        /* \"#utility.yul\":27293:27331   */\n      tag_671\n        /* \"#utility.yul\":27325:27330   */\n      dup2\n        /* \"#utility.yul\":27293:27331   */\n      tag_413\n      jump\t// in\n    tag_671:\n        /* \"#utility.yul\":27377:27406   */\n      tag_672\n        /* \"#utility.yul\":27395:27405   */\n      dup5\n        /* \"#utility.yul\":27377:27406   */\n      tag_414\n      jump\t// in\n    tag_672:\n        /* \"#utility.yul\":27367:27375   */\n      dup2\n        /* \"#utility.yul\":27363:27407   */\n      add\n        /* \"#utility.yul\":27560:27562   */\n      0x20\n        /* \"#utility.yul\":27548:27558   */\n      dup6\n        /* \"#utility.yul\":27545:27563   */\n      lt\n        /* \"#utility.yul\":27542:27591   */\n      iszero\n      tag_673\n      jumpi\n        /* \"#utility.yul\":27581:27589   */\n      dup2\n        /* \"#utility.yul\":27566:27589   */\n      swap1\n      pop\n        /* \"#utility.yul\":27542:27591   */\n    tag_673:\n        /* \"#utility.yul\":27604:27684   */\n      tag_674\n        /* \"#utility.yul\":27660:27682   */\n      tag_675\n        /* \"#utility.yul\":27678:27681   */\n      dup6\n        /* \"#utility.yul\":27660:27682   */\n      tag_414\n      jump\t// in\n    tag_675:\n        /* \"#utility.yul\":27650:27658   */\n      dup4\n        /* \"#utility.yul\":27646:27683   */\n      add\n        /* \"#utility.yul\":27633:27644   */\n      dup3\n        /* \"#utility.yul\":27604:27684   */\n      tag_423\n      jump\t// in\n    tag_674:\n        /* \"#utility.yul\":27263:27694   */\n      pop\n      pop\n        /* \"#utility.yul\":27248:27694   */\n    tag_670:\n        /* \"#utility.yul\":27158:27701   */\n      pop\n      pop\n      pop\n      jump\t// out\n        /* \"#utility.yul\":27707:27824   */\n    tag_425:\n        /* \"#utility.yul\":27761:27769   */\n      0x00\n        /* \"#utility.yul\":27811:27816   */\n      dup3\n        /* \"#utility.yul\":27805:27809   */\n      dup3\n        /* \"#utility.yul\":27801:27817   */\n      shr\n        /* \"#utility.yul\":27780:27817   */\n      swap1\n      pop\n        /* \"#utility.yul\":27707:27824   */\n      swap3\n      swap2\n      pop\n      pop\n      jump\t// out\n        /* \"#utility.yul\":27830:27999   */\n    tag_426:\n        /* \"#utility.yul\":27874:27880   */\n      0x00\n        /* \"#utility.yul\":27907:27958   */\n      tag_678\n        /* \"#utility.yul\":27955:27956   */\n      0x00\n        /* \"#utility.yul\":27951:27957   */\n      not\n        /* \"#utility.yul\":27943:27948   */\n      dup5\n        /* \"#utility.yul\":27940:27941   */\n      0x08\n        /* \"#utility.yul\":27936:27949   */\n      mul\n        /* \"#utility.yul\":27907:27958   */\n      tag_425\n      jump\t// in\n    tag_678:\n        /* \"#utility.yul\":27903:27959   */\n      not\n        /* \"#utility.yul\":27988:27992   */\n      dup1\n        /* \"#utility.yul\":27982:27986   */\n      dup4\n        /* \"#utility.yul\":27978:27993   */\n      and\n        /* \"#utility.yul\":27968:27993   */\n      swap2\n      pop\n        /* \"#utility.yul\":27881:27999   */\n      pop\n        /* \"#utility.yul\":27830:27999   */\n      swap3\n      swap2\n      pop\n      pop\n      jump\t// out\n        /* \"#utility.yul\":28004:28299   */\n    tag_427:\n        /* \"#utility.yul\":28080:28084   */\n      0x00\n        /* \"#utility.yul\":28226:28255   */\n      tag_680\n        /* \"#utility.yul\":28251:28254   */\n      dup4\n        /* \"#utility.yul\":28245:28249   */\n      dup4\n        /* \"#utility.yul\":28226:28255   */\n      tag_426\n      jump\t// in\n    tag_680:\n        /* \"#utility.yul\":28218:28255   */\n      swap2\n      pop\n        /* \"#utility.yul\":28288:28291   */\n      dup3\n        /* \"#utility.yul\":28285:28286   */\n      0x02\n        /* \"#utility.yul\":28281:28292   */\n      mul\n        /* \"#utility.yul\":28275:28279   */\n      dup3\n        /* \"#utility.yul\":28272:28293   */\n      or\n        /* \"#utility.yul\":28264:28293   */\n      swap1\n      pop\n        /* \"#utility.yul\":28004:28299   */\n      swap3\n      swap2\n      pop\n      pop\n      jump\t// out\n        /* \"#utility.yul\":28304:29699   */\n    tag_261:\n        /* \"#utility.yul\":28421:28458   */\n      tag_682\n        /* \"#utility.yul\":28454:28457   */\n      dup3\n        /* \"#utility.yul\":28421:28458   */\n      tag_363\n      jump\t// in\n    tag_682:\n        /* \"#utility.yul\":28523:28541   */\n      0xffffffffffffffff\n        /* \"#utility.yul\":28515:28521   */\n      dup2\n        /* \"#utility.yul\":28512:28542   */\n      gt\n        /* \"#utility.yul\":28509:28565   */\n      iszero\n      tag_683\n      jumpi\n        /* \"#utility.yul\":28545:28563   */\n      tag_684\n      tag_158\n      jump\t// in\n    tag_684:\n        /* \"#utility.yul\":28509:28565   */\n    tag_683:\n        /* \"#utility.yul\":28589:28627   */\n      tag_685\n        /* \"#utility.yul\":28621:28625   */\n      dup3\n        /* \"#utility.yul\":28615:28626   */\n      sload\n        /* \"#utility.yul\":28589:28627   */\n      tag_77\n      jump\t// in\n    tag_685:\n        /* \"#utility.yul\":28674:28741   */\n      tag_686\n        /* \"#utility.yul\":28734:28740   */\n      dup3\n        /* \"#utility.yul\":28726:28732   */\n      dup3\n        /* \"#utility.yul\":28720:28724   */\n      dup6\n        /* \"#utility.yul\":28674:28741   */\n      tag_424\n      jump\t// in\n    tag_686:\n        /* \"#utility.yul\":28768:28769   */\n      0x00\n        /* \"#utility.yul\":28792:28796   */\n      0x20\n        /* \"#utility.yul\":28779:28796   */\n      swap1\n      pop\n        /* \"#utility.yul\":28824:28826   */\n      0x1f\n        /* \"#utility.yul\":28816:28822   */\n      dup4\n        /* \"#utility.yul\":28813:28827   */\n      gt\n        /* \"#utility.yul\":28841:28842   */\n      0x01\n        /* \"#utility.yul\":28836:29454   */\n      dup2\n      eq\n      tag_688\n      jumpi\n        /* \"#utility.yul\":29498:29499   */\n      0x00\n        /* \"#utility.yul\":29515:29521   */\n      dup5\n        /* \"#utility.yul\":29512:29589   */\n      iszero\n      tag_689\n      jumpi\n        /* \"#utility.yul\":29564:29573   */\n      dup3\n        /* \"#utility.yul\":29559:29562   */\n      dup8\n        /* \"#utility.yul\":29555:29574   */\n      add\n        /* \"#utility.yul\":29549:29575   */\n      mload\n        /* \"#utility.yul\":29540:29575   */\n      swap1\n      pop\n        /* \"#utility.yul\":29512:29589   */\n    tag_689:\n        /* \"#utility.yul\":29615:29682   */\n      tag_690\n        /* \"#utility.yul\":29675:29681   */\n      dup6\n        /* \"#utility.yul\":29668:29673   */\n      dup3\n        /* \"#utility.yul\":29615:29682   */\n      tag_427\n      jump\t// in\n    tag_690:\n        /* \"#utility.yul\":29609:29613   */\n      dup7\n        /* \"#utility.yul\":29602:29683   */\n      sstore\n        /* \"#utility.yul\":29471:29693   */\n      pop\n        /* \"#utility.yul\":28806:29693   */\n      jump(tag_687)\n        /* \"#utility.yul\":28836:29454   */\n    tag_688:\n        /* \"#utility.yul\":28888:28892   */\n      0x1f\n        /* \"#utility.yul\":28884:28893   */\n      not\n        /* \"#utility.yul\":28876:28882   */\n      dup5\n        /* \"#utility.yul\":28872:28894   */\n      and\n        /* \"#utility.yul\":28922:28959   */\n      tag_691\n        /* \"#utility.yul\":28954:28958   */\n      dup7\n        /* \"#utility.yul\":28922:28959   */\n      tag_413\n      jump\t// in\n    tag_691:\n        /* \"#utility.yul\":28981:28982   */\n      0x00\n        /* \"#utility.yul\":28995:29203   */\n    tag_692:\n        /* \"#utility.yul\":29009:29016   */\n      dup3\n        /* \"#utility.yul\":29006:29007   */\n      dup2\n        /* \"#utility.yul\":29003:29017   */\n      lt\n        /* \"#utility.yul\":28995:29203   */\n      iszero\n      tag_694\n      jumpi\n        /* \"#utility.yul\":29088:29097   */\n      dup5\n        /* \"#utility.yul\":29083:29086   */\n      dup10\n        /* \"#utility.yul\":29079:29098   */\n      add\n        /* \"#utility.yul\":29073:29099   */\n      mload\n        /* \"#utility.yul\":29065:29071   */\n      dup3\n        /* \"#utility.yul\":29058:29100   */\n      sstore\n        /* \"#utility.yul\":29139:29140   */\n      0x01\n        /* \"#utility.yul\":29131:29137   */\n      dup3\n        /* \"#utility.yul\":29127:29141   */\n      add\n        /* \"#utility.yul\":29117:29141   */\n      swap2\n      pop\n        /* \"#utility.yul\":29186:29188   */\n      0x20\n        /* \"#utility.yul\":29175:29184   */\n      dup6\n        /* \"#utility.yul\":29171:29189   */\n      add\n        /* \"#utility.yul\":29158:29189   */\n      swap5\n      pop\n        /* \"#utility.yul\":29032:29036   */\n      0x20\n        /* \"#utility.yul\":29029:29030   */\n      dup2\n        /* \"#utility.yul\":29025:29037   */\n      add\n        /* \"#utility.yul\":29020:29037   */\n      swap1\n      pop\n        /* \"#utility.yul\":28995:29203   */\n      jump(tag_692)\n    tag_694:\n        /* \"#utility.yul\":29231:29237   */\n      dup7\n        /* \"#utility.yul\":29222:29229   */\n      dup4\n        /* \"#utility.yul\":29219:29238   */\n      lt\n        /* \"#utility.yul\":29216:29395   */\n      iszero\n      tag_695\n      jumpi\n        /* \"#utility.yul\":29289:29298   */\n      dup5\n        /* \"#utility.yul\":29284:29287   */\n      dup10\n        /* \"#utility.yul\":29280:29299   */\n      add\n        /* \"#utility.yul\":29274:29300   */\n      mload\n        /* \"#utility.yul\":29332:29380   */\n      tag_696\n        /* \"#utility.yul\":29374:29378   */\n      0x1f\n        /* \"#utility.yul\":29366:29372   */\n      dup10\n        /* \"#utility.yul\":29362:29379   */\n      and\n        /* \"#utility.yul\":29351:29360   */\n      dup3\n        /* \"#utility.yul\":29332:29380   */\n      tag_426\n      jump\t// in\n    tag_696:\n        /* \"#utility.yul\":29324:29330   */\n      dup4\n        /* \"#utility.yul\":29317:29381   */\n      sstore\n        /* \"#utility.yul\":29239:29395   */\n      pop\n        /* \"#utility.yul\":29216:29395   */\n    tag_695:\n        /* \"#utility.yul\":29441:29442   */\n      0x01\n        /* \"#utility.yul\":29437:29438   */\n      0x02\n        /* \"#utility.yul\":29429:29435   */\n      dup9\n        /* \"#utility.yul\":29425:29439   */\n      mul\n        /* \"#utility.yul\":29421:29443   */\n      add\n        /* \"#utility.yul\":29415:29419   */\n      dup9\n        /* \"#utility.yul\":29408:29444   */\n      sstore\n        /* \"#utility.yul\":28843:29454   */\n      pop\n      pop\n      pop\n        /* \"#utility.yul\":28806:29693   */\n    tag_687:\n      pop\n        /* \"#utility.yul\":28396:29699   */\n      pop\n      pop\n      pop\n        /* \"#utility.yul\":28304:29699   */\n      pop\n      pop\n      jump\t// out\n        /* \"#utility.yul\":29705:29938   */\n    tag_265:\n        /* \"#utility.yul\":29744:29747   */\n      0x00\n        /* \"#utility.yul\":29767:29791   */\n      tag_698\n        /* \"#utility.yul\":29785:29790   */\n      dup3\n        /* \"#utility.yul\":29767:29791   */\n      tag_356\n      jump\t// in\n    tag_698:\n        /* \"#utility.yul\":29758:29791   */\n      swap2\n      pop\n        /* \"#utility.yul\":29813:29879   */\n      0xffffffffffffffffffffffffffffffffffffffffffffffffffffffffffffffff\n        /* \"#utility.yul\":29806:29811   */\n      dup3\n        /* \"#utility.yul\":29803:29880   */\n      sub\n        /* \"#utility.yul\":29800:29903   */\n      tag_699\n      jumpi\n        /* \"#utility.yul\":29883:29901   */\n      tag_700\n      tag_412\n      jump\t// in\n    tag_700:\n        /* \"#utility.yul\":29800:29903   */\n    tag_699:\n        /* \"#utility.yul\":29930:29931   */\n      0x01\n        /* \"#utility.yul\":29923:29928   */\n      dup3\n        /* \"#utility.yul\":29919:29932   */\n      add\n        /* \"#utility.yul\":29912:29932   */\n      swap1\n      pop\n        /* \"#utility.yul\":29705:29938   */\n      swap2\n      swap1\n      pop\n      jump\t// out\n        /* \"#utility.yul\":29944:30122   */\n    tag_428:\n        /* \"#utility.yul\":30084:30114   */\n      0x4f70656e2042696420686173206e6f7420737461727465642079657400000000\n        /* \"#utility.yul\":30080:30081   */\n      0x00\n        /* \"#utility.yul\":30072:30078   */\n      dup3\n        /* \"#utility.yul\":30068:30082   */\n      add\n        /* \"#utility.yul\":30061:30115   */\n      mstore\n        /* \"#utility.yul\":29944:30122   */\n      pop\n      jump\t// out\n        /* \"#utility.yul\":30128:30494   */\n    tag_429:\n        /* \"#utility.yul\":30270:30273   */\n      0x00\n        /* \"#utility.yul\":30291:30358   */\n      tag_703\n        /* \"#utility.yul\":30355:30357   */\n      0x1c\n        /* \"#utility.yul\":30350:30353   */\n      dup4\n        /* \"#utility.yul\":30291:30358   */\n      tag_391\n      jump\t// in\n    tag_703:\n        /* \"#utility.yul\":30284:30358   */\n      swap2\n      pop\n        /* \"#utility.yul\":30367:30460   */\n      tag_704\n        /* \"#utility.yul\":30456:30459   */\n      dup3\n        /* \"#utility.yul\":30367:30460   */\n      tag_428\n      jump\t// in\n    tag_704:\n        /* \"#utility.yul\":30485:30487   */\n      0x20\n        /* \"#utility.yul\":30480:30483   */\n      dup3\n        /* \"#utility.yul\":30476:30488   */\n      add\n        /* \"#utility.yul\":30469:30488   */\n      swap1\n      pop\n        /* \"#utility.yul\":30128:30494   */\n      swap2\n      swap1\n      pop\n      jump\t// out\n        /* \"#utility.yul\":30500:30919   */\n    tag_287:\n        /* \"#utility.yul\":30666:30670   */\n      0x00\n        /* \"#utility.yul\":30704:30706   */\n      0x20\n        /* \"#utility.yul\":30693:30702   */\n      dup3\n        /* \"#utility.yul\":30689:30707   */\n      add\n        /* \"#utility.yul\":30681:30707   */\n      swap1\n      pop\n        /* \"#utility.yul\":30753:30762   */\n      dup2\n        /* \"#utility.yul\":30747:30751   */\n      dup2\n        /* \"#utility.yul\":30743:30763   */\n      sub\n        /* \"#utility.yul\":30739:30740   */\n      0x00\n        /* \"#utility.yul\":30728:30737   */\n      dup4\n        /* \"#utility.yul\":30724:30741   */\n      add\n        /* \"#utility.yul\":30717:30764   */\n      mstore\n        /* \"#utility.yul\":30781:30912   */\n      tag_706\n        /* \"#utility.yul\":30907:30911   */\n      dup2\n        /* \"#utility.yul\":30781:30912   */\n      tag_429\n      jump\t// in\n    tag_706:\n        /* \"#utility.yul\":30773:30912   */\n      swap1\n      pop\n        /* \"#utility.yul\":30500:30919   */\n      swap2\n      swap1\n      pop\n      jump\t// out\n        /* \"#utility.yul\":30925:31119   */\n    tag_289:\n        /* \"#utility.yul\":30965:30969   */\n      0x00\n        /* \"#utility.yul\":30985:31005   */\n      tag_708\n        /* \"#utility.yul\":31003:31004   */\n      dup3\n        /* \"#utility.yul\":30985:31005   */\n      tag_356\n      jump\t// in\n    tag_708:\n        /* \"#utility.yul\":30980:31005   */\n      swap2\n      pop\n        /* \"#utility.yul\":31019:31039   */\n      tag_709\n        /* \"#utility.yul\":31037:31038   */\n      dup4\n        /* \"#utility.yul\":31019:31039   */\n      tag_356\n      jump\t// in\n    tag_709:\n        /* \"#utility.yul\":31014:31039   */\n      swap3\n      pop\n        /* \"#utility.yul\":31063:31064   */\n      dup3\n        /* \"#utility.yul\":31060:31061   */\n      dup3\n        /* \"#utility.yul\":31056:31065   */\n      sub\n        /* \"#utility.yul\":31048:31065   */\n      swap1\n      pop\n        /* \"#utility.yul\":31087:31088   */\n      dup2\n        /* \"#utility.yul\":31081:31085   */\n      dup2\n        /* \"#utility.yul\":31078:31089   */\n      gt\n        /* \"#utility.yul\":31075:31112   */\n      iszero\n      tag_710\n      jumpi\n        /* \"#utility.yul\":31092:31110   */\n      tag_711\n      tag_412\n      jump\t// in\n    tag_711:\n        /* \"#utility.yul\":31075:31112   */\n    tag_710:\n        /* \"#utility.yul\":30925:31119   */\n      swap3\n      swap2\n      pop\n      pop\n      jump\t// out\n        /* \"#utility.yul\":31125:31305   */\n    tag_430:\n        /* \"#utility.yul\":31173:31250   */\n      0x4e487b7100000000000000000000000000000000000000000000000000000000\n        /* \"#utility.yul\":31170:31171   */\n      0x00\n        /* \"#utility.yul\":31163:31251   */\n      mstore\n        /* \"#utility.yul\":31270:31274   */\n      0x12\n        /* \"#utility.yul\":31267:31268   */\n      0x04\n        /* \"#utility.yul\":31260:31275   */\n      mstore\n        /* \"#utility.yul\":31294:31298   */\n      0x24\n        /* \"#utility.yul\":31291:31292   */\n      0x00\n        /* \"#utility.yul\":31284:31299   */\n      revert\n        /* \"#utility.yul\":31311:31490   */\n    tag_291:\n        /* \"#utility.yul\":31349:31350   */\n      0x00\n        /* \"#utility.yul\":31366:31384   */\n      tag_714\n        /* \"#utility.yul\":31382:31383   */\n      dup3\n        /* \"#utility.yul\":31366:31384   */\n      tag_387\n      jump\t// in\n    tag_714:\n        /* \"#utility.yul\":31361:31384   */\n      swap2\n      pop\n        /* \"#utility.yul\":31398:31416   */\n      tag_715\n        /* \"#utility.yul\":31414:31415   */\n      dup4\n        /* \"#utility.yul\":31398:31416   */\n      tag_387\n      jump\t// in\n    tag_715:\n        /* \"#utility.yul\":31393:31416   */\n      swap3\n      pop\n        /* \"#utility.yul\":31435:31436   */\n      dup3\n        /* \"#utility.yul\":31425:31460   */\n      tag_716\n      jumpi\n        /* \"#utility.yul\":31440:31458   */\n      tag_717\n      tag_430\n      jump\t// in\n    tag_717:\n        /* \"#utility.yul\":31425:31460   */\n    tag_716:\n        /* \"#utility.yul\":31482:31483   */\n      dup3\n        /* \"#utility.yul\":31479:31480   */\n      dup3\n        /* \"#utility.yul\":31475:31484   */\n      div\n        /* \"#utility.yul\":31470:31484   */\n      swap1\n      pop\n        /* \"#utility.yul\":31311:31490   */\n      swap3\n      swap2\n      pop\n      pop\n      jump\t// out\n        /* \"#utility.yul\":31496:31681   */\n    tag_296:\n        /* \"#utility.yul\":31536:31537   */\n      0x00\n        /* \"#utility.yul\":31553:31573   */\n      tag_719\n        /* \"#utility.yul\":31571:31572   */\n      dup3\n        /* \"#utility.yul\":31553:31573   */\n      tag_356\n      jump\t// in\n    tag_719:\n        /* \"#utility.yul\":31548:31573   */\n      swap2\n      pop\n        /* \"#utility.yul\":31587:31607   */\n      tag_720\n        /* \"#utility.yul\":31605:31606   */\n      dup4\n        /* \"#utility.yul\":31587:31607   */\n      tag_356\n      jump\t// in\n    tag_720:\n        /* \"#utility.yul\":31582:31607   */\n      swap3\n      pop\n        /* \"#utility.yul\":31626:31627   */\n      dup3\n        /* \"#utility.yul\":31616:31651   */\n      tag_721\n      jumpi\n        /* \"#utility.yul\":31631:31649   */\n      tag_722\n      tag_430\n      jump\t// in\n    tag_722:\n        /* \"#utility.yul\":31616:31651   */\n    tag_721:\n        /* \"#utility.yul\":31673:31674   */\n      dup3\n        /* \"#utility.yul\":31670:31671   */\n      dup3\n        /* \"#utility.yul\":31666:31675   */\n      div\n        /* \"#utility.yul\":31661:31675   */\n      swap1\n      pop\n        /* \"#utility.yul\":31496:31681   */\n      swap3\n      swap2\n      pop\n      pop\n      jump\t// out\n        /* \"#utility.yul\":31687:31860   */\n    tag_431:\n        /* \"#utility.yul\":31827:31852   */\n      0x42696420686173206e6f74207374617274656420796574000000000000000000\n        /* \"#utility.yul\":31823:31824   */\n      0x00\n        /* \"#utility.yul\":31815:31821   */\n      dup3\n        /* \"#utility.yul\":31811:31825   */\n      add\n        /* \"#utility.yul\":31804:31853   */\n      mstore\n        /* \"#utility.yul\":31687:31860   */\n      pop\n      jump\t// out\n        /* \"#utility.yul\":31866:32232   */\n    tag_432:\n        /* \"#utility.yul\":32008:32011   */\n      0x00\n        /* \"#utility.yul\":32029:32096   */\n      tag_725\n        /* \"#utility.yul\":32093:32095   */\n      0x17\n        /* \"#utility.yul\":32088:32091   */\n      dup4\n        /* \"#utility.yul\":32029:32096   */\n      tag_391\n      jump\t// in\n    tag_725:\n        /* \"#utility.yul\":32022:32096   */\n      swap2\n      pop\n        /* \"#utility.yul\":32105:32198   */\n      tag_726\n        /* \"#utility.yul\":32194:32197   */\n      dup3\n        /* \"#utility.yul\":32105:32198   */\n      tag_431\n      jump\t// in\n    tag_726:\n        /* \"#utility.yul\":32223:32225   */\n      0x20\n        /* \"#utility.yul\":32218:32221   */\n      dup3\n        /* \"#utility.yul\":32214:32226   */\n      add\n        /* \"#utility.yul\":32207:32226   */\n      swap1\n      pop\n        /* \"#utility.yul\":31866:32232   */\n      swap2\n      swap1\n      pop\n      jump\t// out\n        /* \"#utility.yul\":32238:32657   */\n    tag_327:\n        /* \"#utility.yul\":32404:32408   */\n      0x00\n        /* \"#utility.yul\":32442:32444   */\n      0x20\n        /* \"#utility.yul\":32431:32440   */\n      dup3\n        /* \"#utility.yul\":32427:32445   */\n      add\n        /* \"#utility.yul\":32419:32445   */\n      swap1\n      pop\n        /* \"#utility.yul\":32491:32500   */\n      dup2\n        /* \"#utility.yul\":32485:32489   */\n      dup2\n        /* \"#utility.yul\":32481:32501   */\n      sub\n        /* \"#utility.yul\":32477:32478   */\n      0x00\n        /* \"#utility.yul\":32466:32475   */\n      dup4\n        /* \"#utility.yul\":32462:32479   */\n      add\n        /* \"#utility.yul\":32455:32502   */\n      mstore\n        /* \"#utility.yul\":32519:32650   */\n      tag_728\n        /* \"#utility.yul\":32645:32649   */\n      dup2\n        /* \"#utility.yul\":32519:32650   */\n      tag_432\n      jump\t// in\n    tag_728:\n        /* \"#utility.yul\":32511:32650   */\n      swap1\n      pop\n        /* \"#utility.yul\":32238:32657   */\n      swap2\n      swap1\n      pop\n      jump\t// out\n        /* \"#utility.yul\":32663:32822   */\n    tag_433:\n        /* \"#utility.yul\":32803:32814   */\n      0x42696420456e6465640000000000000000000000000000000000000000000000\n        /* \"#utility.yul\":32799:32800   */\n      0x00\n        /* \"#utility.yul\":32791:32797   */\n      dup3\n        /* \"#utility.yul\":32787:32801   */\n      add\n        /* \"#utility.yul\":32780:32815   */\n      mstore\n        /* \"#utility.yul\":32663:32822   */\n      pop\n      jump\t// out\n        /* \"#utility.yul\":32828:33193   */\n    tag_434:\n        /* \"#utility.yul\":32970:32973   */\n      0x00\n        /* \"#utility.yul\":32991:33057   */\n      tag_731\n        /* \"#utility.yul\":33055:33056   */\n      0x09\n        /* \"#utility.yul\":33050:33053   */\n      dup4\n        /* \"#utility.yul\":32991:33057   */\n      tag_391\n      jump\t// in\n    tag_731:\n        /* \"#utility.yul\":32984:33057   */\n      swap2\n      pop\n        /* \"#utility.yul\":33066:33159   */\n      tag_732\n        /* \"#utility.yul\":33155:33158   */\n      dup3\n        /* \"#utility.yul\":33066:33159   */\n      tag_433\n      jump\t// in\n    tag_732:\n        /* \"#utility.yul\":33184:33186   */\n      0x20\n        /* \"#utility.yul\":33179:33182   */\n      dup3\n        /* \"#utility.yul\":33175:33187   */\n      add\n        /* \"#utility.yul\":33168:33187   */\n      swap1\n      pop\n        /* \"#utility.yul\":32828:33193   */\n      swap2\n      swap1\n      pop\n      jump\t// out\n        /* \"#utility.yul\":33199:33728   */\n    tag_333:\n        /* \"#utility.yul\":33393:33397   */\n      0x00\n        /* \"#utility.yul\":33431:33433   */\n      0x40\n        /* \"#utility.yul\":33420:33429   */\n      dup3\n        /* \"#utility.yul\":33416:33434   */\n      add\n        /* \"#utility.yul\":33408:33434   */\n      swap1\n      pop\n        /* \"#utility.yul\":33444:33515   */\n      tag_734\n        /* \"#utility.yul\":33512:33513   */\n      0x00\n        /* \"#utility.yul\":33501:33510   */\n      dup4\n        /* \"#utility.yul\":33497:33514   */\n      add\n        /* \"#utility.yul\":33488:33494   */\n      dup5\n        /* \"#utility.yul\":33444:33515   */\n      tag_359\n      jump\t// in\n    tag_734:\n        /* \"#utility.yul\":33562:33571   */\n      dup2\n        /* \"#utility.yul\":33556:33560   */\n      dup2\n        /* \"#utility.yul\":33552:33572   */\n      sub\n        /* \"#utility.yul\":33547:33549   */\n      0x20\n        /* \"#utility.yul\":33536:33545   */\n      dup4\n        /* \"#utility.yul\":33532:33550   */\n      add\n        /* \"#utility.yul\":33525:33573   */\n      mstore\n        /* \"#utility.yul\":33590:33721   */\n      tag_735\n        /* \"#utility.yul\":33716:33720   */\n      dup2\n        /* \"#utility.yul\":33590:33721   */\n      tag_434\n      jump\t// in\n    tag_735:\n        /* \"#utility.yul\":33582:33721   */\n      swap1\n      pop\n        /* \"#utility.yul\":33199:33728   */\n      swap3\n      swap2\n      pop\n      pop\n      jump\t// out\n\n    auxdata: 0xa2646970667358221220680eb530dec999ead254192556fae2be86b767444904a8c3be29bee1e4dc109b64736f6c63430008120033\n}\n",
				"bytecode": {
					"linkReferences": {},
					"object": "6080604052600060035534801561001557600080fd5b5061379c806100256000396000f3fe6080604052600436106100915760003560e01c8063afd3296a11610059578063afd3296a14610182578063ba13634f146101bf578063bf77ffae146101fc578063cb08a60e14610239578063ed51dbec1461027657610091565b806357c90de5146100965780636b881449146100b25780638e393d83146100ef5780639c1f60991461011a578063a49dce6714610145575b600080fd5b6100b060048036038101906100ab919061266b565b6102b3565b005b3480156100be57600080fd5b506100d960048036038101906100d491906126ab565b610938565b6040516100e691906126e7565b60405180910390f35b3480156100fb57600080fd5b50610104610e13565b6040516101119190612956565b60405180910390f35b34801561012657600080fd5b5061012f6111dc565b60405161013c91906126e7565b60405180910390f35b34801561015157600080fd5b5061016c6004803603810190610167919061266b565b6111e2565b6040516101799190612987565b60405180910390f35b34801561018e57600080fd5b506101a960048036038101906101a491906126ab565b61168a565b6040516101b69190612987565b60405180910390f35b3480156101cb57600080fd5b506101e660048036038101906101e19190612b10565b611b17565b6040516101f39190612c46565b60405180910390f35b34801561020857600080fd5b50610223600480360381019061021e91906126ab565b611cf8565b6040516102309190612cb2565b60405180910390f35b34801561024557600080fd5b50610260600480360381019061025b91906126ab565b611dea565b60405161026d91906126e7565b60405180910390f35b34801561028257600080fd5b5061029d600480360381019061029891906126ab565b611fcb565b6040516102aa9190612987565b60405180910390f35b60035482106102f7576040517f08c379a00000000000000000000000000000000000000000000000000000000081526004016102ee90612d20565b60405180910390fd5b60008060008481526020019081526020016000206040518060a0016040529081600082015481526020016001820160009054906101000a900460ff1660ff1660ff16815260200160028201548152602001600382015481526020016004820160009054906101000a900460ff16600381111561037657610375612d40565b5b600381111561038857610387612d40565b5b8152505090506000600260008581526020019081526020016000206040518060c00160405290816000820180546103be90612d9e565b80601f01602080910402602001604051908101604052809291908181526020018280546103ea90612d9e565b80156104375780601f1061040c57610100808354040283529160200191610437565b820191906000526020600020905b81548152906001019060200180831161041a57829003601f168201915b5050505050815260200160018201805461045090612d9e565b80601f016020809104026020016040519081016040528092919081815260200182805461047c90612d9e565b80156104c95780601f1061049e576101008083540402835291602001916104c9565b820191906000526020600020905b8154815290600101906020018083116104ac57829003601f168201915b50505050508152602001600282015481526020016003820160009054906101000a900473ffffffffffffffffffffffffffffffffffffffff1673ffffffffffffffffffffffffffffffffffffffff1673ffffffffffffffffffffffffffffffffffffffff1681526020016003820160149054906101000a900460ff1615151515815260200160048201805461055d90612d9e565b80601f016020809104026020016040519081016040528092919081815260200182805461058990612d9e565b80156105d65780601f106105ab576101008083540402835291602001916105d6565b820191906000526020600020905b8154815290600101906020018083116105b957829003601f168201915b50505050508152505090503373ffffffffffffffffffffffffffffffffffffffff16816060015173ffffffffffffffffffffffffffffffffffffffff1603610653576040517f08c379a000000000000000000000000000000000000000000000000000000000815260040161064a90612e1b565b60405180910390fd5b6002600381111561066757610666612d40565b5b8260800151600381111561067e5761067d612d40565b5b146106be576040517f08c379a00000000000000000000000000000000000000000000000000000000081526004016106b590612e87565b60405180910390fd5b81604001518311610704576040517f08c379a00000000000000000000000000000000000000000000000000000000081526004016106fb90612f19565b60405180910390fd5b600115156001600086815260200190815260200160002060003373ffffffffffffffffffffffffffffffffffffffff1673ffffffffffffffffffffffffffffffffffffffff16815260200190815260200160002060009054906101000a900460ff161515146107a8576040517f08c379a000000000000000000000000000000000000000000000000000000000815260040161079f90612fab565b60405180910390fd5b823410156107eb576040517f08c379a00000000000000000000000000000000000000000000000000000000081526004016107e290613017565b60405180910390fd5b6002600085815260200190815260200160002060030160009054906101000a900473ffffffffffffffffffffffffffffffffffffffff1673ffffffffffffffffffffffffffffffffffffffff166108fc349081150290604051600060405180830381858888f19350505050158015610867573d6000803e3d6000fd5b50336002600086815260200190815260200160002060030160006101000a81548173ffffffffffffffffffffffffffffffffffffffff021916908373ffffffffffffffffffffffffffffffffffffffff160217905550600360008086815260200190815260200160002060040160006101000a81548160ff021916908360038111156108f6576108f5612d40565b5b02179055507f3312df0b8b9eff523f5c5714c5ba9238bb061cc3e3b80fa1f2b2bcc83e91fe6e8460405161092a9190613083565b60405180910390a150505050565b6000600354821061097e576040517f08c379a000000000000000000000000000000000000000000000000000000000815260040161097590612d20565b60405180910390fd5b60008060008481526020019081526020016000206040518060a0016040529081600082015481526020016001820160009054906101000a900460ff1660ff1660ff16815260200160028201548152602001600382015481526020016004820160009054906101000a900460ff1660038111156109fd576109fc612d40565b5b6003811115610a0f57610a0e612d40565b5b8152505090506000600260008581526020019081526020016000206040518060c0016040529081600082018054610a4590612d9e565b80601f0160208091040260200160405190810160405280929190818152602001828054610a7190612d9e565b8015610abe5780601f10610a9357610100808354040283529160200191610abe565b820191906000526020600020905b815481529060010190602001808311610aa157829003601f168201915b50505050508152602001600182018054610ad790612d9e565b80601f0160208091040260200160405190810160405280929190818152602001828054610b0390612d9e565b8015610b505780601f10610b2557610100808354040283529160200191610b50565b820191906000526020600020905b815481529060010190602001808311610b3357829003601f168201915b50505050508152602001600282015481526020016003820160009054906101000a900473ffffffffffffffffffffffffffffffffffffffff1673ffffffffffffffffffffffffffffffffffffffff1673ffffffffffffffffffffffffffffffffffffffff1681526020016003820160149054906101000a900460ff16151515158152602001600482018054610be490612d9e565b80601f0160208091040260200160405190810160405280929190818152602001828054610c1090612d9e565b8015610c5d5780601f10610c3257610100808354040283529160200191610c5d565b820191906000526020600020905b815481529060010190602001808311610c4057829003601f168201915b505050505081525050905060016003811115610c7c57610c7b612d40565b5b82608001516003811115610c9357610c92612d40565b5b14610cd3576040517f08c379a0000000000000000000000000000000000000000000000000000000008152600401610cca906130fd565b60405180910390fd5b3373ffffffffffffffffffffffffffffffffffffffff16816060015173ffffffffffffffffffffffffffffffffffffffff1614610d45576040517f08c379a0000000000000000000000000000000000000000000000000000000008152600401610d3c90613169565b60405180910390fd5b4260008086815260200190815260200160002060030181905550600260008086815260200190815260200160002060040160006101000a81548160ff02191690836003811115610d9857610d97612d40565b5b02179055506000826020015160ff168360000151610db691906131b8565b90507f9474aeb24cb7b12803e8dab2d134207cab9f34aa7aea0a72472a3ab89a9d3853856000808881526020019081526020016000206003015483604051610e00939291906131fa565b60405180910390a1809350505050919050565b6060600060035467ffffffffffffffff811115610e3357610e326129ac565b5b604051908082528060200260200182016040528015610e6c57816020015b610e596125d3565b815260200190600190039081610e515790505b50905060005b6003548160ff1610156111d457600260008260ff1681526020019081526020016000206040518060c0016040529081600082018054610eb090612d9e565b80601f0160208091040260200160405190810160405280929190818152602001828054610edc90612d9e565b8015610f295780601f10610efe57610100808354040283529160200191610f29565b820191906000526020600020905b815481529060010190602001808311610f0c57829003601f168201915b50505050508152602001600182018054610f4290612d9e565b80601f0160208091040260200160405190810160405280929190818152602001828054610f6e90612d9e565b8015610fbb5780601f10610f9057610100808354040283529160200191610fbb565b820191906000526020600020905b815481529060010190602001808311610f9e57829003601f168201915b50505050508152602001600282015481526020016003820160009054906101000a900473ffffffffffffffffffffffffffffffffffffffff1673ffffffffffffffffffffffffffffffffffffffff1673ffffffffffffffffffffffffffffffffffffffff1681526020016003820160149054906101000a900460ff1615151515815260200160048201805461104f90612d9e565b80601f016020809104026020016040519081016040528092919081815260200182805461107b90612d9e565b80156110c85780601f1061109d576101008083540402835291602001916110c8565b820191906000526020600020905b8154815290600101906020018083116110ab57829003601f168201915b505050505081525050828260ff16815181106110e7576110e6613231565b5b6020026020010181905250818160ff168151811061110857611107613231565b5b60200260200101516060015173ffffffffffffffffffffffffffffffffffffffff163373ffffffffffffffffffffffffffffffffffffffff1614828260ff168151811061115857611157613231565b5b6020026020010151608001901515908115158152505061119c6000808360ff16815260200190815260200160002060040160009054906101000a900460ff16612458565b828260ff16815181106111b2576111b1613231565b5b602002602001015160a0018190525080806111cc90613260565b915050610e72565b508091505090565b60035481565b60006003548310611228576040517f08c379a000000000000000000000000000000000000000000000000000000000815260040161121f90612d20565b60405180910390fd5b60008060008581526020019081526020016000206040518060a0016040529081600082015481526020016001820160009054906101000a900460ff1660ff1660ff16815260200160028201548152602001600382015481526020016004820160009054906101000a900460ff1660038111156112a7576112a6612d40565b5b60038111156112b9576112b8612d40565b5b8152505090506000600260008681526020019081526020016000206040518060c00160405290816000820180546112ef90612d9e565b80601f016020809104026020016040519081016040528092919081815260200182805461131b90612d9e565b80156113685780601f1061133d57610100808354040283529160200191611368565b820191906000526020600020905b81548152906001019060200180831161134b57829003601f168201915b5050505050815260200160018201805461138190612d9e565b80601f01602080910402602001604051908101604052809291908181526020018280546113ad90612d9e565b80156113fa5780601f106113cf576101008083540402835291602001916113fa565b820191906000526020600020905b8154815290600101906020018083116113dd57829003601f168201915b50505050508152602001600282015481526020016003820160009054906101000a900473ffffffffffffffffffffffffffffffffffffffff1673ffffffffffffffffffffffffffffffffffffffff1673ffffffffffffffffffffffffffffffffffffffff1681526020016003820160149054906101000a900460ff1615151515815260200160048201805461148e90612d9e565b80601f01602080910402602001604051908101604052809291908181526020018280546114ba90612d9e565b80156115075780601f106114dc57610100808354040283529160200191611507565b820191906000526020600020905b8154815290600101906020018083116114ea57829003601f168201915b50505050508152505090506001600381111561152657611525612d40565b5b8260800151600381111561153d5761153c612d40565b5b1461157d576040517f08c379a0000000000000000000000000000000000000000000000000000000008152600401611574906130fd565b60405180910390fd5b3373ffffffffffffffffffffffffffffffffffffffff16816060015173ffffffffffffffffffffffffffffffffffffffff16036115ef576040517f08c379a00000000000000000000000000000000000000000000000000000000081526004016115e690612e1b565b60405180910390fd5b83826000015110156116165783600080878152602001908152602001600020600001819055505b600180600087815260200190815260200160002060003373ffffffffffffffffffffffffffffffffffffffff1673ffffffffffffffffffffffffffffffffffffffff16815260200190815260200160002060006101000a81548160ff02191690831515021790555060019250505092915050565b600060035482106116d0576040517f08c379a00000000000000000000000000000000000000000000000000000000081526004016116c790612d20565b60405180910390fd5b60008060008481526020019081526020016000206040518060a0016040529081600082015481526020016001820160009054906101000a900460ff1660ff1660ff16815260200160028201548152602001600382015481526020016004820160009054906101000a900460ff16600381111561174f5761174e612d40565b5b600381111561176157611760612d40565b5b8152505090506000600260008581526020019081526020016000206040518060c001604052908160008201805461179790612d9e565b80601f01602080910402602001604051908101604052809291908181526020018280546117c390612d9e565b80156118105780601f106117e557610100808354040283529160200191611810565b820191906000526020600020905b8154815290600101906020018083116117f357829003601f168201915b5050505050815260200160018201805461182990612d9e565b80601f016020809104026020016040519081016040528092919081815260200182805461185590612d9e565b80156118a25780601f10611877576101008083540402835291602001916118a2565b820191906000526020600020905b81548152906001019060200180831161188557829003601f168201915b50505050508152602001600282015481526020016003820160009054906101000a900473ffffffffffffffffffffffffffffffffffffffff1673ffffffffffffffffffffffffffffffffffffffff1673ffffffffffffffffffffffffffffffffffffffff1681526020016003820160149054906101000a900460ff1615151515815260200160048201805461193690612d9e565b80601f016020809104026020016040519081016040528092919081815260200182805461196290612d9e565b80156119af5780601f10611984576101008083540402835291602001916119af565b820191906000526020600020905b81548152906001019060200180831161199257829003601f168201915b5050505050815250509050600060038111156119ce576119cd612d40565b5b826080015160038111156119e5576119e4612d40565b5b14611a25576040517f08c379a0000000000000000000000000000000000000000000000000000000008152600401611a1c906130fd565b60405180910390fd5b3373ffffffffffffffffffffffffffffffffffffffff16816060015173ffffffffffffffffffffffffffffffffffffffff1614611a97576040517f08c379a0000000000000000000000000000000000000000000000000000000008152600401611a8e90613169565b60405180910390fd5b7f2b0331ecec1592d15ee8526f8fcdc81b7f33301cdfe0ff55aa1bf9a674b2f1d884604051611ac691906126e7565b60405180910390a1600160008086815260200190815260200160002060040160006101000a81548160ff02191690836003811115611b0757611b06612d40565b5b0217905550600192505050919050565b611b1f6125d3565b60006040518060c0016040528087815260200186815260200160035481526020013373ffffffffffffffffffffffffffffffffffffffff1681526020016001151581526020016040518060400160405280600a81526020017f6e6f7453746172746564000000000000000000000000000000000000000000008152508152509050806002600060035481526020019081526020016000206000820151816000019081611bcb9190613435565b506020820151816001019081611be19190613435565b506040820151816002015560608201518160030160006101000a81548173ffffffffffffffffffffffffffffffffffffffff021916908373ffffffffffffffffffffffffffffffffffffffff16021790555060808201518160030160146101000a81548160ff02191690831515021790555060a0820151816004019081611c689190613435565b509050508360008060035481526020019081526020016000206000018190555082600080600354815260200190815260200160002060010160006101000a81548160ff021916908360ff1602179055508360008060035481526020019081526020016000206002018190555060036000815480929190611ce790613507565b919050555080915050949350505050565b60606003548210611d3e576040517f08c379a0000000000000000000000000000000000000000000000000000000008152600401611d3590612d20565b60405180910390fd5b60008060008481526020019081526020016000206040518060a0016040529081600082015481526020016001820160009054906101000a900460ff1660ff1660ff16815260200160028201548152602001600382015481526020016004820160009054906101000a900460ff166003811115611dbd57611dbc612d40565b5b6003811115611dcf57611dce612d40565b5b815250509050611de28160800151612458565b915050919050565b60006003548210611e30576040517f08c379a0000000000000000000000000000000000000000000000000000000008152600401611e2790612d20565b60405180910390fd5b60008060008481526020019081526020016000206040518060a0016040529081600082015481526020016001820160009054906101000a900460ff1660ff1660ff16815260200160028201548152602001600382015481526020016004820160009054906101000a900460ff166003811115611eaf57611eae612d40565b5b6003811115611ec157611ec0612d40565b5b81525050905060026003811115611edb57611eda612d40565b5b81608001516003811115611ef257611ef1612d40565b5b14611f32576040517f08c379a0000000000000000000000000000000000000000000000000000000008152600401611f299061359b565b60405180910390fd5b6000816060015142611f4491906135bb565b90506000606480611f55919061361e565b60ff1682611f6391906131b8565b90506000836020015160ff168460000151611f7e91906131b8565b9050600060648383611f9091906131b8565b611f9a919061364f565b905081811115611fb257600095505050505050611fc6565b8082611fbe91906135bb565b955050505050505b919050565b60006003548210612011576040517f08c379a000000000000000000000000000000000000000000000000000000000815260040161200890612d20565b60405180910390fd5b6000600260008481526020019081526020016000206040518060c001604052908160008201805461204190612d9e565b80601f016020809104026020016040519081016040528092919081815260200182805461206d90612d9e565b80156120ba5780601f1061208f576101008083540402835291602001916120ba565b820191906000526020600020905b81548152906001019060200180831161209d57829003601f168201915b505050505081526020016001820180546120d390612d9e565b80601f01602080910402602001604051908101604052809291908181526020018280546120ff90612d9e565b801561214c5780601f106121215761010080835404028352916020019161214c565b820191906000526020600020905b81548152906001019060200180831161212f57829003601f168201915b50505050508152602001600282015481526020016003820160009054906101000a900473ffffffffffffffffffffffffffffffffffffffff1673ffffffffffffffffffffffffffffffffffffffff1673ffffffffffffffffffffffffffffffffffffffff1681526020016003820160149054906101000a900460ff161515151581526020016004820180546121e090612d9e565b80601f016020809104026020016040519081016040528092919081815260200182805461220c90612d9e565b80156122595780601f1061222e57610100808354040283529160200191612259565b820191906000526020600020905b81548152906001019060200180831161223c57829003601f168201915b505050505081525050905060008060008581526020019081526020016000206040518060a0016040529081600082015481526020016001820160009054906101000a900460ff1660ff1660ff16815260200160028201548152602001600382015481526020016004820160009054906101000a900460ff1660038111156122e3576122e2612d40565b5b60038111156122f5576122f4612d40565b5b8152505090506002600381111561230f5761230e612d40565b5b8160800151600381111561232657612325612d40565b5b14612366576040517f08c379a000000000000000000000000000000000000000000000000000000000815260040161235d906136cc565b60405180910390fd5b3373ffffffffffffffffffffffffffffffffffffffff16826060015173ffffffffffffffffffffffffffffffffffffffff16146123d8576040517f08c379a00000000000000000000000000000000000000000000000000000000081526004016123cf90613169565b60405180910390fd5b600360008086815260200190815260200160002060040160006101000a81548160ff0219169083600381111561241157612410612d40565b5b02179055507f3312df0b8b9eff523f5c5714c5ba9238bb061cc3e3b80fa1f2b2bcc83e91fe6e846040516124459190613738565b60405180910390a1600192505050919050565b60606000600381111561246e5761246d612d40565b5b82600381111561248157612480612d40565b5b036124c3576040518060400160405280600a81526020017f6e6f74537461727465640000000000000000000000000000000000000000000081525090506125ce565b600160038111156124d7576124d6612d40565b5b8260038111156124ea576124e9612d40565b5b0361252c576040518060400160405280600981526020017f736563726574426964000000000000000000000000000000000000000000000081525090506125ce565b600260038111156125405761253f612d40565b5b82600381111561255357612552612d40565b5b03612595576040518060400160405280600781526020017f6f70656e4269640000000000000000000000000000000000000000000000000081525090506125ce565b6040518060400160405280600881526020017f656e64656442696400000000000000000000000000000000000000000000000081525090505b919050565b6040518060c00160405280606081526020016060815260200160008152602001600073ffffffffffffffffffffffffffffffffffffffff168152602001600015158152602001606081525090565b6000604051905090565b600080fd5b600080fd5b6000819050919050565b61264881612635565b811461265357600080fd5b50565b6000813590506126658161263f565b92915050565b600080604083850312156126825761268161262b565b5b600061269085828601612656565b92505060206126a185828601612656565b9150509250929050565b6000602082840312156126c1576126c061262b565b5b60006126cf84828501612656565b91505092915050565b6126e181612635565b82525050565b60006020820190506126fc60008301846126d8565b92915050565b600081519050919050565b600082825260208201905092915050565b6000819050602082019050919050565b600081519050919050565b600082825260208201905092915050565b60005b8381101561276857808201518184015260208101905061274d565b60008484015250505050565b6000601f19601f8301169050919050565b60006127908261272e565b61279a8185612739565b93506127aa81856020860161274a565b6127b381612774565b840191505092915050565b6127c781612635565b82525050565b600073ffffffffffffffffffffffffffffffffffffffff82169050919050565b60006127f8826127cd565b9050919050565b612808816127ed565b82525050565b60008115159050919050565b6128238161280e565b82525050565b600060c08301600083015184820360008601526128468282612785565b915050602083015184820360208601526128608282612785565b915050604083015161287560408601826127be565b50606083015161288860608601826127ff565b50608083015161289b608086018261281a565b5060a083015184820360a08601526128b38282612785565b9150508091505092915050565b60006128cc8383612829565b905092915050565b6000602082019050919050565b60006128ec82612702565b6128f6818561270d565b9350836020820285016129088561271e565b8060005b85811015612944578484038952815161292585826128c0565b9450612930836128d4565b925060208a0199505060018101905061290c565b50829750879550505050505092915050565b6000602082019050818103600083015261297081846128e1565b905092915050565b6129818161280e565b82525050565b600060208201905061299c6000830184612978565b92915050565b600080fd5b600080fd5b7f4e487b7100000000000000000000000000000000000000000000000000000000600052604160045260246000fd5b6129e482612774565b810181811067ffffffffffffffff82111715612a0357612a026129ac565b5b80604052505050565b6000612a16612621565b9050612a2282826129db565b919050565b600067ffffffffffffffff821115612a4257612a416129ac565b5b612a4b82612774565b9050602081019050919050565b82818337600083830152505050565b6000612a7a612a7584612a27565b612a0c565b905082815260208101848484011115612a9657612a956129a7565b5b612aa1848285612a58565b509392505050565b600082601f830112612abe57612abd6129a2565b5b8135612ace848260208601612a67565b91505092915050565b600060ff82169050919050565b612aed81612ad7565b8114612af857600080fd5b50565b600081359050612b0a81612ae4565b92915050565b60008060008060808587031215612b2a57612b2961262b565b5b600085013567ffffffffffffffff811115612b4857612b47612630565b5b612b5487828801612aa9565b945050602085013567ffffffffffffffff811115612b7557612b74612630565b5b612b8187828801612aa9565b9350506040612b9287828801612656565b9250506060612ba387828801612afb565b91505092959194509250565b600060c0830160008301518482036000860152612bcc8282612785565b91505060208301518482036020860152612be68282612785565b9150506040830151612bfb60408601826127be565b506060830151612c0e60608601826127ff565b506080830151612c21608086018261281a565b5060a083015184820360a0860152612c398282612785565b9150508091505092915050565b60006020820190508181036000830152612c608184612baf565b905092915050565b600082825260208201905092915050565b6000612c848261272e565b612c8e8185612c68565b9350612c9e81856020860161274a565b612ca781612774565b840191505092915050565b60006020820190508181036000830152612ccc8184612c79565b905092915050565b7f4974656d20646f65736e27742065786973747300000000000000000000000000600082015250565b6000612d0a601383612c68565b9150612d1582612cd4565b602082019050919050565b60006020820190508181036000830152612d3981612cfd565b9050919050565b7f4e487b7100000000000000000000000000000000000000000000000000000000600052602160045260246000fd5b7f4e487b7100000000000000000000000000000000000000000000000000000000600052602260045260246000fd5b60006002820490506001821680612db657607f821691505b602082108103612dc957612dc8612d6f565b5b50919050565b7f4f776e65722063616e277420706c616365207468652062696400000000000000600082015250565b6000612e05601983612c68565b9150612e1082612dcf565b602082019050919050565b60006020820190508181036000830152612e3481612df8565b9050919050565b7f4f70656e2062696420686173206e6f7420737461727465642079657400000000600082015250565b6000612e71601c83612c68565b9150612e7c82612e3b565b602082019050919050565b60006020820190508181036000830152612ea081612e64565b9050919050565b7f4269642070726963652073686f756c64206e6f74206265206c6573732074686160008201527f6e20726573657276652070726963650000000000000000000000000000000000602082015250565b6000612f03602f83612c68565b9150612f0e82612ea7565b604082019050919050565b60006020820190508181036000830152612f3281612ef6565b9050919050565b7f4f6e6c792053656372657420626964207061727469636970616e74732063616e60008201527f20706c616365206f70656e206269640000000000000000000000000000000000602082015250565b6000612f95602f83612c68565b9150612fa082612f39565b604082019050919050565b60006020820190508181036000830152612fc481612f88565b9050919050565b7f496e737566696369656e742062616c616e636500000000000000000000000000600082015250565b6000613001601383612c68565b915061300c82612fcb565b602082019050919050565b6000602082019050818103600083015261303081612ff4565b9050919050565b7f4f776e6572206368616e67656400000000000000000000000000000000000000600082015250565b600061306d600d83612c68565b915061307882613037565b602082019050919050565b600060408201905061309860008301846126d8565b81810360208301526130a981613060565b905092915050565b7f5365637265742042696420686173206e6f742073746172746564207965740000600082015250565b60006130e7601e83612c68565b91506130f2826130b1565b602082019050919050565b60006020820190508181036000830152613116816130da565b9050919050565b7f4f6e6c79206f776e65722063616e207374617274207468652062696400000000600082015250565b6000613153601c83612c68565b915061315e8261311d565b602082019050919050565b6000602082019050818103600083015261318281613146565b9050919050565b7f4e487b7100000000000000000000000000000000000000000000000000000000600052601160045260246000fd5b60006131c382612635565b91506131ce83612635565b92508282026131dc81612635565b915082820484148315176131f3576131f2613189565b5b5092915050565b600060608201905061320f60008301866126d8565b61321c60208301856126d8565b61322960408301846126d8565b949350505050565b7f4e487b7100000000000000000000000000000000000000000000000000000000600052603260045260246000fd5b600061326b82612ad7565b915060ff820361327e5761327d613189565b5b600182019050919050565b60008190508160005260206000209050919050565b60006020601f8301049050919050565b600082821b905092915050565b6000600883026132eb7fffffffffffffffffffffffffffffffffffffffffffffffffffffffffffffffff826132ae565b6132f586836132ae565b95508019841693508086168417925050509392505050565b6000819050919050565b600061333261332d61332884612635565b61330d565b612635565b9050919050565b6000819050919050565b61334c83613317565b61336061335882613339565b8484546132bb565b825550505050565b600090565b613375613368565b613380818484613343565b505050565b5b818110156133a45761339960008261336d565b600181019050613386565b5050565b601f8211156133e9576133ba81613289565b6133c38461329e565b810160208510156133d2578190505b6133e66133de8561329e565b830182613385565b50505b505050565b600082821c905092915050565b600061340c600019846008026133ee565b1980831691505092915050565b600061342583836133fb565b9150826002028217905092915050565b61343e8261272e565b67ffffffffffffffff811115613457576134566129ac565b5b6134618254612d9e565b61346c8282856133a8565b600060209050601f83116001811461349f576000841561348d578287015190505b6134978582613419565b8655506134ff565b601f1984166134ad86613289565b60005b828110156134d5578489015182556001820191506020850194506020810190506134b0565b868310156134f257848901516134ee601f8916826133fb565b8355505b6001600288020188555050505b505050505050565b600061351282612635565b91507fffffffffffffffffffffffffffffffffffffffffffffffffffffffffffffffff820361354457613543613189565b5b600182019050919050565b7f4f70656e2042696420686173206e6f7420737461727465642079657400000000600082015250565b6000613585601c83612c68565b91506135908261354f565b602082019050919050565b600060208201905081810360008301526135b481613578565b9050919050565b60006135c682612635565b91506135d183612635565b92508282039050818111156135e9576135e8613189565b5b92915050565b7f4e487b7100000000000000000000000000000000000000000000000000000000600052601260045260246000fd5b600061362982612ad7565b915061363483612ad7565b925082613644576136436135ef565b5b828204905092915050565b600061365a82612635565b915061366583612635565b925082613675576136746135ef565b5b828204905092915050565b7f42696420686173206e6f74207374617274656420796574000000000000000000600082015250565b60006136b6601783612c68565b91506136c182613680565b602082019050919050565b600060208201905081810360008301526136e5816136a9565b9050919050565b7f42696420456e6465640000000000000000000000000000000000000000000000600082015250565b6000613722600983612c68565b915061372d826136ec565b602082019050919050565b600060408201905061374d60008301846126d8565b818103602083015261375e81613715565b90509291505056fea2646970667358221220680eb530dec999ead254192556fae2be86b767444904a8c3be29bee1e4dc109b64736f6c63430008120033",
					"opcodes": "PUSH1 0x80 PUSH1 0x40 MSTORE PUSH1 0x0 PUSH1 0x3 SSTORE CALLVALUE DUP1 ISZERO PUSH2 0x15 JUMPI PUSH1 0x0 DUP1 REVERT JUMPDEST POP PUSH2 0x379C DUP1 PUSH2 0x25 PUSH1 0x0 CODECOPY PUSH1 0x0 RETURN INVALID PUSH1 0x80 PUSH1 0x40 MSTORE PUSH1 0x4 CALLDATASIZE LT PUSH2 0x91 JUMPI PUSH1 0x0 CALLDATALOAD PUSH1 0xE0 SHR DUP1 PUSH4 0xAFD3296A GT PUSH2 0x59 JUMPI DUP1 PUSH4 0xAFD3296A EQ PUSH2 0x182 JUMPI DUP1 PUSH4 0xBA13634F EQ PUSH2 0x1BF JUMPI DUP1 PUSH4 0xBF77FFAE EQ PUSH2 0x1FC JUMPI DUP1 PUSH4 0xCB08A60E EQ PUSH2 0x239 JUMPI DUP1 PUSH4 0xED51DBEC EQ PUSH2 0x276 JUMPI PUSH2 0x91 JUMP JUMPDEST DUP1 PUSH4 0x57C90DE5 EQ PUSH2 0x96 JUMPI DUP1 PUSH4 0x6B881449 EQ PUSH2 0xB2 JUMPI DUP1 PUSH4 0x8E393D83 EQ PUSH2 0xEF JUMPI DUP1 PUSH4 0x9C1F6099 EQ PUSH2 0x11A JUMPI DUP1 PUSH4 0xA49DCE67 EQ PUSH2 0x145 JUMPI JUMPDEST PUSH1 0x0 DUP1 REVERT JUMPDEST PUSH2 0xB0 PUSH1 0x4 DUP1 CALLDATASIZE SUB DUP2 ADD SWAP1 PUSH2 0xAB SWAP2 SWAP1 PUSH2 0x266B JUMP JUMPDEST PUSH2 0x2B3 JUMP JUMPDEST STOP JUMPDEST CALLVALUE DUP1 ISZERO PUSH2 0xBE JUMPI PUSH1 0x0 DUP1 REVERT JUMPDEST POP PUSH2 0xD9 PUSH1 0x4 DUP1 CALLDATASIZE SUB DUP2 ADD SWAP1 PUSH2 0xD4 SWAP2 SWAP1 PUSH2 0x26AB JUMP JUMPDEST PUSH2 0x938 JUMP JUMPDEST PUSH1 0x40 MLOAD PUSH2 0xE6 SWAP2 SWAP1 PUSH2 0x26E7 JUMP JUMPDEST PUSH1 0x40 MLOAD DUP1 SWAP2 SUB SWAP1 RETURN JUMPDEST CALLVALUE DUP1 ISZERO PUSH2 0xFB JUMPI PUSH1 0x0 DUP1 REVERT JUMPDEST POP PUSH2 0x104 PUSH2 0xE13 JUMP JUMPDEST PUSH1 0x40 MLOAD PUSH2 0x111 SWAP2 SWAP1 PUSH2 0x2956 JUMP JUMPDEST PUSH1 0x40 MLOAD DUP1 SWAP2 SUB SWAP1 RETURN JUMPDEST CALLVALUE DUP1 ISZERO PUSH2 0x126 JUMPI PUSH1 0x0 DUP1 REVERT JUMPDEST POP PUSH2 0x12F PUSH2 0x11DC JUMP JUMPDEST PUSH1 0x40 MLOAD PUSH2 0x13C SWAP2 SWAP1 PUSH2 0x26E7 JUMP JUMPDEST PUSH1 0x40 MLOAD DUP1 SWAP2 SUB SWAP1 RETURN JUMPDEST CALLVALUE DUP1 ISZERO PUSH2 0x151 JUMPI PUSH1 0x0 DUP1 REVERT JUMPDEST POP PUSH2 0x16C PUSH1 0x4 DUP1 CALLDATASIZE SUB DUP2 ADD SWAP1 PUSH2 0x167 SWAP2 SWAP1 PUSH2 0x266B JUMP JUMPDEST PUSH2 0x11E2 JUMP JUMPDEST PUSH1 0x40 MLOAD PUSH2 0x179 SWAP2 SWAP1 PUSH2 0x2987 JUMP JUMPDEST PUSH1 0x40 MLOAD DUP1 SWAP2 SUB SWAP1 RETURN JUMPDEST CALLVALUE DUP1 ISZERO PUSH2 0x18E JUMPI PUSH1 0x0 DUP1 REVERT JUMPDEST POP PUSH2 0x1A9 PUSH1 0x4 DUP1 CALLDATASIZE SUB DUP2 ADD SWAP1 PUSH2 0x1A4 SWAP2 SWAP1 PUSH2 0x26AB JUMP JUMPDEST PUSH2 0x168A JUMP JUMPDEST PUSH1 0x40 MLOAD PUSH2 0x1B6 SWAP2 SWAP1 PUSH2 0x2987 JUMP JUMPDEST PUSH1 0x40 MLOAD DUP1 SWAP2 SUB SWAP1 RETURN JUMPDEST CALLVALUE DUP1 ISZERO PUSH2 0x1CB JUMPI PUSH1 0x0 DUP1 REVERT JUMPDEST POP PUSH2 0x1E6 PUSH1 0x4 DUP1 CALLDATASIZE SUB DUP2 ADD SWAP1 PUSH2 0x1E1 SWAP2 SWAP1 PUSH2 0x2B10 JUMP JUMPDEST PUSH2 0x1B17 JUMP JUMPDEST PUSH1 0x40 MLOAD PUSH2 0x1F3 SWAP2 SWAP1 PUSH2 0x2C46 JUMP JUMPDEST PUSH1 0x40 MLOAD DUP1 SWAP2 SUB SWAP1 RETURN JUMPDEST CALLVALUE DUP1 ISZERO PUSH2 0x208 JUMPI PUSH1 0x0 DUP1 REVERT JUMPDEST POP PUSH2 0x223 PUSH1 0x4 DUP1 CALLDATASIZE SUB DUP2 ADD SWAP1 PUSH2 0x21E SWAP2 SWAP1 PUSH2 0x26AB JUMP JUMPDEST PUSH2 0x1CF8 JUMP JUMPDEST PUSH1 0x40 MLOAD PUSH2 0x230 SWAP2 SWAP1 PUSH2 0x2CB2 JUMP JUMPDEST PUSH1 0x40 MLOAD DUP1 SWAP2 SUB SWAP1 RETURN JUMPDEST CALLVALUE DUP1 ISZERO PUSH2 0x245 JUMPI PUSH1 0x0 DUP1 REVERT JUMPDEST POP PUSH2 0x260 PUSH1 0x4 DUP1 CALLDATASIZE SUB DUP2 ADD SWAP1 PUSH2 0x25B SWAP2 SWAP1 PUSH2 0x26AB JUMP JUMPDEST PUSH2 0x1DEA JUMP JUMPDEST PUSH1 0x40 MLOAD PUSH2 0x26D SWAP2 SWAP1 PUSH2 0x26E7 JUMP JUMPDEST PUSH1 0x40 MLOAD DUP1 SWAP2 SUB SWAP1 RETURN JUMPDEST CALLVALUE DUP1 ISZERO PUSH2 0x282 JUMPI PUSH1 0x0 DUP1 REVERT JUMPDEST POP PUSH2 0x29D PUSH1 0x4 DUP1 CALLDATASIZE SUB DUP2 ADD SWAP1 PUSH2 0x298 SWAP2 SWAP1 PUSH2 0x26AB JUMP JUMPDEST PUSH2 0x1FCB JUMP JUMPDEST PUSH1 0x40 MLOAD PUSH2 0x2AA SWAP2 SWAP1 PUSH2 0x2987 JUMP JUMPDEST PUSH1 0x40 MLOAD DUP1 SWAP2 SUB SWAP1 RETURN JUMPDEST PUSH1 0x3 SLOAD DUP3 LT PUSH2 0x2F7 JUMPI PUSH1 0x40 MLOAD PUSH32 0x8C379A000000000000000000000000000000000000000000000000000000000 DUP2 MSTORE PUSH1 0x4 ADD PUSH2 0x2EE SWAP1 PUSH2 0x2D20 JUMP JUMPDEST PUSH1 0x40 MLOAD DUP1 SWAP2 SUB SWAP1 REVERT JUMPDEST PUSH1 0x0 DUP1 PUSH1 0x0 DUP5 DUP2 MSTORE PUSH1 0x20 ADD SWAP1 DUP2 MSTORE PUSH1 0x20 ADD PUSH1 0x0 KECCAK256 PUSH1 0x40 MLOAD DUP1 PUSH1 0xA0 ADD PUSH1 0x40 MSTORE SWAP1 DUP2 PUSH1 0x0 DUP3 ADD SLOAD DUP2 MSTORE PUSH1 0x20 ADD PUSH1 0x1 DUP3 ADD PUSH1 0x0 SWAP1 SLOAD SWAP1 PUSH2 0x100 EXP SWAP1 DIV PUSH1 0xFF AND PUSH1 0xFF AND PUSH1 0xFF AND DUP2 MSTORE PUSH1 0x20 ADD PUSH1 0x2 DUP3 ADD SLOAD DUP2 MSTORE PUSH1 0x20 ADD PUSH1 0x3 DUP3 ADD SLOAD DUP2 MSTORE PUSH1 0x20 ADD PUSH1 0x4 DUP3 ADD PUSH1 0x0 SWAP1 SLOAD SWAP1 PUSH2 0x100 EXP SWAP1 DIV PUSH1 0xFF AND PUSH1 0x3 DUP2 GT ISZERO PUSH2 0x376 JUMPI PUSH2 0x375 PUSH2 0x2D40 JUMP JUMPDEST JUMPDEST PUSH1 0x3 DUP2 GT ISZERO PUSH2 0x388 JUMPI PUSH2 0x387 PUSH2 0x2D40 JUMP JUMPDEST JUMPDEST DUP2 MSTORE POP POP SWAP1 POP PUSH1 0x0 PUSH1 0x2 PUSH1 0x0 DUP6 DUP2 MSTORE PUSH1 0x20 ADD SWAP1 DUP2 MSTORE PUSH1 0x20 ADD PUSH1 0x0 KECCAK256 PUSH1 0x40 MLOAD DUP1 PUSH1 0xC0 ADD PUSH1 0x40 MSTORE SWAP1 DUP2 PUSH1 0x0 DUP3 ADD DUP1 SLOAD PUSH2 0x3BE SWAP1 PUSH2 0x2D9E JUMP JUMPDEST DUP1 PUSH1 0x1F ADD PUSH1 0x20 DUP1 SWAP2 DIV MUL PUSH1 0x20 ADD PUSH1 0x40 MLOAD SWAP1 DUP2 ADD PUSH1 0x40 MSTORE DUP1 SWAP3 SWAP2 SWAP1 DUP2 DUP2 MSTORE PUSH1 0x20 ADD DUP3 DUP1 SLOAD PUSH2 0x3EA SWAP1 PUSH2 0x2D9E JUMP JUMPDEST DUP1 ISZERO PUSH2 0x437 JUMPI DUP1 PUSH1 0x1F LT PUSH2 0x40C JUMPI PUSH2 0x100 DUP1 DUP4 SLOAD DIV MUL DUP4 MSTORE SWAP2 PUSH1 0x20 ADD SWAP2 PUSH2 0x437 JUMP JUMPDEST DUP3 ADD SWAP2 SWAP1 PUSH1 0x0 MSTORE PUSH1 0x20 PUSH1 0x0 KECCAK256 SWAP1 JUMPDEST DUP2 SLOAD DUP2 MSTORE SWAP1 PUSH1 0x1 ADD SWAP1 PUSH1 0x20 ADD DUP1 DUP4 GT PUSH2 0x41A JUMPI DUP3 SWAP1 SUB PUSH1 0x1F AND DUP3 ADD SWAP2 JUMPDEST POP POP POP POP POP DUP2 MSTORE PUSH1 0x20 ADD PUSH1 0x1 DUP3 ADD DUP1 SLOAD PUSH2 0x450 SWAP1 PUSH2 0x2D9E JUMP JUMPDEST DUP1 PUSH1 0x1F ADD PUSH1 0x20 DUP1 SWAP2 DIV MUL PUSH1 0x20 ADD PUSH1 0x40 MLOAD SWAP1 DUP2 ADD PUSH1 0x40 MSTORE DUP1 SWAP3 SWAP2 SWAP1 DUP2 DUP2 MSTORE PUSH1 0x20 ADD DUP3 DUP1 SLOAD PUSH2 0x47C SWAP1 PUSH2 0x2D9E JUMP JUMPDEST DUP1 ISZERO PUSH2 0x4C9 JUMPI DUP1 PUSH1 0x1F LT PUSH2 0x49E JUMPI PUSH2 0x100 DUP1 DUP4 SLOAD DIV MUL DUP4 MSTORE SWAP2 PUSH1 0x20 ADD SWAP2 PUSH2 0x4C9 JUMP JUMPDEST DUP3 ADD SWAP2 SWAP1 PUSH1 0x0 MSTORE PUSH1 0x20 PUSH1 0x0 KECCAK256 SWAP1 JUMPDEST DUP2 SLOAD DUP2 MSTORE SWAP1 PUSH1 0x1 ADD SWAP1 PUSH1 0x20 ADD DUP1 DUP4 GT PUSH2 0x4AC JUMPI DUP3 SWAP1 SUB PUSH1 0x1F AND DUP3 ADD SWAP2 JUMPDEST POP POP POP POP POP DUP2 MSTORE PUSH1 0x20 ADD PUSH1 0x2 DUP3 ADD SLOAD DUP2 MSTORE PUSH1 0x20 ADD PUSH1 0x3 DUP3 ADD PUSH1 0x0 SWAP1 SLOAD SWAP1 PUSH2 0x100 EXP SWAP1 DIV PUSH20 0xFFFFFFFFFFFFFFFFFFFFFFFFFFFFFFFFFFFFFFFF AND PUSH20 0xFFFFFFFFFFFFFFFFFFFFFFFFFFFFFFFFFFFFFFFF AND PUSH20 0xFFFFFFFFFFFFFFFFFFFFFFFFFFFFFFFFFFFFFFFF AND DUP2 MSTORE PUSH1 0x20 ADD PUSH1 0x3 DUP3 ADD PUSH1 0x14 SWAP1 SLOAD SWAP1 PUSH2 0x100 EXP SWAP1 DIV PUSH1 0xFF AND ISZERO ISZERO ISZERO ISZERO DUP2 MSTORE PUSH1 0x20 ADD PUSH1 0x4 DUP3 ADD DUP1 SLOAD PUSH2 0x55D SWAP1 PUSH2 0x2D9E JUMP JUMPDEST DUP1 PUSH1 0x1F ADD PUSH1 0x20 DUP1 SWAP2 DIV MUL PUSH1 0x20 ADD PUSH1 0x40 MLOAD SWAP1 DUP2 ADD PUSH1 0x40 MSTORE DUP1 SWAP3 SWAP2 SWAP1 DUP2 DUP2 MSTORE PUSH1 0x20 ADD DUP3 DUP1 SLOAD PUSH2 0x589 SWAP1 PUSH2 0x2D9E JUMP JUMPDEST DUP1 ISZERO PUSH2 0x5D6 JUMPI DUP1 PUSH1 0x1F LT PUSH2 0x5AB JUMPI PUSH2 0x100 DUP1 DUP4 SLOAD DIV MUL DUP4 MSTORE SWAP2 PUSH1 0x20 ADD SWAP2 PUSH2 0x5D6 JUMP JUMPDEST DUP3 ADD SWAP2 SWAP1 PUSH1 0x0 MSTORE PUSH1 0x20 PUSH1 0x0 KECCAK256 SWAP1 JUMPDEST DUP2 SLOAD DUP2 MSTORE SWAP1 PUSH1 0x1 ADD SWAP1 PUSH1 0x20 ADD DUP1 DUP4 GT PUSH2 0x5B9 JUMPI DUP3 SWAP1 SUB PUSH1 0x1F AND DUP3 ADD SWAP2 JUMPDEST POP POP POP POP POP DUP2 MSTORE POP POP SWAP1 POP CALLER PUSH20 0xFFFFFFFFFFFFFFFFFFFFFFFFFFFFFFFFFFFFFFFF AND DUP2 PUSH1 0x60 ADD MLOAD PUSH20 0xFFFFFFFFFFFFFFFFFFFFFFFFFFFFFFFFFFFFFFFF AND SUB PUSH2 0x653 JUMPI PUSH1 0x40 MLOAD PUSH32 0x8C379A000000000000000000000000000000000000000000000000000000000 DUP2 MSTORE PUSH1 0x4 ADD PUSH2 0x64A SWAP1 PUSH2 0x2E1B JUMP JUMPDEST PUSH1 0x40 MLOAD DUP1 SWAP2 SUB SWAP1 REVERT JUMPDEST PUSH1 0x2 PUSH1 0x3 DUP2 GT ISZERO PUSH2 0x667 JUMPI PUSH2 0x666 PUSH2 0x2D40 JUMP JUMPDEST JUMPDEST DUP3 PUSH1 0x80 ADD MLOAD PUSH1 0x3 DUP2 GT ISZERO PUSH2 0x67E JUMPI PUSH2 0x67D PUSH2 0x2D40 JUMP JUMPDEST JUMPDEST EQ PUSH2 0x6BE JUMPI PUSH1 0x40 MLOAD PUSH32 0x8C379A000000000000000000000000000000000000000000000000000000000 DUP2 MSTORE PUSH1 0x4 ADD PUSH2 0x6B5 SWAP1 PUSH2 0x2E87 JUMP JUMPDEST PUSH1 0x40 MLOAD DUP1 SWAP2 SUB SWAP1 REVERT JUMPDEST DUP2 PUSH1 0x40 ADD MLOAD DUP4 GT PUSH2 0x704 JUMPI PUSH1 0x40 MLOAD PUSH32 0x8C379A000000000000000000000000000000000000000000000000000000000 DUP2 MSTORE PUSH1 0x4 ADD PUSH2 0x6FB SWAP1 PUSH2 0x2F19 JUMP JUMPDEST PUSH1 0x40 MLOAD DUP1 SWAP2 SUB SWAP1 REVERT JUMPDEST PUSH1 0x1 ISZERO ISZERO PUSH1 0x1 PUSH1 0x0 DUP7 DUP2 MSTORE PUSH1 0x20 ADD SWAP1 DUP2 MSTORE PUSH1 0x20 ADD PUSH1 0x0 KECCAK256 PUSH1 0x0 CALLER PUSH20 0xFFFFFFFFFFFFFFFFFFFFFFFFFFFFFFFFFFFFFFFF AND PUSH20 0xFFFFFFFFFFFFFFFFFFFFFFFFFFFFFFFFFFFFFFFF AND DUP2 MSTORE PUSH1 0x20 ADD SWAP1 DUP2 MSTORE PUSH1 0x20 ADD PUSH1 0x0 KECCAK256 PUSH1 0x0 SWAP1 SLOAD SWAP1 PUSH2 0x100 EXP SWAP1 DIV PUSH1 0xFF AND ISZERO ISZERO EQ PUSH2 0x7A8 JUMPI PUSH1 0x40 MLOAD PUSH32 0x8C379A000000000000000000000000000000000000000000000000000000000 DUP2 MSTORE PUSH1 0x4 ADD PUSH2 0x79F SWAP1 PUSH2 0x2FAB JUMP JUMPDEST PUSH1 0x40 MLOAD DUP1 SWAP2 SUB SWAP1 REVERT JUMPDEST DUP3 CALLVALUE LT ISZERO PUSH2 0x7EB JUMPI PUSH1 0x40 MLOAD PUSH32 0x8C379A000000000000000000000000000000000000000000000000000000000 DUP2 MSTORE PUSH1 0x4 ADD PUSH2 0x7E2 SWAP1 PUSH2 0x3017 JUMP JUMPDEST PUSH1 0x40 MLOAD DUP1 SWAP2 SUB SWAP1 REVERT JUMPDEST PUSH1 0x2 PUSH1 0x0 DUP6 DUP2 MSTORE PUSH1 0x20 ADD SWAP1 DUP2 MSTORE PUSH1 0x20 ADD PUSH1 0x0 KECCAK256 PUSH1 0x3 ADD PUSH1 0x0 SWAP1 SLOAD SWAP1 PUSH2 0x100 EXP SWAP1 DIV PUSH20 0xFFFFFFFFFFFFFFFFFFFFFFFFFFFFFFFFFFFFFFFF AND PUSH20 0xFFFFFFFFFFFFFFFFFFFFFFFFFFFFFFFFFFFFFFFF AND PUSH2 0x8FC CALLVALUE SWAP1 DUP2 ISZERO MUL SWAP1 PUSH1 0x40 MLOAD PUSH1 0x0 PUSH1 0x40 MLOAD DUP1 DUP4 SUB DUP2 DUP6 DUP9 DUP9 CALL SWAP4 POP POP POP POP ISZERO DUP1 ISZERO PUSH2 0x867 JUMPI RETURNDATASIZE PUSH1 0x0 DUP1 RETURNDATACOPY RETURNDATASIZE PUSH1 0x0 REVERT JUMPDEST POP CALLER PUSH1 0x2 PUSH1 0x0 DUP7 DUP2 MSTORE PUSH1 0x20 ADD SWAP1 DUP2 MSTORE PUSH1 0x20 ADD PUSH1 0x0 KECCAK256 PUSH1 0x3 ADD PUSH1 0x0 PUSH2 0x100 EXP DUP2 SLOAD DUP2 PUSH20 0xFFFFFFFFFFFFFFFFFFFFFFFFFFFFFFFFFFFFFFFF MUL NOT AND SWAP1 DUP4 PUSH20 0xFFFFFFFFFFFFFFFFFFFFFFFFFFFFFFFFFFFFFFFF AND MUL OR SWAP1 SSTORE POP PUSH1 0x3 PUSH1 0x0 DUP1 DUP7 DUP2 MSTORE PUSH1 0x20 ADD SWAP1 DUP2 MSTORE PUSH1 0x20 ADD PUSH1 0x0 KECCAK256 PUSH1 0x4 ADD PUSH1 0x0 PUSH2 0x100 EXP DUP2 SLOAD DUP2 PUSH1 0xFF MUL NOT AND SWAP1 DUP4 PUSH1 0x3 DUP2 GT ISZERO PUSH2 0x8F6 JUMPI PUSH2 0x8F5 PUSH2 0x2D40 JUMP JUMPDEST JUMPDEST MUL OR SWAP1 SSTORE POP PUSH32 0x3312DF0B8B9EFF523F5C5714C5BA9238BB061CC3E3B80FA1F2B2BCC83E91FE6E DUP5 PUSH1 0x40 MLOAD PUSH2 0x92A SWAP2 SWAP1 PUSH2 0x3083 JUMP JUMPDEST PUSH1 0x40 MLOAD DUP1 SWAP2 SUB SWAP1 LOG1 POP POP POP POP JUMP JUMPDEST PUSH1 0x0 PUSH1 0x3 SLOAD DUP3 LT PUSH2 0x97E JUMPI PUSH1 0x40 MLOAD PUSH32 0x8C379A000000000000000000000000000000000000000000000000000000000 DUP2 MSTORE PUSH1 0x4 ADD PUSH2 0x975 SWAP1 PUSH2 0x2D20 JUMP JUMPDEST PUSH1 0x40 MLOAD DUP1 SWAP2 SUB SWAP1 REVERT JUMPDEST PUSH1 0x0 DUP1 PUSH1 0x0 DUP5 DUP2 MSTORE PUSH1 0x20 ADD SWAP1 DUP2 MSTORE PUSH1 0x20 ADD PUSH1 0x0 KECCAK256 PUSH1 0x40 MLOAD DUP1 PUSH1 0xA0 ADD PUSH1 0x40 MSTORE SWAP1 DUP2 PUSH1 0x0 DUP3 ADD SLOAD DUP2 MSTORE PUSH1 0x20 ADD PUSH1 0x1 DUP3 ADD PUSH1 0x0 SWAP1 SLOAD SWAP1 PUSH2 0x100 EXP SWAP1 DIV PUSH1 0xFF AND PUSH1 0xFF AND PUSH1 0xFF AND DUP2 MSTORE PUSH1 0x20 ADD PUSH1 0x2 DUP3 ADD SLOAD DUP2 MSTORE PUSH1 0x20 ADD PUSH1 0x3 DUP3 ADD SLOAD DUP2 MSTORE PUSH1 0x20 ADD PUSH1 0x4 DUP3 ADD PUSH1 0x0 SWAP1 SLOAD SWAP1 PUSH2 0x100 EXP SWAP1 DIV PUSH1 0xFF AND PUSH1 0x3 DUP2 GT ISZERO PUSH2 0x9FD JUMPI PUSH2 0x9FC PUSH2 0x2D40 JUMP JUMPDEST JUMPDEST PUSH1 0x3 DUP2 GT ISZERO PUSH2 0xA0F JUMPI PUSH2 0xA0E PUSH2 0x2D40 JUMP JUMPDEST JUMPDEST DUP2 MSTORE POP POP SWAP1 POP PUSH1 0x0 PUSH1 0x2 PUSH1 0x0 DUP6 DUP2 MSTORE PUSH1 0x20 ADD SWAP1 DUP2 MSTORE PUSH1 0x20 ADD PUSH1 0x0 KECCAK256 PUSH1 0x40 MLOAD DUP1 PUSH1 0xC0 ADD PUSH1 0x40 MSTORE SWAP1 DUP2 PUSH1 0x0 DUP3 ADD DUP1 SLOAD PUSH2 0xA45 SWAP1 PUSH2 0x2D9E JUMP JUMPDEST DUP1 PUSH1 0x1F ADD PUSH1 0x20 DUP1 SWAP2 DIV MUL PUSH1 0x20 ADD PUSH1 0x40 MLOAD SWAP1 DUP2 ADD PUSH1 0x40 MSTORE DUP1 SWAP3 SWAP2 SWAP1 DUP2 DUP2 MSTORE PUSH1 0x20 ADD DUP3 DUP1 SLOAD PUSH2 0xA71 SWAP1 PUSH2 0x2D9E JUMP JUMPDEST DUP1 ISZERO PUSH2 0xABE JUMPI DUP1 PUSH1 0x1F LT PUSH2 0xA93 JUMPI PUSH2 0x100 DUP1 DUP4 SLOAD DIV MUL DUP4 MSTORE SWAP2 PUSH1 0x20 ADD SWAP2 PUSH2 0xABE JUMP JUMPDEST DUP3 ADD SWAP2 SWAP1 PUSH1 0x0 MSTORE PUSH1 0x20 PUSH1 0x0 KECCAK256 SWAP1 JUMPDEST DUP2 SLOAD DUP2 MSTORE SWAP1 PUSH1 0x1 ADD SWAP1 PUSH1 0x20 ADD DUP1 DUP4 GT PUSH2 0xAA1 JUMPI DUP3 SWAP1 SUB PUSH1 0x1F AND DUP3 ADD SWAP2 JUMPDEST POP POP POP POP POP DUP2 MSTORE PUSH1 0x20 ADD PUSH1 0x1 DUP3 ADD DUP1 SLOAD PUSH2 0xAD7 SWAP1 PUSH2 0x2D9E JUMP JUMPDEST DUP1 PUSH1 0x1F ADD PUSH1 0x20 DUP1 SWAP2 DIV MUL PUSH1 0x20 ADD PUSH1 0x40 MLOAD SWAP1 DUP2 ADD PUSH1 0x40 MSTORE DUP1 SWAP3 SWAP2 SWAP1 DUP2 DUP2 MSTORE PUSH1 0x20 ADD DUP3 DUP1 SLOAD PUSH2 0xB03 SWAP1 PUSH2 0x2D9E JUMP JUMPDEST DUP1 ISZERO PUSH2 0xB50 JUMPI DUP1 PUSH1 0x1F LT PUSH2 0xB25 JUMPI PUSH2 0x100 DUP1 DUP4 SLOAD DIV MUL DUP4 MSTORE SWAP2 PUSH1 0x20 ADD SWAP2 PUSH2 0xB50 JUMP JUMPDEST DUP3 ADD SWAP2 SWAP1 PUSH1 0x0 MSTORE PUSH1 0x20 PUSH1 0x0 KECCAK256 SWAP1 JUMPDEST DUP2 SLOAD DUP2 MSTORE SWAP1 PUSH1 0x1 ADD SWAP1 PUSH1 0x20 ADD DUP1 DUP4 GT PUSH2 0xB33 JUMPI DUP3 SWAP1 SUB PUSH1 0x1F AND DUP3 ADD SWAP2 JUMPDEST POP POP POP POP POP DUP2 MSTORE PUSH1 0x20 ADD PUSH1 0x2 DUP3 ADD SLOAD DUP2 MSTORE PUSH1 0x20 ADD PUSH1 0x3 DUP3 ADD PUSH1 0x0 SWAP1 SLOAD SWAP1 PUSH2 0x100 EXP SWAP1 DIV PUSH20 0xFFFFFFFFFFFFFFFFFFFFFFFFFFFFFFFFFFFFFFFF AND PUSH20 0xFFFFFFFFFFFFFFFFFFFFFFFFFFFFFFFFFFFFFFFF AND PUSH20 0xFFFFFFFFFFFFFFFFFFFFFFFFFFFFFFFFFFFFFFFF AND DUP2 MSTORE PUSH1 0x20 ADD PUSH1 0x3 DUP3 ADD PUSH1 0x14 SWAP1 SLOAD SWAP1 PUSH2 0x100 EXP SWAP1 DIV PUSH1 0xFF AND ISZERO ISZERO ISZERO ISZERO DUP2 MSTORE PUSH1 0x20 ADD PUSH1 0x4 DUP3 ADD DUP1 SLOAD PUSH2 0xBE4 SWAP1 PUSH2 0x2D9E JUMP JUMPDEST DUP1 PUSH1 0x1F ADD PUSH1 0x20 DUP1 SWAP2 DIV MUL PUSH1 0x20 ADD PUSH1 0x40 MLOAD SWAP1 DUP2 ADD PUSH1 0x40 MSTORE DUP1 SWAP3 SWAP2 SWAP1 DUP2 DUP2 MSTORE PUSH1 0x20 ADD DUP3 DUP1 SLOAD PUSH2 0xC10 SWAP1 PUSH2 0x2D9E JUMP JUMPDEST DUP1 ISZERO PUSH2 0xC5D JUMPI DUP1 PUSH1 0x1F LT PUSH2 0xC32 JUMPI PUSH2 0x100 DUP1 DUP4 SLOAD DIV MUL DUP4 MSTORE SWAP2 PUSH1 0x20 ADD SWAP2 PUSH2 0xC5D JUMP JUMPDEST DUP3 ADD SWAP2 SWAP1 PUSH1 0x0 MSTORE PUSH1 0x20 PUSH1 0x0 KECCAK256 SWAP1 JUMPDEST DUP2 SLOAD DUP2 MSTORE SWAP1 PUSH1 0x1 ADD SWAP1 PUSH1 0x20 ADD DUP1 DUP4 GT PUSH2 0xC40 JUMPI DUP3 SWAP1 SUB PUSH1 0x1F AND DUP3 ADD SWAP2 JUMPDEST POP POP POP POP POP DUP2 MSTORE POP POP SWAP1 POP PUSH1 0x1 PUSH1 0x3 DUP2 GT ISZERO PUSH2 0xC7C JUMPI PUSH2 0xC7B PUSH2 0x2D40 JUMP JUMPDEST JUMPDEST DUP3 PUSH1 0x80 ADD MLOAD PUSH1 0x3 DUP2 GT ISZERO PUSH2 0xC93 JUMPI PUSH2 0xC92 PUSH2 0x2D40 JUMP JUMPDEST JUMPDEST EQ PUSH2 0xCD3 JUMPI PUSH1 0x40 MLOAD PUSH32 0x8C379A000000000000000000000000000000000000000000000000000000000 DUP2 MSTORE PUSH1 0x4 ADD PUSH2 0xCCA SWAP1 PUSH2 0x30FD JUMP JUMPDEST PUSH1 0x40 MLOAD DUP1 SWAP2 SUB SWAP1 REVERT JUMPDEST CALLER PUSH20 0xFFFFFFFFFFFFFFFFFFFFFFFFFFFFFFFFFFFFFFFF AND DUP2 PUSH1 0x60 ADD MLOAD PUSH20 0xFFFFFFFFFFFFFFFFFFFFFFFFFFFFFFFFFFFFFFFF AND EQ PUSH2 0xD45 JUMPI PUSH1 0x40 MLOAD PUSH32 0x8C379A000000000000000000000000000000000000000000000000000000000 DUP2 MSTORE PUSH1 0x4 ADD PUSH2 0xD3C SWAP1 PUSH2 0x3169 JUMP JUMPDEST PUSH1 0x40 MLOAD DUP1 SWAP2 SUB SWAP1 REVERT JUMPDEST TIMESTAMP PUSH1 0x0 DUP1 DUP7 DUP2 MSTORE PUSH1 0x20 ADD SWAP1 DUP2 MSTORE PUSH1 0x20 ADD PUSH1 0x0 KECCAK256 PUSH1 0x3 ADD DUP2 SWAP1 SSTORE POP PUSH1 0x2 PUSH1 0x0 DUP1 DUP7 DUP2 MSTORE PUSH1 0x20 ADD SWAP1 DUP2 MSTORE PUSH1 0x20 ADD PUSH1 0x0 KECCAK256 PUSH1 0x4 ADD PUSH1 0x0 PUSH2 0x100 EXP DUP2 SLOAD DUP2 PUSH1 0xFF MUL NOT AND SWAP1 DUP4 PUSH1 0x3 DUP2 GT ISZERO PUSH2 0xD98 JUMPI PUSH2 0xD97 PUSH2 0x2D40 JUMP JUMPDEST JUMPDEST MUL OR SWAP1 SSTORE POP PUSH1 0x0 DUP3 PUSH1 0x20 ADD MLOAD PUSH1 0xFF AND DUP4 PUSH1 0x0 ADD MLOAD PUSH2 0xDB6 SWAP2 SWAP1 PUSH2 0x31B8 JUMP JUMPDEST SWAP1 POP PUSH32 0x9474AEB24CB7B12803E8DAB2D134207CAB9F34AA7AEA0A72472A3AB89A9D3853 DUP6 PUSH1 0x0 DUP1 DUP9 DUP2 MSTORE PUSH1 0x20 ADD SWAP1 DUP2 MSTORE PUSH1 0x20 ADD PUSH1 0x0 KECCAK256 PUSH1 0x3 ADD SLOAD DUP4 PUSH1 0x40 MLOAD PUSH2 0xE00 SWAP4 SWAP3 SWAP2 SWAP1 PUSH2 0x31FA JUMP JUMPDEST PUSH1 0x40 MLOAD DUP1 SWAP2 SUB SWAP1 LOG1 DUP1 SWAP4 POP POP POP POP SWAP2 SWAP1 POP JUMP JUMPDEST PUSH1 0x60 PUSH1 0x0 PUSH1 0x3 SLOAD PUSH8 0xFFFFFFFFFFFFFFFF DUP2 GT ISZERO PUSH2 0xE33 JUMPI PUSH2 0xE32 PUSH2 0x29AC JUMP JUMPDEST JUMPDEST PUSH1 0x40 MLOAD SWAP1 DUP1 DUP3 MSTORE DUP1 PUSH1 0x20 MUL PUSH1 0x20 ADD DUP3 ADD PUSH1 0x40 MSTORE DUP1 ISZERO PUSH2 0xE6C JUMPI DUP2 PUSH1 0x20 ADD JUMPDEST PUSH2 0xE59 PUSH2 0x25D3 JUMP JUMPDEST DUP2 MSTORE PUSH1 0x20 ADD SWAP1 PUSH1 0x1 SWAP1 SUB SWAP1 DUP2 PUSH2 0xE51 JUMPI SWAP1 POP JUMPDEST POP SWAP1 POP PUSH1 0x0 JUMPDEST PUSH1 0x3 SLOAD DUP2 PUSH1 0xFF AND LT ISZERO PUSH2 0x11D4 JUMPI PUSH1 0x2 PUSH1 0x0 DUP3 PUSH1 0xFF AND DUP2 MSTORE PUSH1 0x20 ADD SWAP1 DUP2 MSTORE PUSH1 0x20 ADD PUSH1 0x0 KECCAK256 PUSH1 0x40 MLOAD DUP1 PUSH1 0xC0 ADD PUSH1 0x40 MSTORE SWAP1 DUP2 PUSH1 0x0 DUP3 ADD DUP1 SLOAD PUSH2 0xEB0 SWAP1 PUSH2 0x2D9E JUMP JUMPDEST DUP1 PUSH1 0x1F ADD PUSH1 0x20 DUP1 SWAP2 DIV MUL PUSH1 0x20 ADD PUSH1 0x40 MLOAD SWAP1 DUP2 ADD PUSH1 0x40 MSTORE DUP1 SWAP3 SWAP2 SWAP1 DUP2 DUP2 MSTORE PUSH1 0x20 ADD DUP3 DUP1 SLOAD PUSH2 0xEDC SWAP1 PUSH2 0x2D9E JUMP JUMPDEST DUP1 ISZERO PUSH2 0xF29 JUMPI DUP1 PUSH1 0x1F LT PUSH2 0xEFE JUMPI PUSH2 0x100 DUP1 DUP4 SLOAD DIV MUL DUP4 MSTORE SWAP2 PUSH1 0x20 ADD SWAP2 PUSH2 0xF29 JUMP JUMPDEST DUP3 ADD SWAP2 SWAP1 PUSH1 0x0 MSTORE PUSH1 0x20 PUSH1 0x0 KECCAK256 SWAP1 JUMPDEST DUP2 SLOAD DUP2 MSTORE SWAP1 PUSH1 0x1 ADD SWAP1 PUSH1 0x20 ADD DUP1 DUP4 GT PUSH2 0xF0C JUMPI DUP3 SWAP1 SUB PUSH1 0x1F AND DUP3 ADD SWAP2 JUMPDEST POP POP POP POP POP DUP2 MSTORE PUSH1 0x20 ADD PUSH1 0x1 DUP3 ADD DUP1 SLOAD PUSH2 0xF42 SWAP1 PUSH2 0x2D9E JUMP JUMPDEST DUP1 PUSH1 0x1F ADD PUSH1 0x20 DUP1 SWAP2 DIV MUL PUSH1 0x20 ADD PUSH1 0x40 MLOAD SWAP1 DUP2 ADD PUSH1 0x40 MSTORE DUP1 SWAP3 SWAP2 SWAP1 DUP2 DUP2 MSTORE PUSH1 0x20 ADD DUP3 DUP1 SLOAD PUSH2 0xF6E SWAP1 PUSH2 0x2D9E JUMP JUMPDEST DUP1 ISZERO PUSH2 0xFBB JUMPI DUP1 PUSH1 0x1F LT PUSH2 0xF90 JUMPI PUSH2 0x100 DUP1 DUP4 SLOAD DIV MUL DUP4 MSTORE SWAP2 PUSH1 0x20 ADD SWAP2 PUSH2 0xFBB JUMP JUMPDEST DUP3 ADD SWAP2 SWAP1 PUSH1 0x0 MSTORE PUSH1 0x20 PUSH1 0x0 KECCAK256 SWAP1 JUMPDEST DUP2 SLOAD DUP2 MSTORE SWAP1 PUSH1 0x1 ADD SWAP1 PUSH1 0x20 ADD DUP1 DUP4 GT PUSH2 0xF9E JUMPI DUP3 SWAP1 SUB PUSH1 0x1F AND DUP3 ADD SWAP2 JUMPDEST POP POP POP POP POP DUP2 MSTORE PUSH1 0x20 ADD PUSH1 0x2 DUP3 ADD SLOAD DUP2 MSTORE PUSH1 0x20 ADD PUSH1 0x3 DUP3 ADD PUSH1 0x0 SWAP1 SLOAD SWAP1 PUSH2 0x100 EXP SWAP1 DIV PUSH20 0xFFFFFFFFFFFFFFFFFFFFFFFFFFFFFFFFFFFFFFFF AND PUSH20 0xFFFFFFFFFFFFFFFFFFFFFFFFFFFFFFFFFFFFFFFF AND PUSH20 0xFFFFFFFFFFFFFFFFFFFFFFFFFFFFFFFFFFFFFFFF AND DUP2 MSTORE PUSH1 0x20 ADD PUSH1 0x3 DUP3 ADD PUSH1 0x14 SWAP1 SLOAD SWAP1 PUSH2 0x100 EXP SWAP1 DIV PUSH1 0xFF AND ISZERO ISZERO ISZERO ISZERO DUP2 MSTORE PUSH1 0x20 ADD PUSH1 0x4 DUP3 ADD DUP1 SLOAD PUSH2 0x104F SWAP1 PUSH2 0x2D9E JUMP JUMPDEST DUP1 PUSH1 0x1F ADD PUSH1 0x20 DUP1 SWAP2 DIV MUL PUSH1 0x20 ADD PUSH1 0x40 MLOAD SWAP1 DUP2 ADD PUSH1 0x40 MSTORE DUP1 SWAP3 SWAP2 SWAP1 DUP2 DUP2 MSTORE PUSH1 0x20 ADD DUP3 DUP1 SLOAD PUSH2 0x107B SWAP1 PUSH2 0x2D9E JUMP JUMPDEST DUP1 ISZERO PUSH2 0x10C8 JUMPI DUP1 PUSH1 0x1F LT PUSH2 0x109D JUMPI PUSH2 0x100 DUP1 DUP4 SLOAD DIV MUL DUP4 MSTORE SWAP2 PUSH1 0x20 ADD SWAP2 PUSH2 0x10C8 JUMP JUMPDEST DUP3 ADD SWAP2 SWAP1 PUSH1 0x0 MSTORE PUSH1 0x20 PUSH1 0x0 KECCAK256 SWAP1 JUMPDEST DUP2 SLOAD DUP2 MSTORE SWAP1 PUSH1 0x1 ADD SWAP1 PUSH1 0x20 ADD DUP1 DUP4 GT PUSH2 0x10AB JUMPI DUP3 SWAP1 SUB PUSH1 0x1F AND DUP3 ADD SWAP2 JUMPDEST POP POP POP POP POP DUP2 MSTORE POP POP DUP3 DUP3 PUSH1 0xFF AND DUP2 MLOAD DUP2 LT PUSH2 0x10E7 JUMPI PUSH2 0x10E6 PUSH2 0x3231 JUMP JUMPDEST JUMPDEST PUSH1 0x20 MUL PUSH1 0x20 ADD ADD DUP2 SWAP1 MSTORE POP DUP2 DUP2 PUSH1 0xFF AND DUP2 MLOAD DUP2 LT PUSH2 0x1108 JUMPI PUSH2 0x1107 PUSH2 0x3231 JUMP JUMPDEST JUMPDEST PUSH1 0x20 MUL PUSH1 0x20 ADD ADD MLOAD PUSH1 0x60 ADD MLOAD PUSH20 0xFFFFFFFFFFFFFFFFFFFFFFFFFFFFFFFFFFFFFFFF AND CALLER PUSH20 0xFFFFFFFFFFFFFFFFFFFFFFFFFFFFFFFFFFFFFFFF AND EQ DUP3 DUP3 PUSH1 0xFF AND DUP2 MLOAD DUP2 LT PUSH2 0x1158 JUMPI PUSH2 0x1157 PUSH2 0x3231 JUMP JUMPDEST JUMPDEST PUSH1 0x20 MUL PUSH1 0x20 ADD ADD MLOAD PUSH1 0x80 ADD SWAP1 ISZERO ISZERO SWAP1 DUP2 ISZERO ISZERO DUP2 MSTORE POP POP PUSH2 0x119C PUSH1 0x0 DUP1 DUP4 PUSH1 0xFF AND DUP2 MSTORE PUSH1 0x20 ADD SWAP1 DUP2 MSTORE PUSH1 0x20 ADD PUSH1 0x0 KECCAK256 PUSH1 0x4 ADD PUSH1 0x0 SWAP1 SLOAD SWAP1 PUSH2 0x100 EXP SWAP1 DIV PUSH1 0xFF AND PUSH2 0x2458 JUMP JUMPDEST DUP3 DUP3 PUSH1 0xFF AND DUP2 MLOAD DUP2 LT PUSH2 0x11B2 JUMPI PUSH2 0x11B1 PUSH2 0x3231 JUMP JUMPDEST JUMPDEST PUSH1 0x20 MUL PUSH1 0x20 ADD ADD MLOAD PUSH1 0xA0 ADD DUP2 SWAP1 MSTORE POP DUP1 DUP1 PUSH2 0x11CC SWAP1 PUSH2 0x3260 JUMP JUMPDEST SWAP2 POP POP PUSH2 0xE72 JUMP JUMPDEST POP DUP1 SWAP2 POP POP SWAP1 JUMP JUMPDEST PUSH1 0x3 SLOAD DUP2 JUMP JUMPDEST PUSH1 0x0 PUSH1 0x3 SLOAD DUP4 LT PUSH2 0x1228 JUMPI PUSH1 0x40 MLOAD PUSH32 0x8C379A000000000000000000000000000000000000000000000000000000000 DUP2 MSTORE PUSH1 0x4 ADD PUSH2 0x121F SWAP1 PUSH2 0x2D20 JUMP JUMPDEST PUSH1 0x40 MLOAD DUP1 SWAP2 SUB SWAP1 REVERT JUMPDEST PUSH1 0x0 DUP1 PUSH1 0x0 DUP6 DUP2 MSTORE PUSH1 0x20 ADD SWAP1 DUP2 MSTORE PUSH1 0x20 ADD PUSH1 0x0 KECCAK256 PUSH1 0x40 MLOAD DUP1 PUSH1 0xA0 ADD PUSH1 0x40 MSTORE SWAP1 DUP2 PUSH1 0x0 DUP3 ADD SLOAD DUP2 MSTORE PUSH1 0x20 ADD PUSH1 0x1 DUP3 ADD PUSH1 0x0 SWAP1 SLOAD SWAP1 PUSH2 0x100 EXP SWAP1 DIV PUSH1 0xFF AND PUSH1 0xFF AND PUSH1 0xFF AND DUP2 MSTORE PUSH1 0x20 ADD PUSH1 0x2 DUP3 ADD SLOAD DUP2 MSTORE PUSH1 0x20 ADD PUSH1 0x3 DUP3 ADD SLOAD DUP2 MSTORE PUSH1 0x20 ADD PUSH1 0x4 DUP3 ADD PUSH1 0x0 SWAP1 SLOAD SWAP1 PUSH2 0x100 EXP SWAP1 DIV PUSH1 0xFF AND PUSH1 0x3 DUP2 GT ISZERO PUSH2 0x12A7 JUMPI PUSH2 0x12A6 PUSH2 0x2D40 JUMP JUMPDEST JUMPDEST PUSH1 0x3 DUP2 GT ISZERO PUSH2 0x12B9 JUMPI PUSH2 0x12B8 PUSH2 0x2D40 JUMP JUMPDEST JUMPDEST DUP2 MSTORE POP POP SWAP1 POP PUSH1 0x0 PUSH1 0x2 PUSH1 0x0 DUP7 DUP2 MSTORE PUSH1 0x20 ADD SWAP1 DUP2 MSTORE PUSH1 0x20 ADD PUSH1 0x0 KECCAK256 PUSH1 0x40 MLOAD DUP1 PUSH1 0xC0 ADD PUSH1 0x40 MSTORE SWAP1 DUP2 PUSH1 0x0 DUP3 ADD DUP1 SLOAD PUSH2 0x12EF SWAP1 PUSH2 0x2D9E JUMP JUMPDEST DUP1 PUSH1 0x1F ADD PUSH1 0x20 DUP1 SWAP2 DIV MUL PUSH1 0x20 ADD PUSH1 0x40 MLOAD SWAP1 DUP2 ADD PUSH1 0x40 MSTORE DUP1 SWAP3 SWAP2 SWAP1 DUP2 DUP2 MSTORE PUSH1 0x20 ADD DUP3 DUP1 SLOAD PUSH2 0x131B SWAP1 PUSH2 0x2D9E JUMP JUMPDEST DUP1 ISZERO PUSH2 0x1368 JUMPI DUP1 PUSH1 0x1F LT PUSH2 0x133D JUMPI PUSH2 0x100 DUP1 DUP4 SLOAD DIV MUL DUP4 MSTORE SWAP2 PUSH1 0x20 ADD SWAP2 PUSH2 0x1368 JUMP JUMPDEST DUP3 ADD SWAP2 SWAP1 PUSH1 0x0 MSTORE PUSH1 0x20 PUSH1 0x0 KECCAK256 SWAP1 JUMPDEST DUP2 SLOAD DUP2 MSTORE SWAP1 PUSH1 0x1 ADD SWAP1 PUSH1 0x20 ADD DUP1 DUP4 GT PUSH2 0x134B JUMPI DUP3 SWAP1 SUB PUSH1 0x1F AND DUP3 ADD SWAP2 JUMPDEST POP POP POP POP POP DUP2 MSTORE PUSH1 0x20 ADD PUSH1 0x1 DUP3 ADD DUP1 SLOAD PUSH2 0x1381 SWAP1 PUSH2 0x2D9E JUMP JUMPDEST DUP1 PUSH1 0x1F ADD PUSH1 0x20 DUP1 SWAP2 DIV MUL PUSH1 0x20 ADD PUSH1 0x40 MLOAD SWAP1 DUP2 ADD PUSH1 0x40 MSTORE DUP1 SWAP3 SWAP2 SWAP1 DUP2 DUP2 MSTORE PUSH1 0x20 ADD DUP3 DUP1 SLOAD PUSH2 0x13AD SWAP1 PUSH2 0x2D9E JUMP JUMPDEST DUP1 ISZERO PUSH2 0x13FA JUMPI DUP1 PUSH1 0x1F LT PUSH2 0x13CF JUMPI PUSH2 0x100 DUP1 DUP4 SLOAD DIV MUL DUP4 MSTORE SWAP2 PUSH1 0x20 ADD SWAP2 PUSH2 0x13FA JUMP JUMPDEST DUP3 ADD SWAP2 SWAP1 PUSH1 0x0 MSTORE PUSH1 0x20 PUSH1 0x0 KECCAK256 SWAP1 JUMPDEST DUP2 SLOAD DUP2 MSTORE SWAP1 PUSH1 0x1 ADD SWAP1 PUSH1 0x20 ADD DUP1 DUP4 GT PUSH2 0x13DD JUMPI DUP3 SWAP1 SUB PUSH1 0x1F AND DUP3 ADD SWAP2 JUMPDEST POP POP POP POP POP DUP2 MSTORE PUSH1 0x20 ADD PUSH1 0x2 DUP3 ADD SLOAD DUP2 MSTORE PUSH1 0x20 ADD PUSH1 0x3 DUP3 ADD PUSH1 0x0 SWAP1 SLOAD SWAP1 PUSH2 0x100 EXP SWAP1 DIV PUSH20 0xFFFFFFFFFFFFFFFFFFFFFFFFFFFFFFFFFFFFFFFF AND PUSH20 0xFFFFFFFFFFFFFFFFFFFFFFFFFFFFFFFFFFFFFFFF AND PUSH20 0xFFFFFFFFFFFFFFFFFFFFFFFFFFFFFFFFFFFFFFFF AND DUP2 MSTORE PUSH1 0x20 ADD PUSH1 0x3 DUP3 ADD PUSH1 0x14 SWAP1 SLOAD SWAP1 PUSH2 0x100 EXP SWAP1 DIV PUSH1 0xFF AND ISZERO ISZERO ISZERO ISZERO DUP2 MSTORE PUSH1 0x20 ADD PUSH1 0x4 DUP3 ADD DUP1 SLOAD PUSH2 0x148E SWAP1 PUSH2 0x2D9E JUMP JUMPDEST DUP1 PUSH1 0x1F ADD PUSH1 0x20 DUP1 SWAP2 DIV MUL PUSH1 0x20 ADD PUSH1 0x40 MLOAD SWAP1 DUP2 ADD PUSH1 0x40 MSTORE DUP1 SWAP3 SWAP2 SWAP1 DUP2 DUP2 MSTORE PUSH1 0x20 ADD DUP3 DUP1 SLOAD PUSH2 0x14BA SWAP1 PUSH2 0x2D9E JUMP JUMPDEST DUP1 ISZERO PUSH2 0x1507 JUMPI DUP1 PUSH1 0x1F LT PUSH2 0x14DC JUMPI PUSH2 0x100 DUP1 DUP4 SLOAD DIV MUL DUP4 MSTORE SWAP2 PUSH1 0x20 ADD SWAP2 PUSH2 0x1507 JUMP JUMPDEST DUP3 ADD SWAP2 SWAP1 PUSH1 0x0 MSTORE PUSH1 0x20 PUSH1 0x0 KECCAK256 SWAP1 JUMPDEST DUP2 SLOAD DUP2 MSTORE SWAP1 PUSH1 0x1 ADD SWAP1 PUSH1 0x20 ADD DUP1 DUP4 GT PUSH2 0x14EA JUMPI DUP3 SWAP1 SUB PUSH1 0x1F AND DUP3 ADD SWAP2 JUMPDEST POP POP POP POP POP DUP2 MSTORE POP POP SWAP1 POP PUSH1 0x1 PUSH1 0x3 DUP2 GT ISZERO PUSH2 0x1526 JUMPI PUSH2 0x1525 PUSH2 0x2D40 JUMP JUMPDEST JUMPDEST DUP3 PUSH1 0x80 ADD MLOAD PUSH1 0x3 DUP2 GT ISZERO PUSH2 0x153D JUMPI PUSH2 0x153C PUSH2 0x2D40 JUMP JUMPDEST JUMPDEST EQ PUSH2 0x157D JUMPI PUSH1 0x40 MLOAD PUSH32 0x8C379A000000000000000000000000000000000000000000000000000000000 DUP2 MSTORE PUSH1 0x4 ADD PUSH2 0x1574 SWAP1 PUSH2 0x30FD JUMP JUMPDEST PUSH1 0x40 MLOAD DUP1 SWAP2 SUB SWAP1 REVERT JUMPDEST CALLER PUSH20 0xFFFFFFFFFFFFFFFFFFFFFFFFFFFFFFFFFFFFFFFF AND DUP2 PUSH1 0x60 ADD MLOAD PUSH20 0xFFFFFFFFFFFFFFFFFFFFFFFFFFFFFFFFFFFFFFFF AND SUB PUSH2 0x15EF JUMPI PUSH1 0x40 MLOAD PUSH32 0x8C379A000000000000000000000000000000000000000000000000000000000 DUP2 MSTORE PUSH1 0x4 ADD PUSH2 0x15E6 SWAP1 PUSH2 0x2E1B JUMP JUMPDEST PUSH1 0x40 MLOAD DUP1 SWAP2 SUB SWAP1 REVERT JUMPDEST DUP4 DUP3 PUSH1 0x0 ADD MLOAD LT ISZERO PUSH2 0x1616 JUMPI DUP4 PUSH1 0x0 DUP1 DUP8 DUP2 MSTORE PUSH1 0x20 ADD SWAP1 DUP2 MSTORE PUSH1 0x20 ADD PUSH1 0x0 KECCAK256 PUSH1 0x0 ADD DUP2 SWAP1 SSTORE POP JUMPDEST PUSH1 0x1 DUP1 PUSH1 0x0 DUP8 DUP2 MSTORE PUSH1 0x20 ADD SWAP1 DUP2 MSTORE PUSH1 0x20 ADD PUSH1 0x0 KECCAK256 PUSH1 0x0 CALLER PUSH20 0xFFFFFFFFFFFFFFFFFFFFFFFFFFFFFFFFFFFFFFFF AND PUSH20 0xFFFFFFFFFFFFFFFFFFFFFFFFFFFFFFFFFFFFFFFF AND DUP2 MSTORE PUSH1 0x20 ADD SWAP1 DUP2 MSTORE PUSH1 0x20 ADD PUSH1 0x0 KECCAK256 PUSH1 0x0 PUSH2 0x100 EXP DUP2 SLOAD DUP2 PUSH1 0xFF MUL NOT AND SWAP1 DUP4 ISZERO ISZERO MUL OR SWAP1 SSTORE POP PUSH1 0x1 SWAP3 POP POP POP SWAP3 SWAP2 POP POP JUMP JUMPDEST PUSH1 0x0 PUSH1 0x3 SLOAD DUP3 LT PUSH2 0x16D0 JUMPI PUSH1 0x40 MLOAD PUSH32 0x8C379A000000000000000000000000000000000000000000000000000000000 DUP2 MSTORE PUSH1 0x4 ADD PUSH2 0x16C7 SWAP1 PUSH2 0x2D20 JUMP JUMPDEST PUSH1 0x40 MLOAD DUP1 SWAP2 SUB SWAP1 REVERT JUMPDEST PUSH1 0x0 DUP1 PUSH1 0x0 DUP5 DUP2 MSTORE PUSH1 0x20 ADD SWAP1 DUP2 MSTORE PUSH1 0x20 ADD PUSH1 0x0 KECCAK256 PUSH1 0x40 MLOAD DUP1 PUSH1 0xA0 ADD PUSH1 0x40 MSTORE SWAP1 DUP2 PUSH1 0x0 DUP3 ADD SLOAD DUP2 MSTORE PUSH1 0x20 ADD PUSH1 0x1 DUP3 ADD PUSH1 0x0 SWAP1 SLOAD SWAP1 PUSH2 0x100 EXP SWAP1 DIV PUSH1 0xFF AND PUSH1 0xFF AND PUSH1 0xFF AND DUP2 MSTORE PUSH1 0x20 ADD PUSH1 0x2 DUP3 ADD SLOAD DUP2 MSTORE PUSH1 0x20 ADD PUSH1 0x3 DUP3 ADD SLOAD DUP2 MSTORE PUSH1 0x20 ADD PUSH1 0x4 DUP3 ADD PUSH1 0x0 SWAP1 SLOAD SWAP1 PUSH2 0x100 EXP SWAP1 DIV PUSH1 0xFF AND PUSH1 0x3 DUP2 GT ISZERO PUSH2 0x174F JUMPI PUSH2 0x174E PUSH2 0x2D40 JUMP JUMPDEST JUMPDEST PUSH1 0x3 DUP2 GT ISZERO PUSH2 0x1761 JUMPI PUSH2 0x1760 PUSH2 0x2D40 JUMP JUMPDEST JUMPDEST DUP2 MSTORE POP POP SWAP1 POP PUSH1 0x0 PUSH1 0x2 PUSH1 0x0 DUP6 DUP2 MSTORE PUSH1 0x20 ADD SWAP1 DUP2 MSTORE PUSH1 0x20 ADD PUSH1 0x0 KECCAK256 PUSH1 0x40 MLOAD DUP1 PUSH1 0xC0 ADD PUSH1 0x40 MSTORE SWAP1 DUP2 PUSH1 0x0 DUP3 ADD DUP1 SLOAD PUSH2 0x1797 SWAP1 PUSH2 0x2D9E JUMP JUMPDEST DUP1 PUSH1 0x1F ADD PUSH1 0x20 DUP1 SWAP2 DIV MUL PUSH1 0x20 ADD PUSH1 0x40 MLOAD SWAP1 DUP2 ADD PUSH1 0x40 MSTORE DUP1 SWAP3 SWAP2 SWAP1 DUP2 DUP2 MSTORE PUSH1 0x20 ADD DUP3 DUP1 SLOAD PUSH2 0x17C3 SWAP1 PUSH2 0x2D9E JUMP JUMPDEST DUP1 ISZERO PUSH2 0x1810 JUMPI DUP1 PUSH1 0x1F LT PUSH2 0x17E5 JUMPI PUSH2 0x100 DUP1 DUP4 SLOAD DIV MUL DUP4 MSTORE SWAP2 PUSH1 0x20 ADD SWAP2 PUSH2 0x1810 JUMP JUMPDEST DUP3 ADD SWAP2 SWAP1 PUSH1 0x0 MSTORE PUSH1 0x20 PUSH1 0x0 KECCAK256 SWAP1 JUMPDEST DUP2 SLOAD DUP2 MSTORE SWAP1 PUSH1 0x1 ADD SWAP1 PUSH1 0x20 ADD DUP1 DUP4 GT PUSH2 0x17F3 JUMPI DUP3 SWAP1 SUB PUSH1 0x1F AND DUP3 ADD SWAP2 JUMPDEST POP POP POP POP POP DUP2 MSTORE PUSH1 0x20 ADD PUSH1 0x1 DUP3 ADD DUP1 SLOAD PUSH2 0x1829 SWAP1 PUSH2 0x2D9E JUMP JUMPDEST DUP1 PUSH1 0x1F ADD PUSH1 0x20 DUP1 SWAP2 DIV MUL PUSH1 0x20 ADD PUSH1 0x40 MLOAD SWAP1 DUP2 ADD PUSH1 0x40 MSTORE DUP1 SWAP3 SWAP2 SWAP1 DUP2 DUP2 MSTORE PUSH1 0x20 ADD DUP3 DUP1 SLOAD PUSH2 0x1855 SWAP1 PUSH2 0x2D9E JUMP JUMPDEST DUP1 ISZERO PUSH2 0x18A2 JUMPI DUP1 PUSH1 0x1F LT PUSH2 0x1877 JUMPI PUSH2 0x100 DUP1 DUP4 SLOAD DIV MUL DUP4 MSTORE SWAP2 PUSH1 0x20 ADD SWAP2 PUSH2 0x18A2 JUMP JUMPDEST DUP3 ADD SWAP2 SWAP1 PUSH1 0x0 MSTORE PUSH1 0x20 PUSH1 0x0 KECCAK256 SWAP1 JUMPDEST DUP2 SLOAD DUP2 MSTORE SWAP1 PUSH1 0x1 ADD SWAP1 PUSH1 0x20 ADD DUP1 DUP4 GT PUSH2 0x1885 JUMPI DUP3 SWAP1 SUB PUSH1 0x1F AND DUP3 ADD SWAP2 JUMPDEST POP POP POP POP POP DUP2 MSTORE PUSH1 0x20 ADD PUSH1 0x2 DUP3 ADD SLOAD DUP2 MSTORE PUSH1 0x20 ADD PUSH1 0x3 DUP3 ADD PUSH1 0x0 SWAP1 SLOAD SWAP1 PUSH2 0x100 EXP SWAP1 DIV PUSH20 0xFFFFFFFFFFFFFFFFFFFFFFFFFFFFFFFFFFFFFFFF AND PUSH20 0xFFFFFFFFFFFFFFFFFFFFFFFFFFFFFFFFFFFFFFFF AND PUSH20 0xFFFFFFFFFFFFFFFFFFFFFFFFFFFFFFFFFFFFFFFF AND DUP2 MSTORE PUSH1 0x20 ADD PUSH1 0x3 DUP3 ADD PUSH1 0x14 SWAP1 SLOAD SWAP1 PUSH2 0x100 EXP SWAP1 DIV PUSH1 0xFF AND ISZERO ISZERO ISZERO ISZERO DUP2 MSTORE PUSH1 0x20 ADD PUSH1 0x4 DUP3 ADD DUP1 SLOAD PUSH2 0x1936 SWAP1 PUSH2 0x2D9E JUMP JUMPDEST DUP1 PUSH1 0x1F ADD PUSH1 0x20 DUP1 SWAP2 DIV MUL PUSH1 0x20 ADD PUSH1 0x40 MLOAD SWAP1 DUP2 ADD PUSH1 0x40 MSTORE DUP1 SWAP3 SWAP2 SWAP1 DUP2 DUP2 MSTORE PUSH1 0x20 ADD DUP3 DUP1 SLOAD PUSH2 0x1962 SWAP1 PUSH2 0x2D9E JUMP JUMPDEST DUP1 ISZERO PUSH2 0x19AF JUMPI DUP1 PUSH1 0x1F LT PUSH2 0x1984 JUMPI PUSH2 0x100 DUP1 DUP4 SLOAD DIV MUL DUP4 MSTORE SWAP2 PUSH1 0x20 ADD SWAP2 PUSH2 0x19AF JUMP JUMPDEST DUP3 ADD SWAP2 SWAP1 PUSH1 0x0 MSTORE PUSH1 0x20 PUSH1 0x0 KECCAK256 SWAP1 JUMPDEST DUP2 SLOAD DUP2 MSTORE SWAP1 PUSH1 0x1 ADD SWAP1 PUSH1 0x20 ADD DUP1 DUP4 GT PUSH2 0x1992 JUMPI DUP3 SWAP1 SUB PUSH1 0x1F AND DUP3 ADD SWAP2 JUMPDEST POP POP POP POP POP DUP2 MSTORE POP POP SWAP1 POP PUSH1 0x0 PUSH1 0x3 DUP2 GT ISZERO PUSH2 0x19CE JUMPI PUSH2 0x19CD PUSH2 0x2D40 JUMP JUMPDEST JUMPDEST DUP3 PUSH1 0x80 ADD MLOAD PUSH1 0x3 DUP2 GT ISZERO PUSH2 0x19E5 JUMPI PUSH2 0x19E4 PUSH2 0x2D40 JUMP JUMPDEST JUMPDEST EQ PUSH2 0x1A25 JUMPI PUSH1 0x40 MLOAD PUSH32 0x8C379A000000000000000000000000000000000000000000000000000000000 DUP2 MSTORE PUSH1 0x4 ADD PUSH2 0x1A1C SWAP1 PUSH2 0x30FD JUMP JUMPDEST PUSH1 0x40 MLOAD DUP1 SWAP2 SUB SWAP1 REVERT JUMPDEST CALLER PUSH20 0xFFFFFFFFFFFFFFFFFFFFFFFFFFFFFFFFFFFFFFFF AND DUP2 PUSH1 0x60 ADD MLOAD PUSH20 0xFFFFFFFFFFFFFFFFFFFFFFFFFFFFFFFFFFFFFFFF AND EQ PUSH2 0x1A97 JUMPI PUSH1 0x40 MLOAD PUSH32 0x8C379A000000000000000000000000000000000000000000000000000000000 DUP2 MSTORE PUSH1 0x4 ADD PUSH2 0x1A8E SWAP1 PUSH2 0x3169 JUMP JUMPDEST PUSH1 0x40 MLOAD DUP1 SWAP2 SUB SWAP1 REVERT JUMPDEST PUSH32 0x2B0331ECEC1592D15EE8526F8FCDC81B7F33301CDFE0FF55AA1BF9A674B2F1D8 DUP5 PUSH1 0x40 MLOAD PUSH2 0x1AC6 SWAP2 SWAP1 PUSH2 0x26E7 JUMP JUMPDEST PUSH1 0x40 MLOAD DUP1 SWAP2 SUB SWAP1 LOG1 PUSH1 0x1 PUSH1 0x0 DUP1 DUP7 DUP2 MSTORE PUSH1 0x20 ADD SWAP1 DUP2 MSTORE PUSH1 0x20 ADD PUSH1 0x0 KECCAK256 PUSH1 0x4 ADD PUSH1 0x0 PUSH2 0x100 EXP DUP2 SLOAD DUP2 PUSH1 0xFF MUL NOT AND SWAP1 DUP4 PUSH1 0x3 DUP2 GT ISZERO PUSH2 0x1B07 JUMPI PUSH2 0x1B06 PUSH2 0x2D40 JUMP JUMPDEST JUMPDEST MUL OR SWAP1 SSTORE POP PUSH1 0x1 SWAP3 POP POP POP SWAP2 SWAP1 POP JUMP JUMPDEST PUSH2 0x1B1F PUSH2 0x25D3 JUMP JUMPDEST PUSH1 0x0 PUSH1 0x40 MLOAD DUP1 PUSH1 0xC0 ADD PUSH1 0x40 MSTORE DUP1 DUP8 DUP2 MSTORE PUSH1 0x20 ADD DUP7 DUP2 MSTORE PUSH1 0x20 ADD PUSH1 0x3 SLOAD DUP2 MSTORE PUSH1 0x20 ADD CALLER PUSH20 0xFFFFFFFFFFFFFFFFFFFFFFFFFFFFFFFFFFFFFFFF AND DUP2 MSTORE PUSH1 0x20 ADD PUSH1 0x1 ISZERO ISZERO DUP2 MSTORE PUSH1 0x20 ADD PUSH1 0x40 MLOAD DUP1 PUSH1 0x40 ADD PUSH1 0x40 MSTORE DUP1 PUSH1 0xA DUP2 MSTORE PUSH1 0x20 ADD PUSH32 0x6E6F745374617274656400000000000000000000000000000000000000000000 DUP2 MSTORE POP DUP2 MSTORE POP SWAP1 POP DUP1 PUSH1 0x2 PUSH1 0x0 PUSH1 0x3 SLOAD DUP2 MSTORE PUSH1 0x20 ADD SWAP1 DUP2 MSTORE PUSH1 0x20 ADD PUSH1 0x0 KECCAK256 PUSH1 0x0 DUP3 ADD MLOAD DUP2 PUSH1 0x0 ADD SWAP1 DUP2 PUSH2 0x1BCB SWAP2 SWAP1 PUSH2 0x3435 JUMP JUMPDEST POP PUSH1 0x20 DUP3 ADD MLOAD DUP2 PUSH1 0x1 ADD SWAP1 DUP2 PUSH2 0x1BE1 SWAP2 SWAP1 PUSH2 0x3435 JUMP JUMPDEST POP PUSH1 0x40 DUP3 ADD MLOAD DUP2 PUSH1 0x2 ADD SSTORE PUSH1 0x60 DUP3 ADD MLOAD DUP2 PUSH1 0x3 ADD PUSH1 0x0 PUSH2 0x100 EXP DUP2 SLOAD DUP2 PUSH20 0xFFFFFFFFFFFFFFFFFFFFFFFFFFFFFFFFFFFFFFFF MUL NOT AND SWAP1 DUP4 PUSH20 0xFFFFFFFFFFFFFFFFFFFFFFFFFFFFFFFFFFFFFFFF AND MUL OR SWAP1 SSTORE POP PUSH1 0x80 DUP3 ADD MLOAD DUP2 PUSH1 0x3 ADD PUSH1 0x14 PUSH2 0x100 EXP DUP2 SLOAD DUP2 PUSH1 0xFF MUL NOT AND SWAP1 DUP4 ISZERO ISZERO MUL OR SWAP1 SSTORE POP PUSH1 0xA0 DUP3 ADD MLOAD DUP2 PUSH1 0x4 ADD SWAP1 DUP2 PUSH2 0x1C68 SWAP2 SWAP1 PUSH2 0x3435 JUMP JUMPDEST POP SWAP1 POP POP DUP4 PUSH1 0x0 DUP1 PUSH1 0x3 SLOAD DUP2 MSTORE PUSH1 0x20 ADD SWAP1 DUP2 MSTORE PUSH1 0x20 ADD PUSH1 0x0 KECCAK256 PUSH1 0x0 ADD DUP2 SWAP1 SSTORE POP DUP3 PUSH1 0x0 DUP1 PUSH1 0x3 SLOAD DUP2 MSTORE PUSH1 0x20 ADD SWAP1 DUP2 MSTORE PUSH1 0x20 ADD PUSH1 0x0 KECCAK256 PUSH1 0x1 ADD PUSH1 0x0 PUSH2 0x100 EXP DUP2 SLOAD DUP2 PUSH1 0xFF MUL NOT AND SWAP1 DUP4 PUSH1 0xFF AND MUL OR SWAP1 SSTORE POP DUP4 PUSH1 0x0 DUP1 PUSH1 0x3 SLOAD DUP2 MSTORE PUSH1 0x20 ADD SWAP1 DUP2 MSTORE PUSH1 0x20 ADD PUSH1 0x0 KECCAK256 PUSH1 0x2 ADD DUP2 SWAP1 SSTORE POP PUSH1 0x3 PUSH1 0x0 DUP2 SLOAD DUP1 SWAP3 SWAP2 SWAP1 PUSH2 0x1CE7 SWAP1 PUSH2 0x3507 JUMP JUMPDEST SWAP2 SWAP1 POP SSTORE POP DUP1 SWAP2 POP POP SWAP5 SWAP4 POP POP POP POP JUMP JUMPDEST PUSH1 0x60 PUSH1 0x3 SLOAD DUP3 LT PUSH2 0x1D3E JUMPI PUSH1 0x40 MLOAD PUSH32 0x8C379A000000000000000000000000000000000000000000000000000000000 DUP2 MSTORE PUSH1 0x4 ADD PUSH2 0x1D35 SWAP1 PUSH2 0x2D20 JUMP JUMPDEST PUSH1 0x40 MLOAD DUP1 SWAP2 SUB SWAP1 REVERT JUMPDEST PUSH1 0x0 DUP1 PUSH1 0x0 DUP5 DUP2 MSTORE PUSH1 0x20 ADD SWAP1 DUP2 MSTORE PUSH1 0x20 ADD PUSH1 0x0 KECCAK256 PUSH1 0x40 MLOAD DUP1 PUSH1 0xA0 ADD PUSH1 0x40 MSTORE SWAP1 DUP2 PUSH1 0x0 DUP3 ADD SLOAD DUP2 MSTORE PUSH1 0x20 ADD PUSH1 0x1 DUP3 ADD PUSH1 0x0 SWAP1 SLOAD SWAP1 PUSH2 0x100 EXP SWAP1 DIV PUSH1 0xFF AND PUSH1 0xFF AND PUSH1 0xFF AND DUP2 MSTORE PUSH1 0x20 ADD PUSH1 0x2 DUP3 ADD SLOAD DUP2 MSTORE PUSH1 0x20 ADD PUSH1 0x3 DUP3 ADD SLOAD DUP2 MSTORE PUSH1 0x20 ADD PUSH1 0x4 DUP3 ADD PUSH1 0x0 SWAP1 SLOAD SWAP1 PUSH2 0x100 EXP SWAP1 DIV PUSH1 0xFF AND PUSH1 0x3 DUP2 GT ISZERO PUSH2 0x1DBD JUMPI PUSH2 0x1DBC PUSH2 0x2D40 JUMP JUMPDEST JUMPDEST PUSH1 0x3 DUP2 GT ISZERO PUSH2 0x1DCF JUMPI PUSH2 0x1DCE PUSH2 0x2D40 JUMP JUMPDEST JUMPDEST DUP2 MSTORE POP POP SWAP1 POP PUSH2 0x1DE2 DUP2 PUSH1 0x80 ADD MLOAD PUSH2 0x2458 JUMP JUMPDEST SWAP2 POP POP SWAP2 SWAP1 POP JUMP JUMPDEST PUSH1 0x0 PUSH1 0x3 SLOAD DUP3 LT PUSH2 0x1E30 JUMPI PUSH1 0x40 MLOAD PUSH32 0x8C379A000000000000000000000000000000000000000000000000000000000 DUP2 MSTORE PUSH1 0x4 ADD PUSH2 0x1E27 SWAP1 PUSH2 0x2D20 JUMP JUMPDEST PUSH1 0x40 MLOAD DUP1 SWAP2 SUB SWAP1 REVERT JUMPDEST PUSH1 0x0 DUP1 PUSH1 0x0 DUP5 DUP2 MSTORE PUSH1 0x20 ADD SWAP1 DUP2 MSTORE PUSH1 0x20 ADD PUSH1 0x0 KECCAK256 PUSH1 0x40 MLOAD DUP1 PUSH1 0xA0 ADD PUSH1 0x40 MSTORE SWAP1 DUP2 PUSH1 0x0 DUP3 ADD SLOAD DUP2 MSTORE PUSH1 0x20 ADD PUSH1 0x1 DUP3 ADD PUSH1 0x0 SWAP1 SLOAD SWAP1 PUSH2 0x100 EXP SWAP1 DIV PUSH1 0xFF AND PUSH1 0xFF AND PUSH1 0xFF AND DUP2 MSTORE PUSH1 0x20 ADD PUSH1 0x2 DUP3 ADD SLOAD DUP2 MSTORE PUSH1 0x20 ADD PUSH1 0x3 DUP3 ADD SLOAD DUP2 MSTORE PUSH1 0x20 ADD PUSH1 0x4 DUP3 ADD PUSH1 0x0 SWAP1 SLOAD SWAP1 PUSH2 0x100 EXP SWAP1 DIV PUSH1 0xFF AND PUSH1 0x3 DUP2 GT ISZERO PUSH2 0x1EAF JUMPI PUSH2 0x1EAE PUSH2 0x2D40 JUMP JUMPDEST JUMPDEST PUSH1 0x3 DUP2 GT ISZERO PUSH2 0x1EC1 JUMPI PUSH2 0x1EC0 PUSH2 0x2D40 JUMP JUMPDEST JUMPDEST DUP2 MSTORE POP POP SWAP1 POP PUSH1 0x2 PUSH1 0x3 DUP2 GT ISZERO PUSH2 0x1EDB JUMPI PUSH2 0x1EDA PUSH2 0x2D40 JUMP JUMPDEST JUMPDEST DUP2 PUSH1 0x80 ADD MLOAD PUSH1 0x3 DUP2 GT ISZERO PUSH2 0x1EF2 JUMPI PUSH2 0x1EF1 PUSH2 0x2D40 JUMP JUMPDEST JUMPDEST EQ PUSH2 0x1F32 JUMPI PUSH1 0x40 MLOAD PUSH32 0x8C379A000000000000000000000000000000000000000000000000000000000 DUP2 MSTORE PUSH1 0x4 ADD PUSH2 0x1F29 SWAP1 PUSH2 0x359B JUMP JUMPDEST PUSH1 0x40 MLOAD DUP1 SWAP2 SUB SWAP1 REVERT JUMPDEST PUSH1 0x0 DUP2 PUSH1 0x60 ADD MLOAD TIMESTAMP PUSH2 0x1F44 SWAP2 SWAP1 PUSH2 0x35BB JUMP JUMPDEST SWAP1 POP PUSH1 0x0 PUSH1 0x64 DUP1 PUSH2 0x1F55 SWAP2 SWAP1 PUSH2 0x361E JUMP JUMPDEST PUSH1 0xFF AND DUP3 PUSH2 0x1F63 SWAP2 SWAP1 PUSH2 0x31B8 JUMP JUMPDEST SWAP1 POP PUSH1 0x0 DUP4 PUSH1 0x20 ADD MLOAD PUSH1 0xFF AND DUP5 PUSH1 0x0 ADD MLOAD PUSH2 0x1F7E SWAP2 SWAP1 PUSH2 0x31B8 JUMP JUMPDEST SWAP1 POP PUSH1 0x0 PUSH1 0x64 DUP4 DUP4 PUSH2 0x1F90 SWAP2 SWAP1 PUSH2 0x31B8 JUMP JUMPDEST PUSH2 0x1F9A SWAP2 SWAP1 PUSH2 0x364F JUMP JUMPDEST SWAP1 POP DUP2 DUP2 GT ISZERO PUSH2 0x1FB2 JUMPI PUSH1 0x0 SWAP6 POP POP POP POP POP POP PUSH2 0x1FC6 JUMP JUMPDEST DUP1 DUP3 PUSH2 0x1FBE SWAP2 SWAP1 PUSH2 0x35BB JUMP JUMPDEST SWAP6 POP POP POP POP POP POP JUMPDEST SWAP2 SWAP1 POP JUMP JUMPDEST PUSH1 0x0 PUSH1 0x3 SLOAD DUP3 LT PUSH2 0x2011 JUMPI PUSH1 0x40 MLOAD PUSH32 0x8C379A000000000000000000000000000000000000000000000000000000000 DUP2 MSTORE PUSH1 0x4 ADD PUSH2 0x2008 SWAP1 PUSH2 0x2D20 JUMP JUMPDEST PUSH1 0x40 MLOAD DUP1 SWAP2 SUB SWAP1 REVERT JUMPDEST PUSH1 0x0 PUSH1 0x2 PUSH1 0x0 DUP5 DUP2 MSTORE PUSH1 0x20 ADD SWAP1 DUP2 MSTORE PUSH1 0x20 ADD PUSH1 0x0 KECCAK256 PUSH1 0x40 MLOAD DUP1 PUSH1 0xC0 ADD PUSH1 0x40 MSTORE SWAP1 DUP2 PUSH1 0x0 DUP3 ADD DUP1 SLOAD PUSH2 0x2041 SWAP1 PUSH2 0x2D9E JUMP JUMPDEST DUP1 PUSH1 0x1F ADD PUSH1 0x20 DUP1 SWAP2 DIV MUL PUSH1 0x20 ADD PUSH1 0x40 MLOAD SWAP1 DUP2 ADD PUSH1 0x40 MSTORE DUP1 SWAP3 SWAP2 SWAP1 DUP2 DUP2 MSTORE PUSH1 0x20 ADD DUP3 DUP1 SLOAD PUSH2 0x206D SWAP1 PUSH2 0x2D9E JUMP JUMPDEST DUP1 ISZERO PUSH2 0x20BA JUMPI DUP1 PUSH1 0x1F LT PUSH2 0x208F JUMPI PUSH2 0x100 DUP1 DUP4 SLOAD DIV MUL DUP4 MSTORE SWAP2 PUSH1 0x20 ADD SWAP2 PUSH2 0x20BA JUMP JUMPDEST DUP3 ADD SWAP2 SWAP1 PUSH1 0x0 MSTORE PUSH1 0x20 PUSH1 0x0 KECCAK256 SWAP1 JUMPDEST DUP2 SLOAD DUP2 MSTORE SWAP1 PUSH1 0x1 ADD SWAP1 PUSH1 0x20 ADD DUP1 DUP4 GT PUSH2 0x209D JUMPI DUP3 SWAP1 SUB PUSH1 0x1F AND DUP3 ADD SWAP2 JUMPDEST POP POP POP POP POP DUP2 MSTORE PUSH1 0x20 ADD PUSH1 0x1 DUP3 ADD DUP1 SLOAD PUSH2 0x20D3 SWAP1 PUSH2 0x2D9E JUMP JUMPDEST DUP1 PUSH1 0x1F ADD PUSH1 0x20 DUP1 SWAP2 DIV MUL PUSH1 0x20 ADD PUSH1 0x40 MLOAD SWAP1 DUP2 ADD PUSH1 0x40 MSTORE DUP1 SWAP3 SWAP2 SWAP1 DUP2 DUP2 MSTORE PUSH1 0x20 ADD DUP3 DUP1 SLOAD PUSH2 0x20FF SWAP1 PUSH2 0x2D9E JUMP JUMPDEST DUP1 ISZERO PUSH2 0x214C JUMPI DUP1 PUSH1 0x1F LT PUSH2 0x2121 JUMPI PUSH2 0x100 DUP1 DUP4 SLOAD DIV MUL DUP4 MSTORE SWAP2 PUSH1 0x20 ADD SWAP2 PUSH2 0x214C JUMP JUMPDEST DUP3 ADD SWAP2 SWAP1 PUSH1 0x0 MSTORE PUSH1 0x20 PUSH1 0x0 KECCAK256 SWAP1 JUMPDEST DUP2 SLOAD DUP2 MSTORE SWAP1 PUSH1 0x1 ADD SWAP1 PUSH1 0x20 ADD DUP1 DUP4 GT PUSH2 0x212F JUMPI DUP3 SWAP1 SUB PUSH1 0x1F AND DUP3 ADD SWAP2 JUMPDEST POP POP POP POP POP DUP2 MSTORE PUSH1 0x20 ADD PUSH1 0x2 DUP3 ADD SLOAD DUP2 MSTORE PUSH1 0x20 ADD PUSH1 0x3 DUP3 ADD PUSH1 0x0 SWAP1 SLOAD SWAP1 PUSH2 0x100 EXP SWAP1 DIV PUSH20 0xFFFFFFFFFFFFFFFFFFFFFFFFFFFFFFFFFFFFFFFF AND PUSH20 0xFFFFFFFFFFFFFFFFFFFFFFFFFFFFFFFFFFFFFFFF AND PUSH20 0xFFFFFFFFFFFFFFFFFFFFFFFFFFFFFFFFFFFFFFFF AND DUP2 MSTORE PUSH1 0x20 ADD PUSH1 0x3 DUP3 ADD PUSH1 0x14 SWAP1 SLOAD SWAP1 PUSH2 0x100 EXP SWAP1 DIV PUSH1 0xFF AND ISZERO ISZERO ISZERO ISZERO DUP2 MSTORE PUSH1 0x20 ADD PUSH1 0x4 DUP3 ADD DUP1 SLOAD PUSH2 0x21E0 SWAP1 PUSH2 0x2D9E JUMP JUMPDEST DUP1 PUSH1 0x1F ADD PUSH1 0x20 DUP1 SWAP2 DIV MUL PUSH1 0x20 ADD PUSH1 0x40 MLOAD SWAP1 DUP2 ADD PUSH1 0x40 MSTORE DUP1 SWAP3 SWAP2 SWAP1 DUP2 DUP2 MSTORE PUSH1 0x20 ADD DUP3 DUP1 SLOAD PUSH2 0x220C SWAP1 PUSH2 0x2D9E JUMP JUMPDEST DUP1 ISZERO PUSH2 0x2259 JUMPI DUP1 PUSH1 0x1F LT PUSH2 0x222E JUMPI PUSH2 0x100 DUP1 DUP4 SLOAD DIV MUL DUP4 MSTORE SWAP2 PUSH1 0x20 ADD SWAP2 PUSH2 0x2259 JUMP JUMPDEST DUP3 ADD SWAP2 SWAP1 PUSH1 0x0 MSTORE PUSH1 0x20 PUSH1 0x0 KECCAK256 SWAP1 JUMPDEST DUP2 SLOAD DUP2 MSTORE SWAP1 PUSH1 0x1 ADD SWAP1 PUSH1 0x20 ADD DUP1 DUP4 GT PUSH2 0x223C JUMPI DUP3 SWAP1 SUB PUSH1 0x1F AND DUP3 ADD SWAP2 JUMPDEST POP POP POP POP POP DUP2 MSTORE POP POP SWAP1 POP PUSH1 0x0 DUP1 PUSH1 0x0 DUP6 DUP2 MSTORE PUSH1 0x20 ADD SWAP1 DUP2 MSTORE PUSH1 0x20 ADD PUSH1 0x0 KECCAK256 PUSH1 0x40 MLOAD DUP1 PUSH1 0xA0 ADD PUSH1 0x40 MSTORE SWAP1 DUP2 PUSH1 0x0 DUP3 ADD SLOAD DUP2 MSTORE PUSH1 0x20 ADD PUSH1 0x1 DUP3 ADD PUSH1 0x0 SWAP1 SLOAD SWAP1 PUSH2 0x100 EXP SWAP1 DIV PUSH1 0xFF AND PUSH1 0xFF AND PUSH1 0xFF AND DUP2 MSTORE PUSH1 0x20 ADD PUSH1 0x2 DUP3 ADD SLOAD DUP2 MSTORE PUSH1 0x20 ADD PUSH1 0x3 DUP3 ADD SLOAD DUP2 MSTORE PUSH1 0x20 ADD PUSH1 0x4 DUP3 ADD PUSH1 0x0 SWAP1 SLOAD SWAP1 PUSH2 0x100 EXP SWAP1 DIV PUSH1 0xFF AND PUSH1 0x3 DUP2 GT ISZERO PUSH2 0x22E3 JUMPI PUSH2 0x22E2 PUSH2 0x2D40 JUMP JUMPDEST JUMPDEST PUSH1 0x3 DUP2 GT ISZERO PUSH2 0x22F5 JUMPI PUSH2 0x22F4 PUSH2 0x2D40 JUMP JUMPDEST JUMPDEST DUP2 MSTORE POP POP SWAP1 POP PUSH1 0x2 PUSH1 0x3 DUP2 GT ISZERO PUSH2 0x230F JUMPI PUSH2 0x230E PUSH2 0x2D40 JUMP JUMPDEST JUMPDEST DUP2 PUSH1 0x80 ADD MLOAD PUSH1 0x3 DUP2 GT ISZERO PUSH2 0x2326 JUMPI PUSH2 0x2325 PUSH2 0x2D40 JUMP JUMPDEST JUMPDEST EQ PUSH2 0x2366 JUMPI PUSH1 0x40 MLOAD PUSH32 0x8C379A000000000000000000000000000000000000000000000000000000000 DUP2 MSTORE PUSH1 0x4 ADD PUSH2 0x235D SWAP1 PUSH2 0x36CC JUMP JUMPDEST PUSH1 0x40 MLOAD DUP1 SWAP2 SUB SWAP1 REVERT JUMPDEST CALLER PUSH20 0xFFFFFFFFFFFFFFFFFFFFFFFFFFFFFFFFFFFFFFFF AND DUP3 PUSH1 0x60 ADD MLOAD PUSH20 0xFFFFFFFFFFFFFFFFFFFFFFFFFFFFFFFFFFFFFFFF AND EQ PUSH2 0x23D8 JUMPI PUSH1 0x40 MLOAD PUSH32 0x8C379A000000000000000000000000000000000000000000000000000000000 DUP2 MSTORE PUSH1 0x4 ADD PUSH2 0x23CF SWAP1 PUSH2 0x3169 JUMP JUMPDEST PUSH1 0x40 MLOAD DUP1 SWAP2 SUB SWAP1 REVERT JUMPDEST PUSH1 0x3 PUSH1 0x0 DUP1 DUP7 DUP2 MSTORE PUSH1 0x20 ADD SWAP1 DUP2 MSTORE PUSH1 0x20 ADD PUSH1 0x0 KECCAK256 PUSH1 0x4 ADD PUSH1 0x0 PUSH2 0x100 EXP DUP2 SLOAD DUP2 PUSH1 0xFF MUL NOT AND SWAP1 DUP4 PUSH1 0x3 DUP2 GT ISZERO PUSH2 0x2411 JUMPI PUSH2 0x2410 PUSH2 0x2D40 JUMP JUMPDEST JUMPDEST MUL OR SWAP1 SSTORE POP PUSH32 0x3312DF0B8B9EFF523F5C5714C5BA9238BB061CC3E3B80FA1F2B2BCC83E91FE6E DUP5 PUSH1 0x40 MLOAD PUSH2 0x2445 SWAP2 SWAP1 PUSH2 0x3738 JUMP JUMPDEST PUSH1 0x40 MLOAD DUP1 SWAP2 SUB SWAP1 LOG1 PUSH1 0x1 SWAP3 POP POP POP SWAP2 SWAP1 POP JUMP JUMPDEST PUSH1 0x60 PUSH1 0x0 PUSH1 0x3 DUP2 GT ISZERO PUSH2 0x246E JUMPI PUSH2 0x246D PUSH2 0x2D40 JUMP JUMPDEST JUMPDEST DUP3 PUSH1 0x3 DUP2 GT ISZERO PUSH2 0x2481 JUMPI PUSH2 0x2480 PUSH2 0x2D40 JUMP JUMPDEST JUMPDEST SUB PUSH2 0x24C3 JUMPI PUSH1 0x40 MLOAD DUP1 PUSH1 0x40 ADD PUSH1 0x40 MSTORE DUP1 PUSH1 0xA DUP2 MSTORE PUSH1 0x20 ADD PUSH32 0x6E6F745374617274656400000000000000000000000000000000000000000000 DUP2 MSTORE POP SWAP1 POP PUSH2 0x25CE JUMP JUMPDEST PUSH1 0x1 PUSH1 0x3 DUP2 GT ISZERO PUSH2 0x24D7 JUMPI PUSH2 0x24D6 PUSH2 0x2D40 JUMP JUMPDEST JUMPDEST DUP3 PUSH1 0x3 DUP2 GT ISZERO PUSH2 0x24EA JUMPI PUSH2 0x24E9 PUSH2 0x2D40 JUMP JUMPDEST JUMPDEST SUB PUSH2 0x252C JUMPI PUSH1 0x40 MLOAD DUP1 PUSH1 0x40 ADD PUSH1 0x40 MSTORE DUP1 PUSH1 0x9 DUP2 MSTORE PUSH1 0x20 ADD PUSH32 0x7365637265744269640000000000000000000000000000000000000000000000 DUP2 MSTORE POP SWAP1 POP PUSH2 0x25CE JUMP JUMPDEST PUSH1 0x2 PUSH1 0x3 DUP2 GT ISZERO PUSH2 0x2540 JUMPI PUSH2 0x253F PUSH2 0x2D40 JUMP JUMPDEST JUMPDEST DUP3 PUSH1 0x3 DUP2 GT ISZERO PUSH2 0x2553 JUMPI PUSH2 0x2552 PUSH2 0x2D40 JUMP JUMPDEST JUMPDEST SUB PUSH2 0x2595 JUMPI PUSH1 0x40 MLOAD DUP1 PUSH1 0x40 ADD PUSH1 0x40 MSTORE DUP1 PUSH1 0x7 DUP2 MSTORE PUSH1 0x20 ADD PUSH32 0x6F70656E42696400000000000000000000000000000000000000000000000000 DUP2 MSTORE POP SWAP1 POP PUSH2 0x25CE JUMP JUMPDEST PUSH1 0x40 MLOAD DUP1 PUSH1 0x40 ADD PUSH1 0x40 MSTORE DUP1 PUSH1 0x8 DUP2 MSTORE PUSH1 0x20 ADD PUSH32 0x656E646564426964000000000000000000000000000000000000000000000000 DUP2 MSTORE POP SWAP1 POP JUMPDEST SWAP2 SWAP1 POP JUMP JUMPDEST PUSH1 0x40 MLOAD DUP1 PUSH1 0xC0 ADD PUSH1 0x40 MSTORE DUP1 PUSH1 0x60 DUP2 MSTORE PUSH1 0x20 ADD PUSH1 0x60 DUP2 MSTORE PUSH1 0x20 ADD PUSH1 0x0 DUP2 MSTORE PUSH1 0x20 ADD PUSH1 0x0 PUSH20 0xFFFFFFFFFFFFFFFFFFFFFFFFFFFFFFFFFFFFFFFF AND DUP2 MSTORE PUSH1 0x20 ADD PUSH1 0x0 ISZERO ISZERO DUP2 MSTORE PUSH1 0x20 ADD PUSH1 0x60 DUP2 MSTORE POP SWAP1 JUMP JUMPDEST PUSH1 0x0 PUSH1 0x40 MLOAD SWAP1 POP SWAP1 JUMP JUMPDEST PUSH1 0x0 DUP1 REVERT JUMPDEST PUSH1 0x0 DUP1 REVERT JUMPDEST PUSH1 0x0 DUP2 SWAP1 POP SWAP2 SWAP1 POP JUMP JUMPDEST PUSH2 0x2648 DUP2 PUSH2 0x2635 JUMP JUMPDEST DUP2 EQ PUSH2 0x2653 JUMPI PUSH1 0x0 DUP1 REVERT JUMPDEST POP JUMP JUMPDEST PUSH1 0x0 DUP2 CALLDATALOAD SWAP1 POP PUSH2 0x2665 DUP2 PUSH2 0x263F JUMP JUMPDEST SWAP3 SWAP2 POP POP JUMP JUMPDEST PUSH1 0x0 DUP1 PUSH1 0x40 DUP4 DUP6 SUB SLT ISZERO PUSH2 0x2682 JUMPI PUSH2 0x2681 PUSH2 0x262B JUMP JUMPDEST JUMPDEST PUSH1 0x0 PUSH2 0x2690 DUP6 DUP3 DUP7 ADD PUSH2 0x2656 JUMP JUMPDEST SWAP3 POP POP PUSH1 0x20 PUSH2 0x26A1 DUP6 DUP3 DUP7 ADD PUSH2 0x2656 JUMP JUMPDEST SWAP2 POP POP SWAP3 POP SWAP3 SWAP1 POP JUMP JUMPDEST PUSH1 0x0 PUSH1 0x20 DUP3 DUP5 SUB SLT ISZERO PUSH2 0x26C1 JUMPI PUSH2 0x26C0 PUSH2 0x262B JUMP JUMPDEST JUMPDEST PUSH1 0x0 PUSH2 0x26CF DUP5 DUP3 DUP6 ADD PUSH2 0x2656 JUMP JUMPDEST SWAP2 POP POP SWAP3 SWAP2 POP POP JUMP JUMPDEST PUSH2 0x26E1 DUP2 PUSH2 0x2635 JUMP JUMPDEST DUP3 MSTORE POP POP JUMP JUMPDEST PUSH1 0x0 PUSH1 0x20 DUP3 ADD SWAP1 POP PUSH2 0x26FC PUSH1 0x0 DUP4 ADD DUP5 PUSH2 0x26D8 JUMP JUMPDEST SWAP3 SWAP2 POP POP JUMP JUMPDEST PUSH1 0x0 DUP2 MLOAD SWAP1 POP SWAP2 SWAP1 POP JUMP JUMPDEST PUSH1 0x0 DUP3 DUP3 MSTORE PUSH1 0x20 DUP3 ADD SWAP1 POP SWAP3 SWAP2 POP POP JUMP JUMPDEST PUSH1 0x0 DUP2 SWAP1 POP PUSH1 0x20 DUP3 ADD SWAP1 POP SWAP2 SWAP1 POP JUMP JUMPDEST PUSH1 0x0 DUP2 MLOAD SWAP1 POP SWAP2 SWAP1 POP JUMP JUMPDEST PUSH1 0x0 DUP3 DUP3 MSTORE PUSH1 0x20 DUP3 ADD SWAP1 POP SWAP3 SWAP2 POP POP JUMP JUMPDEST PUSH1 0x0 JUMPDEST DUP4 DUP2 LT ISZERO PUSH2 0x2768 JUMPI DUP1 DUP3 ADD MLOAD DUP2 DUP5 ADD MSTORE PUSH1 0x20 DUP2 ADD SWAP1 POP PUSH2 0x274D JUMP JUMPDEST PUSH1 0x0 DUP5 DUP5 ADD MSTORE POP POP POP POP JUMP JUMPDEST PUSH1 0x0 PUSH1 0x1F NOT PUSH1 0x1F DUP4 ADD AND SWAP1 POP SWAP2 SWAP1 POP JUMP JUMPDEST PUSH1 0x0 PUSH2 0x2790 DUP3 PUSH2 0x272E JUMP JUMPDEST PUSH2 0x279A DUP2 DUP6 PUSH2 0x2739 JUMP JUMPDEST SWAP4 POP PUSH2 0x27AA DUP2 DUP6 PUSH1 0x20 DUP7 ADD PUSH2 0x274A JUMP JUMPDEST PUSH2 0x27B3 DUP2 PUSH2 0x2774 JUMP JUMPDEST DUP5 ADD SWAP2 POP POP SWAP3 SWAP2 POP POP JUMP JUMPDEST PUSH2 0x27C7 DUP2 PUSH2 0x2635 JUMP JUMPDEST DUP3 MSTORE POP POP JUMP JUMPDEST PUSH1 0x0 PUSH20 0xFFFFFFFFFFFFFFFFFFFFFFFFFFFFFFFFFFFFFFFF DUP3 AND SWAP1 POP SWAP2 SWAP1 POP JUMP JUMPDEST PUSH1 0x0 PUSH2 0x27F8 DUP3 PUSH2 0x27CD JUMP JUMPDEST SWAP1 POP SWAP2 SWAP1 POP JUMP JUMPDEST PUSH2 0x2808 DUP2 PUSH2 0x27ED JUMP JUMPDEST DUP3 MSTORE POP POP JUMP JUMPDEST PUSH1 0x0 DUP2 ISZERO ISZERO SWAP1 POP SWAP2 SWAP1 POP JUMP JUMPDEST PUSH2 0x2823 DUP2 PUSH2 0x280E JUMP JUMPDEST DUP3 MSTORE POP POP JUMP JUMPDEST PUSH1 0x0 PUSH1 0xC0 DUP4 ADD PUSH1 0x0 DUP4 ADD MLOAD DUP5 DUP3 SUB PUSH1 0x0 DUP7 ADD MSTORE PUSH2 0x2846 DUP3 DUP3 PUSH2 0x2785 JUMP JUMPDEST SWAP2 POP POP PUSH1 0x20 DUP4 ADD MLOAD DUP5 DUP3 SUB PUSH1 0x20 DUP7 ADD MSTORE PUSH2 0x2860 DUP3 DUP3 PUSH2 0x2785 JUMP JUMPDEST SWAP2 POP POP PUSH1 0x40 DUP4 ADD MLOAD PUSH2 0x2875 PUSH1 0x40 DUP7 ADD DUP3 PUSH2 0x27BE JUMP JUMPDEST POP PUSH1 0x60 DUP4 ADD MLOAD PUSH2 0x2888 PUSH1 0x60 DUP7 ADD DUP3 PUSH2 0x27FF JUMP JUMPDEST POP PUSH1 0x80 DUP4 ADD MLOAD PUSH2 0x289B PUSH1 0x80 DUP7 ADD DUP3 PUSH2 0x281A JUMP JUMPDEST POP PUSH1 0xA0 DUP4 ADD MLOAD DUP5 DUP3 SUB PUSH1 0xA0 DUP7 ADD MSTORE PUSH2 0x28B3 DUP3 DUP3 PUSH2 0x2785 JUMP JUMPDEST SWAP2 POP POP DUP1 SWAP2 POP POP SWAP3 SWAP2 POP POP JUMP JUMPDEST PUSH1 0x0 PUSH2 0x28CC DUP4 DUP4 PUSH2 0x2829 JUMP JUMPDEST SWAP1 POP SWAP3 SWAP2 POP POP JUMP JUMPDEST PUSH1 0x0 PUSH1 0x20 DUP3 ADD SWAP1 POP SWAP2 SWAP1 POP JUMP JUMPDEST PUSH1 0x0 PUSH2 0x28EC DUP3 PUSH2 0x2702 JUMP JUMPDEST PUSH2 0x28F6 DUP2 DUP6 PUSH2 0x270D JUMP JUMPDEST SWAP4 POP DUP4 PUSH1 0x20 DUP3 MUL DUP6 ADD PUSH2 0x2908 DUP6 PUSH2 0x271E JUMP JUMPDEST DUP1 PUSH1 0x0 JUMPDEST DUP6 DUP2 LT ISZERO PUSH2 0x2944 JUMPI DUP5 DUP5 SUB DUP10 MSTORE DUP2 MLOAD PUSH2 0x2925 DUP6 DUP3 PUSH2 0x28C0 JUMP JUMPDEST SWAP5 POP PUSH2 0x2930 DUP4 PUSH2 0x28D4 JUMP JUMPDEST SWAP3 POP PUSH1 0x20 DUP11 ADD SWAP10 POP POP PUSH1 0x1 DUP2 ADD SWAP1 POP PUSH2 0x290C JUMP JUMPDEST POP DUP3 SWAP8 POP DUP8 SWAP6 POP POP POP POP POP POP SWAP3 SWAP2 POP POP JUMP JUMPDEST PUSH1 0x0 PUSH1 0x20 DUP3 ADD SWAP1 POP DUP2 DUP2 SUB PUSH1 0x0 DUP4 ADD MSTORE PUSH2 0x2970 DUP2 DUP5 PUSH2 0x28E1 JUMP JUMPDEST SWAP1 POP SWAP3 SWAP2 POP POP JUMP JUMPDEST PUSH2 0x2981 DUP2 PUSH2 0x280E JUMP JUMPDEST DUP3 MSTORE POP POP JUMP JUMPDEST PUSH1 0x0 PUSH1 0x20 DUP3 ADD SWAP1 POP PUSH2 0x299C PUSH1 0x0 DUP4 ADD DUP5 PUSH2 0x2978 JUMP JUMPDEST SWAP3 SWAP2 POP POP JUMP JUMPDEST PUSH1 0x0 DUP1 REVERT JUMPDEST PUSH1 0x0 DUP1 REVERT JUMPDEST PUSH32 0x4E487B7100000000000000000000000000000000000000000000000000000000 PUSH1 0x0 MSTORE PUSH1 0x41 PUSH1 0x4 MSTORE PUSH1 0x24 PUSH1 0x0 REVERT JUMPDEST PUSH2 0x29E4 DUP3 PUSH2 0x2774 JUMP JUMPDEST DUP2 ADD DUP2 DUP2 LT PUSH8 0xFFFFFFFFFFFFFFFF DUP3 GT OR ISZERO PUSH2 0x2A03 JUMPI PUSH2 0x2A02 PUSH2 0x29AC JUMP JUMPDEST JUMPDEST DUP1 PUSH1 0x40 MSTORE POP POP POP JUMP JUMPDEST PUSH1 0x0 PUSH2 0x2A16 PUSH2 0x2621 JUMP JUMPDEST SWAP1 POP PUSH2 0x2A22 DUP3 DUP3 PUSH2 0x29DB JUMP JUMPDEST SWAP2 SWAP1 POP JUMP JUMPDEST PUSH1 0x0 PUSH8 0xFFFFFFFFFFFFFFFF DUP3 GT ISZERO PUSH2 0x2A42 JUMPI PUSH2 0x2A41 PUSH2 0x29AC JUMP JUMPDEST JUMPDEST PUSH2 0x2A4B DUP3 PUSH2 0x2774 JUMP JUMPDEST SWAP1 POP PUSH1 0x20 DUP2 ADD SWAP1 POP SWAP2 SWAP1 POP JUMP JUMPDEST DUP3 DUP2 DUP4 CALLDATACOPY PUSH1 0x0 DUP4 DUP4 ADD MSTORE POP POP POP JUMP JUMPDEST PUSH1 0x0 PUSH2 0x2A7A PUSH2 0x2A75 DUP5 PUSH2 0x2A27 JUMP JUMPDEST PUSH2 0x2A0C JUMP JUMPDEST SWAP1 POP DUP3 DUP2 MSTORE PUSH1 0x20 DUP2 ADD DUP5 DUP5 DUP5 ADD GT ISZERO PUSH2 0x2A96 JUMPI PUSH2 0x2A95 PUSH2 0x29A7 JUMP JUMPDEST JUMPDEST PUSH2 0x2AA1 DUP5 DUP3 DUP6 PUSH2 0x2A58 JUMP JUMPDEST POP SWAP4 SWAP3 POP POP POP JUMP JUMPDEST PUSH1 0x0 DUP3 PUSH1 0x1F DUP4 ADD SLT PUSH2 0x2ABE JUMPI PUSH2 0x2ABD PUSH2 0x29A2 JUMP JUMPDEST JUMPDEST DUP2 CALLDATALOAD PUSH2 0x2ACE DUP5 DUP3 PUSH1 0x20 DUP7 ADD PUSH2 0x2A67 JUMP JUMPDEST SWAP2 POP POP SWAP3 SWAP2 POP POP JUMP JUMPDEST PUSH1 0x0 PUSH1 0xFF DUP3 AND SWAP1 POP SWAP2 SWAP1 POP JUMP JUMPDEST PUSH2 0x2AED DUP2 PUSH2 0x2AD7 JUMP JUMPDEST DUP2 EQ PUSH2 0x2AF8 JUMPI PUSH1 0x0 DUP1 REVERT JUMPDEST POP JUMP JUMPDEST PUSH1 0x0 DUP2 CALLDATALOAD SWAP1 POP PUSH2 0x2B0A DUP2 PUSH2 0x2AE4 JUMP JUMPDEST SWAP3 SWAP2 POP POP JUMP JUMPDEST PUSH1 0x0 DUP1 PUSH1 0x0 DUP1 PUSH1 0x80 DUP6 DUP8 SUB SLT ISZERO PUSH2 0x2B2A JUMPI PUSH2 0x2B29 PUSH2 0x262B JUMP JUMPDEST JUMPDEST PUSH1 0x0 DUP6 ADD CALLDATALOAD PUSH8 0xFFFFFFFFFFFFFFFF DUP2 GT ISZERO PUSH2 0x2B48 JUMPI PUSH2 0x2B47 PUSH2 0x2630 JUMP JUMPDEST JUMPDEST PUSH2 0x2B54 DUP8 DUP3 DUP9 ADD PUSH2 0x2AA9 JUMP JUMPDEST SWAP5 POP POP PUSH1 0x20 DUP6 ADD CALLDATALOAD PUSH8 0xFFFFFFFFFFFFFFFF DUP2 GT ISZERO PUSH2 0x2B75 JUMPI PUSH2 0x2B74 PUSH2 0x2630 JUMP JUMPDEST JUMPDEST PUSH2 0x2B81 DUP8 DUP3 DUP9 ADD PUSH2 0x2AA9 JUMP JUMPDEST SWAP4 POP POP PUSH1 0x40 PUSH2 0x2B92 DUP8 DUP3 DUP9 ADD PUSH2 0x2656 JUMP JUMPDEST SWAP3 POP POP PUSH1 0x60 PUSH2 0x2BA3 DUP8 DUP3 DUP9 ADD PUSH2 0x2AFB JUMP JUMPDEST SWAP2 POP POP SWAP3 SWAP6 SWAP2 SWAP5 POP SWAP3 POP JUMP JUMPDEST PUSH1 0x0 PUSH1 0xC0 DUP4 ADD PUSH1 0x0 DUP4 ADD MLOAD DUP5 DUP3 SUB PUSH1 0x0 DUP7 ADD MSTORE PUSH2 0x2BCC DUP3 DUP3 PUSH2 0x2785 JUMP JUMPDEST SWAP2 POP POP PUSH1 0x20 DUP4 ADD MLOAD DUP5 DUP3 SUB PUSH1 0x20 DUP7 ADD MSTORE PUSH2 0x2BE6 DUP3 DUP3 PUSH2 0x2785 JUMP JUMPDEST SWAP2 POP POP PUSH1 0x40 DUP4 ADD MLOAD PUSH2 0x2BFB PUSH1 0x40 DUP7 ADD DUP3 PUSH2 0x27BE JUMP JUMPDEST POP PUSH1 0x60 DUP4 ADD MLOAD PUSH2 0x2C0E PUSH1 0x60 DUP7 ADD DUP3 PUSH2 0x27FF JUMP JUMPDEST POP PUSH1 0x80 DUP4 ADD MLOAD PUSH2 0x2C21 PUSH1 0x80 DUP7 ADD DUP3 PUSH2 0x281A JUMP JUMPDEST POP PUSH1 0xA0 DUP4 ADD MLOAD DUP5 DUP3 SUB PUSH1 0xA0 DUP7 ADD MSTORE PUSH2 0x2C39 DUP3 DUP3 PUSH2 0x2785 JUMP JUMPDEST SWAP2 POP POP DUP1 SWAP2 POP POP SWAP3 SWAP2 POP POP JUMP JUMPDEST PUSH1 0x0 PUSH1 0x20 DUP3 ADD SWAP1 POP DUP2 DUP2 SUB PUSH1 0x0 DUP4 ADD MSTORE PUSH2 0x2C60 DUP2 DUP5 PUSH2 0x2BAF JUMP JUMPDEST SWAP1 POP SWAP3 SWAP2 POP POP JUMP JUMPDEST PUSH1 0x0 DUP3 DUP3 MSTORE PUSH1 0x20 DUP3 ADD SWAP1 POP SWAP3 SWAP2 POP POP JUMP JUMPDEST PUSH1 0x0 PUSH2 0x2C84 DUP3 PUSH2 0x272E JUMP JUMPDEST PUSH2 0x2C8E DUP2 DUP6 PUSH2 0x2C68 JUMP JUMPDEST SWAP4 POP PUSH2 0x2C9E DUP2 DUP6 PUSH1 0x20 DUP7 ADD PUSH2 0x274A JUMP JUMPDEST PUSH2 0x2CA7 DUP2 PUSH2 0x2774 JUMP JUMPDEST DUP5 ADD SWAP2 POP POP SWAP3 SWAP2 POP POP JUMP JUMPDEST PUSH1 0x0 PUSH1 0x20 DUP3 ADD SWAP1 POP DUP2 DUP2 SUB PUSH1 0x0 DUP4 ADD MSTORE PUSH2 0x2CCC DUP2 DUP5 PUSH2 0x2C79 JUMP JUMPDEST SWAP1 POP SWAP3 SWAP2 POP POP JUMP JUMPDEST PUSH32 0x4974656D20646F65736E27742065786973747300000000000000000000000000 PUSH1 0x0 DUP3 ADD MSTORE POP JUMP JUMPDEST PUSH1 0x0 PUSH2 0x2D0A PUSH1 0x13 DUP4 PUSH2 0x2C68 JUMP JUMPDEST SWAP2 POP PUSH2 0x2D15 DUP3 PUSH2 0x2CD4 JUMP JUMPDEST PUSH1 0x20 DUP3 ADD SWAP1 POP SWAP2 SWAP1 POP JUMP JUMPDEST PUSH1 0x0 PUSH1 0x20 DUP3 ADD SWAP1 POP DUP2 DUP2 SUB PUSH1 0x0 DUP4 ADD MSTORE PUSH2 0x2D39 DUP2 PUSH2 0x2CFD JUMP JUMPDEST SWAP1 POP SWAP2 SWAP1 POP JUMP JUMPDEST PUSH32 0x4E487B7100000000000000000000000000000000000000000000000000000000 PUSH1 0x0 MSTORE PUSH1 0x21 PUSH1 0x4 MSTORE PUSH1 0x24 PUSH1 0x0 REVERT JUMPDEST PUSH32 0x4E487B7100000000000000000000000000000000000000000000000000000000 PUSH1 0x0 MSTORE PUSH1 0x22 PUSH1 0x4 MSTORE PUSH1 0x24 PUSH1 0x0 REVERT JUMPDEST PUSH1 0x0 PUSH1 0x2 DUP3 DIV SWAP1 POP PUSH1 0x1 DUP3 AND DUP1 PUSH2 0x2DB6 JUMPI PUSH1 0x7F DUP3 AND SWAP2 POP JUMPDEST PUSH1 0x20 DUP3 LT DUP2 SUB PUSH2 0x2DC9 JUMPI PUSH2 0x2DC8 PUSH2 0x2D6F JUMP JUMPDEST JUMPDEST POP SWAP2 SWAP1 POP JUMP JUMPDEST PUSH32 0x4F776E65722063616E277420706C616365207468652062696400000000000000 PUSH1 0x0 DUP3 ADD MSTORE POP JUMP JUMPDEST PUSH1 0x0 PUSH2 0x2E05 PUSH1 0x19 DUP4 PUSH2 0x2C68 JUMP JUMPDEST SWAP2 POP PUSH2 0x2E10 DUP3 PUSH2 0x2DCF JUMP JUMPDEST PUSH1 0x20 DUP3 ADD SWAP1 POP SWAP2 SWAP1 POP JUMP JUMPDEST PUSH1 0x0 PUSH1 0x20 DUP3 ADD SWAP1 POP DUP2 DUP2 SUB PUSH1 0x0 DUP4 ADD MSTORE PUSH2 0x2E34 DUP2 PUSH2 0x2DF8 JUMP JUMPDEST SWAP1 POP SWAP2 SWAP1 POP JUMP JUMPDEST PUSH32 0x4F70656E2062696420686173206E6F7420737461727465642079657400000000 PUSH1 0x0 DUP3 ADD MSTORE POP JUMP JUMPDEST PUSH1 0x0 PUSH2 0x2E71 PUSH1 0x1C DUP4 PUSH2 0x2C68 JUMP JUMPDEST SWAP2 POP PUSH2 0x2E7C DUP3 PUSH2 0x2E3B JUMP JUMPDEST PUSH1 0x20 DUP3 ADD SWAP1 POP SWAP2 SWAP1 POP JUMP JUMPDEST PUSH1 0x0 PUSH1 0x20 DUP3 ADD SWAP1 POP DUP2 DUP2 SUB PUSH1 0x0 DUP4 ADD MSTORE PUSH2 0x2EA0 DUP2 PUSH2 0x2E64 JUMP JUMPDEST SWAP1 POP SWAP2 SWAP1 POP JUMP JUMPDEST PUSH32 0x4269642070726963652073686F756C64206E6F74206265206C65737320746861 PUSH1 0x0 DUP3 ADD MSTORE PUSH32 0x6E20726573657276652070726963650000000000000000000000000000000000 PUSH1 0x20 DUP3 ADD MSTORE POP JUMP JUMPDEST PUSH1 0x0 PUSH2 0x2F03 PUSH1 0x2F DUP4 PUSH2 0x2C68 JUMP JUMPDEST SWAP2 POP PUSH2 0x2F0E DUP3 PUSH2 0x2EA7 JUMP JUMPDEST PUSH1 0x40 DUP3 ADD SWAP1 POP SWAP2 SWAP1 POP JUMP JUMPDEST PUSH1 0x0 PUSH1 0x20 DUP3 ADD SWAP1 POP DUP2 DUP2 SUB PUSH1 0x0 DUP4 ADD MSTORE PUSH2 0x2F32 DUP2 PUSH2 0x2EF6 JUMP JUMPDEST SWAP1 POP SWAP2 SWAP1 POP JUMP JUMPDEST PUSH32 0x4F6E6C792053656372657420626964207061727469636970616E74732063616E PUSH1 0x0 DUP3 ADD MSTORE PUSH32 0x20706C616365206F70656E206269640000000000000000000000000000000000 PUSH1 0x20 DUP3 ADD MSTORE POP JUMP JUMPDEST PUSH1 0x0 PUSH2 0x2F95 PUSH1 0x2F DUP4 PUSH2 0x2C68 JUMP JUMPDEST SWAP2 POP PUSH2 0x2FA0 DUP3 PUSH2 0x2F39 JUMP JUMPDEST PUSH1 0x40 DUP3 ADD SWAP1 POP SWAP2 SWAP1 POP JUMP JUMPDEST PUSH1 0x0 PUSH1 0x20 DUP3 ADD SWAP1 POP DUP2 DUP2 SUB PUSH1 0x0 DUP4 ADD MSTORE PUSH2 0x2FC4 DUP2 PUSH2 0x2F88 JUMP JUMPDEST SWAP1 POP SWAP2 SWAP1 POP JUMP JUMPDEST PUSH32 0x496E737566696369656E742062616C616E636500000000000000000000000000 PUSH1 0x0 DUP3 ADD MSTORE POP JUMP JUMPDEST PUSH1 0x0 PUSH2 0x3001 PUSH1 0x13 DUP4 PUSH2 0x2C68 JUMP JUMPDEST SWAP2 POP PUSH2 0x300C DUP3 PUSH2 0x2FCB JUMP JUMPDEST PUSH1 0x20 DUP3 ADD SWAP1 POP SWAP2 SWAP1 POP JUMP JUMPDEST PUSH1 0x0 PUSH1 0x20 DUP3 ADD SWAP1 POP DUP2 DUP2 SUB PUSH1 0x0 DUP4 ADD MSTORE PUSH2 0x3030 DUP2 PUSH2 0x2FF4 JUMP JUMPDEST SWAP1 POP SWAP2 SWAP1 POP JUMP JUMPDEST PUSH32 0x4F776E6572206368616E67656400000000000000000000000000000000000000 PUSH1 0x0 DUP3 ADD MSTORE POP JUMP JUMPDEST PUSH1 0x0 PUSH2 0x306D PUSH1 0xD DUP4 PUSH2 0x2C68 JUMP JUMPDEST SWAP2 POP PUSH2 0x3078 DUP3 PUSH2 0x3037 JUMP JUMPDEST PUSH1 0x20 DUP3 ADD SWAP1 POP SWAP2 SWAP1 POP JUMP JUMPDEST PUSH1 0x0 PUSH1 0x40 DUP3 ADD SWAP1 POP PUSH2 0x3098 PUSH1 0x0 DUP4 ADD DUP5 PUSH2 0x26D8 JUMP JUMPDEST DUP2 DUP2 SUB PUSH1 0x20 DUP4 ADD MSTORE PUSH2 0x30A9 DUP2 PUSH2 0x3060 JUMP JUMPDEST SWAP1 POP SWAP3 SWAP2 POP POP JUMP JUMPDEST PUSH32 0x5365637265742042696420686173206E6F742073746172746564207965740000 PUSH1 0x0 DUP3 ADD MSTORE POP JUMP JUMPDEST PUSH1 0x0 PUSH2 0x30E7 PUSH1 0x1E DUP4 PUSH2 0x2C68 JUMP JUMPDEST SWAP2 POP PUSH2 0x30F2 DUP3 PUSH2 0x30B1 JUMP JUMPDEST PUSH1 0x20 DUP3 ADD SWAP1 POP SWAP2 SWAP1 POP JUMP JUMPDEST PUSH1 0x0 PUSH1 0x20 DUP3 ADD SWAP1 POP DUP2 DUP2 SUB PUSH1 0x0 DUP4 ADD MSTORE PUSH2 0x3116 DUP2 PUSH2 0x30DA JUMP JUMPDEST SWAP1 POP SWAP2 SWAP1 POP JUMP JUMPDEST PUSH32 0x4F6E6C79206F776E65722063616E207374617274207468652062696400000000 PUSH1 0x0 DUP3 ADD MSTORE POP JUMP JUMPDEST PUSH1 0x0 PUSH2 0x3153 PUSH1 0x1C DUP4 PUSH2 0x2C68 JUMP JUMPDEST SWAP2 POP PUSH2 0x315E DUP3 PUSH2 0x311D JUMP JUMPDEST PUSH1 0x20 DUP3 ADD SWAP1 POP SWAP2 SWAP1 POP JUMP JUMPDEST PUSH1 0x0 PUSH1 0x20 DUP3 ADD SWAP1 POP DUP2 DUP2 SUB PUSH1 0x0 DUP4 ADD MSTORE PUSH2 0x3182 DUP2 PUSH2 0x3146 JUMP JUMPDEST SWAP1 POP SWAP2 SWAP1 POP JUMP JUMPDEST PUSH32 0x4E487B7100000000000000000000000000000000000000000000000000000000 PUSH1 0x0 MSTORE PUSH1 0x11 PUSH1 0x4 MSTORE PUSH1 0x24 PUSH1 0x0 REVERT JUMPDEST PUSH1 0x0 PUSH2 0x31C3 DUP3 PUSH2 0x2635 JUMP JUMPDEST SWAP2 POP PUSH2 0x31CE DUP4 PUSH2 0x2635 JUMP JUMPDEST SWAP3 POP DUP3 DUP3 MUL PUSH2 0x31DC DUP2 PUSH2 0x2635 JUMP JUMPDEST SWAP2 POP DUP3 DUP3 DIV DUP5 EQ DUP4 ISZERO OR PUSH2 0x31F3 JUMPI PUSH2 0x31F2 PUSH2 0x3189 JUMP JUMPDEST JUMPDEST POP SWAP3 SWAP2 POP POP JUMP JUMPDEST PUSH1 0x0 PUSH1 0x60 DUP3 ADD SWAP1 POP PUSH2 0x320F PUSH1 0x0 DUP4 ADD DUP7 PUSH2 0x26D8 JUMP JUMPDEST PUSH2 0x321C PUSH1 0x20 DUP4 ADD DUP6 PUSH2 0x26D8 JUMP JUMPDEST PUSH2 0x3229 PUSH1 0x40 DUP4 ADD DUP5 PUSH2 0x26D8 JUMP JUMPDEST SWAP5 SWAP4 POP POP POP POP JUMP JUMPDEST PUSH32 0x4E487B7100000000000000000000000000000000000000000000000000000000 PUSH1 0x0 MSTORE PUSH1 0x32 PUSH1 0x4 MSTORE PUSH1 0x24 PUSH1 0x0 REVERT JUMPDEST PUSH1 0x0 PUSH2 0x326B DUP3 PUSH2 0x2AD7 JUMP JUMPDEST SWAP2 POP PUSH1 0xFF DUP3 SUB PUSH2 0x327E JUMPI PUSH2 0x327D PUSH2 0x3189 JUMP JUMPDEST JUMPDEST PUSH1 0x1 DUP3 ADD SWAP1 POP SWAP2 SWAP1 POP JUMP JUMPDEST PUSH1 0x0 DUP2 SWAP1 POP DUP2 PUSH1 0x0 MSTORE PUSH1 0x20 PUSH1 0x0 KECCAK256 SWAP1 POP SWAP2 SWAP1 POP JUMP JUMPDEST PUSH1 0x0 PUSH1 0x20 PUSH1 0x1F DUP4 ADD DIV SWAP1 POP SWAP2 SWAP1 POP JUMP JUMPDEST PUSH1 0x0 DUP3 DUP3 SHL SWAP1 POP SWAP3 SWAP2 POP POP JUMP JUMPDEST PUSH1 0x0 PUSH1 0x8 DUP4 MUL PUSH2 0x32EB PUSH32 0xFFFFFFFFFFFFFFFFFFFFFFFFFFFFFFFFFFFFFFFFFFFFFFFFFFFFFFFFFFFFFFFF DUP3 PUSH2 0x32AE JUMP JUMPDEST PUSH2 0x32F5 DUP7 DUP4 PUSH2 0x32AE JUMP JUMPDEST SWAP6 POP DUP1 NOT DUP5 AND SWAP4 POP DUP1 DUP7 AND DUP5 OR SWAP3 POP POP POP SWAP4 SWAP3 POP POP POP JUMP JUMPDEST PUSH1 0x0 DUP2 SWAP1 POP SWAP2 SWAP1 POP JUMP JUMPDEST PUSH1 0x0 PUSH2 0x3332 PUSH2 0x332D PUSH2 0x3328 DUP5 PUSH2 0x2635 JUMP JUMPDEST PUSH2 0x330D JUMP JUMPDEST PUSH2 0x2635 JUMP JUMPDEST SWAP1 POP SWAP2 SWAP1 POP JUMP JUMPDEST PUSH1 0x0 DUP2 SWAP1 POP SWAP2 SWAP1 POP JUMP JUMPDEST PUSH2 0x334C DUP4 PUSH2 0x3317 JUMP JUMPDEST PUSH2 0x3360 PUSH2 0x3358 DUP3 PUSH2 0x3339 JUMP JUMPDEST DUP5 DUP5 SLOAD PUSH2 0x32BB JUMP JUMPDEST DUP3 SSTORE POP POP POP POP JUMP JUMPDEST PUSH1 0x0 SWAP1 JUMP JUMPDEST PUSH2 0x3375 PUSH2 0x3368 JUMP JUMPDEST PUSH2 0x3380 DUP2 DUP5 DUP5 PUSH2 0x3343 JUMP JUMPDEST POP POP POP JUMP JUMPDEST JUMPDEST DUP2 DUP2 LT ISZERO PUSH2 0x33A4 JUMPI PUSH2 0x3399 PUSH1 0x0 DUP3 PUSH2 0x336D JUMP JUMPDEST PUSH1 0x1 DUP2 ADD SWAP1 POP PUSH2 0x3386 JUMP JUMPDEST POP POP JUMP JUMPDEST PUSH1 0x1F DUP3 GT ISZERO PUSH2 0x33E9 JUMPI PUSH2 0x33BA DUP2 PUSH2 0x3289 JUMP JUMPDEST PUSH2 0x33C3 DUP5 PUSH2 0x329E JUMP JUMPDEST DUP2 ADD PUSH1 0x20 DUP6 LT ISZERO PUSH2 0x33D2 JUMPI DUP2 SWAP1 POP JUMPDEST PUSH2 0x33E6 PUSH2 0x33DE DUP6 PUSH2 0x329E JUMP JUMPDEST DUP4 ADD DUP3 PUSH2 0x3385 JUMP JUMPDEST POP POP JUMPDEST POP POP POP JUMP JUMPDEST PUSH1 0x0 DUP3 DUP3 SHR SWAP1 POP SWAP3 SWAP2 POP POP JUMP JUMPDEST PUSH1 0x0 PUSH2 0x340C PUSH1 0x0 NOT DUP5 PUSH1 0x8 MUL PUSH2 0x33EE JUMP JUMPDEST NOT DUP1 DUP4 AND SWAP2 POP POP SWAP3 SWAP2 POP POP JUMP JUMPDEST PUSH1 0x0 PUSH2 0x3425 DUP4 DUP4 PUSH2 0x33FB JUMP JUMPDEST SWAP2 POP DUP3 PUSH1 0x2 MUL DUP3 OR SWAP1 POP SWAP3 SWAP2 POP POP JUMP JUMPDEST PUSH2 0x343E DUP3 PUSH2 0x272E JUMP JUMPDEST PUSH8 0xFFFFFFFFFFFFFFFF DUP2 GT ISZERO PUSH2 0x3457 JUMPI PUSH2 0x3456 PUSH2 0x29AC JUMP JUMPDEST JUMPDEST PUSH2 0x3461 DUP3 SLOAD PUSH2 0x2D9E JUMP JUMPDEST PUSH2 0x346C DUP3 DUP3 DUP6 PUSH2 0x33A8 JUMP JUMPDEST PUSH1 0x0 PUSH1 0x20 SWAP1 POP PUSH1 0x1F DUP4 GT PUSH1 0x1 DUP2 EQ PUSH2 0x349F JUMPI PUSH1 0x0 DUP5 ISZERO PUSH2 0x348D JUMPI DUP3 DUP8 ADD MLOAD SWAP1 POP JUMPDEST PUSH2 0x3497 DUP6 DUP3 PUSH2 0x3419 JUMP JUMPDEST DUP7 SSTORE POP PUSH2 0x34FF JUMP JUMPDEST PUSH1 0x1F NOT DUP5 AND PUSH2 0x34AD DUP7 PUSH2 0x3289 JUMP JUMPDEST PUSH1 0x0 JUMPDEST DUP3 DUP2 LT ISZERO PUSH2 0x34D5 JUMPI DUP5 DUP10 ADD MLOAD DUP3 SSTORE PUSH1 0x1 DUP3 ADD SWAP2 POP PUSH1 0x20 DUP6 ADD SWAP5 POP PUSH1 0x20 DUP2 ADD SWAP1 POP PUSH2 0x34B0 JUMP JUMPDEST DUP7 DUP4 LT ISZERO PUSH2 0x34F2 JUMPI DUP5 DUP10 ADD MLOAD PUSH2 0x34EE PUSH1 0x1F DUP10 AND DUP3 PUSH2 0x33FB JUMP JUMPDEST DUP4 SSTORE POP JUMPDEST PUSH1 0x1 PUSH1 0x2 DUP9 MUL ADD DUP9 SSTORE POP POP POP JUMPDEST POP POP POP POP POP POP JUMP JUMPDEST PUSH1 0x0 PUSH2 0x3512 DUP3 PUSH2 0x2635 JUMP JUMPDEST SWAP2 POP PUSH32 0xFFFFFFFFFFFFFFFFFFFFFFFFFFFFFFFFFFFFFFFFFFFFFFFFFFFFFFFFFFFFFFFF DUP3 SUB PUSH2 0x3544 JUMPI PUSH2 0x3543 PUSH2 0x3189 JUMP JUMPDEST JUMPDEST PUSH1 0x1 DUP3 ADD SWAP1 POP SWAP2 SWAP1 POP JUMP JUMPDEST PUSH32 0x4F70656E2042696420686173206E6F7420737461727465642079657400000000 PUSH1 0x0 DUP3 ADD MSTORE POP JUMP JUMPDEST PUSH1 0x0 PUSH2 0x3585 PUSH1 0x1C DUP4 PUSH2 0x2C68 JUMP JUMPDEST SWAP2 POP PUSH2 0x3590 DUP3 PUSH2 0x354F JUMP JUMPDEST PUSH1 0x20 DUP3 ADD SWAP1 POP SWAP2 SWAP1 POP JUMP JUMPDEST PUSH1 0x0 PUSH1 0x20 DUP3 ADD SWAP1 POP DUP2 DUP2 SUB PUSH1 0x0 DUP4 ADD MSTORE PUSH2 0x35B4 DUP2 PUSH2 0x3578 JUMP JUMPDEST SWAP1 POP SWAP2 SWAP1 POP JUMP JUMPDEST PUSH1 0x0 PUSH2 0x35C6 DUP3 PUSH2 0x2635 JUMP JUMPDEST SWAP2 POP PUSH2 0x35D1 DUP4 PUSH2 0x2635 JUMP JUMPDEST SWAP3 POP DUP3 DUP3 SUB SWAP1 POP DUP2 DUP2 GT ISZERO PUSH2 0x35E9 JUMPI PUSH2 0x35E8 PUSH2 0x3189 JUMP JUMPDEST JUMPDEST SWAP3 SWAP2 POP POP JUMP JUMPDEST PUSH32 0x4E487B7100000000000000000000000000000000000000000000000000000000 PUSH1 0x0 MSTORE PUSH1 0x12 PUSH1 0x4 MSTORE PUSH1 0x24 PUSH1 0x0 REVERT JUMPDEST PUSH1 0x0 PUSH2 0x3629 DUP3 PUSH2 0x2AD7 JUMP JUMPDEST SWAP2 POP PUSH2 0x3634 DUP4 PUSH2 0x2AD7 JUMP JUMPDEST SWAP3 POP DUP3 PUSH2 0x3644 JUMPI PUSH2 0x3643 PUSH2 0x35EF JUMP JUMPDEST JUMPDEST DUP3 DUP3 DIV SWAP1 POP SWAP3 SWAP2 POP POP JUMP JUMPDEST PUSH1 0x0 PUSH2 0x365A DUP3 PUSH2 0x2635 JUMP JUMPDEST SWAP2 POP PUSH2 0x3665 DUP4 PUSH2 0x2635 JUMP JUMPDEST SWAP3 POP DUP3 PUSH2 0x3675 JUMPI PUSH2 0x3674 PUSH2 0x35EF JUMP JUMPDEST JUMPDEST DUP3 DUP3 DIV SWAP1 POP SWAP3 SWAP2 POP POP JUMP JUMPDEST PUSH32 0x42696420686173206E6F74207374617274656420796574000000000000000000 PUSH1 0x0 DUP3 ADD MSTORE POP JUMP JUMPDEST PUSH1 0x0 PUSH2 0x36B6 PUSH1 0x17 DUP4 PUSH2 0x2C68 JUMP JUMPDEST SWAP2 POP PUSH2 0x36C1 DUP3 PUSH2 0x3680 JUMP JUMPDEST PUSH1 0x20 DUP3 ADD SWAP1 POP SWAP2 SWAP1 POP JUMP JUMPDEST PUSH1 0x0 PUSH1 0x20 DUP3 ADD SWAP1 POP DUP2 DUP2 SUB PUSH1 0x0 DUP4 ADD MSTORE PUSH2 0x36E5 DUP2 PUSH2 0x36A9 JUMP JUMPDEST SWAP1 POP SWAP2 SWAP1 POP JUMP JUMPDEST PUSH32 0x42696420456E6465640000000000000000000000000000000000000000000000 PUSH1 0x0 DUP3 ADD MSTORE POP JUMP JUMPDEST PUSH1 0x0 PUSH2 0x3722 PUSH1 0x9 DUP4 PUSH2 0x2C68 JUMP JUMPDEST SWAP2 POP PUSH2 0x372D DUP3 PUSH2 0x36EC JUMP JUMPDEST PUSH1 0x20 DUP3 ADD SWAP1 POP SWAP2 SWAP1 POP JUMP JUMPDEST PUSH1 0x0 PUSH1 0x40 DUP3 ADD SWAP1 POP PUSH2 0x374D PUSH1 0x0 DUP4 ADD DUP5 PUSH2 0x26D8 JUMP JUMPDEST DUP2 DUP2 SUB PUSH1 0x20 DUP4 ADD MSTORE PUSH2 0x375E DUP2 PUSH2 0x3715 JUMP JUMPDEST SWAP1 POP SWAP3 SWAP2 POP POP JUMP INVALID LOG2 PUSH5 0x6970667358 0x22 SLT KECCAK256 PUSH9 0xEB530DEC999EAD254 NOT 0x25 JUMP STATICCALL 0xE2 0xBE DUP7 0xB7 PUSH8 0x444904A8C3BE29BE 0xE1 0xE4 0xDC LT SWAP12 PUSH5 0x736F6C6343 STOP ADDMOD SLT STOP CALLER "
				},
				"gasEstimates": {
					"creation": {
						"codeDepositCost": "2847200",
						"executionCost": "8113",
						"totalCost": "2855313"
					},
					"external": {
						"addItem(string,string,uint256,uint8)": "infinite",
						"addSecretBid(uint256,uint256)": "infinite",
						"endOpenBid(uint256)": "infinite",
						"getBidState(uint256)": "infinite",
						"getItemCurrentPrice(uint256)": "infinite",
						"getNFTOwners()": "infinite",
						"nftItemCount()": "2496",
						"placeBid(uint256,uint256)": "infinite",
						"startOpenBid(uint256)": "infinite",
						"startSecretBid(uint256)": "infinite"
					},
					"internal": {
						"getBidStateString(enum DutchAuctionSolution.BidState)": "infinite"
					}
				},
				"methodIdentifiers": {
					"addItem(string,string,uint256,uint8)": "ba13634f",
					"addSecretBid(uint256,uint256)": "a49dce67",
					"endOpenBid(uint256)": "ed51dbec",
					"getBidState(uint256)": "bf77ffae",
					"getItemCurrentPrice(uint256)": "cb08a60e",
					"getNFTOwners()": "8e393d83",
					"nftItemCount()": "9c1f6099",
					"placeBid(uint256,uint256)": "57c90de5",
					"startOpenBid(uint256)": "6b881449",
					"startSecretBid(uint256)": "afd3296a"
				}
			},
			"storageLayout": {
				"storage": [
					{
						"astId": 36,
						"contract": "dutch_action_solution.sol:DutchAuctionSolution",
						"label": "nftBidingData",
						"offset": 0,
						"slot": "0",
						"type": "t_mapping(t_uint256,t_struct(NFTBiding)31_storage)"
					},
					{
						"astId": 42,
						"contract": "dutch_action_solution.sol:DutchAuctionSolution",
						"label": "participants",
						"offset": 0,
						"slot": "1",
						"type": "t_mapping(t_uint256,t_mapping(t_address,t_bool))"
					},
					{
						"astId": 47,
						"contract": "dutch_action_solution.sol:DutchAuctionSolution",
						"label": "nftList",
						"offset": 0,
						"slot": "2",
						"type": "t_mapping(t_uint256,t_struct(NFT)19_storage)"
					},
					{
						"astId": 50,
						"contract": "dutch_action_solution.sol:DutchAuctionSolution",
						"label": "nftItemCount",
						"offset": 0,
						"slot": "3",
						"type": "t_uint256"
					}
				],
				"types": {
					"t_address": {
						"encoding": "inplace",
						"label": "address",
						"numberOfBytes": "20"
					},
					"t_address_payable": {
						"encoding": "inplace",
						"label": "address payable",
						"numberOfBytes": "20"
					},
					"t_bool": {
						"encoding": "inplace",
						"label": "bool",
						"numberOfBytes": "1"
					},
					"t_enum(BidState)6": {
						"encoding": "inplace",
						"label": "enum DutchAuctionSolution.BidState",
						"numberOfBytes": "1"
					},
					"t_mapping(t_address,t_bool)": {
						"encoding": "mapping",
						"key": "t_address",
						"label": "mapping(address => bool)",
						"numberOfBytes": "32",
						"value": "t_bool"
					},
					"t_mapping(t_uint256,t_mapping(t_address,t_bool))": {
						"encoding": "mapping",
						"key": "t_uint256",
						"label": "mapping(uint256 => mapping(address => bool))",
						"numberOfBytes": "32",
						"value": "t_mapping(t_address,t_bool)"
					},
					"t_mapping(t_uint256,t_struct(NFT)19_storage)": {
						"encoding": "mapping",
						"key": "t_uint256",
						"label": "mapping(uint256 => struct DutchAuctionSolution.NFT)",
						"numberOfBytes": "32",
						"value": "t_struct(NFT)19_storage"
					},
					"t_mapping(t_uint256,t_struct(NFTBiding)31_storage)": {
						"encoding": "mapping",
						"key": "t_uint256",
						"label": "mapping(uint256 => struct DutchAuctionSolution.NFTBiding)",
						"numberOfBytes": "32",
						"value": "t_struct(NFTBiding)31_storage"
					},
					"t_string_storage": {
						"encoding": "bytes",
						"label": "string",
						"numberOfBytes": "32"
					},
					"t_struct(NFT)19_storage": {
						"encoding": "inplace",
						"label": "struct DutchAuctionSolution.NFT",
						"members": [
							{
								"astId": 8,
								"contract": "dutch_action_solution.sol:DutchAuctionSolution",
								"label": "name",
								"offset": 0,
								"slot": "0",
								"type": "t_string_storage"
							},
							{
								"astId": 10,
								"contract": "dutch_action_solution.sol:DutchAuctionSolution",
								"label": "imageUrl",
								"offset": 0,
								"slot": "1",
								"type": "t_string_storage"
							},
							{
								"astId": 12,
								"contract": "dutch_action_solution.sol:DutchAuctionSolution",
								"label": "id",
								"offset": 0,
								"slot": "2",
								"type": "t_uint256"
							},
							{
								"astId": 14,
								"contract": "dutch_action_solution.sol:DutchAuctionSolution",
								"label": "owner",
								"offset": 0,
								"slot": "3",
								"type": "t_address_payable"
							},
							{
								"astId": 16,
								"contract": "dutch_action_solution.sol:DutchAuctionSolution",
								"label": "isOwner",
								"offset": 20,
								"slot": "3",
								"type": "t_bool"
							},
							{
								"astId": 18,
								"contract": "dutch_action_solution.sol:DutchAuctionSolution",
								"label": "bidState",
								"offset": 0,
								"slot": "4",
								"type": "t_string_storage"
							}
						],
						"numberOfBytes": "160"
					},
					"t_struct(NFTBiding)31_storage": {
						"encoding": "inplace",
						"label": "struct DutchAuctionSolution.NFTBiding",
						"members": [
							{
								"astId": 21,
								"contract": "dutch_action_solution.sol:DutchAuctionSolution",
								"label": "highestBid",
								"offset": 0,
								"slot": "0",
								"type": "t_uint256"
							},
							{
								"astId": 23,
								"contract": "dutch_action_solution.sol:DutchAuctionSolution",
								"label": "maxBidMultiplier",
								"offset": 0,
								"slot": "1",
								"type": "t_uint8"
							},
							{
								"astId": 25,
								"contract": "dutch_action_solution.sol:DutchAuctionSolution",
								"label": "reservePrice",
								"offset": 0,
								"slot": "2",
								"type": "t_uint256"
							},
							{
								"astId": 27,
								"contract": "dutch_action_solution.sol:DutchAuctionSolution",
								"label": "bidStartTime",
								"offset": 0,
								"slot": "3",
								"type": "t_uint256"
							},
							{
								"astId": 30,
								"contract": "dutch_action_solution.sol:DutchAuctionSolution",
								"label": "bidState",
								"offset": 0,
								"slot": "4",
								"type": "t_enum(BidState)6"
							}
						],
						"numberOfBytes": "160"
					},
					"t_uint256": {
						"encoding": "inplace",
						"label": "uint256",
						"numberOfBytes": "32"
					},
					"t_uint8": {
						"encoding": "inplace",
						"label": "uint8",
						"numberOfBytes": "1"
					}
				}
			},
			"userdoc": {
				"kind": "user",
				"methods": {},
				"version": 1
			}
		}
	}
}